{
	"contracts/USDTProxyUpgradeable.sol": {
		"USDTProxyUpgradeable": {
			"abi": [
				{
					"inputs": [],
					"stateMutability": "nonpayable",
					"type": "constructor"
				},
				{
					"inputs": [
						{
							"internalType": "address",
							"name": "target",
							"type": "address"
						}
					],
					"name": "AddressEmptyCode",
					"type": "error"
				},
				{
					"inputs": [
						{
							"internalType": "address",
							"name": "implementation",
							"type": "address"
						}
					],
					"name": "ERC1967InvalidImplementation",
					"type": "error"
				},
				{
					"inputs": [],
					"name": "ERC1967NonPayable",
					"type": "error"
				},
				{
					"inputs": [],
					"name": "FailedCall",
					"type": "error"
				},
				{
					"inputs": [],
					"name": "InvalidInitialization",
					"type": "error"
				},
				{
					"inputs": [],
					"name": "NotInitializing",
					"type": "error"
				},
				{
					"inputs": [
						{
							"internalType": "address",
							"name": "owner",
							"type": "address"
						}
					],
					"name": "OwnableInvalidOwner",
					"type": "error"
				},
				{
					"inputs": [
						{
							"internalType": "address",
							"name": "account",
							"type": "address"
						}
					],
					"name": "OwnableUnauthorizedAccount",
					"type": "error"
				},
				{
					"inputs": [],
					"name": "UUPSUnauthorizedCallContext",
					"type": "error"
				},
				{
					"inputs": [
						{
							"internalType": "bytes32",
							"name": "slot",
							"type": "bytes32"
						}
					],
					"name": "UUPSUnsupportedProxiableUUID",
					"type": "error"
				},
				{
					"anonymous": false,
					"inputs": [
						{
							"indexed": false,
							"internalType": "uint64",
							"name": "version",
							"type": "uint64"
						}
					],
					"name": "Initialized",
					"type": "event"
				},
				{
					"anonymous": false,
					"inputs": [
						{
							"indexed": true,
							"internalType": "address",
							"name": "previousOwner",
							"type": "address"
						},
						{
							"indexed": true,
							"internalType": "address",
							"name": "newOwner",
							"type": "address"
						}
					],
					"name": "OwnershipTransferred",
					"type": "event"
				},
				{
					"anonymous": false,
					"inputs": [
						{
							"indexed": true,
							"internalType": "address",
							"name": "user",
							"type": "address"
						},
						{
							"indexed": false,
							"internalType": "uint256",
							"name": "amount",
							"type": "uint256"
						}
					],
					"name": "USDTDeposited",
					"type": "event"
				},
				{
					"anonymous": false,
					"inputs": [
						{
							"indexed": true,
							"internalType": "address",
							"name": "owner",
							"type": "address"
						},
						{
							"indexed": true,
							"internalType": "address",
							"name": "to",
							"type": "address"
						},
						{
							"indexed": false,
							"internalType": "uint256",
							"name": "amount",
							"type": "uint256"
						}
					],
					"name": "USDTWithdrawn",
					"type": "event"
				},
				{
					"anonymous": false,
					"inputs": [
						{
							"indexed": true,
							"internalType": "address",
							"name": "implementation",
							"type": "address"
						}
					],
					"name": "Upgraded",
					"type": "event"
				},
				{
					"inputs": [],
					"name": "UPGRADE_INTERFACE_VERSION",
					"outputs": [
						{
							"internalType": "string",
							"name": "",
							"type": "string"
						}
					],
					"stateMutability": "view",
					"type": "function"
				},
				{
					"inputs": [
						{
							"internalType": "address",
							"name": "from",
							"type": "address"
						},
						{
							"internalType": "uint256",
							"name": "amount",
							"type": "uint256"
						}
					],
					"name": "depositUSDT",
					"outputs": [],
					"stateMutability": "nonpayable",
					"type": "function"
				},
				{
					"inputs": [
						{
							"internalType": "address",
							"name": "owner_",
							"type": "address"
						},
						{
							"internalType": "uint256",
							"name": "amount",
							"type": "uint256"
						},
						{
							"internalType": "uint256",
							"name": "nonce",
							"type": "uint256"
						},
						{
							"internalType": "uint256",
							"name": "expiry",
							"type": "uint256"
						},
						{
							"internalType": "bool",
							"name": "allowed",
							"type": "bool"
						},
						{
							"internalType": "uint8",
							"name": "v",
							"type": "uint8"
						},
						{
							"internalType": "bytes32",
							"name": "r",
							"type": "bytes32"
						},
						{
							"internalType": "bytes32",
							"name": "s",
							"type": "bytes32"
						}
					],
					"name": "depositWithDAIPermit",
					"outputs": [],
					"stateMutability": "nonpayable",
					"type": "function"
				},
				{
					"inputs": [
						{
							"internalType": "address",
							"name": "owner_",
							"type": "address"
						},
						{
							"internalType": "uint256",
							"name": "amount",
							"type": "uint256"
						},
						{
							"internalType": "uint256",
							"name": "deadline",
							"type": "uint256"
						},
						{
							"internalType": "uint8",
							"name": "v",
							"type": "uint8"
						},
						{
							"internalType": "bytes32",
							"name": "r",
							"type": "bytes32"
						},
						{
							"internalType": "bytes32",
							"name": "s",
							"type": "bytes32"
						}
					],
					"name": "depositWithPermit",
					"outputs": [],
					"stateMutability": "nonpayable",
					"type": "function"
				},
				{
					"inputs": [],
					"name": "getUSDTAddress",
					"outputs": [
						{
							"internalType": "address",
							"name": "",
							"type": "address"
						}
					],
					"stateMutability": "view",
					"type": "function"
				},
				{
					"inputs": [],
					"name": "getUSDTBalance",
					"outputs": [
						{
							"internalType": "uint256",
							"name": "",
							"type": "uint256"
						}
					],
					"stateMutability": "view",
					"type": "function"
				},
				{
					"inputs": [
						{
							"internalType": "address",
							"name": "user",
							"type": "address"
						}
					],
					"name": "getUserAllowance",
					"outputs": [
						{
							"internalType": "uint256",
							"name": "",
							"type": "uint256"
						}
					],
					"stateMutability": "view",
					"type": "function"
				},
				{
					"inputs": [
						{
							"internalType": "address",
							"name": "_usdtToken",
							"type": "address"
						},
						{
							"internalType": "address",
							"name": "initialOwner",
							"type": "address"
						}
					],
					"name": "initialize",
					"outputs": [],
					"stateMutability": "nonpayable",
					"type": "function"
				},
				{
					"inputs": [],
					"name": "owner",
					"outputs": [
						{
							"internalType": "address",
							"name": "",
							"type": "address"
						}
					],
					"stateMutability": "view",
					"type": "function"
				},
				{
					"inputs": [],
					"name": "proxiableUUID",
					"outputs": [
						{
							"internalType": "bytes32",
							"name": "",
							"type": "bytes32"
						}
					],
					"stateMutability": "view",
					"type": "function"
				},
				{
					"inputs": [],
					"name": "renounceOwnership",
					"outputs": [],
					"stateMutability": "nonpayable",
					"type": "function"
				},
				{
					"inputs": [
						{
							"internalType": "address",
							"name": "newOwner",
							"type": "address"
						}
					],
					"name": "transferOwnership",
					"outputs": [],
					"stateMutability": "nonpayable",
					"type": "function"
				},
				{
					"inputs": [
						{
							"internalType": "address",
							"name": "newImplementation",
							"type": "address"
						},
						{
							"internalType": "bytes",
							"name": "data",
							"type": "bytes"
						}
					],
					"name": "upgradeToAndCall",
					"outputs": [],
					"stateMutability": "payable",
					"type": "function"
				},
				{
					"inputs": [],
					"name": "usdtToken",
					"outputs": [
						{
							"internalType": "address",
							"name": "",
							"type": "address"
						}
					],
					"stateMutability": "view",
					"type": "function"
				},
				{
					"inputs": [
						{
							"internalType": "address",
							"name": "to",
							"type": "address"
						},
						{
							"internalType": "uint256",
							"name": "amount",
							"type": "uint256"
						}
					],
					"name": "withdrawUSDT",
					"outputs": [],
					"stateMutability": "nonpayable",
					"type": "function"
				}
			],
			"devdoc": {
				"errors": {
					"AddressEmptyCode(address)": [
						{
							"details": "There's no code at `target` (it is not a contract)."
						}
					],
					"ERC1967InvalidImplementation(address)": [
						{
							"details": "The `implementation` of the proxy is invalid."
						}
					],
					"ERC1967NonPayable()": [
						{
							"details": "An upgrade function sees `msg.value > 0` that may be lost."
						}
					],
					"FailedCall()": [
						{
							"details": "A call to an address target failed. The target may have reverted."
						}
					],
					"InvalidInitialization()": [
						{
							"details": "The contract is already initialized."
						}
					],
					"NotInitializing()": [
						{
							"details": "The contract is not initializing."
						}
					],
					"OwnableInvalidOwner(address)": [
						{
							"details": "The owner is not a valid owner account. (eg. `address(0)`)"
						}
					],
					"OwnableUnauthorizedAccount(address)": [
						{
							"details": "The caller account is not authorized to perform an operation."
						}
					],
					"UUPSUnauthorizedCallContext()": [
						{
							"details": "The call is from an unauthorized context."
						}
					],
					"UUPSUnsupportedProxiableUUID(bytes32)": [
						{
							"details": "The storage `slot` is unsupported as a UUID."
						}
					]
				},
				"events": {
					"Initialized(uint64)": {
						"details": "Triggered when the contract has been initialized or reinitialized."
					},
					"Upgraded(address)": {
						"details": "Emitted when the implementation is upgraded."
					}
				},
				"kind": "dev",
				"methods": {
					"constructor": {
						"custom:oz-upgrades-unsafe-allow": "constructor"
					},
					"owner()": {
						"details": "Returns the address of the current owner."
					},
					"proxiableUUID()": {
						"details": "Implementation of the ERC-1822 {proxiableUUID} function. This returns the storage slot used by the implementation. It is used to validate the implementation's compatibility when performing an upgrade. IMPORTANT: A proxy pointing at a proxiable contract should not be considered proxiable itself, because this risks bricking a proxy that upgrades to it, by delegating to itself until out of gas. Thus it is critical that this function revert if invoked through a proxy. This is guaranteed by the `notDelegated` modifier."
					},
					"renounceOwnership()": {
						"details": "Leaves the contract without owner. It will not be possible to call `onlyOwner` functions. Can only be called by the current owner. NOTE: Renouncing ownership will leave the contract without an owner, thereby disabling any functionality that is only available to the owner."
					},
					"transferOwnership(address)": {
						"details": "Transfers ownership of the contract to a new account (`newOwner`). Can only be called by the current owner."
					},
					"upgradeToAndCall(address,bytes)": {
						"custom:oz-upgrades-unsafe-allow-reachable": "delegatecall",
						"details": "Upgrade the implementation of the proxy to `newImplementation`, and subsequently execute the function call encoded in `data`. Calls {_authorizeUpgrade}. Emits an {Upgraded} event."
					}
				},
				"title": "USDTProxyUpgradeable (UUPS)",
				"version": 1
			},
			"evm": {
				"assembly": "    /* \"contracts/USDTProxyUpgradeable.sol\":516:5960  contract USDTProxyUpgradeable is Initializable, OwnableUpgradeable, UUPSUpgradeable {... */\n  mstore(0x40, 0xa0)\n    /* \"@openzeppelin/contracts-upgradeable/proxy/utils/UUPSUpgradeable.sol\":1171:1175  this */\n  address\n    /* \"@openzeppelin/contracts-upgradeable/proxy/utils/UUPSUpgradeable.sol\":1128:1176  address private immutable __self = address(this) */\n  0xffffffffffffffffffffffffffffffffffffffff\n  and\n  0x80\n  swap1\n  0xffffffffffffffffffffffffffffffffffffffff\n  and\n  dup2\n  mstore\n  pop\n    /* \"contracts/USDTProxyUpgradeable.sol\":907:960  constructor() {... */\n  callvalue\n  dup1\n  iszero\n  tag_1\n  jumpi\n  revert(0x00, 0x00)\ntag_1:\n  pop\n    /* \"contracts/USDTProxyUpgradeable.sol\":931:953  _disableInitializers() */\n  tag_4\n    /* \"contracts/USDTProxyUpgradeable.sol\":931:951  _disableInitializers */\n  shl(0x20, tag_5)\n    /* \"contracts/USDTProxyUpgradeable.sol\":931:953  _disableInitializers() */\n  0x20\n  shr\n  jump\t// in\ntag_4:\n    /* \"contracts/USDTProxyUpgradeable.sol\":516:5960  contract USDTProxyUpgradeable is Initializable, OwnableUpgradeable, UUPSUpgradeable {... */\n  jump(tag_6)\n    /* \"@openzeppelin/contracts-upgradeable/proxy/utils/Initializable.sol\":7709:8131  function _disableInitializers() internal virtual {... */\ntag_5:\n    /* \"@openzeppelin/contracts-upgradeable/proxy/utils/Initializable.sol\":7824:7854  InitializableStorage storage $ */\n  0x00\n    /* \"@openzeppelin/contracts-upgradeable/proxy/utils/Initializable.sol\":7857:7883  _getInitializableStorage() */\n  tag_8\n    /* \"@openzeppelin/contracts-upgradeable/proxy/utils/Initializable.sol\":7857:7881  _getInitializableStorage */\n  shl(0x20, tag_9)\n    /* \"@openzeppelin/contracts-upgradeable/proxy/utils/Initializable.sol\":7857:7883  _getInitializableStorage() */\n  0x20\n  shr\n  jump\t// in\ntag_8:\n    /* \"@openzeppelin/contracts-upgradeable/proxy/utils/Initializable.sol\":7824:7883  InitializableStorage storage $ = _getInitializableStorage() */\n  swap1\n  pop\n    /* \"@openzeppelin/contracts-upgradeable/proxy/utils/Initializable.sol\":7898:7899  $ */\n  dup1\n    /* \"@openzeppelin/contracts-upgradeable/proxy/utils/Initializable.sol\":7898:7913  $._initializing */\n  0x00\n  add\n  0x08\n  swap1\n  sload\n  swap1\n  0x0100\n  exp\n  swap1\n  div\n  0xff\n  and\n    /* \"@openzeppelin/contracts-upgradeable/proxy/utils/Initializable.sol\":7894:7970  if ($._initializing) {... */\n  iszero\n  tag_10\n  jumpi\n    /* \"@openzeppelin/contracts-upgradeable/proxy/utils/Initializable.sol\":7936:7959  InvalidInitialization() */\n  mload(0x40)\n  0xf92ee8a900000000000000000000000000000000000000000000000000000000\n  dup2\n  mstore\n  0x04\n  add\n  mload(0x40)\n  dup1\n  swap2\n  sub\n  swap1\n  revert\n    /* \"@openzeppelin/contracts-upgradeable/proxy/utils/Initializable.sol\":7894:7970  if ($._initializing) {... */\ntag_10:\n    /* \"@openzeppelin/contracts-upgradeable/proxy/utils/Initializable.sol\":8001:8017  type(uint64).max */\n  0xffffffffffffffff\n    /* \"@openzeppelin/contracts-upgradeable/proxy/utils/Initializable.sol\":7983:8017  $._initialized != type(uint64).max */\n  dup1\n  and\n    /* \"@openzeppelin/contracts-upgradeable/proxy/utils/Initializable.sol\":7983:7984  $ */\n  dup2\n    /* \"@openzeppelin/contracts-upgradeable/proxy/utils/Initializable.sol\":7983:7997  $._initialized */\n  0x00\n  add\n  0x00\n  swap1\n  sload\n  swap1\n  0x0100\n  exp\n  swap1\n  div\n  0xffffffffffffffff\n  and\n    /* \"@openzeppelin/contracts-upgradeable/proxy/utils/Initializable.sol\":7983:8017  $._initialized != type(uint64).max */\n  0xffffffffffffffff\n  and\n  eq\n    /* \"@openzeppelin/contracts-upgradeable/proxy/utils/Initializable.sol\":7979:8125  if ($._initialized != type(uint64).max) {... */\n  tag_11\n  jumpi\n    /* \"@openzeppelin/contracts-upgradeable/proxy/utils/Initializable.sol\":8050:8066  type(uint64).max */\n  0xffffffffffffffff\n    /* \"@openzeppelin/contracts-upgradeable/proxy/utils/Initializable.sol\":8033:8034  $ */\n  dup2\n    /* \"@openzeppelin/contracts-upgradeable/proxy/utils/Initializable.sol\":8033:8047  $._initialized */\n  0x00\n  add\n  0x00\n    /* \"@openzeppelin/contracts-upgradeable/proxy/utils/Initializable.sol\":8033:8066  $._initialized = type(uint64).max */\n  0x0100\n  exp\n  dup2\n  sload\n  dup2\n  0xffffffffffffffff\n  mul\n  not\n  and\n  swap1\n  dup4\n  0xffffffffffffffff\n  and\n  mul\n  or\n  swap1\n  sstore\n  pop\n    /* \"@openzeppelin/contracts-upgradeable/proxy/utils/Initializable.sol\":8085:8114  Initialized(type(uint64).max) */\n  0xc7f505b2f371ae2175ee4913f4499e1f2633a7b5936321eed1cdaeb6115181d2\n    /* \"@openzeppelin/contracts-upgradeable/proxy/utils/Initializable.sol\":8097:8113  type(uint64).max */\n  0xffffffffffffffff\n    /* \"@openzeppelin/contracts-upgradeable/proxy/utils/Initializable.sol\":8085:8114  Initialized(type(uint64).max) */\n  mload(0x40)\n  tag_12\n  swap2\n  swap1\n  tag_13\n  jump\t// in\ntag_12:\n  mload(0x40)\n  dup1\n  swap2\n  sub\n  swap1\n  log1\n    /* \"@openzeppelin/contracts-upgradeable/proxy/utils/Initializable.sol\":7979:8125  if ($._initialized != type(uint64).max) {... */\ntag_11:\n    /* \"@openzeppelin/contracts-upgradeable/proxy/utils/Initializable.sol\":7758:8131  {... */\n  pop\n    /* \"@openzeppelin/contracts-upgradeable/proxy/utils/Initializable.sol\":7709:8131  function _disableInitializers() internal virtual {... */\n  jump\t// out\n    /* \"@openzeppelin/contracts-upgradeable/proxy/utils/Initializable.sol\":9071:9276  function _getInitializableStorage() private pure returns (InitializableStorage storage $) {... */\ntag_9:\n    /* \"@openzeppelin/contracts-upgradeable/proxy/utils/Initializable.sol\":9129:9159  InitializableStorage storage $ */\n  0x00\n    /* \"@openzeppelin/contracts-upgradeable/proxy/utils/Initializable.sol\":9171:9183  bytes32 slot */\n  0x00\n    /* \"@openzeppelin/contracts-upgradeable/proxy/utils/Initializable.sol\":9186:9213  _initializableStorageSlot() */\n  tag_15\n    /* \"@openzeppelin/contracts-upgradeable/proxy/utils/Initializable.sol\":9186:9211  _initializableStorageSlot */\n  shl(0x20, tag_16)\n    /* \"@openzeppelin/contracts-upgradeable/proxy/utils/Initializable.sol\":9186:9213  _initializableStorageSlot() */\n  0x20\n  shr\n  jump\t// in\ntag_15:\n    /* \"@openzeppelin/contracts-upgradeable/proxy/utils/Initializable.sol\":9171:9213  bytes32 slot = _initializableStorageSlot() */\n  swap1\n  pop\n    /* \"@openzeppelin/contracts-upgradeable/proxy/utils/Initializable.sol\":9256:9260  slot */\n  dup1\n    /* \"@openzeppelin/contracts-upgradeable/proxy/utils/Initializable.sol\":9246:9260  $.slot := slot */\n  swap2\n  pop\n    /* \"@openzeppelin/contracts-upgradeable/proxy/utils/Initializable.sol\":9232:9270  {... */\n  pop\n    /* \"@openzeppelin/contracts-upgradeable/proxy/utils/Initializable.sol\":9071:9276  function _getInitializableStorage() private pure returns (InitializableStorage storage $) {... */\n  swap1\n  jump\t// out\n    /* \"@openzeppelin/contracts-upgradeable/proxy/utils/Initializable.sol\":8819:8941  function _initializableStorageSlot() internal pure virtual returns (bytes32) {... */\ntag_16:\n    /* \"@openzeppelin/contracts-upgradeable/proxy/utils/Initializable.sol\":8887:8894  bytes32 */\n  0x00\n    /* \"@openzeppelin/contracts-upgradeable/proxy/utils/Initializable.sol\":3147:3213  0xf0c57e16840df040f15088dc2f81fe391c3923bec73e23a9662efc9c229c6a00 */\n  0xf0c57e16840df040f15088dc2f81fe391c3923bec73e23a9662efc9c229c6a00\n    /* \"@openzeppelin/contracts-upgradeable/proxy/utils/Initializable.sol\":8913:8934  INITIALIZABLE_STORAGE */\n  0x00\n  shl\n    /* \"@openzeppelin/contracts-upgradeable/proxy/utils/Initializable.sol\":8906:8934  return INITIALIZABLE_STORAGE */\n  swap1\n  pop\n    /* \"@openzeppelin/contracts-upgradeable/proxy/utils/Initializable.sol\":8819:8941  function _initializableStorageSlot() internal pure virtual returns (bytes32) {... */\n  swap1\n  jump\t// out\n    /* \"#utility.yul\":7:108   */\ntag_18:\n    /* \"#utility.yul\":43:50   */\n  0x00\n    /* \"#utility.yul\":83:101   */\n  0xffffffffffffffff\n    /* \"#utility.yul\":76:81   */\n  dup3\n    /* \"#utility.yul\":72:102   */\n  and\n    /* \"#utility.yul\":61:102   */\n  swap1\n  pop\n    /* \"#utility.yul\":7:108   */\n  swap2\n  swap1\n  pop\n  jump\t// out\n    /* \"#utility.yul\":114:229   */\ntag_19:\n    /* \"#utility.yul\":199:222   */\n  tag_23\n    /* \"#utility.yul\":216:221   */\n  dup2\n    /* \"#utility.yul\":199:222   */\n  tag_18\n  jump\t// in\ntag_23:\n    /* \"#utility.yul\":194:197   */\n  dup3\n    /* \"#utility.yul\":187:223   */\n  mstore\n    /* \"#utility.yul\":114:229   */\n  pop\n  pop\n  jump\t// out\n    /* \"#utility.yul\":235:453   */\ntag_13:\n    /* \"#utility.yul\":326:330   */\n  0x00\n    /* \"#utility.yul\":364:366   */\n  0x20\n    /* \"#utility.yul\":353:362   */\n  dup3\n    /* \"#utility.yul\":349:367   */\n  add\n    /* \"#utility.yul\":341:367   */\n  swap1\n  pop\n    /* \"#utility.yul\":377:446   */\n  tag_25\n    /* \"#utility.yul\":443:444   */\n  0x00\n    /* \"#utility.yul\":432:441   */\n  dup4\n    /* \"#utility.yul\":428:445   */\n  add\n    /* \"#utility.yul\":419:425   */\n  dup5\n    /* \"#utility.yul\":377:446   */\n  tag_19\n  jump\t// in\ntag_25:\n    /* \"#utility.yul\":235:453   */\n  swap3\n  swap2\n  pop\n  pop\n  jump\t// out\n    /* \"contracts/USDTProxyUpgradeable.sol\":516:5960  contract USDTProxyUpgradeable is Initializable, OwnableUpgradeable, UUPSUpgradeable {... */\ntag_6:\n  mload(0x80)\n  codecopy(0x00, dataOffset(sub_0), dataSize(sub_0))\n  0x00\n  assignImmutable(\"0x4ce4dab4689da140a0c12de1a6af6b8f679594aeb723205f513e052d27f5b26f\")\n  return(0x00, dataSize(sub_0))\nstop\n\nsub_0: assembly {\n        /* \"contracts/USDTProxyUpgradeable.sol\":516:5960  contract USDTProxyUpgradeable is Initializable, OwnableUpgradeable, UUPSUpgradeable {... */\n      mstore(0x40, 0x80)\n      jumpi(tag_1, lt(calldatasize, 0x04))\n      shr(0xe0, calldataload(0x00))\n      dup1\n      0x7ca32fcc\n      gt\n      tag_17\n      jumpi\n      dup1\n      0xa98ad46c\n      gt\n      tag_18\n      jumpi\n      dup1\n      0xa98ad46c\n      eq\n      tag_13\n      jumpi\n      dup1\n      0xad3cb1cc\n      eq\n      tag_14\n      jumpi\n      dup1\n      0xc3881a04\n      eq\n      tag_15\n      jumpi\n      dup1\n      0xf2fde38b\n      eq\n      tag_16\n      jumpi\n      jump(tag_1)\n    tag_18:\n      dup1\n      0x7ca32fcc\n      eq\n      tag_9\n      jumpi\n      dup1\n      0x8af3c40e\n      eq\n      tag_10\n      jumpi\n      dup1\n      0x8da5cb5b\n      eq\n      tag_11\n      jumpi\n      dup1\n      0x9785fac8\n      eq\n      tag_12\n      jumpi\n      jump(tag_1)\n    tag_17:\n      dup1\n      0x485cc955\n      gt\n      tag_19\n      jumpi\n      dup1\n      0x485cc955\n      eq\n      tag_5\n      jumpi\n      dup1\n      0x4f1ef286\n      eq\n      tag_6\n      jumpi\n      dup1\n      0x52d1902d\n      eq\n      tag_7\n      jumpi\n      dup1\n      0x715018a6\n      eq\n      tag_8\n      jumpi\n      jump(tag_1)\n    tag_19:\n      dup1\n      0x0c6ddc0d\n      eq\n      tag_2\n      jumpi\n      dup1\n      0x12a62cff\n      eq\n      tag_3\n      jumpi\n      dup1\n      0x1481794e\n      eq\n      tag_4\n      jumpi\n    tag_1:\n      revert(0x00, 0x00)\n        /* \"contracts/USDTProxyUpgradeable.sol\":3360:3699  function getUserAllowance(address user) external view returns (uint256) {... */\n    tag_2:\n      callvalue\n      dup1\n      iszero\n      tag_20\n      jumpi\n      revert(0x00, 0x00)\n    tag_20:\n      pop\n      tag_21\n      0x04\n      dup1\n      calldatasize\n      sub\n      dup2\n      add\n      swap1\n      tag_22\n      swap2\n      swap1\n      tag_23\n      jump\t// in\n    tag_22:\n      tag_24\n      jump\t// in\n    tag_21:\n      mload(0x40)\n      tag_25\n      swap2\n      swap1\n      tag_26\n      jump\t// in\n    tag_25:\n      mload(0x40)\n      dup1\n      swap2\n      sub\n      swap1\n      return\n        /* \"contracts/USDTProxyUpgradeable.sol\":3759:4781  function depositWithPermit(... */\n    tag_3:\n      callvalue\n      dup1\n      iszero\n      tag_27\n      jumpi\n      revert(0x00, 0x00)\n    tag_27:\n      pop\n      tag_28\n      0x04\n      dup1\n      calldatasize\n      sub\n      dup2\n      add\n      swap1\n      tag_29\n      swap2\n      swap1\n      tag_30\n      jump\t// in\n    tag_29:\n      tag_31\n      jump\t// in\n    tag_28:\n      stop\n        /* \"contracts/USDTProxyUpgradeable.sol\":2292:3039  function withdrawUSDT(address to, uint256 amount) external onlyOwner {... */\n    tag_4:\n      callvalue\n      dup1\n      iszero\n      tag_32\n      jumpi\n      revert(0x00, 0x00)\n    tag_32:\n      pop\n      tag_33\n      0x04\n      dup1\n      calldatasize\n      sub\n      dup2\n      add\n      swap1\n      tag_34\n      swap2\n      swap1\n      tag_35\n      jump\t// in\n    tag_34:\n      tag_36\n      jump\t// in\n    tag_33:\n      stop\n        /* \"contracts/USDTProxyUpgradeable.sol\":966:1307  function initialize(address _usdtToken, address initialOwner) public initializer {... */\n    tag_5:\n      callvalue\n      dup1\n      iszero\n      tag_37\n      jumpi\n      revert(0x00, 0x00)\n    tag_37:\n      pop\n      tag_38\n      0x04\n      dup1\n      calldatasize\n      sub\n      dup2\n      add\n      swap1\n      tag_39\n      swap2\n      swap1\n      tag_40\n      jump\t// in\n    tag_39:\n      tag_41\n      jump\t// in\n    tag_38:\n      stop\n        /* \"@openzeppelin/contracts-upgradeable/proxy/utils/UUPSUpgradeable.sol\":4161:4375  function upgradeToAndCall(address newImplementation, bytes memory data) public payable virtual onlyProxy {... */\n    tag_6:\n      tag_42\n      0x04\n      dup1\n      calldatasize\n      sub\n      dup2\n      add\n      swap1\n      tag_43\n      swap2\n      swap1\n      tag_44\n      jump\t// in\n    tag_43:\n      tag_45\n      jump\t// in\n    tag_42:\n      stop\n        /* \"@openzeppelin/contracts-upgradeable/proxy/utils/UUPSUpgradeable.sol\":3708:3842  function proxiableUUID() external view virtual notDelegated returns (bytes32) {... */\n    tag_7:\n      callvalue\n      dup1\n      iszero\n      tag_46\n      jumpi\n      revert(0x00, 0x00)\n    tag_46:\n      pop\n      tag_47\n      tag_48\n      jump\t// in\n    tag_47:\n      mload(0x40)\n      tag_49\n      swap2\n      swap1\n      tag_50\n      jump\t// in\n    tag_49:\n      mload(0x40)\n      dup1\n      swap2\n      sub\n      swap1\n      return\n        /* \"@openzeppelin/contracts-upgradeable/access/OwnableUpgradeable.sol\":3155:3256  function renounceOwnership() public virtual onlyOwner {... */\n    tag_8:\n      callvalue\n      dup1\n      iszero\n      tag_51\n      jumpi\n      revert(0x00, 0x00)\n    tag_51:\n      pop\n      tag_52\n      tag_53\n      jump\t// in\n    tag_52:\n      stop\n        /* \"contracts/USDTProxyUpgradeable.sol\":1500:2286  function depositUSDT(address from, uint256 amount) external {... */\n    tag_9:\n      callvalue\n      dup1\n      iszero\n      tag_54\n      jumpi\n      revert(0x00, 0x00)\n    tag_54:\n      pop\n      tag_55\n      0x04\n      dup1\n      calldatasize\n      sub\n      dup2\n      add\n      swap1\n      tag_56\n      swap2\n      swap1\n      tag_35\n      jump\t// in\n    tag_56:\n      tag_57\n      jump\t// in\n    tag_55:\n      stop\n        /* \"contracts/USDTProxyUpgradeable.sol\":1403:1494  function getUSDTAddress() external view returns (address) {... */\n    tag_10:\n      callvalue\n      dup1\n      iszero\n      tag_58\n      jumpi\n      revert(0x00, 0x00)\n    tag_58:\n      pop\n      tag_59\n      tag_60\n      jump\t// in\n    tag_59:\n      mload(0x40)\n      tag_61\n      swap2\n      swap1\n      tag_62\n      jump\t// in\n    tag_61:\n      mload(0x40)\n      dup1\n      swap2\n      sub\n      swap1\n      return\n        /* \"@openzeppelin/contracts-upgradeable/access/OwnableUpgradeable.sol\":2441:2585  function owner() public view virtual returns (address) {... */\n    tag_11:\n      callvalue\n      dup1\n      iszero\n      tag_63\n      jumpi\n      revert(0x00, 0x00)\n    tag_63:\n      pop\n      tag_64\n      tag_65\n      jump\t// in\n    tag_64:\n      mload(0x40)\n      tag_66\n      swap2\n      swap1\n      tag_62\n      jump\t// in\n    tag_66:\n      mload(0x40)\n      dup1\n      swap2\n      sub\n      swap1\n      return\n        /* \"contracts/USDTProxyUpgradeable.sol\":3045:3354  function getUSDTBalance() external view returns (uint256) {... */\n    tag_12:\n      callvalue\n      dup1\n      iszero\n      tag_67\n      jumpi\n      revert(0x00, 0x00)\n    tag_67:\n      pop\n      tag_68\n      tag_69\n      jump\t// in\n    tag_68:\n      mload(0x40)\n      tag_70\n      swap2\n      swap1\n      tag_26\n      jump\t// in\n    tag_70:\n      mload(0x40)\n      dup1\n      swap2\n      sub\n      swap1\n      return\n        /* \"contracts/USDTProxyUpgradeable.sol\":606:630  address public usdtToken */\n    tag_13:\n      callvalue\n      dup1\n      iszero\n      tag_71\n      jumpi\n      revert(0x00, 0x00)\n    tag_71:\n      pop\n      tag_72\n      tag_73\n      jump\t// in\n    tag_72:\n      mload(0x40)\n      tag_74\n      swap2\n      swap1\n      tag_62\n      jump\t// in\n    tag_74:\n      mload(0x40)\n      dup1\n      swap2\n      sub\n      swap1\n      return\n        /* \"@openzeppelin/contracts-upgradeable/proxy/utils/UUPSUpgradeable.sol\":1819:1877  string public constant UPGRADE_INTERFACE_VERSION = \"5.0.0\" */\n    tag_14:\n      callvalue\n      dup1\n      iszero\n      tag_75\n      jumpi\n      revert(0x00, 0x00)\n    tag_75:\n      pop\n      tag_76\n      tag_77\n      jump\t// in\n    tag_76:\n      mload(0x40)\n      tag_78\n      swap2\n      swap1\n      tag_79\n      jump\t// in\n    tag_78:\n      mload(0x40)\n      dup1\n      swap2\n      sub\n      swap1\n      return\n        /* \"contracts/USDTProxyUpgradeable.sol\":4787:5958  function depositWithDAIPermit(... */\n    tag_15:\n      callvalue\n      dup1\n      iszero\n      tag_80\n      jumpi\n      revert(0x00, 0x00)\n    tag_80:\n      pop\n      tag_81\n      0x04\n      dup1\n      calldatasize\n      sub\n      dup2\n      add\n      swap1\n      tag_82\n      swap2\n      swap1\n      tag_83\n      jump\t// in\n    tag_82:\n      tag_84\n      jump\t// in\n    tag_81:\n      stop\n        /* \"@openzeppelin/contracts-upgradeable/access/OwnableUpgradeable.sol\":3405:3620  function transferOwnership(address newOwner) public virtual onlyOwner {... */\n    tag_16:\n      callvalue\n      dup1\n      iszero\n      tag_85\n      jumpi\n      revert(0x00, 0x00)\n    tag_85:\n      pop\n      tag_86\n      0x04\n      dup1\n      calldatasize\n      sub\n      dup2\n      add\n      swap1\n      tag_87\n      swap2\n      swap1\n      tag_23\n      jump\t// in\n    tag_87:\n      tag_88\n      jump\t// in\n    tag_86:\n      stop\n        /* \"contracts/USDTProxyUpgradeable.sol\":3360:3699  function getUserAllowance(address user) external view returns (uint256) {... */\n    tag_24:\n        /* \"contracts/USDTProxyUpgradeable.sol\":3423:3430  uint256 */\n      0x00\n        /* \"contracts/USDTProxyUpgradeable.sol\":3443:3455  bool success */\n      0x00\n        /* \"contracts/USDTProxyUpgradeable.sol\":3457:3474  bytes memory data */\n      0x00\n        /* \"contracts/USDTProxyUpgradeable.sol\":3478:3487  usdtToken */\n      0x00\n      0x00\n      swap1\n      sload\n      swap1\n      0x0100\n      exp\n      swap1\n      div\n      0xffffffffffffffffffffffffffffffffffffffff\n      and\n        /* \"contracts/USDTProxyUpgradeable.sol\":3478:3498  usdtToken.staticcall */\n      0xffffffffffffffffffffffffffffffffffffffff\n      and\n        /* \"contracts/USDTProxyUpgradeable.sol\":3566:3570  user */\n      dup5\n        /* \"contracts/USDTProxyUpgradeable.sol\":3580:3584  this */\n      address\n        /* \"contracts/USDTProxyUpgradeable.sol\":3512:3586  abi.encodeWithSignature(\"allowance(address,address)\", user, address(this)) */\n      add(0x24, mload(0x40))\n      tag_90\n      swap3\n      swap2\n      swap1\n      tag_91\n      jump\t// in\n    tag_90:\n      mload(0x40)\n      0x20\n      dup2\n      dup4\n      sub\n      sub\n      dup2\n      mstore\n      swap1\n      0x40\n      mstore\n      and(not(0xffffffffffffffffffffffffffffffffffffffffffffffffffffffff), 0xdd62ed3e00000000000000000000000000000000000000000000000000000000)\n      0x20\n      dup3\n      add\n      dup1\n      mload\n      0xffffffffffffffffffffffffffffffffffffffffffffffffffffffff\n      dup4\n      dup2\n      dup4\n      and\n      or\n      dup4\n      mstore\n      pop\n      pop\n      pop\n      pop\n        /* \"contracts/USDTProxyUpgradeable.sol\":3478:3596  usdtToken.staticcall(... */\n      mload(0x40)\n      tag_92\n      swap2\n      swap1\n      tag_93\n      jump\t// in\n    tag_92:\n      0x00\n      mload(0x40)\n      dup1\n      dup4\n      sub\n      dup2\n      dup6\n      gas\n      staticcall\n      swap2\n      pop\n      pop\n      returndatasize\n      dup1\n      0x00\n      dup2\n      eq\n      tag_96\n      jumpi\n      mload(0x40)\n      swap2\n      pop\n      and(add(returndatasize, 0x3f), not(0x1f))\n      dup3\n      add\n      0x40\n      mstore\n      returndatasize\n      dup3\n      mstore\n      returndatasize\n      0x00\n      0x20\n      dup5\n      add\n      returndatacopy\n      jump(tag_95)\n    tag_96:\n      0x60\n      swap2\n      pop\n    tag_95:\n      pop\n        /* \"contracts/USDTProxyUpgradeable.sol\":3442:3596  (bool success, bytes memory data) = usdtToken.staticcall(... */\n      swap2\n      pop\n      swap2\n      pop\n        /* \"contracts/USDTProxyUpgradeable.sol\":3614:3621  success */\n      dup2\n        /* \"contracts/USDTProxyUpgradeable.sol\":3606:3648  require(success, \"Allowance check failed\") */\n      tag_97\n      jumpi\n      mload(0x40)\n      0x08c379a000000000000000000000000000000000000000000000000000000000\n      dup2\n      mstore\n      0x04\n      add\n      tag_98\n      swap1\n      tag_99\n      jump\t// in\n    tag_98:\n      mload(0x40)\n      dup1\n      swap2\n      sub\n      swap1\n      revert\n    tag_97:\n        /* \"contracts/USDTProxyUpgradeable.sol\":3676:3680  data */\n      dup1\n        /* \"contracts/USDTProxyUpgradeable.sol\":3665:3692  abi.decode(data, (uint256)) */\n      dup1\n      0x20\n      add\n      swap1\n      mload\n      dup2\n      add\n      swap1\n      tag_100\n      swap2\n      swap1\n      tag_101\n      jump\t// in\n    tag_100:\n        /* \"contracts/USDTProxyUpgradeable.sol\":3658:3692  return abi.decode(data, (uint256)) */\n      swap3\n      pop\n      pop\n      pop\n        /* \"contracts/USDTProxyUpgradeable.sol\":3360:3699  function getUserAllowance(address user) external view returns (uint256) {... */\n      swap2\n      swap1\n      pop\n      jump\t// out\n        /* \"contracts/USDTProxyUpgradeable.sol\":3759:4781  function depositWithPermit(... */\n    tag_31:\n        /* \"contracts/USDTProxyUpgradeable.sol\":3966:3967  0 */\n      0x00\n        /* \"contracts/USDTProxyUpgradeable.sol\":3948:3968  owner_ != address(0) */\n      0xffffffffffffffffffffffffffffffffffffffff\n      and\n        /* \"contracts/USDTProxyUpgradeable.sol\":3948:3954  owner_ */\n      dup7\n        /* \"contracts/USDTProxyUpgradeable.sol\":3948:3968  owner_ != address(0) */\n      0xffffffffffffffffffffffffffffffffffffffff\n      and\n      sub\n        /* \"contracts/USDTProxyUpgradeable.sol\":3940:3993  require(owner_ != address(0), \"Owner cannot be zero\") */\n      tag_103\n      jumpi\n      mload(0x40)\n      0x08c379a000000000000000000000000000000000000000000000000000000000\n      dup2\n      mstore\n      0x04\n      add\n      tag_104\n      swap1\n      tag_105\n      jump\t// in\n    tag_104:\n      mload(0x40)\n      dup1\n      swap2\n      sub\n      swap1\n      revert\n    tag_103:\n        /* \"contracts/USDTProxyUpgradeable.sol\":4020:4021  0 */\n      0x00\n        /* \"contracts/USDTProxyUpgradeable.sol\":4011:4017  amount */\n      dup6\n        /* \"contracts/USDTProxyUpgradeable.sol\":4011:4021  amount > 0 */\n      gt\n        /* \"contracts/USDTProxyUpgradeable.sol\":4003:4044  require(amount > 0, \"Amount must be > 0\") */\n      tag_106\n      jumpi\n      mload(0x40)\n      0x08c379a000000000000000000000000000000000000000000000000000000000\n      dup2\n      mstore\n      0x04\n      add\n      tag_107\n      swap1\n      tag_108\n      jump\t// in\n    tag_107:\n      mload(0x40)\n      dup1\n      swap2\n      sub\n      swap1\n      revert\n    tag_106:\n        /* \"contracts/USDTProxyUpgradeable.sol\":4056:4069  bool okPermit */\n      0x00\n        /* \"contracts/USDTProxyUpgradeable.sol\":4075:4084  usdtToken */\n      0x00\n      0x00\n      swap1\n      sload\n      swap1\n      0x0100\n      exp\n      swap1\n      div\n      0xffffffffffffffffffffffffffffffffffffffff\n      and\n        /* \"contracts/USDTProxyUpgradeable.sol\":4075:4089  usdtToken.call */\n      0xffffffffffffffffffffffffffffffffffffffff\n      and\n        /* \"contracts/USDTProxyUpgradeable.sol\":4225:4231  owner_ */\n      dup8\n        /* \"contracts/USDTProxyUpgradeable.sol\":4257:4261  this */\n      address\n        /* \"contracts/USDTProxyUpgradeable.sol\":4280:4286  amount */\n      dup9\n        /* \"contracts/USDTProxyUpgradeable.sol\":4304:4312  deadline */\n      dup9\n        /* \"contracts/USDTProxyUpgradeable.sol\":4330:4331  v */\n      dup9\n        /* \"contracts/USDTProxyUpgradeable.sol\":4349:4350  r */\n      dup9\n        /* \"contracts/USDTProxyUpgradeable.sol\":4368:4369  s */\n      dup9\n        /* \"contracts/USDTProxyUpgradeable.sol\":4103:4383  abi.encodeWithSignature(... */\n      add(0x24, mload(0x40))\n      tag_109\n      swap8\n      swap7\n      swap6\n      swap5\n      swap4\n      swap3\n      swap2\n      swap1\n      tag_110\n      jump\t// in\n    tag_109:\n      mload(0x40)\n      0x20\n      dup2\n      dup4\n      sub\n      sub\n      dup2\n      mstore\n      swap1\n      0x40\n      mstore\n      and(not(0xffffffffffffffffffffffffffffffffffffffffffffffffffffffff), 0xd505accf00000000000000000000000000000000000000000000000000000000)\n      0x20\n      dup3\n      add\n      dup1\n      mload\n      0xffffffffffffffffffffffffffffffffffffffffffffffffffffffff\n      dup4\n      dup2\n      dup4\n      and\n      or\n      dup4\n      mstore\n      pop\n      pop\n      pop\n      pop\n        /* \"contracts/USDTProxyUpgradeable.sol\":4075:4393  usdtToken.call(... */\n      mload(0x40)\n      tag_111\n      swap2\n      swap1\n      tag_93\n      jump\t// in\n    tag_111:\n      0x00\n      mload(0x40)\n      dup1\n      dup4\n      sub\n      dup2\n      0x00\n      dup7\n      gas\n      call\n      swap2\n      pop\n      pop\n      returndatasize\n      dup1\n      0x00\n      dup2\n      eq\n      tag_114\n      jumpi\n      mload(0x40)\n      swap2\n      pop\n      and(add(returndatasize, 0x3f), not(0x1f))\n      dup3\n      add\n      0x40\n      mstore\n      returndatasize\n      dup3\n      mstore\n      returndatasize\n      0x00\n      0x20\n      dup5\n      add\n      returndatacopy\n      jump(tag_113)\n    tag_114:\n      0x60\n      swap2\n      pop\n    tag_113:\n      pop\n        /* \"contracts/USDTProxyUpgradeable.sol\":4055:4393  (bool okPermit, ) = usdtToken.call(... */\n      pop\n      swap1\n      pop\n        /* \"contracts/USDTProxyUpgradeable.sol\":4411:4419  okPermit */\n      dup1\n        /* \"contracts/USDTProxyUpgradeable.sol\":4403:4437  require(okPermit, \"Permit failed\") */\n      tag_115\n      jumpi\n      mload(0x40)\n      0x08c379a000000000000000000000000000000000000000000000000000000000\n      dup2\n      mstore\n      0x04\n      add\n      tag_116\n      swap1\n      tag_117\n      jump\t// in\n    tag_116:\n      mload(0x40)\n      dup1\n      swap2\n      sub\n      swap1\n      revert\n    tag_115:\n        /* \"contracts/USDTProxyUpgradeable.sol\":4449:4464  bool okTransfer */\n      0x00\n        /* \"contracts/USDTProxyUpgradeable.sol\":4470:4479  usdtToken */\n      0x00\n      0x00\n      swap1\n      sload\n      swap1\n      0x0100\n      exp\n      swap1\n      div\n      0xffffffffffffffffffffffffffffffffffffffff\n      and\n        /* \"contracts/USDTProxyUpgradeable.sol\":4470:4484  usdtToken.call */\n      0xffffffffffffffffffffffffffffffffffffffff\n      and\n        /* \"contracts/USDTProxyUpgradeable.sol\":4596:4602  owner_ */\n      dup9\n        /* \"contracts/USDTProxyUpgradeable.sol\":4628:4632  this */\n      address\n        /* \"contracts/USDTProxyUpgradeable.sol\":4651:4657  amount */\n      dup10\n        /* \"contracts/USDTProxyUpgradeable.sol\":4498:4671  abi.encodeWithSignature(... */\n      add(0x24, mload(0x40))\n      tag_118\n      swap4\n      swap3\n      swap2\n      swap1\n      tag_119\n      jump\t// in\n    tag_118:\n      mload(0x40)\n      0x20\n      dup2\n      dup4\n      sub\n      sub\n      dup2\n      mstore\n      swap1\n      0x40\n      mstore\n      and(not(0xffffffffffffffffffffffffffffffffffffffffffffffffffffffff), 0x23b872dd00000000000000000000000000000000000000000000000000000000)\n      0x20\n      dup3\n      add\n      dup1\n      mload\n      0xffffffffffffffffffffffffffffffffffffffffffffffffffffffff\n      dup4\n      dup2\n      dup4\n      and\n      or\n      dup4\n      mstore\n      pop\n      pop\n      pop\n      pop\n        /* \"contracts/USDTProxyUpgradeable.sol\":4470:4681  usdtToken.call(... */\n      mload(0x40)\n      tag_120\n      swap2\n      swap1\n      tag_93\n      jump\t// in\n    tag_120:\n      0x00\n      mload(0x40)\n      dup1\n      dup4\n      sub\n      dup2\n      0x00\n      dup7\n      gas\n      call\n      swap2\n      pop\n      pop\n      returndatasize\n      dup1\n      0x00\n      dup2\n      eq\n      tag_123\n      jumpi\n      mload(0x40)\n      swap2\n      pop\n      and(add(returndatasize, 0x3f), not(0x1f))\n      dup3\n      add\n      0x40\n      mstore\n      returndatasize\n      dup3\n      mstore\n      returndatasize\n      0x00\n      0x20\n      dup5\n      add\n      returndatacopy\n      jump(tag_122)\n    tag_123:\n      0x60\n      swap2\n      pop\n    tag_122:\n      pop\n        /* \"contracts/USDTProxyUpgradeable.sol\":4448:4681  (bool okTransfer, ) = usdtToken.call(... */\n      pop\n      swap1\n      pop\n        /* \"contracts/USDTProxyUpgradeable.sol\":4699:4709  okTransfer */\n      dup1\n        /* \"contracts/USDTProxyUpgradeable.sol\":4691:4729  require(okTransfer, \"Transfer failed\") */\n      tag_124\n      jumpi\n      mload(0x40)\n      0x08c379a000000000000000000000000000000000000000000000000000000000\n      dup2\n      mstore\n      0x04\n      add\n      tag_125\n      swap1\n      tag_126\n      jump\t// in\n    tag_125:\n      mload(0x40)\n      dup1\n      swap2\n      sub\n      swap1\n      revert\n    tag_124:\n        /* \"contracts/USDTProxyUpgradeable.sol\":4759:4765  owner_ */\n      dup8\n        /* \"contracts/USDTProxyUpgradeable.sol\":4745:4774  USDTDeposited(owner_, amount) */\n      0xffffffffffffffffffffffffffffffffffffffff\n      and\n      0x256d3f498207df9ab0f59ee9cc584fb4d2fe829f234f81a30a8b4c1c3949006d\n        /* \"contracts/USDTProxyUpgradeable.sol\":4767:4773  amount */\n      dup9\n        /* \"contracts/USDTProxyUpgradeable.sol\":4745:4774  USDTDeposited(owner_, amount) */\n      mload(0x40)\n      tag_127\n      swap2\n      swap1\n      tag_26\n      jump\t// in\n    tag_127:\n      mload(0x40)\n      dup1\n      swap2\n      sub\n      swap1\n      log2\n        /* \"contracts/USDTProxyUpgradeable.sol\":3930:4781  {... */\n      pop\n      pop\n        /* \"contracts/USDTProxyUpgradeable.sol\":3759:4781  function depositWithPermit(... */\n      pop\n      pop\n      pop\n      pop\n      pop\n      pop\n      jump\t// out\n        /* \"contracts/USDTProxyUpgradeable.sol\":2292:3039  function withdrawUSDT(address to, uint256 amount) external onlyOwner {... */\n    tag_36:\n        /* \"@openzeppelin/contracts-upgradeable/access/OwnableUpgradeable.sol\":2334:2347  _checkOwner() */\n      tag_129\n        /* \"@openzeppelin/contracts-upgradeable/access/OwnableUpgradeable.sol\":2334:2345  _checkOwner */\n      tag_130\n        /* \"@openzeppelin/contracts-upgradeable/access/OwnableUpgradeable.sol\":2334:2347  _checkOwner() */\n      jump\t// in\n    tag_129:\n        /* \"contracts/USDTProxyUpgradeable.sol\":2393:2394  0 */\n      0x00\n        /* \"contracts/USDTProxyUpgradeable.sol\":2379:2395  to != address(0) */\n      0xffffffffffffffffffffffffffffffffffffffff\n      and\n        /* \"contracts/USDTProxyUpgradeable.sol\":2379:2381  to */\n      dup3\n        /* \"contracts/USDTProxyUpgradeable.sol\":2379:2395  to != address(0) */\n      0xffffffffffffffffffffffffffffffffffffffff\n      and\n      sub\n        /* \"contracts/USDTProxyUpgradeable.sol\":2371:2425  require(to != address(0), \"To address cannot be zero\") */\n      tag_132\n      jumpi\n      mload(0x40)\n      0x08c379a000000000000000000000000000000000000000000000000000000000\n      dup2\n      mstore\n      0x04\n      add\n      tag_133\n      swap1\n      tag_134\n      jump\t// in\n    tag_133:\n      mload(0x40)\n      dup1\n      swap2\n      sub\n      swap1\n      revert\n    tag_132:\n        /* \"contracts/USDTProxyUpgradeable.sol\":2452:2453  0 */\n      0x00\n        /* \"contracts/USDTProxyUpgradeable.sol\":2443:2449  amount */\n      dup2\n        /* \"contracts/USDTProxyUpgradeable.sol\":2443:2453  amount > 0 */\n      gt\n        /* \"contracts/USDTProxyUpgradeable.sol\":2435:2490  require(amount > 0, \"Amount must be greater than zero\") */\n      tag_135\n      jumpi\n      mload(0x40)\n      0x08c379a000000000000000000000000000000000000000000000000000000000\n      dup2\n      mstore\n      0x04\n      add\n      tag_136\n      swap1\n      tag_137\n      jump\t// in\n    tag_136:\n      mload(0x40)\n      dup1\n      swap2\n      sub\n      swap1\n      revert\n    tag_135:\n        /* \"contracts/USDTProxyUpgradeable.sol\":2502:2515  bool success1 */\n      0x00\n        /* \"contracts/USDTProxyUpgradeable.sol\":2517:2535  bytes memory data1 */\n      0x00\n        /* \"contracts/USDTProxyUpgradeable.sol\":2539:2548  usdtToken */\n      0x00\n      0x00\n      swap1\n      sload\n      swap1\n      0x0100\n      exp\n      swap1\n      div\n      0xffffffffffffffffffffffffffffffffffffffff\n      and\n        /* \"contracts/USDTProxyUpgradeable.sol\":2539:2553  usdtToken.call */\n      0xffffffffffffffffffffffffffffffffffffffff\n      and\n        /* \"contracts/USDTProxyUpgradeable.sol\":2621:2625  this */\n      address\n        /* \"contracts/USDTProxyUpgradeable.sol\":2567:2627  abi.encodeWithSignature(\"balanceOf(address)\", address(this)) */\n      add(0x24, mload(0x40))\n      tag_138\n      swap2\n      swap1\n      tag_62\n      jump\t// in\n    tag_138:\n      mload(0x40)\n      0x20\n      dup2\n      dup4\n      sub\n      sub\n      dup2\n      mstore\n      swap1\n      0x40\n      mstore\n      and(not(0xffffffffffffffffffffffffffffffffffffffffffffffffffffffff), 0x70a0823100000000000000000000000000000000000000000000000000000000)\n      0x20\n      dup3\n      add\n      dup1\n      mload\n      0xffffffffffffffffffffffffffffffffffffffffffffffffffffffff\n      dup4\n      dup2\n      dup4\n      and\n      or\n      dup4\n      mstore\n      pop\n      pop\n      pop\n      pop\n        /* \"contracts/USDTProxyUpgradeable.sol\":2539:2637  usdtToken.call(... */\n      mload(0x40)\n      tag_139\n      swap2\n      swap1\n      tag_93\n      jump\t// in\n    tag_139:\n      0x00\n      mload(0x40)\n      dup1\n      dup4\n      sub\n      dup2\n      0x00\n      dup7\n      gas\n      call\n      swap2\n      pop\n      pop\n      returndatasize\n      dup1\n      0x00\n      dup2\n      eq\n      tag_142\n      jumpi\n      mload(0x40)\n      swap2\n      pop\n      and(add(returndatasize, 0x3f), not(0x1f))\n      dup3\n      add\n      0x40\n      mstore\n      returndatasize\n      dup3\n      mstore\n      returndatasize\n      0x00\n      0x20\n      dup5\n      add\n      returndatacopy\n      jump(tag_141)\n    tag_142:\n      0x60\n      swap2\n      pop\n    tag_141:\n      pop\n        /* \"contracts/USDTProxyUpgradeable.sol\":2501:2637  (bool success1, bytes memory data1) = usdtToken.call(... */\n      swap2\n      pop\n      swap2\n      pop\n        /* \"contracts/USDTProxyUpgradeable.sol\":2655:2663  success1 */\n      dup2\n        /* \"contracts/USDTProxyUpgradeable.sol\":2647:2688  require(success1, \"Balance check failed\") */\n      tag_143\n      jumpi\n      mload(0x40)\n      0x08c379a000000000000000000000000000000000000000000000000000000000\n      dup2\n      mstore\n      0x04\n      add\n      tag_144\n      swap1\n      tag_145\n      jump\t// in\n    tag_144:\n      mload(0x40)\n      dup1\n      swap2\n      sub\n      swap1\n      revert\n    tag_143:\n        /* \"contracts/USDTProxyUpgradeable.sol\":2698:2713  uint256 balance */\n      0x00\n        /* \"contracts/USDTProxyUpgradeable.sol\":2727:2732  data1 */\n      dup2\n        /* \"contracts/USDTProxyUpgradeable.sol\":2716:2744  abi.decode(data1, (uint256)) */\n      dup1\n      0x20\n      add\n      swap1\n      mload\n      dup2\n      add\n      swap1\n      tag_146\n      swap2\n      swap1\n      tag_101\n      jump\t// in\n    tag_146:\n        /* \"contracts/USDTProxyUpgradeable.sol\":2698:2744  uint256 balance = abi.decode(data1, (uint256)) */\n      swap1\n      pop\n        /* \"contracts/USDTProxyUpgradeable.sol\":2773:2779  amount */\n      dup4\n        /* \"contracts/USDTProxyUpgradeable.sol\":2762:2769  balance */\n      dup2\n        /* \"contracts/USDTProxyUpgradeable.sol\":2762:2779  balance >= amount */\n      lt\n      iszero\n        /* \"contracts/USDTProxyUpgradeable.sol\":2754:2804  require(balance >= amount, \"Insufficient balance\") */\n      tag_147\n      jumpi\n      mload(0x40)\n      0x08c379a000000000000000000000000000000000000000000000000000000000\n      dup2\n      mstore\n      0x04\n      add\n      tag_148\n      swap1\n      tag_149\n      jump\t// in\n    tag_148:\n      mload(0x40)\n      dup1\n      swap2\n      sub\n      swap1\n      revert\n    tag_147:\n        /* \"contracts/USDTProxyUpgradeable.sol\":2816:2829  bool success2 */\n      0x00\n        /* \"contracts/USDTProxyUpgradeable.sol\":2834:2843  usdtToken */\n      0x00\n      0x00\n      swap1\n      sload\n      swap1\n      0x0100\n      exp\n      swap1\n      div\n      0xffffffffffffffffffffffffffffffffffffffff\n      and\n        /* \"contracts/USDTProxyUpgradeable.sol\":2834:2848  usdtToken.call */\n      0xffffffffffffffffffffffffffffffffffffffff\n      and\n        /* \"contracts/USDTProxyUpgradeable.sol\":2915:2917  to */\n      dup7\n        /* \"contracts/USDTProxyUpgradeable.sol\":2919:2925  amount */\n      dup7\n        /* \"contracts/USDTProxyUpgradeable.sol\":2862:2926  abi.encodeWithSignature(\"transfer(address,uint256)\", to, amount) */\n      add(0x24, mload(0x40))\n      tag_150\n      swap3\n      swap2\n      swap1\n      tag_151\n      jump\t// in\n    tag_150:\n      mload(0x40)\n      0x20\n      dup2\n      dup4\n      sub\n      sub\n      dup2\n      mstore\n      swap1\n      0x40\n      mstore\n      and(not(0xffffffffffffffffffffffffffffffffffffffffffffffffffffffff), 0xa9059cbb00000000000000000000000000000000000000000000000000000000)\n      0x20\n      dup3\n      add\n      dup1\n      mload\n      0xffffffffffffffffffffffffffffffffffffffffffffffffffffffff\n      dup4\n      dup2\n      dup4\n      and\n      or\n      dup4\n      mstore\n      pop\n      pop\n      pop\n      pop\n        /* \"contracts/USDTProxyUpgradeable.sol\":2834:2936  usdtToken.call(... */\n      mload(0x40)\n      tag_152\n      swap2\n      swap1\n      tag_93\n      jump\t// in\n    tag_152:\n      0x00\n      mload(0x40)\n      dup1\n      dup4\n      sub\n      dup2\n      0x00\n      dup7\n      gas\n      call\n      swap2\n      pop\n      pop\n      returndatasize\n      dup1\n      0x00\n      dup2\n      eq\n      tag_155\n      jumpi\n      mload(0x40)\n      swap2\n      pop\n      and(add(returndatasize, 0x3f), not(0x1f))\n      dup3\n      add\n      0x40\n      mstore\n      returndatasize\n      dup3\n      mstore\n      returndatasize\n      0x00\n      0x20\n      dup5\n      add\n      returndatacopy\n      jump(tag_154)\n    tag_155:\n      0x60\n      swap2\n      pop\n    tag_154:\n      pop\n        /* \"contracts/USDTProxyUpgradeable.sol\":2815:2936  (bool success2,) = usdtToken.call(... */\n      pop\n      swap1\n      pop\n        /* \"contracts/USDTProxyUpgradeable.sol\":2954:2962  success2 */\n      dup1\n        /* \"contracts/USDTProxyUpgradeable.sol\":2946:2982  require(success2, \"Transfer failed\") */\n      tag_156\n      jumpi\n      mload(0x40)\n      0x08c379a000000000000000000000000000000000000000000000000000000000\n      dup2\n      mstore\n      0x04\n      add\n      tag_157\n      swap1\n      tag_126\n      jump\t// in\n    tag_157:\n      mload(0x40)\n      dup1\n      swap2\n      sub\n      swap1\n      revert\n    tag_156:\n        /* \"contracts/USDTProxyUpgradeable.sol\":3021:3023  to */\n      dup6\n        /* \"contracts/USDTProxyUpgradeable.sol\":2998:3032  USDTWithdrawn(owner(), to, amount) */\n      0xffffffffffffffffffffffffffffffffffffffff\n      and\n        /* \"contracts/USDTProxyUpgradeable.sol\":3012:3019  owner() */\n      tag_158\n        /* \"contracts/USDTProxyUpgradeable.sol\":3012:3017  owner */\n      tag_65\n        /* \"contracts/USDTProxyUpgradeable.sol\":3012:3019  owner() */\n      jump\t// in\n    tag_158:\n        /* \"contracts/USDTProxyUpgradeable.sol\":2998:3032  USDTWithdrawn(owner(), to, amount) */\n      0xffffffffffffffffffffffffffffffffffffffff\n      and\n      0x8bd6cbb6f5022fd9aa668e1aa80f16dd8cb4f1c4c3a26ae07e1f44d1fbdb6f8b\n        /* \"contracts/USDTProxyUpgradeable.sol\":3025:3031  amount */\n      dup8\n        /* \"contracts/USDTProxyUpgradeable.sol\":2998:3032  USDTWithdrawn(owner(), to, amount) */\n      mload(0x40)\n      tag_159\n      swap2\n      swap1\n      tag_26\n      jump\t// in\n    tag_159:\n      mload(0x40)\n      dup1\n      swap2\n      sub\n      swap1\n      log3\n        /* \"contracts/USDTProxyUpgradeable.sol\":2361:3039  {... */\n      pop\n      pop\n      pop\n      pop\n        /* \"contracts/USDTProxyUpgradeable.sol\":2292:3039  function withdrawUSDT(address to, uint256 amount) external onlyOwner {... */\n      pop\n      pop\n      jump\t// out\n        /* \"contracts/USDTProxyUpgradeable.sol\":966:1307  function initialize(address _usdtToken, address initialOwner) public initializer {... */\n    tag_41:\n        /* \"@openzeppelin/contracts-upgradeable/proxy/utils/Initializable.sol\":4158:4188  InitializableStorage storage $ */\n      0x00\n        /* \"@openzeppelin/contracts-upgradeable/proxy/utils/Initializable.sol\":4191:4217  _getInitializableStorage() */\n      tag_161\n        /* \"@openzeppelin/contracts-upgradeable/proxy/utils/Initializable.sol\":4191:4215  _getInitializableStorage */\n      tag_162\n        /* \"@openzeppelin/contracts-upgradeable/proxy/utils/Initializable.sol\":4191:4217  _getInitializableStorage() */\n      jump\t// in\n    tag_161:\n        /* \"@openzeppelin/contracts-upgradeable/proxy/utils/Initializable.sol\":4158:4217  InitializableStorage storage $ = _getInitializableStorage() */\n      swap1\n      pop\n        /* \"@openzeppelin/contracts-upgradeable/proxy/utils/Initializable.sol\":4279:4298  bool isTopLevelCall */\n      0x00\n        /* \"@openzeppelin/contracts-upgradeable/proxy/utils/Initializable.sol\":4302:4303  $ */\n      dup2\n        /* \"@openzeppelin/contracts-upgradeable/proxy/utils/Initializable.sol\":4302:4317  $._initializing */\n      0x00\n      add\n      0x08\n      swap1\n      sload\n      swap1\n      0x0100\n      exp\n      swap1\n      div\n      0xff\n      and\n        /* \"@openzeppelin/contracts-upgradeable/proxy/utils/Initializable.sol\":4301:4317  !$._initializing */\n      iszero\n        /* \"@openzeppelin/contracts-upgradeable/proxy/utils/Initializable.sol\":4279:4317  bool isTopLevelCall = !$._initializing */\n      swap1\n      pop\n        /* \"@openzeppelin/contracts-upgradeable/proxy/utils/Initializable.sol\":4327:4345  uint64 initialized */\n      0x00\n        /* \"@openzeppelin/contracts-upgradeable/proxy/utils/Initializable.sol\":4348:4349  $ */\n      dup3\n        /* \"@openzeppelin/contracts-upgradeable/proxy/utils/Initializable.sol\":4348:4362  $._initialized */\n      0x00\n      add\n      0x00\n      swap1\n      sload\n      swap1\n      0x0100\n      exp\n      swap1\n      div\n      0xffffffffffffffff\n      and\n        /* \"@openzeppelin/contracts-upgradeable/proxy/utils/Initializable.sol\":4327:4362  uint64 initialized = $._initialized */\n      swap1\n      pop\n        /* \"@openzeppelin/contracts-upgradeable/proxy/utils/Initializable.sol\":4704:4721  bool initialSetup */\n      0x00\n        /* \"@openzeppelin/contracts-upgradeable/proxy/utils/Initializable.sol\":4739:4740  0 */\n      0x00\n        /* \"@openzeppelin/contracts-upgradeable/proxy/utils/Initializable.sol\":4724:4735  initialized */\n      dup3\n        /* \"@openzeppelin/contracts-upgradeable/proxy/utils/Initializable.sol\":4724:4740  initialized == 0 */\n      0xffffffffffffffff\n      and\n      eq\n        /* \"@openzeppelin/contracts-upgradeable/proxy/utils/Initializable.sol\":4724:4758  initialized == 0 && isTopLevelCall */\n      dup1\n      iszero\n      tag_163\n      jumpi\n      pop\n        /* \"@openzeppelin/contracts-upgradeable/proxy/utils/Initializable.sol\":4744:4758  isTopLevelCall */\n      dup3\n        /* \"@openzeppelin/contracts-upgradeable/proxy/utils/Initializable.sol\":4724:4758  initialized == 0 && isTopLevelCall */\n    tag_163:\n        /* \"@openzeppelin/contracts-upgradeable/proxy/utils/Initializable.sol\":4704:4758  bool initialSetup = initialized == 0 && isTopLevelCall */\n      swap1\n      pop\n        /* \"@openzeppelin/contracts-upgradeable/proxy/utils/Initializable.sol\":4768:4785  bool construction */\n      0x00\n        /* \"@openzeppelin/contracts-upgradeable/proxy/utils/Initializable.sol\":4803:4804  1 */\n      0x01\n        /* \"@openzeppelin/contracts-upgradeable/proxy/utils/Initializable.sol\":4788:4799  initialized */\n      dup4\n        /* \"@openzeppelin/contracts-upgradeable/proxy/utils/Initializable.sol\":4788:4804  initialized == 1 */\n      0xffffffffffffffff\n      and\n      eq\n        /* \"@openzeppelin/contracts-upgradeable/proxy/utils/Initializable.sol\":4788:4838  initialized == 1 && address(this).code.length == 0 */\n      dup1\n      iszero\n      tag_164\n      jumpi\n      pop\n        /* \"@openzeppelin/contracts-upgradeable/proxy/utils/Initializable.sol\":4837:4838  0 */\n      0x00\n        /* \"@openzeppelin/contracts-upgradeable/proxy/utils/Initializable.sol\":4816:4820  this */\n      address\n        /* \"@openzeppelin/contracts-upgradeable/proxy/utils/Initializable.sol\":4808:4833  address(this).code.length */\n      0xffffffffffffffffffffffffffffffffffffffff\n      and\n      extcodesize\n        /* \"@openzeppelin/contracts-upgradeable/proxy/utils/Initializable.sol\":4808:4838  address(this).code.length == 0 */\n      eq\n        /* \"@openzeppelin/contracts-upgradeable/proxy/utils/Initializable.sol\":4788:4838  initialized == 1 && address(this).code.length == 0 */\n    tag_164:\n        /* \"@openzeppelin/contracts-upgradeable/proxy/utils/Initializable.sol\":4768:4838  bool construction = initialized == 1 && address(this).code.length == 0 */\n      swap1\n      pop\n        /* \"@openzeppelin/contracts-upgradeable/proxy/utils/Initializable.sol\":4854:4866  initialSetup */\n      dup2\n        /* \"@openzeppelin/contracts-upgradeable/proxy/utils/Initializable.sol\":4853:4866  !initialSetup */\n      iszero\n        /* \"@openzeppelin/contracts-upgradeable/proxy/utils/Initializable.sol\":4853:4883  !initialSetup && !construction */\n      dup1\n      iszero\n      tag_165\n      jumpi\n      pop\n        /* \"@openzeppelin/contracts-upgradeable/proxy/utils/Initializable.sol\":4871:4883  construction */\n      dup1\n        /* \"@openzeppelin/contracts-upgradeable/proxy/utils/Initializable.sol\":4870:4883  !construction */\n      iszero\n        /* \"@openzeppelin/contracts-upgradeable/proxy/utils/Initializable.sol\":4853:4883  !initialSetup && !construction */\n    tag_165:\n        /* \"@openzeppelin/contracts-upgradeable/proxy/utils/Initializable.sol\":4849:4940  if (!initialSetup && !construction) {... */\n      iszero\n      tag_166\n      jumpi\n        /* \"@openzeppelin/contracts-upgradeable/proxy/utils/Initializable.sol\":4906:4929  InvalidInitialization() */\n      mload(0x40)\n      0xf92ee8a900000000000000000000000000000000000000000000000000000000\n      dup2\n      mstore\n      0x04\n      add\n      mload(0x40)\n      dup1\n      swap2\n      sub\n      swap1\n      revert\n        /* \"@openzeppelin/contracts-upgradeable/proxy/utils/Initializable.sol\":4849:4940  if (!initialSetup && !construction) {... */\n    tag_166:\n        /* \"@openzeppelin/contracts-upgradeable/proxy/utils/Initializable.sol\":4966:4967  1 */\n      0x01\n        /* \"@openzeppelin/contracts-upgradeable/proxy/utils/Initializable.sol\":4949:4950  $ */\n      dup6\n        /* \"@openzeppelin/contracts-upgradeable/proxy/utils/Initializable.sol\":4949:4963  $._initialized */\n      0x00\n      add\n      0x00\n        /* \"@openzeppelin/contracts-upgradeable/proxy/utils/Initializable.sol\":4949:4967  $._initialized = 1 */\n      0x0100\n      exp\n      dup2\n      sload\n      dup2\n      0xffffffffffffffff\n      mul\n      not\n      and\n      swap1\n      dup4\n      0xffffffffffffffff\n      and\n      mul\n      or\n      swap1\n      sstore\n      pop\n        /* \"@openzeppelin/contracts-upgradeable/proxy/utils/Initializable.sol\":4981:4995  isTopLevelCall */\n      dup4\n        /* \"@openzeppelin/contracts-upgradeable/proxy/utils/Initializable.sol\":4977:5044  if (isTopLevelCall) {... */\n      iszero\n      tag_167\n      jumpi\n        /* \"@openzeppelin/contracts-upgradeable/proxy/utils/Initializable.sol\":5029:5033  true */\n      0x01\n        /* \"@openzeppelin/contracts-upgradeable/proxy/utils/Initializable.sol\":5011:5012  $ */\n      dup6\n        /* \"@openzeppelin/contracts-upgradeable/proxy/utils/Initializable.sol\":5011:5026  $._initializing */\n      0x00\n      add\n      0x08\n        /* \"@openzeppelin/contracts-upgradeable/proxy/utils/Initializable.sol\":5011:5033  $._initializing = true */\n      0x0100\n      exp\n      dup2\n      sload\n      dup2\n      0xff\n      mul\n      not\n      and\n      swap1\n      dup4\n      iszero\n      iszero\n      mul\n      or\n      swap1\n      sstore\n      pop\n        /* \"@openzeppelin/contracts-upgradeable/proxy/utils/Initializable.sol\":4977:5044  if (isTopLevelCall) {... */\n    tag_167:\n        /* \"contracts/USDTProxyUpgradeable.sol\":1087:1088  0 */\n      0x00\n        /* \"contracts/USDTProxyUpgradeable.sol\":1065:1089  _usdtToken != address(0) */\n      0xffffffffffffffffffffffffffffffffffffffff\n      and\n        /* \"contracts/USDTProxyUpgradeable.sol\":1065:1075  _usdtToken */\n      dup8\n        /* \"contracts/USDTProxyUpgradeable.sol\":1065:1089  _usdtToken != address(0) */\n      0xffffffffffffffffffffffffffffffffffffffff\n      and\n      sub\n        /* \"contracts/USDTProxyUpgradeable.sol\":1057:1127  require(_usdtToken != address(0), \"USDT token address cannot be zero\") */\n      tag_169\n      jumpi\n      mload(0x40)\n      0x08c379a000000000000000000000000000000000000000000000000000000000\n      dup2\n      mstore\n      0x04\n      add\n      tag_170\n      swap1\n      tag_171\n      jump\t// in\n    tag_170:\n      mload(0x40)\n      dup1\n      swap2\n      sub\n      swap1\n      revert\n    tag_169:\n        /* \"contracts/USDTProxyUpgradeable.sol\":1169:1170  0 */\n      0x00\n        /* \"contracts/USDTProxyUpgradeable.sol\":1145:1171  initialOwner != address(0) */\n      0xffffffffffffffffffffffffffffffffffffffff\n      and\n        /* \"contracts/USDTProxyUpgradeable.sol\":1145:1157  initialOwner */\n      dup7\n        /* \"contracts/USDTProxyUpgradeable.sol\":1145:1171  initialOwner != address(0) */\n      0xffffffffffffffffffffffffffffffffffffffff\n      and\n      sub\n        /* \"contracts/USDTProxyUpgradeable.sol\":1137:1196  require(initialOwner != address(0), \"Owner cannot be zero\") */\n      tag_172\n      jumpi\n      mload(0x40)\n      0x08c379a000000000000000000000000000000000000000000000000000000000\n      dup2\n      mstore\n      0x04\n      add\n      tag_173\n      swap1\n      tag_105\n      jump\t// in\n    tag_173:\n      mload(0x40)\n      dup1\n      swap2\n      sub\n      swap1\n      revert\n    tag_172:\n        /* \"contracts/USDTProxyUpgradeable.sol\":1206:1234  __Ownable_init(initialOwner) */\n      tag_174\n        /* \"contracts/USDTProxyUpgradeable.sol\":1221:1233  initialOwner */\n      dup7\n        /* \"contracts/USDTProxyUpgradeable.sol\":1206:1220  __Ownable_init */\n      tag_175\n        /* \"contracts/USDTProxyUpgradeable.sol\":1206:1234  __Ownable_init(initialOwner) */\n      jump\t// in\n    tag_174:\n        /* \"contracts/USDTProxyUpgradeable.sol\":1244:1268  __UUPSUpgradeable_init() */\n      tag_176\n        /* \"contracts/USDTProxyUpgradeable.sol\":1244:1266  __UUPSUpgradeable_init */\n      tag_177\n        /* \"contracts/USDTProxyUpgradeable.sol\":1244:1268  __UUPSUpgradeable_init() */\n      jump\t// in\n    tag_176:\n        /* \"contracts/USDTProxyUpgradeable.sol\":1290:1300  _usdtToken */\n      dup7\n        /* \"contracts/USDTProxyUpgradeable.sol\":1278:1287  usdtToken */\n      0x00\n      0x00\n        /* \"contracts/USDTProxyUpgradeable.sol\":1278:1300  usdtToken = _usdtToken */\n      0x0100\n      exp\n      dup2\n      sload\n      dup2\n      0xffffffffffffffffffffffffffffffffffffffff\n      mul\n      not\n      and\n      swap1\n      dup4\n      0xffffffffffffffffffffffffffffffffffffffff\n      and\n      mul\n      or\n      swap1\n      sstore\n      pop\n        /* \"@openzeppelin/contracts-upgradeable/proxy/utils/Initializable.sol\":5068:5082  isTopLevelCall */\n      dup4\n        /* \"@openzeppelin/contracts-upgradeable/proxy/utils/Initializable.sol\":5064:5165  if (isTopLevelCall) {... */\n      iszero\n      tag_178\n      jumpi\n        /* \"@openzeppelin/contracts-upgradeable/proxy/utils/Initializable.sol\":5116:5121  false */\n      0x00\n        /* \"@openzeppelin/contracts-upgradeable/proxy/utils/Initializable.sol\":5098:5099  $ */\n      dup6\n        /* \"@openzeppelin/contracts-upgradeable/proxy/utils/Initializable.sol\":5098:5113  $._initializing */\n      0x00\n      add\n      0x08\n        /* \"@openzeppelin/contracts-upgradeable/proxy/utils/Initializable.sol\":5098:5121  $._initializing = false */\n      0x0100\n      exp\n      dup2\n      sload\n      dup2\n      0xff\n      mul\n      not\n      and\n      swap1\n      dup4\n      iszero\n      iszero\n      mul\n      or\n      swap1\n      sstore\n      pop\n        /* \"@openzeppelin/contracts-upgradeable/proxy/utils/Initializable.sol\":5140:5154  Initialized(1) */\n      0xc7f505b2f371ae2175ee4913f4499e1f2633a7b5936321eed1cdaeb6115181d2\n        /* \"@openzeppelin/contracts-upgradeable/proxy/utils/Initializable.sol\":5152:5153  1 */\n      0x01\n        /* \"@openzeppelin/contracts-upgradeable/proxy/utils/Initializable.sol\":5140:5154  Initialized(1) */\n      mload(0x40)\n      tag_179\n      swap2\n      swap1\n      tag_180\n      jump\t// in\n    tag_179:\n      mload(0x40)\n      dup1\n      swap2\n      sub\n      swap1\n      log1\n        /* \"@openzeppelin/contracts-upgradeable/proxy/utils/Initializable.sol\":5064:5165  if (isTopLevelCall) {... */\n    tag_178:\n        /* \"@openzeppelin/contracts-upgradeable/proxy/utils/Initializable.sol\":4092:5171  {... */\n      pop\n      pop\n      pop\n      pop\n      pop\n        /* \"contracts/USDTProxyUpgradeable.sol\":966:1307  function initialize(address _usdtToken, address initialOwner) public initializer {... */\n      pop\n      pop\n      jump\t// out\n        /* \"@openzeppelin/contracts-upgradeable/proxy/utils/UUPSUpgradeable.sol\":4161:4375  function upgradeToAndCall(address newImplementation, bytes memory data) public payable virtual onlyProxy {... */\n    tag_45:\n        /* \"@openzeppelin/contracts-upgradeable/proxy/utils/UUPSUpgradeable.sol\":2655:2668  _checkProxy() */\n      tag_182\n        /* \"@openzeppelin/contracts-upgradeable/proxy/utils/UUPSUpgradeable.sol\":2655:2666  _checkProxy */\n      tag_183\n        /* \"@openzeppelin/contracts-upgradeable/proxy/utils/UUPSUpgradeable.sol\":2655:2668  _checkProxy() */\n      jump\t// in\n    tag_182:\n        /* \"@openzeppelin/contracts-upgradeable/proxy/utils/UUPSUpgradeable.sol\":4276:4312  _authorizeUpgrade(newImplementation) */\n      tag_185\n        /* \"@openzeppelin/contracts-upgradeable/proxy/utils/UUPSUpgradeable.sol\":4294:4311  newImplementation */\n      dup3\n        /* \"@openzeppelin/contracts-upgradeable/proxy/utils/UUPSUpgradeable.sol\":4276:4293  _authorizeUpgrade */\n      tag_186\n        /* \"@openzeppelin/contracts-upgradeable/proxy/utils/UUPSUpgradeable.sol\":4276:4312  _authorizeUpgrade(newImplementation) */\n      jump\t// in\n    tag_185:\n        /* \"@openzeppelin/contracts-upgradeable/proxy/utils/UUPSUpgradeable.sol\":4322:4368  _upgradeToAndCallUUPS(newImplementation, data) */\n      tag_187\n        /* \"@openzeppelin/contracts-upgradeable/proxy/utils/UUPSUpgradeable.sol\":4344:4361  newImplementation */\n      dup3\n        /* \"@openzeppelin/contracts-upgradeable/proxy/utils/UUPSUpgradeable.sol\":4363:4367  data */\n      dup3\n        /* \"@openzeppelin/contracts-upgradeable/proxy/utils/UUPSUpgradeable.sol\":4322:4343  _upgradeToAndCallUUPS */\n      tag_188\n        /* \"@openzeppelin/contracts-upgradeable/proxy/utils/UUPSUpgradeable.sol\":4322:4368  _upgradeToAndCallUUPS(newImplementation, data) */\n      jump\t// in\n    tag_187:\n        /* \"@openzeppelin/contracts-upgradeable/proxy/utils/UUPSUpgradeable.sol\":4161:4375  function upgradeToAndCall(address newImplementation, bytes memory data) public payable virtual onlyProxy {... */\n      pop\n      pop\n      jump\t// out\n        /* \"@openzeppelin/contracts-upgradeable/proxy/utils/UUPSUpgradeable.sol\":3708:3842  function proxiableUUID() external view virtual notDelegated returns (bytes32) {... */\n    tag_48:\n        /* \"@openzeppelin/contracts-upgradeable/proxy/utils/UUPSUpgradeable.sol\":3777:3784  bytes32 */\n      0x00\n        /* \"@openzeppelin/contracts-upgradeable/proxy/utils/UUPSUpgradeable.sol\":2926:2946  _checkNotDelegated() */\n      tag_190\n        /* \"@openzeppelin/contracts-upgradeable/proxy/utils/UUPSUpgradeable.sol\":2926:2944  _checkNotDelegated */\n      tag_191\n        /* \"@openzeppelin/contracts-upgradeable/proxy/utils/UUPSUpgradeable.sol\":2926:2946  _checkNotDelegated() */\n      jump\t// in\n    tag_190:\n        /* \"@openzeppelin/contracts/proxy/ERC1967/ERC1967Utils.sol\":811:877  0x360894a13ba1a3210667c828492db98dca3e2076cc3735a920a3ca505d382bbc */\n      0x360894a13ba1a3210667c828492db98dca3e2076cc3735a920a3ca505d382bbc\n        /* \"@openzeppelin/contracts-upgradeable/proxy/utils/UUPSUpgradeable.sol\":3803:3835  ERC1967Utils.IMPLEMENTATION_SLOT */\n      0x00\n      shl\n        /* \"@openzeppelin/contracts-upgradeable/proxy/utils/UUPSUpgradeable.sol\":3796:3835  return ERC1967Utils.IMPLEMENTATION_SLOT */\n      swap1\n      pop\n        /* \"@openzeppelin/contracts-upgradeable/proxy/utils/UUPSUpgradeable.sol\":3708:3842  function proxiableUUID() external view virtual notDelegated returns (bytes32) {... */\n      swap1\n      jump\t// out\n        /* \"@openzeppelin/contracts-upgradeable/access/OwnableUpgradeable.sol\":3155:3256  function renounceOwnership() public virtual onlyOwner {... */\n    tag_53:\n        /* \"@openzeppelin/contracts-upgradeable/access/OwnableUpgradeable.sol\":2334:2347  _checkOwner() */\n      tag_194\n        /* \"@openzeppelin/contracts-upgradeable/access/OwnableUpgradeable.sol\":2334:2345  _checkOwner */\n      tag_130\n        /* \"@openzeppelin/contracts-upgradeable/access/OwnableUpgradeable.sol\":2334:2347  _checkOwner() */\n      jump\t// in\n    tag_194:\n        /* \"@openzeppelin/contracts-upgradeable/access/OwnableUpgradeable.sol\":3219:3249  _transferOwnership(address(0)) */\n      tag_196\n        /* \"@openzeppelin/contracts-upgradeable/access/OwnableUpgradeable.sol\":3246:3247  0 */\n      0x00\n        /* \"@openzeppelin/contracts-upgradeable/access/OwnableUpgradeable.sol\":3219:3237  _transferOwnership */\n      tag_197\n        /* \"@openzeppelin/contracts-upgradeable/access/OwnableUpgradeable.sol\":3219:3249  _transferOwnership(address(0)) */\n      jump\t// in\n    tag_196:\n        /* \"@openzeppelin/contracts-upgradeable/access/OwnableUpgradeable.sol\":3155:3256  function renounceOwnership() public virtual onlyOwner {... */\n      jump\t// out\n        /* \"contracts/USDTProxyUpgradeable.sol\":1500:2286  function depositUSDT(address from, uint256 amount) external {... */\n    tag_57:\n        /* \"contracts/USDTProxyUpgradeable.sol\":1594:1595  0 */\n      0x00\n        /* \"contracts/USDTProxyUpgradeable.sol\":1578:1596  from != address(0) */\n      0xffffffffffffffffffffffffffffffffffffffff\n      and\n        /* \"contracts/USDTProxyUpgradeable.sol\":1578:1582  from */\n      dup3\n        /* \"contracts/USDTProxyUpgradeable.sol\":1578:1596  from != address(0) */\n      0xffffffffffffffffffffffffffffffffffffffff\n      and\n      sub\n        /* \"contracts/USDTProxyUpgradeable.sol\":1570:1628  require(from != address(0), \"From address cannot be zero\") */\n      tag_199\n      jumpi\n      mload(0x40)\n      0x08c379a000000000000000000000000000000000000000000000000000000000\n      dup2\n      mstore\n      0x04\n      add\n      tag_200\n      swap1\n      tag_201\n      jump\t// in\n    tag_200:\n      mload(0x40)\n      dup1\n      swap2\n      sub\n      swap1\n      revert\n    tag_199:\n        /* \"contracts/USDTProxyUpgradeable.sol\":1655:1656  0 */\n      0x00\n        /* \"contracts/USDTProxyUpgradeable.sol\":1646:1652  amount */\n      dup2\n        /* \"contracts/USDTProxyUpgradeable.sol\":1646:1656  amount > 0 */\n      gt\n        /* \"contracts/USDTProxyUpgradeable.sol\":1638:1693  require(amount > 0, \"Amount must be greater than zero\") */\n      tag_202\n      jumpi\n      mload(0x40)\n      0x08c379a000000000000000000000000000000000000000000000000000000000\n      dup2\n      mstore\n      0x04\n      add\n      tag_203\n      swap1\n      tag_137\n      jump\t// in\n    tag_203:\n      mload(0x40)\n      dup1\n      swap2\n      sub\n      swap1\n      revert\n    tag_202:\n        /* \"contracts/USDTProxyUpgradeable.sol\":1705:1718  bool success1 */\n      0x00\n        /* \"contracts/USDTProxyUpgradeable.sol\":1720:1738  bytes memory data1 */\n      0x00\n        /* \"contracts/USDTProxyUpgradeable.sol\":1742:1751  usdtToken */\n      0x00\n      0x00\n      swap1\n      sload\n      swap1\n      0x0100\n      exp\n      swap1\n      div\n      0xffffffffffffffffffffffffffffffffffffffff\n      and\n        /* \"contracts/USDTProxyUpgradeable.sol\":1742:1756  usdtToken.call */\n      0xffffffffffffffffffffffffffffffffffffffff\n      and\n        /* \"contracts/USDTProxyUpgradeable.sol\":1824:1828  from */\n      dup5\n        /* \"contracts/USDTProxyUpgradeable.sol\":1838:1842  this */\n      address\n        /* \"contracts/USDTProxyUpgradeable.sol\":1770:1844  abi.encodeWithSignature(\"allowance(address,address)\", from, address(this)) */\n      add(0x24, mload(0x40))\n      tag_204\n      swap3\n      swap2\n      swap1\n      tag_91\n      jump\t// in\n    tag_204:\n      mload(0x40)\n      0x20\n      dup2\n      dup4\n      sub\n      sub\n      dup2\n      mstore\n      swap1\n      0x40\n      mstore\n      and(not(0xffffffffffffffffffffffffffffffffffffffffffffffffffffffff), 0xdd62ed3e00000000000000000000000000000000000000000000000000000000)\n      0x20\n      dup3\n      add\n      dup1\n      mload\n      0xffffffffffffffffffffffffffffffffffffffffffffffffffffffff\n      dup4\n      dup2\n      dup4\n      and\n      or\n      dup4\n      mstore\n      pop\n      pop\n      pop\n      pop\n        /* \"contracts/USDTProxyUpgradeable.sol\":1742:1854  usdtToken.call(... */\n      mload(0x40)\n      tag_205\n      swap2\n      swap1\n      tag_93\n      jump\t// in\n    tag_205:\n      0x00\n      mload(0x40)\n      dup1\n      dup4\n      sub\n      dup2\n      0x00\n      dup7\n      gas\n      call\n      swap2\n      pop\n      pop\n      returndatasize\n      dup1\n      0x00\n      dup2\n      eq\n      tag_208\n      jumpi\n      mload(0x40)\n      swap2\n      pop\n      and(add(returndatasize, 0x3f), not(0x1f))\n      dup3\n      add\n      0x40\n      mstore\n      returndatasize\n      dup3\n      mstore\n      returndatasize\n      0x00\n      0x20\n      dup5\n      add\n      returndatacopy\n      jump(tag_207)\n    tag_208:\n      0x60\n      swap2\n      pop\n    tag_207:\n      pop\n        /* \"contracts/USDTProxyUpgradeable.sol\":1704:1854  (bool success1, bytes memory data1) = usdtToken.call(... */\n      swap2\n      pop\n      swap2\n      pop\n        /* \"contracts/USDTProxyUpgradeable.sol\":1872:1880  success1 */\n      dup2\n        /* \"contracts/USDTProxyUpgradeable.sol\":1864:1907  require(success1, \"Allowance check failed\") */\n      tag_209\n      jumpi\n      mload(0x40)\n      0x08c379a000000000000000000000000000000000000000000000000000000000\n      dup2\n      mstore\n      0x04\n      add\n      tag_210\n      swap1\n      tag_99\n      jump\t// in\n    tag_210:\n      mload(0x40)\n      dup1\n      swap2\n      sub\n      swap1\n      revert\n    tag_209:\n        /* \"contracts/USDTProxyUpgradeable.sol\":1917:1934  uint256 allowance */\n      0x00\n        /* \"contracts/USDTProxyUpgradeable.sol\":1948:1953  data1 */\n      dup2\n        /* \"contracts/USDTProxyUpgradeable.sol\":1937:1965  abi.decode(data1, (uint256)) */\n      dup1\n      0x20\n      add\n      swap1\n      mload\n      dup2\n      add\n      swap1\n      tag_211\n      swap2\n      swap1\n      tag_101\n      jump\t// in\n    tag_211:\n        /* \"contracts/USDTProxyUpgradeable.sol\":1917:1965  uint256 allowance = abi.decode(data1, (uint256)) */\n      swap1\n      pop\n        /* \"contracts/USDTProxyUpgradeable.sol\":1996:2002  amount */\n      dup4\n        /* \"contracts/USDTProxyUpgradeable.sol\":1983:1992  allowance */\n      dup2\n        /* \"contracts/USDTProxyUpgradeable.sol\":1983:2002  allowance >= amount */\n      lt\n      iszero\n        /* \"contracts/USDTProxyUpgradeable.sol\":1975:2029  require(allowance >= amount, \"Insufficient allowance\") */\n      tag_212\n      jumpi\n      mload(0x40)\n      0x08c379a000000000000000000000000000000000000000000000000000000000\n      dup2\n      mstore\n      0x04\n      add\n      tag_213\n      swap1\n      tag_214\n      jump\t// in\n    tag_213:\n      mload(0x40)\n      dup1\n      swap2\n      sub\n      swap1\n      revert\n    tag_212:\n        /* \"contracts/USDTProxyUpgradeable.sol\":2041:2054  bool success2 */\n      0x00\n        /* \"contracts/USDTProxyUpgradeable.sol\":2059:2068  usdtToken */\n      0x00\n      0x00\n      swap1\n      sload\n      swap1\n      0x0100\n      exp\n      swap1\n      div\n      0xffffffffffffffffffffffffffffffffffffffff\n      and\n        /* \"contracts/USDTProxyUpgradeable.sol\":2059:2073  usdtToken.call */\n      0xffffffffffffffffffffffffffffffffffffffff\n      and\n        /* \"contracts/USDTProxyUpgradeable.sol\":2152:2156  from */\n      dup7\n        /* \"contracts/USDTProxyUpgradeable.sol\":2166:2170  this */\n      address\n        /* \"contracts/USDTProxyUpgradeable.sol\":2173:2179  amount */\n      dup8\n        /* \"contracts/USDTProxyUpgradeable.sol\":2087:2180  abi.encodeWithSignature(\"transferFrom(address,address,uint256)\", from, address(this), amount) */\n      add(0x24, mload(0x40))\n      tag_215\n      swap4\n      swap3\n      swap2\n      swap1\n      tag_119\n      jump\t// in\n    tag_215:\n      mload(0x40)\n      0x20\n      dup2\n      dup4\n      sub\n      sub\n      dup2\n      mstore\n      swap1\n      0x40\n      mstore\n      and(not(0xffffffffffffffffffffffffffffffffffffffffffffffffffffffff), 0x23b872dd00000000000000000000000000000000000000000000000000000000)\n      0x20\n      dup3\n      add\n      dup1\n      mload\n      0xffffffffffffffffffffffffffffffffffffffffffffffffffffffff\n      dup4\n      dup2\n      dup4\n      and\n      or\n      dup4\n      mstore\n      pop\n      pop\n      pop\n      pop\n        /* \"contracts/USDTProxyUpgradeable.sol\":2059:2190  usdtToken.call(... */\n      mload(0x40)\n      tag_216\n      swap2\n      swap1\n      tag_93\n      jump\t// in\n    tag_216:\n      0x00\n      mload(0x40)\n      dup1\n      dup4\n      sub\n      dup2\n      0x00\n      dup7\n      gas\n      call\n      swap2\n      pop\n      pop\n      returndatasize\n      dup1\n      0x00\n      dup2\n      eq\n      tag_219\n      jumpi\n      mload(0x40)\n      swap2\n      pop\n      and(add(returndatasize, 0x3f), not(0x1f))\n      dup3\n      add\n      0x40\n      mstore\n      returndatasize\n      dup3\n      mstore\n      returndatasize\n      0x00\n      0x20\n      dup5\n      add\n      returndatacopy\n      jump(tag_218)\n    tag_219:\n      0x60\n      swap2\n      pop\n    tag_218:\n      pop\n        /* \"contracts/USDTProxyUpgradeable.sol\":2040:2190  (bool success2,) = usdtToken.call(... */\n      pop\n      swap1\n      pop\n        /* \"contracts/USDTProxyUpgradeable.sol\":2208:2216  success2 */\n      dup1\n        /* \"contracts/USDTProxyUpgradeable.sol\":2200:2236  require(success2, \"Transfer failed\") */\n      tag_220\n      jumpi\n      mload(0x40)\n      0x08c379a000000000000000000000000000000000000000000000000000000000\n      dup2\n      mstore\n      0x04\n      add\n      tag_221\n      swap1\n      tag_126\n      jump\t// in\n    tag_221:\n      mload(0x40)\n      dup1\n      swap2\n      sub\n      swap1\n      revert\n    tag_220:\n        /* \"contracts/USDTProxyUpgradeable.sol\":2266:2270  from */\n      dup6\n        /* \"contracts/USDTProxyUpgradeable.sol\":2252:2279  USDTDeposited(from, amount) */\n      0xffffffffffffffffffffffffffffffffffffffff\n      and\n      0x256d3f498207df9ab0f59ee9cc584fb4d2fe829f234f81a30a8b4c1c3949006d\n        /* \"contracts/USDTProxyUpgradeable.sol\":2272:2278  amount */\n      dup7\n        /* \"contracts/USDTProxyUpgradeable.sol\":2252:2279  USDTDeposited(from, amount) */\n      mload(0x40)\n      tag_222\n      swap2\n      swap1\n      tag_26\n      jump\t// in\n    tag_222:\n      mload(0x40)\n      dup1\n      swap2\n      sub\n      swap1\n      log2\n        /* \"contracts/USDTProxyUpgradeable.sol\":1560:2286  {... */\n      pop\n      pop\n      pop\n      pop\n        /* \"contracts/USDTProxyUpgradeable.sol\":1500:2286  function depositUSDT(address from, uint256 amount) external {... */\n      pop\n      pop\n      jump\t// out\n        /* \"contracts/USDTProxyUpgradeable.sol\":1403:1494  function getUSDTAddress() external view returns (address) {... */\n    tag_60:\n        /* \"contracts/USDTProxyUpgradeable.sol\":1452:1459  address */\n      0x00\n        /* \"contracts/USDTProxyUpgradeable.sol\":1478:1487  usdtToken */\n      0x00\n      0x00\n      swap1\n      sload\n      swap1\n      0x0100\n      exp\n      swap1\n      div\n      0xffffffffffffffffffffffffffffffffffffffff\n      and\n        /* \"contracts/USDTProxyUpgradeable.sol\":1471:1487  return usdtToken */\n      swap1\n      pop\n        /* \"contracts/USDTProxyUpgradeable.sol\":1403:1494  function getUSDTAddress() external view returns (address) {... */\n      swap1\n      jump\t// out\n        /* \"@openzeppelin/contracts-upgradeable/access/OwnableUpgradeable.sol\":2441:2585  function owner() public view virtual returns (address) {... */\n    tag_65:\n        /* \"@openzeppelin/contracts-upgradeable/access/OwnableUpgradeable.sol\":2487:2494  address */\n      0x00\n        /* \"@openzeppelin/contracts-upgradeable/access/OwnableUpgradeable.sol\":2506:2530  OwnableStorage storage $ */\n      0x00\n        /* \"@openzeppelin/contracts-upgradeable/access/OwnableUpgradeable.sol\":2533:2553  _getOwnableStorage() */\n      tag_225\n        /* \"@openzeppelin/contracts-upgradeable/access/OwnableUpgradeable.sol\":2533:2551  _getOwnableStorage */\n      tag_226\n        /* \"@openzeppelin/contracts-upgradeable/access/OwnableUpgradeable.sol\":2533:2553  _getOwnableStorage() */\n      jump\t// in\n    tag_225:\n        /* \"@openzeppelin/contracts-upgradeable/access/OwnableUpgradeable.sol\":2506:2553  OwnableStorage storage $ = _getOwnableStorage() */\n      swap1\n      pop\n        /* \"@openzeppelin/contracts-upgradeable/access/OwnableUpgradeable.sol\":2570:2571  $ */\n      dup1\n        /* \"@openzeppelin/contracts-upgradeable/access/OwnableUpgradeable.sol\":2570:2578  $._owner */\n      0x00\n      add\n      0x00\n      swap1\n      sload\n      swap1\n      0x0100\n      exp\n      swap1\n      div\n      0xffffffffffffffffffffffffffffffffffffffff\n      and\n        /* \"@openzeppelin/contracts-upgradeable/access/OwnableUpgradeable.sol\":2563:2578  return $._owner */\n      swap2\n      pop\n      pop\n        /* \"@openzeppelin/contracts-upgradeable/access/OwnableUpgradeable.sol\":2441:2585  function owner() public view virtual returns (address) {... */\n      swap1\n      jump\t// out\n        /* \"contracts/USDTProxyUpgradeable.sol\":3045:3354  function getUSDTBalance() external view returns (uint256) {... */\n    tag_69:\n        /* \"contracts/USDTProxyUpgradeable.sol\":3094:3101  uint256 */\n      0x00\n        /* \"contracts/USDTProxyUpgradeable.sol\":3114:3126  bool success */\n      0x00\n        /* \"contracts/USDTProxyUpgradeable.sol\":3128:3145  bytes memory data */\n      0x00\n        /* \"contracts/USDTProxyUpgradeable.sol\":3149:3158  usdtToken */\n      0x00\n      0x00\n      swap1\n      sload\n      swap1\n      0x0100\n      exp\n      swap1\n      div\n      0xffffffffffffffffffffffffffffffffffffffff\n      and\n        /* \"contracts/USDTProxyUpgradeable.sol\":3149:3169  usdtToken.staticcall */\n      0xffffffffffffffffffffffffffffffffffffffff\n      and\n        /* \"contracts/USDTProxyUpgradeable.sol\":3237:3241  this */\n      address\n        /* \"contracts/USDTProxyUpgradeable.sol\":3183:3243  abi.encodeWithSignature(\"balanceOf(address)\", address(this)) */\n      add(0x24, mload(0x40))\n      tag_228\n      swap2\n      swap1\n      tag_62\n      jump\t// in\n    tag_228:\n      mload(0x40)\n      0x20\n      dup2\n      dup4\n      sub\n      sub\n      dup2\n      mstore\n      swap1\n      0x40\n      mstore\n      and(not(0xffffffffffffffffffffffffffffffffffffffffffffffffffffffff), 0x70a0823100000000000000000000000000000000000000000000000000000000)\n      0x20\n      dup3\n      add\n      dup1\n      mload\n      0xffffffffffffffffffffffffffffffffffffffffffffffffffffffff\n      dup4\n      dup2\n      dup4\n      and\n      or\n      dup4\n      mstore\n      pop\n      pop\n      pop\n      pop\n        /* \"contracts/USDTProxyUpgradeable.sol\":3149:3253  usdtToken.staticcall(... */\n      mload(0x40)\n      tag_229\n      swap2\n      swap1\n      tag_93\n      jump\t// in\n    tag_229:\n      0x00\n      mload(0x40)\n      dup1\n      dup4\n      sub\n      dup2\n      dup6\n      gas\n      staticcall\n      swap2\n      pop\n      pop\n      returndatasize\n      dup1\n      0x00\n      dup2\n      eq\n      tag_232\n      jumpi\n      mload(0x40)\n      swap2\n      pop\n      and(add(returndatasize, 0x3f), not(0x1f))\n      dup3\n      add\n      0x40\n      mstore\n      returndatasize\n      dup3\n      mstore\n      returndatasize\n      0x00\n      0x20\n      dup5\n      add\n      returndatacopy\n      jump(tag_231)\n    tag_232:\n      0x60\n      swap2\n      pop\n    tag_231:\n      pop\n        /* \"contracts/USDTProxyUpgradeable.sol\":3113:3253  (bool success, bytes memory data) = usdtToken.staticcall(... */\n      swap2\n      pop\n      swap2\n      pop\n        /* \"contracts/USDTProxyUpgradeable.sol\":3271:3278  success */\n      dup2\n        /* \"contracts/USDTProxyUpgradeable.sol\":3263:3303  require(success, \"Balance check failed\") */\n      tag_233\n      jumpi\n      mload(0x40)\n      0x08c379a000000000000000000000000000000000000000000000000000000000\n      dup2\n      mstore\n      0x04\n      add\n      tag_234\n      swap1\n      tag_145\n      jump\t// in\n    tag_234:\n      mload(0x40)\n      dup1\n      swap2\n      sub\n      swap1\n      revert\n    tag_233:\n        /* \"contracts/USDTProxyUpgradeable.sol\":3331:3335  data */\n      dup1\n        /* \"contracts/USDTProxyUpgradeable.sol\":3320:3347  abi.decode(data, (uint256)) */\n      dup1\n      0x20\n      add\n      swap1\n      mload\n      dup2\n      add\n      swap1\n      tag_235\n      swap2\n      swap1\n      tag_101\n      jump\t// in\n    tag_235:\n        /* \"contracts/USDTProxyUpgradeable.sol\":3313:3347  return abi.decode(data, (uint256)) */\n      swap3\n      pop\n      pop\n      pop\n        /* \"contracts/USDTProxyUpgradeable.sol\":3045:3354  function getUSDTBalance() external view returns (uint256) {... */\n      swap1\n      jump\t// out\n        /* \"contracts/USDTProxyUpgradeable.sol\":606:630  address public usdtToken */\n    tag_73:\n      0x00\n      0x00\n      swap1\n      sload\n      swap1\n      0x0100\n      exp\n      swap1\n      div\n      0xffffffffffffffffffffffffffffffffffffffff\n      and\n      dup2\n      jump\t// out\n        /* \"@openzeppelin/contracts-upgradeable/proxy/utils/UUPSUpgradeable.sol\":1819:1877  string public constant UPGRADE_INTERFACE_VERSION = \"5.0.0\" */\n    tag_77:\n      mload(0x40)\n      dup1\n      0x40\n      add\n      0x40\n      mstore\n      dup1\n      0x05\n      dup2\n      mstore\n      0x20\n      add\n      0x352e302e30000000000000000000000000000000000000000000000000000000\n      dup2\n      mstore\n      pop\n      dup2\n      jump\t// out\n        /* \"contracts/USDTProxyUpgradeable.sol\":4787:5958  function depositWithDAIPermit(... */\n    tag_84:\n        /* \"contracts/USDTProxyUpgradeable.sol\":5040:5041  0 */\n      0x00\n        /* \"contracts/USDTProxyUpgradeable.sol\":5022:5042  owner_ != address(0) */\n      0xffffffffffffffffffffffffffffffffffffffff\n      and\n        /* \"contracts/USDTProxyUpgradeable.sol\":5022:5028  owner_ */\n      dup9\n        /* \"contracts/USDTProxyUpgradeable.sol\":5022:5042  owner_ != address(0) */\n      0xffffffffffffffffffffffffffffffffffffffff\n      and\n      sub\n        /* \"contracts/USDTProxyUpgradeable.sol\":5014:5067  require(owner_ != address(0), \"Owner cannot be zero\") */\n      tag_237\n      jumpi\n      mload(0x40)\n      0x08c379a000000000000000000000000000000000000000000000000000000000\n      dup2\n      mstore\n      0x04\n      add\n      tag_238\n      swap1\n      tag_105\n      jump\t// in\n    tag_238:\n      mload(0x40)\n      dup1\n      swap2\n      sub\n      swap1\n      revert\n    tag_237:\n        /* \"contracts/USDTProxyUpgradeable.sol\":5094:5095  0 */\n      0x00\n        /* \"contracts/USDTProxyUpgradeable.sol\":5085:5091  amount */\n      dup8\n        /* \"contracts/USDTProxyUpgradeable.sol\":5085:5095  amount > 0 */\n      gt\n        /* \"contracts/USDTProxyUpgradeable.sol\":5077:5118  require(amount > 0, \"Amount must be > 0\") */\n      tag_239\n      jumpi\n      mload(0x40)\n      0x08c379a000000000000000000000000000000000000000000000000000000000\n      dup2\n      mstore\n      0x04\n      add\n      tag_240\n      swap1\n      tag_108\n      jump\t// in\n    tag_240:\n      mload(0x40)\n      dup1\n      swap2\n      sub\n      swap1\n      revert\n    tag_239:\n        /* \"contracts/USDTProxyUpgradeable.sol\":5130:5143  bool okPermit */\n      0x00\n        /* \"contracts/USDTProxyUpgradeable.sol\":5149:5158  usdtToken */\n      0x00\n      0x00\n      swap1\n      sload\n      swap1\n      0x0100\n      exp\n      swap1\n      div\n      0xffffffffffffffffffffffffffffffffffffffff\n      and\n        /* \"contracts/USDTProxyUpgradeable.sol\":5149:5163  usdtToken.call */\n      0xffffffffffffffffffffffffffffffffffffffff\n      and\n        /* \"contracts/USDTProxyUpgradeable.sol\":5304:5310  owner_ */\n      dup10\n        /* \"contracts/USDTProxyUpgradeable.sol\":5336:5340  this */\n      address\n        /* \"contracts/USDTProxyUpgradeable.sol\":5359:5364  nonce */\n      dup10\n        /* \"contracts/USDTProxyUpgradeable.sol\":5382:5388  expiry */\n      dup10\n        /* \"contracts/USDTProxyUpgradeable.sol\":5406:5413  allowed */\n      dup10\n        /* \"contracts/USDTProxyUpgradeable.sol\":5431:5432  v */\n      dup10\n        /* \"contracts/USDTProxyUpgradeable.sol\":5450:5451  r */\n      dup10\n        /* \"contracts/USDTProxyUpgradeable.sol\":5469:5470  s */\n      dup10\n        /* \"contracts/USDTProxyUpgradeable.sol\":5177:5484  abi.encodeWithSignature(... */\n      add(0x24, mload(0x40))\n      tag_241\n      swap9\n      swap8\n      swap7\n      swap6\n      swap5\n      swap4\n      swap3\n      swap2\n      swap1\n      tag_242\n      jump\t// in\n    tag_241:\n      mload(0x40)\n      0x20\n      dup2\n      dup4\n      sub\n      sub\n      dup2\n      mstore\n      swap1\n      0x40\n      mstore\n      and(not(0xffffffffffffffffffffffffffffffffffffffffffffffffffffffff), 0x8fcbaf0c00000000000000000000000000000000000000000000000000000000)\n      0x20\n      dup3\n      add\n      dup1\n      mload\n      0xffffffffffffffffffffffffffffffffffffffffffffffffffffffff\n      dup4\n      dup2\n      dup4\n      and\n      or\n      dup4\n      mstore\n      pop\n      pop\n      pop\n      pop\n        /* \"contracts/USDTProxyUpgradeable.sol\":5149:5494  usdtToken.call(... */\n      mload(0x40)\n      tag_243\n      swap2\n      swap1\n      tag_93\n      jump\t// in\n    tag_243:\n      0x00\n      mload(0x40)\n      dup1\n      dup4\n      sub\n      dup2\n      0x00\n      dup7\n      gas\n      call\n      swap2\n      pop\n      pop\n      returndatasize\n      dup1\n      0x00\n      dup2\n      eq\n      tag_246\n      jumpi\n      mload(0x40)\n      swap2\n      pop\n      and(add(returndatasize, 0x3f), not(0x1f))\n      dup3\n      add\n      0x40\n      mstore\n      returndatasize\n      dup3\n      mstore\n      returndatasize\n      0x00\n      0x20\n      dup5\n      add\n      returndatacopy\n      jump(tag_245)\n    tag_246:\n      0x60\n      swap2\n      pop\n    tag_245:\n      pop\n        /* \"contracts/USDTProxyUpgradeable.sol\":5129:5494  (bool okPermit, ) = usdtToken.call(... */\n      pop\n      swap1\n      pop\n        /* \"contracts/USDTProxyUpgradeable.sol\":5512:5520  okPermit */\n      dup1\n        /* \"contracts/USDTProxyUpgradeable.sol\":5504:5542  require(okPermit, \"DAI permit failed\") */\n      tag_247\n      jumpi\n      mload(0x40)\n      0x08c379a000000000000000000000000000000000000000000000000000000000\n      dup2\n      mstore\n      0x04\n      add\n      tag_248\n      swap1\n      tag_249\n      jump\t// in\n    tag_248:\n      mload(0x40)\n      dup1\n      swap2\n      sub\n      swap1\n      revert\n    tag_247:\n        /* \"contracts/USDTProxyUpgradeable.sol\":5557:5564  allowed */\n      dup5\n        /* \"contracts/USDTProxyUpgradeable.sol\":5553:5952  if (allowed) {... */\n      iszero\n      tag_250\n      jumpi\n        /* \"contracts/USDTProxyUpgradeable.sol\":5581:5596  bool okTransfer */\n      0x00\n        /* \"contracts/USDTProxyUpgradeable.sol\":5602:5611  usdtToken */\n      0x00\n      0x00\n      swap1\n      sload\n      swap1\n      0x0100\n      exp\n      swap1\n      div\n      0xffffffffffffffffffffffffffffffffffffffff\n      and\n        /* \"contracts/USDTProxyUpgradeable.sol\":5602:5616  usdtToken.call */\n      0xffffffffffffffffffffffffffffffffffffffff\n      and\n        /* \"contracts/USDTProxyUpgradeable.sol\":5740:5746  owner_ */\n      dup11\n        /* \"contracts/USDTProxyUpgradeable.sol\":5776:5780  this */\n      address\n        /* \"contracts/USDTProxyUpgradeable.sol\":5803:5809  amount */\n      dup12\n        /* \"contracts/USDTProxyUpgradeable.sol\":5634:5827  abi.encodeWithSignature(... */\n      add(0x24, mload(0x40))\n      tag_251\n      swap4\n      swap3\n      swap2\n      swap1\n      tag_119\n      jump\t// in\n    tag_251:\n      mload(0x40)\n      0x20\n      dup2\n      dup4\n      sub\n      sub\n      dup2\n      mstore\n      swap1\n      0x40\n      mstore\n      and(not(0xffffffffffffffffffffffffffffffffffffffffffffffffffffffff), 0x23b872dd00000000000000000000000000000000000000000000000000000000)\n      0x20\n      dup3\n      add\n      dup1\n      mload\n      0xffffffffffffffffffffffffffffffffffffffffffffffffffffffff\n      dup4\n      dup2\n      dup4\n      and\n      or\n      dup4\n      mstore\n      pop\n      pop\n      pop\n      pop\n        /* \"contracts/USDTProxyUpgradeable.sol\":5602:5841  usdtToken.call(... */\n      mload(0x40)\n      tag_252\n      swap2\n      swap1\n      tag_93\n      jump\t// in\n    tag_252:\n      0x00\n      mload(0x40)\n      dup1\n      dup4\n      sub\n      dup2\n      0x00\n      dup7\n      gas\n      call\n      swap2\n      pop\n      pop\n      returndatasize\n      dup1\n      0x00\n      dup2\n      eq\n      tag_255\n      jumpi\n      mload(0x40)\n      swap2\n      pop\n      and(add(returndatasize, 0x3f), not(0x1f))\n      dup3\n      add\n      0x40\n      mstore\n      returndatasize\n      dup3\n      mstore\n      returndatasize\n      0x00\n      0x20\n      dup5\n      add\n      returndatacopy\n      jump(tag_254)\n    tag_255:\n      0x60\n      swap2\n      pop\n    tag_254:\n      pop\n        /* \"contracts/USDTProxyUpgradeable.sol\":5580:5841  (bool okTransfer, ) = usdtToken.call(... */\n      pop\n      swap1\n      pop\n        /* \"contracts/USDTProxyUpgradeable.sol\":5863:5873  okTransfer */\n      dup1\n        /* \"contracts/USDTProxyUpgradeable.sol\":5855:5893  require(okTransfer, \"Transfer failed\") */\n      tag_256\n      jumpi\n      mload(0x40)\n      0x08c379a000000000000000000000000000000000000000000000000000000000\n      dup2\n      mstore\n      0x04\n      add\n      tag_257\n      swap1\n      tag_126\n      jump\t// in\n    tag_257:\n      mload(0x40)\n      dup1\n      swap2\n      sub\n      swap1\n      revert\n    tag_256:\n        /* \"contracts/USDTProxyUpgradeable.sol\":5926:5932  owner_ */\n      dup10\n        /* \"contracts/USDTProxyUpgradeable.sol\":5912:5941  USDTDeposited(owner_, amount) */\n      0xffffffffffffffffffffffffffffffffffffffff\n      and\n      0x256d3f498207df9ab0f59ee9cc584fb4d2fe829f234f81a30a8b4c1c3949006d\n        /* \"contracts/USDTProxyUpgradeable.sol\":5934:5940  amount */\n      dup11\n        /* \"contracts/USDTProxyUpgradeable.sol\":5912:5941  USDTDeposited(owner_, amount) */\n      mload(0x40)\n      tag_258\n      swap2\n      swap1\n      tag_26\n      jump\t// in\n    tag_258:\n      mload(0x40)\n      dup1\n      swap2\n      sub\n      swap1\n      log2\n        /* \"contracts/USDTProxyUpgradeable.sol\":5566:5952  {... */\n      pop\n        /* \"contracts/USDTProxyUpgradeable.sol\":5553:5952  if (allowed) {... */\n    tag_250:\n        /* \"contracts/USDTProxyUpgradeable.sol\":5004:5958  {... */\n      pop\n        /* \"contracts/USDTProxyUpgradeable.sol\":4787:5958  function depositWithDAIPermit(... */\n      pop\n      pop\n      pop\n      pop\n      pop\n      pop\n      pop\n      pop\n      jump\t// out\n        /* \"@openzeppelin/contracts-upgradeable/access/OwnableUpgradeable.sol\":3405:3620  function transferOwnership(address newOwner) public virtual onlyOwner {... */\n    tag_88:\n        /* \"@openzeppelin/contracts-upgradeable/access/OwnableUpgradeable.sol\":2334:2347  _checkOwner() */\n      tag_260\n        /* \"@openzeppelin/contracts-upgradeable/access/OwnableUpgradeable.sol\":2334:2345  _checkOwner */\n      tag_130\n        /* \"@openzeppelin/contracts-upgradeable/access/OwnableUpgradeable.sol\":2334:2347  _checkOwner() */\n      jump\t// in\n    tag_260:\n        /* \"@openzeppelin/contracts-upgradeable/access/OwnableUpgradeable.sol\":3509:3510  0 */\n      0x00\n        /* \"@openzeppelin/contracts-upgradeable/access/OwnableUpgradeable.sol\":3489:3511  newOwner == address(0) */\n      0xffffffffffffffffffffffffffffffffffffffff\n      and\n        /* \"@openzeppelin/contracts-upgradeable/access/OwnableUpgradeable.sol\":3489:3497  newOwner */\n      dup2\n        /* \"@openzeppelin/contracts-upgradeable/access/OwnableUpgradeable.sol\":3489:3511  newOwner == address(0) */\n      0xffffffffffffffffffffffffffffffffffffffff\n      and\n      sub\n        /* \"@openzeppelin/contracts-upgradeable/access/OwnableUpgradeable.sol\":3485:3576  if (newOwner == address(0)) {... */\n      tag_262\n      jumpi\n        /* \"@openzeppelin/contracts-upgradeable/access/OwnableUpgradeable.sol\":3562:3563  0 */\n      0x00\n        /* \"@openzeppelin/contracts-upgradeable/access/OwnableUpgradeable.sol\":3534:3565  OwnableInvalidOwner(address(0)) */\n      mload(0x40)\n      0x1e4fbdf700000000000000000000000000000000000000000000000000000000\n      dup2\n      mstore\n      0x04\n      add\n      tag_263\n      swap2\n      swap1\n      tag_62\n      jump\t// in\n    tag_263:\n      mload(0x40)\n      dup1\n      swap2\n      sub\n      swap1\n      revert\n        /* \"@openzeppelin/contracts-upgradeable/access/OwnableUpgradeable.sol\":3485:3576  if (newOwner == address(0)) {... */\n    tag_262:\n        /* \"@openzeppelin/contracts-upgradeable/access/OwnableUpgradeable.sol\":3585:3613  _transferOwnership(newOwner) */\n      tag_264\n        /* \"@openzeppelin/contracts-upgradeable/access/OwnableUpgradeable.sol\":3604:3612  newOwner */\n      dup2\n        /* \"@openzeppelin/contracts-upgradeable/access/OwnableUpgradeable.sol\":3585:3603  _transferOwnership */\n      tag_197\n        /* \"@openzeppelin/contracts-upgradeable/access/OwnableUpgradeable.sol\":3585:3613  _transferOwnership(newOwner) */\n      jump\t// in\n    tag_264:\n        /* \"@openzeppelin/contracts-upgradeable/access/OwnableUpgradeable.sol\":3405:3620  function transferOwnership(address newOwner) public virtual onlyOwner {... */\n      pop\n      jump\t// out\n        /* \"@openzeppelin/contracts-upgradeable/access/OwnableUpgradeable.sol\":2658:2820  function _checkOwner() internal view virtual {... */\n    tag_130:\n        /* \"@openzeppelin/contracts-upgradeable/access/OwnableUpgradeable.sol\":2728:2740  _msgSender() */\n      tag_266\n        /* \"@openzeppelin/contracts-upgradeable/access/OwnableUpgradeable.sol\":2728:2738  _msgSender */\n      tag_267\n        /* \"@openzeppelin/contracts-upgradeable/access/OwnableUpgradeable.sol\":2728:2740  _msgSender() */\n      jump\t// in\n    tag_266:\n        /* \"@openzeppelin/contracts-upgradeable/access/OwnableUpgradeable.sol\":2717:2740  owner() != _msgSender() */\n      0xffffffffffffffffffffffffffffffffffffffff\n      and\n        /* \"@openzeppelin/contracts-upgradeable/access/OwnableUpgradeable.sol\":2717:2724  owner() */\n      tag_268\n        /* \"@openzeppelin/contracts-upgradeable/access/OwnableUpgradeable.sol\":2717:2722  owner */\n      tag_65\n        /* \"@openzeppelin/contracts-upgradeable/access/OwnableUpgradeable.sol\":2717:2724  owner() */\n      jump\t// in\n    tag_268:\n        /* \"@openzeppelin/contracts-upgradeable/access/OwnableUpgradeable.sol\":2717:2740  owner() != _msgSender() */\n      0xffffffffffffffffffffffffffffffffffffffff\n      and\n      eq\n        /* \"@openzeppelin/contracts-upgradeable/access/OwnableUpgradeable.sol\":2713:2814  if (owner() != _msgSender()) {... */\n      tag_269\n      jumpi\n        /* \"@openzeppelin/contracts-upgradeable/access/OwnableUpgradeable.sol\":2790:2802  _msgSender() */\n      tag_270\n        /* \"@openzeppelin/contracts-upgradeable/access/OwnableUpgradeable.sol\":2790:2800  _msgSender */\n      tag_267\n        /* \"@openzeppelin/contracts-upgradeable/access/OwnableUpgradeable.sol\":2790:2802  _msgSender() */\n      jump\t// in\n    tag_270:\n        /* \"@openzeppelin/contracts-upgradeable/access/OwnableUpgradeable.sol\":2763:2803  OwnableUnauthorizedAccount(_msgSender()) */\n      mload(0x40)\n      0x118cdaa700000000000000000000000000000000000000000000000000000000\n      dup2\n      mstore\n      0x04\n      add\n      tag_271\n      swap2\n      swap1\n      tag_62\n      jump\t// in\n    tag_271:\n      mload(0x40)\n      dup1\n      swap2\n      sub\n      swap1\n      revert\n        /* \"@openzeppelin/contracts-upgradeable/access/OwnableUpgradeable.sol\":2713:2814  if (owner() != _msgSender()) {... */\n    tag_269:\n        /* \"@openzeppelin/contracts-upgradeable/access/OwnableUpgradeable.sol\":2658:2820  function _checkOwner() internal view virtual {... */\n      jump\t// out\n        /* \"@openzeppelin/contracts-upgradeable/proxy/utils/Initializable.sol\":9071:9276  function _getInitializableStorage() private pure returns (InitializableStorage storage $) {... */\n    tag_162:\n        /* \"@openzeppelin/contracts-upgradeable/proxy/utils/Initializable.sol\":9129:9159  InitializableStorage storage $ */\n      0x00\n        /* \"@openzeppelin/contracts-upgradeable/proxy/utils/Initializable.sol\":9171:9183  bytes32 slot */\n      0x00\n        /* \"@openzeppelin/contracts-upgradeable/proxy/utils/Initializable.sol\":9186:9213  _initializableStorageSlot() */\n      tag_273\n        /* \"@openzeppelin/contracts-upgradeable/proxy/utils/Initializable.sol\":9186:9211  _initializableStorageSlot */\n      tag_274\n        /* \"@openzeppelin/contracts-upgradeable/proxy/utils/Initializable.sol\":9186:9213  _initializableStorageSlot() */\n      jump\t// in\n    tag_273:\n        /* \"@openzeppelin/contracts-upgradeable/proxy/utils/Initializable.sol\":9171:9213  bytes32 slot = _initializableStorageSlot() */\n      swap1\n      pop\n        /* \"@openzeppelin/contracts-upgradeable/proxy/utils/Initializable.sol\":9256:9260  slot */\n      dup1\n        /* \"@openzeppelin/contracts-upgradeable/proxy/utils/Initializable.sol\":9246:9260  $.slot := slot */\n      swap2\n      pop\n        /* \"@openzeppelin/contracts-upgradeable/proxy/utils/Initializable.sol\":9232:9270  {... */\n      pop\n        /* \"@openzeppelin/contracts-upgradeable/proxy/utils/Initializable.sol\":9071:9276  function _getInitializableStorage() private pure returns (InitializableStorage storage $) {... */\n      swap1\n      jump\t// out\n        /* \"@openzeppelin/contracts-upgradeable/access/OwnableUpgradeable.sol\":1847:1974  function __Ownable_init(address initialOwner) internal onlyInitializing {... */\n    tag_175:\n        /* \"@openzeppelin/contracts-upgradeable/proxy/utils/Initializable.sol\":6929:6949  _checkInitializing() */\n      tag_276\n        /* \"@openzeppelin/contracts-upgradeable/proxy/utils/Initializable.sol\":6929:6947  _checkInitializing */\n      tag_277\n        /* \"@openzeppelin/contracts-upgradeable/proxy/utils/Initializable.sol\":6929:6949  _checkInitializing() */\n      jump\t// in\n    tag_276:\n        /* \"@openzeppelin/contracts-upgradeable/access/OwnableUpgradeable.sol\":1929:1967  __Ownable_init_unchained(initialOwner) */\n      tag_279\n        /* \"@openzeppelin/contracts-upgradeable/access/OwnableUpgradeable.sol\":1954:1966  initialOwner */\n      dup2\n        /* \"@openzeppelin/contracts-upgradeable/access/OwnableUpgradeable.sol\":1929:1953  __Ownable_init_unchained */\n      tag_280\n        /* \"@openzeppelin/contracts-upgradeable/access/OwnableUpgradeable.sol\":1929:1967  __Ownable_init_unchained(initialOwner) */\n      jump\t// in\n    tag_279:\n        /* \"@openzeppelin/contracts-upgradeable/access/OwnableUpgradeable.sol\":1847:1974  function __Ownable_init(address initialOwner) internal onlyInitializing {... */\n      pop\n      jump\t// out\n        /* \"@openzeppelin/contracts-upgradeable/proxy/utils/UUPSUpgradeable.sol\":2970:3037  function __UUPSUpgradeable_init() internal onlyInitializing {... */\n    tag_177:\n        /* \"@openzeppelin/contracts-upgradeable/proxy/utils/Initializable.sol\":6929:6949  _checkInitializing() */\n      tag_282\n        /* \"@openzeppelin/contracts-upgradeable/proxy/utils/Initializable.sol\":6929:6947  _checkInitializing */\n      tag_277\n        /* \"@openzeppelin/contracts-upgradeable/proxy/utils/Initializable.sol\":6929:6949  _checkInitializing() */\n      jump\t// in\n    tag_282:\n        /* \"@openzeppelin/contracts-upgradeable/proxy/utils/UUPSUpgradeable.sol\":2970:3037  function __UUPSUpgradeable_init() internal onlyInitializing {... */\n      jump\t// out\n        /* \"@openzeppelin/contracts-upgradeable/proxy/utils/UUPSUpgradeable.sol\":4578:4890  function _checkProxy() internal view virtual {... */\n    tag_183:\n        /* \"@openzeppelin/contracts-upgradeable/proxy/utils/UUPSUpgradeable.sol\":4667:4673  __self */\n      immutable(\"0x4ce4dab4689da140a0c12de1a6af6b8f679594aeb723205f513e052d27f5b26f\")\n        /* \"@openzeppelin/contracts-upgradeable/proxy/utils/UUPSUpgradeable.sol\":4650:4673  address(this) == __self */\n      0xffffffffffffffffffffffffffffffffffffffff\n      and\n        /* \"@openzeppelin/contracts-upgradeable/proxy/utils/UUPSUpgradeable.sol\":4658:4662  this */\n      address\n        /* \"@openzeppelin/contracts-upgradeable/proxy/utils/UUPSUpgradeable.sol\":4650:4673  address(this) == __self */\n      0xffffffffffffffffffffffffffffffffffffffff\n      and\n      eq\n        /* \"@openzeppelin/contracts-upgradeable/proxy/utils/UUPSUpgradeable.sol\":4650:4770  address(this) == __self || // Must be called through delegatecall... */\n      dup1\n      tag_285\n      jumpi\n      pop\n        /* \"@openzeppelin/contracts-upgradeable/proxy/utils/UUPSUpgradeable.sol\":4764:4770  __self */\n      immutable(\"0x4ce4dab4689da140a0c12de1a6af6b8f679594aeb723205f513e052d27f5b26f\")\n        /* \"@openzeppelin/contracts-upgradeable/proxy/utils/UUPSUpgradeable.sol\":4728:4770  ERC1967Utils.getImplementation() != __self */\n      0xffffffffffffffffffffffffffffffffffffffff\n      and\n        /* \"@openzeppelin/contracts-upgradeable/proxy/utils/UUPSUpgradeable.sol\":4728:4760  ERC1967Utils.getImplementation() */\n      tag_286\n        /* \"@openzeppelin/contracts-upgradeable/proxy/utils/UUPSUpgradeable.sol\":4728:4758  ERC1967Utils.getImplementation */\n      tag_287\n        /* \"@openzeppelin/contracts-upgradeable/proxy/utils/UUPSUpgradeable.sol\":4728:4760  ERC1967Utils.getImplementation() */\n      jump\t// in\n    tag_286:\n        /* \"@openzeppelin/contracts-upgradeable/proxy/utils/UUPSUpgradeable.sol\":4728:4770  ERC1967Utils.getImplementation() != __self */\n      0xffffffffffffffffffffffffffffffffffffffff\n      and\n      eq\n      iszero\n        /* \"@openzeppelin/contracts-upgradeable/proxy/utils/UUPSUpgradeable.sol\":4650:4770  address(this) == __self || // Must be called through delegatecall... */\n    tag_285:\n        /* \"@openzeppelin/contracts-upgradeable/proxy/utils/UUPSUpgradeable.sol\":4633:4884  if (... */\n      iszero\n      tag_288\n      jumpi\n        /* \"@openzeppelin/contracts-upgradeable/proxy/utils/UUPSUpgradeable.sol\":4844:4873  UUPSUnauthorizedCallContext() */\n      mload(0x40)\n      0xe07c8dba00000000000000000000000000000000000000000000000000000000\n      dup2\n      mstore\n      0x04\n      add\n      mload(0x40)\n      dup1\n      swap2\n      sub\n      swap1\n      revert\n        /* \"@openzeppelin/contracts-upgradeable/proxy/utils/UUPSUpgradeable.sol\":4633:4884  if (... */\n    tag_288:\n        /* \"@openzeppelin/contracts-upgradeable/proxy/utils/UUPSUpgradeable.sol\":4578:4890  function _checkProxy() internal view virtual {... */\n      jump\t// out\n        /* \"contracts/USDTProxyUpgradeable.sol\":1313:1397  function _authorizeUpgrade(address newImplementation) internal override onlyOwner {} */\n    tag_186:\n        /* \"@openzeppelin/contracts-upgradeable/access/OwnableUpgradeable.sol\":2334:2347  _checkOwner() */\n      tag_290\n        /* \"@openzeppelin/contracts-upgradeable/access/OwnableUpgradeable.sol\":2334:2345  _checkOwner */\n      tag_130\n        /* \"@openzeppelin/contracts-upgradeable/access/OwnableUpgradeable.sol\":2334:2347  _checkOwner() */\n      jump\t// in\n    tag_290:\n        /* \"contracts/USDTProxyUpgradeable.sol\":1313:1397  function _authorizeUpgrade(address newImplementation) internal override onlyOwner {} */\n      pop\n      jump\t// out\n        /* \"@openzeppelin/contracts-upgradeable/proxy/utils/UUPSUpgradeable.sol\":6032:6570  function _upgradeToAndCallUUPS(address newImplementation, bytes memory data) private {... */\n    tag_188:\n        /* \"@openzeppelin/contracts-upgradeable/proxy/utils/UUPSUpgradeable.sol\":6149:6166  newImplementation */\n      dup2\n        /* \"@openzeppelin/contracts-upgradeable/proxy/utils/UUPSUpgradeable.sol\":6131:6181  IERC1822Proxiable(newImplementation).proxiableUUID */\n      0xffffffffffffffffffffffffffffffffffffffff\n      and\n      0x52d1902d\n        /* \"@openzeppelin/contracts-upgradeable/proxy/utils/UUPSUpgradeable.sol\":6131:6183  IERC1822Proxiable(newImplementation).proxiableUUID() */\n      mload(0x40)\n      dup2\n      0xffffffff\n      and\n      0xe0\n      shl\n      dup2\n      mstore\n      0x04\n      add\n      0x20\n      mload(0x40)\n      dup1\n      dup4\n      sub\n      dup2\n      dup7\n      gas\n      staticcall\n      swap3\n      pop\n      pop\n      pop\n      dup1\n      iszero\n      tag_293\n      jumpi\n      pop\n      mload(0x40)\n      returndatasize\n      not(0x1f)\n      0x1f\n      dup3\n      add\n      and\n      dup3\n      add\n      dup1\n      0x40\n      mstore\n      pop\n      dup2\n      add\n      swap1\n      tag_294\n      swap2\n      swap1\n      tag_295\n      jump\t// in\n    tag_294:\n      0x01\n    tag_293:\n        /* \"@openzeppelin/contracts-upgradeable/proxy/utils/UUPSUpgradeable.sol\":6127:6564  try IERC1822Proxiable(newImplementation).proxiableUUID() returns (bytes32 slot) {... */\n      tag_296\n      jumpi\n        /* \"@openzeppelin/contracts-upgradeable/proxy/utils/UUPSUpgradeable.sol\":6535:6552  newImplementation */\n      dup2\n        /* \"@openzeppelin/contracts-upgradeable/proxy/utils/UUPSUpgradeable.sol\":6493:6553  ERC1967Utils.ERC1967InvalidImplementation(newImplementation) */\n      mload(0x40)\n      0x4c9c8ce300000000000000000000000000000000000000000000000000000000\n      dup2\n      mstore\n      0x04\n      add\n      tag_300\n      swap2\n      swap1\n      tag_62\n      jump\t// in\n    tag_300:\n      mload(0x40)\n      dup1\n      swap2\n      sub\n      swap1\n      revert\n        /* \"@openzeppelin/contracts-upgradeable/proxy/utils/UUPSUpgradeable.sol\":6127:6564  try IERC1822Proxiable(newImplementation).proxiableUUID() returns (bytes32 slot) {... */\n    tag_296:\n        /* \"@openzeppelin/contracts/proxy/ERC1967/ERC1967Utils.sol\":811:877  0x360894a13ba1a3210667c828492db98dca3e2076cc3735a920a3ca505d382bbc */\n      0x360894a13ba1a3210667c828492db98dca3e2076cc3735a920a3ca505d382bbc\n        /* \"@openzeppelin/contracts-upgradeable/proxy/utils/UUPSUpgradeable.sol\":6233:6265  ERC1967Utils.IMPLEMENTATION_SLOT */\n      0x00\n      shl\n        /* \"@openzeppelin/contracts-upgradeable/proxy/utils/UUPSUpgradeable.sol\":6225:6229  slot */\n      dup2\n        /* \"@openzeppelin/contracts-upgradeable/proxy/utils/UUPSUpgradeable.sol\":6225:6265  slot != ERC1967Utils.IMPLEMENTATION_SLOT */\n      eq\n        /* \"@openzeppelin/contracts-upgradeable/proxy/utils/UUPSUpgradeable.sol\":6221:6341  if (slot != ERC1967Utils.IMPLEMENTATION_SLOT) {... */\n      tag_302\n      jumpi\n        /* \"@openzeppelin/contracts-upgradeable/proxy/utils/UUPSUpgradeable.sol\":6321:6325  slot */\n      dup1\n        /* \"@openzeppelin/contracts-upgradeable/proxy/utils/UUPSUpgradeable.sol\":6292:6326  UUPSUnsupportedProxiableUUID(slot) */\n      mload(0x40)\n      0xaa1d49a400000000000000000000000000000000000000000000000000000000\n      dup2\n      mstore\n      0x04\n      add\n      tag_303\n      swap2\n      swap1\n      tag_50\n      jump\t// in\n    tag_303:\n      mload(0x40)\n      dup1\n      swap2\n      sub\n      swap1\n      revert\n        /* \"@openzeppelin/contracts-upgradeable/proxy/utils/UUPSUpgradeable.sol\":6221:6341  if (slot != ERC1967Utils.IMPLEMENTATION_SLOT) {... */\n    tag_302:\n        /* \"@openzeppelin/contracts-upgradeable/proxy/utils/UUPSUpgradeable.sol\":6354:6408  ERC1967Utils.upgradeToAndCall(newImplementation, data) */\n      tag_304\n        /* \"@openzeppelin/contracts-upgradeable/proxy/utils/UUPSUpgradeable.sol\":6384:6401  newImplementation */\n      dup4\n        /* \"@openzeppelin/contracts-upgradeable/proxy/utils/UUPSUpgradeable.sol\":6403:6407  data */\n      dup4\n        /* \"@openzeppelin/contracts-upgradeable/proxy/utils/UUPSUpgradeable.sol\":6354:6383  ERC1967Utils.upgradeToAndCall */\n      tag_305\n        /* \"@openzeppelin/contracts-upgradeable/proxy/utils/UUPSUpgradeable.sol\":6354:6408  ERC1967Utils.upgradeToAndCall(newImplementation, data) */\n      jump\t// in\n    tag_304:\n        /* \"@openzeppelin/contracts-upgradeable/proxy/utils/UUPSUpgradeable.sol\":6184:6419  returns (bytes32 slot) {... */\n      pop\n        /* \"@openzeppelin/contracts-upgradeable/proxy/utils/UUPSUpgradeable.sol\":6032:6570  function _upgradeToAndCallUUPS(address newImplementation, bytes memory data) private {... */\n      pop\n      pop\n      jump\t// out\n        /* \"@openzeppelin/contracts-upgradeable/proxy/utils/UUPSUpgradeable.sol\":5007:5220  function _checkNotDelegated() internal view virtual {... */\n    tag_191:\n        /* \"@openzeppelin/contracts-upgradeable/proxy/utils/UUPSUpgradeable.sol\":5090:5096  __self */\n      immutable(\"0x4ce4dab4689da140a0c12de1a6af6b8f679594aeb723205f513e052d27f5b26f\")\n        /* \"@openzeppelin/contracts-upgradeable/proxy/utils/UUPSUpgradeable.sol\":5073:5096  address(this) != __self */\n      0xffffffffffffffffffffffffffffffffffffffff\n      and\n        /* \"@openzeppelin/contracts-upgradeable/proxy/utils/UUPSUpgradeable.sol\":5081:5085  this */\n      address\n        /* \"@openzeppelin/contracts-upgradeable/proxy/utils/UUPSUpgradeable.sol\":5073:5096  address(this) != __self */\n      0xffffffffffffffffffffffffffffffffffffffff\n      and\n      eq\n        /* \"@openzeppelin/contracts-upgradeable/proxy/utils/UUPSUpgradeable.sol\":5069:5214  if (address(this) != __self) {... */\n      tag_307\n      jumpi\n        /* \"@openzeppelin/contracts-upgradeable/proxy/utils/UUPSUpgradeable.sol\":5174:5203  UUPSUnauthorizedCallContext() */\n      mload(0x40)\n      0xe07c8dba00000000000000000000000000000000000000000000000000000000\n      dup2\n      mstore\n      0x04\n      add\n      mload(0x40)\n      dup1\n      swap2\n      sub\n      swap1\n      revert\n        /* \"@openzeppelin/contracts-upgradeable/proxy/utils/UUPSUpgradeable.sol\":5069:5214  if (address(this) != __self) {... */\n    tag_307:\n        /* \"@openzeppelin/contracts-upgradeable/proxy/utils/UUPSUpgradeable.sol\":5007:5220  function _checkNotDelegated() internal view virtual {... */\n      jump\t// out\n        /* \"@openzeppelin/contracts-upgradeable/access/OwnableUpgradeable.sol\":3774:4022  function _transferOwnership(address newOwner) internal virtual {... */\n    tag_197:\n        /* \"@openzeppelin/contracts-upgradeable/access/OwnableUpgradeable.sol\":3847:3871  OwnableStorage storage $ */\n      0x00\n        /* \"@openzeppelin/contracts-upgradeable/access/OwnableUpgradeable.sol\":3874:3894  _getOwnableStorage() */\n      tag_309\n        /* \"@openzeppelin/contracts-upgradeable/access/OwnableUpgradeable.sol\":3874:3892  _getOwnableStorage */\n      tag_226\n        /* \"@openzeppelin/contracts-upgradeable/access/OwnableUpgradeable.sol\":3874:3894  _getOwnableStorage() */\n      jump\t// in\n    tag_309:\n        /* \"@openzeppelin/contracts-upgradeable/access/OwnableUpgradeable.sol\":3847:3894  OwnableStorage storage $ = _getOwnableStorage() */\n      swap1\n      pop\n        /* \"@openzeppelin/contracts-upgradeable/access/OwnableUpgradeable.sol\":3904:3920  address oldOwner */\n      0x00\n        /* \"@openzeppelin/contracts-upgradeable/access/OwnableUpgradeable.sol\":3923:3924  $ */\n      dup2\n        /* \"@openzeppelin/contracts-upgradeable/access/OwnableUpgradeable.sol\":3923:3931  $._owner */\n      0x00\n      add\n      0x00\n      swap1\n      sload\n      swap1\n      0x0100\n      exp\n      swap1\n      div\n      0xffffffffffffffffffffffffffffffffffffffff\n      and\n        /* \"@openzeppelin/contracts-upgradeable/access/OwnableUpgradeable.sol\":3904:3931  address oldOwner = $._owner */\n      swap1\n      pop\n        /* \"@openzeppelin/contracts-upgradeable/access/OwnableUpgradeable.sol\":3952:3960  newOwner */\n      dup3\n        /* \"@openzeppelin/contracts-upgradeable/access/OwnableUpgradeable.sol\":3941:3942  $ */\n      dup3\n        /* \"@openzeppelin/contracts-upgradeable/access/OwnableUpgradeable.sol\":3941:3949  $._owner */\n      0x00\n      add\n      0x00\n        /* \"@openzeppelin/contracts-upgradeable/access/OwnableUpgradeable.sol\":3941:3960  $._owner = newOwner */\n      0x0100\n      exp\n      dup2\n      sload\n      dup2\n      0xffffffffffffffffffffffffffffffffffffffff\n      mul\n      not\n      and\n      swap1\n      dup4\n      0xffffffffffffffffffffffffffffffffffffffff\n      and\n      mul\n      or\n      swap1\n      sstore\n      pop\n        /* \"@openzeppelin/contracts-upgradeable/access/OwnableUpgradeable.sol\":4006:4014  newOwner */\n      dup3\n        /* \"@openzeppelin/contracts-upgradeable/access/OwnableUpgradeable.sol\":3975:4015  OwnershipTransferred(oldOwner, newOwner) */\n      0xffffffffffffffffffffffffffffffffffffffff\n      and\n        /* \"@openzeppelin/contracts-upgradeable/access/OwnableUpgradeable.sol\":3996:4004  oldOwner */\n      dup2\n        /* \"@openzeppelin/contracts-upgradeable/access/OwnableUpgradeable.sol\":3975:4015  OwnershipTransferred(oldOwner, newOwner) */\n      0xffffffffffffffffffffffffffffffffffffffff\n      and\n      0x8be0079c531659141344cd1fd0a4f28419497f9722a3daafe3b4186f6b6457e0\n      mload(0x40)\n      mload(0x40)\n      dup1\n      swap2\n      sub\n      swap1\n      log3\n        /* \"@openzeppelin/contracts-upgradeable/access/OwnableUpgradeable.sol\":3837:4022  {... */\n      pop\n      pop\n        /* \"@openzeppelin/contracts-upgradeable/access/OwnableUpgradeable.sol\":3774:4022  function _transferOwnership(address newOwner) internal virtual {... */\n      pop\n      jump\t// out\n        /* \"@openzeppelin/contracts-upgradeable/access/OwnableUpgradeable.sol\":1192:1351  function _getOwnableStorage() private pure returns (OwnableStorage storage $) {... */\n    tag_226:\n        /* \"@openzeppelin/contracts-upgradeable/access/OwnableUpgradeable.sol\":1244:1268  OwnableStorage storage $ */\n      0x00\n        /* \"@openzeppelin/contracts-upgradeable/access/OwnableUpgradeable.sol\":1313:1335  OwnableStorageLocation */\n      0x9016d09d72d40fdae2fd8ceac6b6234c7706214fd39c1cd1e609a0528c199300\n        /* \"@openzeppelin/contracts-upgradeable/access/OwnableUpgradeable.sol\":1303:1335  $.slot := OwnableStorageLocation */\n      swap1\n      pop\n        /* \"@openzeppelin/contracts-upgradeable/access/OwnableUpgradeable.sol\":1192:1351  function _getOwnableStorage() private pure returns (OwnableStorage storage $) {... */\n      swap1\n      jump\t// out\n        /* \"@openzeppelin/contracts-upgradeable/utils/ContextUpgradeable.sol\":887:983  function _msgSender() internal view virtual returns (address) {... */\n    tag_267:\n        /* \"@openzeppelin/contracts-upgradeable/utils/ContextUpgradeable.sol\":940:947  address */\n      0x00\n        /* \"@openzeppelin/contracts-upgradeable/utils/ContextUpgradeable.sol\":966:976  msg.sender */\n      caller\n        /* \"@openzeppelin/contracts-upgradeable/utils/ContextUpgradeable.sol\":959:976  return msg.sender */\n      swap1\n      pop\n        /* \"@openzeppelin/contracts-upgradeable/utils/ContextUpgradeable.sol\":887:983  function _msgSender() internal view virtual returns (address) {... */\n      swap1\n      jump\t// out\n        /* \"@openzeppelin/contracts-upgradeable/proxy/utils/Initializable.sol\":8819:8941  function _initializableStorageSlot() internal pure virtual returns (bytes32) {... */\n    tag_274:\n        /* \"@openzeppelin/contracts-upgradeable/proxy/utils/Initializable.sol\":8887:8894  bytes32 */\n      0x00\n        /* \"@openzeppelin/contracts-upgradeable/proxy/utils/Initializable.sol\":3147:3213  0xf0c57e16840df040f15088dc2f81fe391c3923bec73e23a9662efc9c229c6a00 */\n      0xf0c57e16840df040f15088dc2f81fe391c3923bec73e23a9662efc9c229c6a00\n        /* \"@openzeppelin/contracts-upgradeable/proxy/utils/Initializable.sol\":8913:8934  INITIALIZABLE_STORAGE */\n      0x00\n      shl\n        /* \"@openzeppelin/contracts-upgradeable/proxy/utils/Initializable.sol\":8906:8934  return INITIALIZABLE_STORAGE */\n      swap1\n      pop\n        /* \"@openzeppelin/contracts-upgradeable/proxy/utils/Initializable.sol\":8819:8941  function _initializableStorageSlot() internal pure virtual returns (bytes32) {... */\n      swap1\n      jump\t// out\n        /* \"@openzeppelin/contracts-upgradeable/proxy/utils/Initializable.sol\":7082:7223  function _checkInitializing() internal view virtual {... */\n    tag_277:\n        /* \"@openzeppelin/contracts-upgradeable/proxy/utils/Initializable.sol\":7149:7166  _isInitializing() */\n      tag_314\n        /* \"@openzeppelin/contracts-upgradeable/proxy/utils/Initializable.sol\":7149:7164  _isInitializing */\n      tag_315\n        /* \"@openzeppelin/contracts-upgradeable/proxy/utils/Initializable.sol\":7149:7166  _isInitializing() */\n      jump\t// in\n    tag_314:\n        /* \"@openzeppelin/contracts-upgradeable/proxy/utils/Initializable.sol\":7144:7217  if (!_isInitializing()) {... */\n      tag_316\n      jumpi\n        /* \"@openzeppelin/contracts-upgradeable/proxy/utils/Initializable.sol\":7189:7206  NotInitializing() */\n      mload(0x40)\n      0xd7e6bcf800000000000000000000000000000000000000000000000000000000\n      dup2\n      mstore\n      0x04\n      add\n      mload(0x40)\n      dup1\n      swap2\n      sub\n      swap1\n      revert\n        /* \"@openzeppelin/contracts-upgradeable/proxy/utils/Initializable.sol\":7144:7217  if (!_isInitializing()) {... */\n    tag_316:\n        /* \"@openzeppelin/contracts-upgradeable/proxy/utils/Initializable.sol\":7082:7223  function _checkInitializing() internal view virtual {... */\n      jump\t// out\n        /* \"@openzeppelin/contracts-upgradeable/access/OwnableUpgradeable.sol\":1980:2215  function __Ownable_init_unchained(address initialOwner) internal onlyInitializing {... */\n    tag_280:\n        /* \"@openzeppelin/contracts-upgradeable/proxy/utils/Initializable.sol\":6929:6949  _checkInitializing() */\n      tag_318\n        /* \"@openzeppelin/contracts-upgradeable/proxy/utils/Initializable.sol\":6929:6947  _checkInitializing */\n      tag_277\n        /* \"@openzeppelin/contracts-upgradeable/proxy/utils/Initializable.sol\":6929:6949  _checkInitializing() */\n      jump\t// in\n    tag_318:\n        /* \"@openzeppelin/contracts-upgradeable/access/OwnableUpgradeable.sol\":2100:2101  0 */\n      0x00\n        /* \"@openzeppelin/contracts-upgradeable/access/OwnableUpgradeable.sol\":2076:2102  initialOwner == address(0) */\n      0xffffffffffffffffffffffffffffffffffffffff\n      and\n        /* \"@openzeppelin/contracts-upgradeable/access/OwnableUpgradeable.sol\":2076:2088  initialOwner */\n      dup2\n        /* \"@openzeppelin/contracts-upgradeable/access/OwnableUpgradeable.sol\":2076:2102  initialOwner == address(0) */\n      0xffffffffffffffffffffffffffffffffffffffff\n      and\n      sub\n        /* \"@openzeppelin/contracts-upgradeable/access/OwnableUpgradeable.sol\":2072:2167  if (initialOwner == address(0)) {... */\n      tag_320\n      jumpi\n        /* \"@openzeppelin/contracts-upgradeable/access/OwnableUpgradeable.sol\":2153:2154  0 */\n      0x00\n        /* \"@openzeppelin/contracts-upgradeable/access/OwnableUpgradeable.sol\":2125:2156  OwnableInvalidOwner(address(0)) */\n      mload(0x40)\n      0x1e4fbdf700000000000000000000000000000000000000000000000000000000\n      dup2\n      mstore\n      0x04\n      add\n      tag_321\n      swap2\n      swap1\n      tag_62\n      jump\t// in\n    tag_321:\n      mload(0x40)\n      dup1\n      swap2\n      sub\n      swap1\n      revert\n        /* \"@openzeppelin/contracts-upgradeable/access/OwnableUpgradeable.sol\":2072:2167  if (initialOwner == address(0)) {... */\n    tag_320:\n        /* \"@openzeppelin/contracts-upgradeable/access/OwnableUpgradeable.sol\":2176:2208  _transferOwnership(initialOwner) */\n      tag_322\n        /* \"@openzeppelin/contracts-upgradeable/access/OwnableUpgradeable.sol\":2195:2207  initialOwner */\n      dup2\n        /* \"@openzeppelin/contracts-upgradeable/access/OwnableUpgradeable.sol\":2176:2194  _transferOwnership */\n      tag_197\n        /* \"@openzeppelin/contracts-upgradeable/access/OwnableUpgradeable.sol\":2176:2208  _transferOwnership(initialOwner) */\n      jump\t// in\n    tag_322:\n        /* \"@openzeppelin/contracts-upgradeable/access/OwnableUpgradeable.sol\":1980:2215  function __Ownable_init_unchained(address initialOwner) internal onlyInitializing {... */\n      pop\n      jump\t// out\n        /* \"@openzeppelin/contracts/proxy/ERC1967/ERC1967Utils.sol\":1441:1579  function getImplementation() internal view returns (address) {... */\n    tag_287:\n        /* \"@openzeppelin/contracts/proxy/ERC1967/ERC1967Utils.sol\":1493:1500  address */\n      0x00\n        /* \"@openzeppelin/contracts/proxy/ERC1967/ERC1967Utils.sol\":1519:1566  StorageSlot.getAddressSlot(IMPLEMENTATION_SLOT) */\n      tag_324\n        /* \"@openzeppelin/contracts/proxy/ERC1967/ERC1967Utils.sol\":811:877  0x360894a13ba1a3210667c828492db98dca3e2076cc3735a920a3ca505d382bbc */\n      0x360894a13ba1a3210667c828492db98dca3e2076cc3735a920a3ca505d382bbc\n        /* \"@openzeppelin/contracts/proxy/ERC1967/ERC1967Utils.sol\":1546:1565  IMPLEMENTATION_SLOT */\n      0x00\n      shl\n        /* \"@openzeppelin/contracts/proxy/ERC1967/ERC1967Utils.sol\":1519:1545  StorageSlot.getAddressSlot */\n      tag_325\n        /* \"@openzeppelin/contracts/proxy/ERC1967/ERC1967Utils.sol\":1519:1566  StorageSlot.getAddressSlot(IMPLEMENTATION_SLOT) */\n      jump\t// in\n    tag_324:\n        /* \"@openzeppelin/contracts/proxy/ERC1967/ERC1967Utils.sol\":1519:1572  StorageSlot.getAddressSlot(IMPLEMENTATION_SLOT).value */\n      0x00\n      add\n      0x00\n      swap1\n      sload\n      swap1\n      0x0100\n      exp\n      swap1\n      div\n      0xffffffffffffffffffffffffffffffffffffffff\n      and\n        /* \"@openzeppelin/contracts/proxy/ERC1967/ERC1967Utils.sol\":1512:1572  return StorageSlot.getAddressSlot(IMPLEMENTATION_SLOT).value */\n      swap1\n      pop\n        /* \"@openzeppelin/contracts/proxy/ERC1967/ERC1967Utils.sol\":1441:1579  function getImplementation() internal view returns (address) {... */\n      swap1\n      jump\t// out\n        /* \"@openzeppelin/contracts/proxy/ERC1967/ERC1967Utils.sol\":2264:2608  function upgradeToAndCall(address newImplementation, bytes memory data) internal {... */\n    tag_305:\n        /* \"@openzeppelin/contracts/proxy/ERC1967/ERC1967Utils.sol\":2355:2392  _setImplementation(newImplementation) */\n      tag_327\n        /* \"@openzeppelin/contracts/proxy/ERC1967/ERC1967Utils.sol\":2374:2391  newImplementation */\n      dup3\n        /* \"@openzeppelin/contracts/proxy/ERC1967/ERC1967Utils.sol\":2355:2373  _setImplementation */\n      tag_328\n        /* \"@openzeppelin/contracts/proxy/ERC1967/ERC1967Utils.sol\":2355:2392  _setImplementation(newImplementation) */\n      jump\t// in\n    tag_327:\n        /* \"@openzeppelin/contracts/proxy/ERC1967/ERC1967Utils.sol\":2425:2442  newImplementation */\n      dup2\n        /* \"@openzeppelin/contracts/proxy/ERC1967/ERC1967Utils.sol\":2407:2443  IERC1967.Upgraded(newImplementation) */\n      0xffffffffffffffffffffffffffffffffffffffff\n      and\n      0xbc7cd75a20ee27fd9adebab32041f755214dbc6bffa90cc0225b39da2e5c2d3b\n      mload(0x40)\n      mload(0x40)\n      dup1\n      swap2\n      sub\n      swap1\n      log2\n        /* \"@openzeppelin/contracts/proxy/ERC1967/ERC1967Utils.sol\":2472:2473  0 */\n      0x00\n        /* \"@openzeppelin/contracts/proxy/ERC1967/ERC1967Utils.sol\":2458:2462  data */\n      dup2\n        /* \"@openzeppelin/contracts/proxy/ERC1967/ERC1967Utils.sol\":2458:2469  data.length */\n      mload\n        /* \"@openzeppelin/contracts/proxy/ERC1967/ERC1967Utils.sol\":2458:2473  data.length > 0 */\n      gt\n        /* \"@openzeppelin/contracts/proxy/ERC1967/ERC1967Utils.sol\":2454:2602  if (data.length > 0) {... */\n      iszero\n      tag_329\n      jumpi\n        /* \"@openzeppelin/contracts/proxy/ERC1967/ERC1967Utils.sol\":2489:2542  Address.functionDelegateCall(newImplementation, data) */\n      tag_330\n        /* \"@openzeppelin/contracts/proxy/ERC1967/ERC1967Utils.sol\":2518:2535  newImplementation */\n      dup3\n        /* \"@openzeppelin/contracts/proxy/ERC1967/ERC1967Utils.sol\":2537:2541  data */\n      dup3\n        /* \"@openzeppelin/contracts/proxy/ERC1967/ERC1967Utils.sol\":2489:2517  Address.functionDelegateCall */\n      tag_331\n        /* \"@openzeppelin/contracts/proxy/ERC1967/ERC1967Utils.sol\":2489:2542  Address.functionDelegateCall(newImplementation, data) */\n      jump\t// in\n    tag_330:\n      pop\n        /* \"@openzeppelin/contracts/proxy/ERC1967/ERC1967Utils.sol\":2454:2602  if (data.length > 0) {... */\n      jump(tag_332)\n    tag_329:\n        /* \"@openzeppelin/contracts/proxy/ERC1967/ERC1967Utils.sol\":2573:2591  _checkNonPayable() */\n      tag_333\n        /* \"@openzeppelin/contracts/proxy/ERC1967/ERC1967Utils.sol\":2573:2589  _checkNonPayable */\n      tag_334\n        /* \"@openzeppelin/contracts/proxy/ERC1967/ERC1967Utils.sol\":2573:2591  _checkNonPayable() */\n      jump\t// in\n    tag_333:\n        /* \"@openzeppelin/contracts/proxy/ERC1967/ERC1967Utils.sol\":2454:2602  if (data.length > 0) {... */\n    tag_332:\n        /* \"@openzeppelin/contracts/proxy/ERC1967/ERC1967Utils.sol\":2264:2608  function upgradeToAndCall(address newImplementation, bytes memory data) internal {... */\n      pop\n      pop\n      jump\t// out\n        /* \"@openzeppelin/contracts-upgradeable/proxy/utils/Initializable.sol\":8485:8605  function _isInitializing() internal view returns (bool) {... */\n    tag_315:\n        /* \"@openzeppelin/contracts-upgradeable/proxy/utils/Initializable.sol\":8535:8539  bool */\n      0x00\n        /* \"@openzeppelin/contracts-upgradeable/proxy/utils/Initializable.sol\":8558:8584  _getInitializableStorage() */\n      tag_336\n        /* \"@openzeppelin/contracts-upgradeable/proxy/utils/Initializable.sol\":8558:8582  _getInitializableStorage */\n      tag_162\n        /* \"@openzeppelin/contracts-upgradeable/proxy/utils/Initializable.sol\":8558:8584  _getInitializableStorage() */\n      jump\t// in\n    tag_336:\n        /* \"@openzeppelin/contracts-upgradeable/proxy/utils/Initializable.sol\":8558:8598  _getInitializableStorage()._initializing */\n      0x00\n      add\n      0x08\n      swap1\n      sload\n      swap1\n      0x0100\n      exp\n      swap1\n      div\n      0xff\n      and\n        /* \"@openzeppelin/contracts-upgradeable/proxy/utils/Initializable.sol\":8551:8598  return _getInitializableStorage()._initializing */\n      swap1\n      pop\n        /* \"@openzeppelin/contracts-upgradeable/proxy/utils/Initializable.sol\":8485:8605  function _isInitializing() internal view returns (bool) {... */\n      swap1\n      jump\t// out\n        /* \"@openzeppelin/contracts/utils/StorageSlot.sol\":1899:2062  function getAddressSlot(bytes32 slot) internal pure returns (AddressSlot storage r) {... */\n    tag_325:\n        /* \"@openzeppelin/contracts/utils/StorageSlot.sol\":1960:1981  AddressSlot storage r */\n      0x00\n        /* \"@openzeppelin/contracts/utils/StorageSlot.sol\":2042:2046  slot */\n      dup2\n        /* \"@openzeppelin/contracts/utils/StorageSlot.sol\":2032:2046  r.slot := slot */\n      swap1\n      pop\n        /* \"@openzeppelin/contracts/utils/StorageSlot.sol\":1899:2062  function getAddressSlot(bytes32 slot) internal pure returns (AddressSlot storage r) {... */\n      swap2\n      swap1\n      pop\n      jump\t// out\n        /* \"@openzeppelin/contracts/proxy/ERC1967/ERC1967Utils.sol\":1671:1952  function _setImplementation(address newImplementation) private {... */\n    tag_328:\n        /* \"@openzeppelin/contracts/proxy/ERC1967/ERC1967Utils.sol\":1781:1782  0 */\n      0x00\n        /* \"@openzeppelin/contracts/proxy/ERC1967/ERC1967Utils.sol\":1748:1765  newImplementation */\n      dup2\n        /* \"@openzeppelin/contracts/proxy/ERC1967/ERC1967Utils.sol\":1748:1777  newImplementation.code.length */\n      0xffffffffffffffffffffffffffffffffffffffff\n      and\n      extcodesize\n        /* \"@openzeppelin/contracts/proxy/ERC1967/ERC1967Utils.sol\":1748:1782  newImplementation.code.length == 0 */\n      sub\n        /* \"@openzeppelin/contracts/proxy/ERC1967/ERC1967Utils.sol\":1744:1863  if (newImplementation.code.length == 0) {... */\n      tag_339\n      jumpi\n        /* \"@openzeppelin/contracts/proxy/ERC1967/ERC1967Utils.sol\":1834:1851  newImplementation */\n      dup1\n        /* \"@openzeppelin/contracts/proxy/ERC1967/ERC1967Utils.sol\":1805:1852  ERC1967InvalidImplementation(newImplementation) */\n      mload(0x40)\n      0x4c9c8ce300000000000000000000000000000000000000000000000000000000\n      dup2\n      mstore\n      0x04\n      add\n      tag_340\n      swap2\n      swap1\n      tag_62\n      jump\t// in\n    tag_340:\n      mload(0x40)\n      dup1\n      swap2\n      sub\n      swap1\n      revert\n        /* \"@openzeppelin/contracts/proxy/ERC1967/ERC1967Utils.sol\":1744:1863  if (newImplementation.code.length == 0) {... */\n    tag_339:\n        /* \"@openzeppelin/contracts/proxy/ERC1967/ERC1967Utils.sol\":1928:1945  newImplementation */\n      dup1\n        /* \"@openzeppelin/contracts/proxy/ERC1967/ERC1967Utils.sol\":1872:1919  StorageSlot.getAddressSlot(IMPLEMENTATION_SLOT) */\n      tag_341\n        /* \"@openzeppelin/contracts/proxy/ERC1967/ERC1967Utils.sol\":811:877  0x360894a13ba1a3210667c828492db98dca3e2076cc3735a920a3ca505d382bbc */\n      0x360894a13ba1a3210667c828492db98dca3e2076cc3735a920a3ca505d382bbc\n        /* \"@openzeppelin/contracts/proxy/ERC1967/ERC1967Utils.sol\":1899:1918  IMPLEMENTATION_SLOT */\n      0x00\n      shl\n        /* \"@openzeppelin/contracts/proxy/ERC1967/ERC1967Utils.sol\":1872:1898  StorageSlot.getAddressSlot */\n      tag_325\n        /* \"@openzeppelin/contracts/proxy/ERC1967/ERC1967Utils.sol\":1872:1919  StorageSlot.getAddressSlot(IMPLEMENTATION_SLOT) */\n      jump\t// in\n    tag_341:\n        /* \"@openzeppelin/contracts/proxy/ERC1967/ERC1967Utils.sol\":1872:1925  StorageSlot.getAddressSlot(IMPLEMENTATION_SLOT).value */\n      0x00\n      add\n      0x00\n        /* \"@openzeppelin/contracts/proxy/ERC1967/ERC1967Utils.sol\":1872:1945  StorageSlot.getAddressSlot(IMPLEMENTATION_SLOT).value = newImplementation */\n      0x0100\n      exp\n      dup2\n      sload\n      dup2\n      0xffffffffffffffffffffffffffffffffffffffff\n      mul\n      not\n      and\n      swap1\n      dup4\n      0xffffffffffffffffffffffffffffffffffffffff\n      and\n      mul\n      or\n      swap1\n      sstore\n      pop\n        /* \"@openzeppelin/contracts/proxy/ERC1967/ERC1967Utils.sol\":1671:1952  function _setImplementation(address newImplementation) private {... */\n      pop\n      jump\t// out\n        /* \"@openzeppelin/contracts/utils/Address.sol\":3916:4169  function functionDelegateCall(address target, bytes memory data) internal returns (bytes memory) {... */\n    tag_331:\n        /* \"@openzeppelin/contracts/utils/Address.sol\":3999:4011  bytes memory */\n      0x60\n        /* \"@openzeppelin/contracts/utils/Address.sol\":4024:4036  bool success */\n      0x00\n        /* \"@openzeppelin/contracts/utils/Address.sol\":4038:4061  bytes memory returndata */\n      0x00\n        /* \"@openzeppelin/contracts/utils/Address.sol\":4065:4071  target */\n      dup5\n        /* \"@openzeppelin/contracts/utils/Address.sol\":4065:4084  target.delegatecall */\n      0xffffffffffffffffffffffffffffffffffffffff\n      and\n        /* \"@openzeppelin/contracts/utils/Address.sol\":4085:4089  data */\n      dup5\n        /* \"@openzeppelin/contracts/utils/Address.sol\":4065:4090  target.delegatecall(data) */\n      mload(0x40)\n      tag_343\n      swap2\n      swap1\n      tag_93\n      jump\t// in\n    tag_343:\n      0x00\n      mload(0x40)\n      dup1\n      dup4\n      sub\n      dup2\n      dup6\n      gas\n      delegatecall\n      swap2\n      pop\n      pop\n      returndatasize\n      dup1\n      0x00\n      dup2\n      eq\n      tag_346\n      jumpi\n      mload(0x40)\n      swap2\n      pop\n      and(add(returndatasize, 0x3f), not(0x1f))\n      dup3\n      add\n      0x40\n      mstore\n      returndatasize\n      dup3\n      mstore\n      returndatasize\n      0x00\n      0x20\n      dup5\n      add\n      returndatacopy\n      jump(tag_345)\n    tag_346:\n      0x60\n      swap2\n      pop\n    tag_345:\n      pop\n        /* \"@openzeppelin/contracts/utils/Address.sol\":4023:4090  (bool success, bytes memory returndata) = target.delegatecall(data) */\n      swap2\n      pop\n      swap2\n      pop\n        /* \"@openzeppelin/contracts/utils/Address.sol\":4107:4162  verifyCallResultFromTarget(target, success, returndata) */\n      tag_347\n        /* \"@openzeppelin/contracts/utils/Address.sol\":4134:4140  target */\n      dup6\n        /* \"@openzeppelin/contracts/utils/Address.sol\":4142:4149  success */\n      dup4\n        /* \"@openzeppelin/contracts/utils/Address.sol\":4151:4161  returndata */\n      dup4\n        /* \"@openzeppelin/contracts/utils/Address.sol\":4107:4133  verifyCallResultFromTarget */\n      tag_348\n        /* \"@openzeppelin/contracts/utils/Address.sol\":4107:4162  verifyCallResultFromTarget(target, success, returndata) */\n      jump\t// in\n    tag_347:\n        /* \"@openzeppelin/contracts/utils/Address.sol\":4100:4162  return verifyCallResultFromTarget(target, success, returndata) */\n      swap3\n      pop\n      pop\n      pop\n        /* \"@openzeppelin/contracts/utils/Address.sol\":3916:4169  function functionDelegateCall(address target, bytes memory data) internal returns (bytes memory) {... */\n      swap3\n      swap2\n      pop\n      pop\n      jump\t// out\n        /* \"@openzeppelin/contracts/proxy/ERC1967/ERC1967Utils.sol\":6113:6235  function _checkNonPayable() private {... */\n    tag_334:\n        /* \"@openzeppelin/contracts/proxy/ERC1967/ERC1967Utils.sol\":6175:6176  0 */\n      0x00\n        /* \"@openzeppelin/contracts/proxy/ERC1967/ERC1967Utils.sol\":6163:6172  msg.value */\n      callvalue\n        /* \"@openzeppelin/contracts/proxy/ERC1967/ERC1967Utils.sol\":6163:6176  msg.value > 0 */\n      gt\n        /* \"@openzeppelin/contracts/proxy/ERC1967/ERC1967Utils.sol\":6159:6229  if (msg.value > 0) {... */\n      iszero\n      tag_350\n      jumpi\n        /* \"@openzeppelin/contracts/proxy/ERC1967/ERC1967Utils.sol\":6199:6218  ERC1967NonPayable() */\n      mload(0x40)\n      0xb398979f00000000000000000000000000000000000000000000000000000000\n      dup2\n      mstore\n      0x04\n      add\n      mload(0x40)\n      dup1\n      swap2\n      sub\n      swap1\n      revert\n        /* \"@openzeppelin/contracts/proxy/ERC1967/ERC1967Utils.sol\":6159:6229  if (msg.value > 0) {... */\n    tag_350:\n        /* \"@openzeppelin/contracts/proxy/ERC1967/ERC1967Utils.sol\":6113:6235  function _checkNonPayable() private {... */\n      jump\t// out\n        /* \"@openzeppelin/contracts/utils/Address.sol\":4437:5019  function verifyCallResultFromTarget(... */\n    tag_348:\n        /* \"@openzeppelin/contracts/utils/Address.sol\":4581:4593  bytes memory */\n      0x60\n        /* \"@openzeppelin/contracts/utils/Address.sol\":4610:4617  success */\n      dup3\n        /* \"@openzeppelin/contracts/utils/Address.sol\":4605:5013  if (!success) {... */\n      tag_352\n      jumpi\n        /* \"@openzeppelin/contracts/utils/Address.sol\":4633:4652  _revert(returndata) */\n      tag_353\n        /* \"@openzeppelin/contracts/utils/Address.sol\":4641:4651  returndata */\n      dup3\n        /* \"@openzeppelin/contracts/utils/Address.sol\":4633:4640  _revert */\n      tag_354\n        /* \"@openzeppelin/contracts/utils/Address.sol\":4633:4652  _revert(returndata) */\n      jump\t// in\n    tag_353:\n        /* \"@openzeppelin/contracts/utils/Address.sol\":4605:5013  if (!success) {... */\n      jump(tag_355)\n    tag_352:\n        /* \"@openzeppelin/contracts/utils/Address.sol\":4878:4879  0 */\n      0x00\n        /* \"@openzeppelin/contracts/utils/Address.sol\":4857:4867  returndata */\n      dup3\n        /* \"@openzeppelin/contracts/utils/Address.sol\":4857:4874  returndata.length */\n      mload\n        /* \"@openzeppelin/contracts/utils/Address.sol\":4857:4879  returndata.length == 0 */\n      eq\n        /* \"@openzeppelin/contracts/utils/Address.sol\":4857:4906  returndata.length == 0 && target.code.length == 0 */\n      dup1\n      iszero\n      tag_356\n      jumpi\n      pop\n        /* \"@openzeppelin/contracts/utils/Address.sol\":4905:4906  0 */\n      0x00\n        /* \"@openzeppelin/contracts/utils/Address.sol\":4883:4889  target */\n      dup5\n        /* \"@openzeppelin/contracts/utils/Address.sol\":4883:4901  target.code.length */\n      0xffffffffffffffffffffffffffffffffffffffff\n      and\n      extcodesize\n        /* \"@openzeppelin/contracts/utils/Address.sol\":4883:4906  target.code.length == 0 */\n      eq\n        /* \"@openzeppelin/contracts/utils/Address.sol\":4857:4906  returndata.length == 0 && target.code.length == 0 */\n    tag_356:\n        /* \"@openzeppelin/contracts/utils/Address.sol\":4853:4972  if (returndata.length == 0 && target.code.length == 0) {... */\n      iszero\n      tag_357\n      jumpi\n        /* \"@openzeppelin/contracts/utils/Address.sol\":4950:4956  target */\n      dup4\n        /* \"@openzeppelin/contracts/utils/Address.sol\":4933:4957  AddressEmptyCode(target) */\n      mload(0x40)\n      0x9996b31500000000000000000000000000000000000000000000000000000000\n      dup2\n      mstore\n      0x04\n      add\n      tag_358\n      swap2\n      swap1\n      tag_62\n      jump\t// in\n    tag_358:\n      mload(0x40)\n      dup1\n      swap2\n      sub\n      swap1\n      revert\n        /* \"@openzeppelin/contracts/utils/Address.sol\":4853:4972  if (returndata.length == 0 && target.code.length == 0) {... */\n    tag_357:\n        /* \"@openzeppelin/contracts/utils/Address.sol\":4992:5002  returndata */\n      dup2\n        /* \"@openzeppelin/contracts/utils/Address.sol\":4985:5002  return returndata */\n      swap1\n      pop\n      jump(tag_351)\n        /* \"@openzeppelin/contracts/utils/Address.sol\":4605:5013  if (!success) {... */\n    tag_355:\n        /* \"@openzeppelin/contracts/utils/Address.sol\":4437:5019  function verifyCallResultFromTarget(... */\n    tag_351:\n      swap4\n      swap3\n      pop\n      pop\n      pop\n      jump\t// out\n        /* \"@openzeppelin/contracts/utils/Address.sol\":5559:5993  function _revert(bytes memory returndata) private pure {... */\n    tag_354:\n        /* \"@openzeppelin/contracts/utils/Address.sol\":5710:5711  0 */\n      0x00\n        /* \"@openzeppelin/contracts/utils/Address.sol\":5690:5700  returndata */\n      dup2\n        /* \"@openzeppelin/contracts/utils/Address.sol\":5690:5707  returndata.length */\n      mload\n        /* \"@openzeppelin/contracts/utils/Address.sol\":5690:5711  returndata.length > 0 */\n      gt\n        /* \"@openzeppelin/contracts/utils/Address.sol\":5686:5987  if (returndata.length > 0) {... */\n      iszero\n      tag_360\n      jumpi\n        /* \"@openzeppelin/contracts/utils/Address.sol\":5894:5904  returndata */\n      dup1\n        /* \"@openzeppelin/contracts/utils/Address.sol\":5888:5905  mload(returndata) */\n      mload\n        /* \"@openzeppelin/contracts/utils/Address.sol\":5881:5885  0x20 */\n      0x20\n        /* \"@openzeppelin/contracts/utils/Address.sol\":5869:5879  returndata */\n      dup3\n        /* \"@openzeppelin/contracts/utils/Address.sol\":5865:5886  add(returndata, 0x20) */\n      add\n        /* \"@openzeppelin/contracts/utils/Address.sol\":5858:5906  revert(add(returndata, 0x20), mload(returndata)) */\n      revert\n        /* \"@openzeppelin/contracts/utils/Address.sol\":5686:5987  if (returndata.length > 0) {... */\n    tag_360:\n        /* \"@openzeppelin/contracts/utils/Address.sol\":5957:5976  Errors.FailedCall() */\n      mload(0x40)\n      0xd6bda27500000000000000000000000000000000000000000000000000000000\n      dup2\n      mstore\n      0x04\n      add\n      mload(0x40)\n      dup1\n      swap2\n      sub\n      swap1\n      revert\n        /* \"#utility.yul\":7:82   */\n    tag_362:\n        /* \"#utility.yul\":40:46   */\n      0x00\n        /* \"#utility.yul\":73:75   */\n      0x40\n        /* \"#utility.yul\":67:76   */\n      mload\n        /* \"#utility.yul\":57:76   */\n      swap1\n      pop\n        /* \"#utility.yul\":7:82   */\n      swap1\n      jump\t// out\n        /* \"#utility.yul\":88:205   */\n    tag_363:\n        /* \"#utility.yul\":197:198   */\n      0x00\n        /* \"#utility.yul\":194:195   */\n      0x00\n        /* \"#utility.yul\":187:199   */\n      revert\n        /* \"#utility.yul\":211:328   */\n    tag_364:\n        /* \"#utility.yul\":320:321   */\n      0x00\n        /* \"#utility.yul\":317:318   */\n      0x00\n        /* \"#utility.yul\":310:322   */\n      revert\n        /* \"#utility.yul\":334:460   */\n    tag_365:\n        /* \"#utility.yul\":371:378   */\n      0x00\n        /* \"#utility.yul\":411:453   */\n      0xffffffffffffffffffffffffffffffffffffffff\n        /* \"#utility.yul\":404:409   */\n      dup3\n        /* \"#utility.yul\":400:454   */\n      and\n        /* \"#utility.yul\":389:454   */\n      swap1\n      pop\n        /* \"#utility.yul\":334:460   */\n      swap2\n      swap1\n      pop\n      jump\t// out\n        /* \"#utility.yul\":466:562   */\n    tag_366:\n        /* \"#utility.yul\":503:510   */\n      0x00\n        /* \"#utility.yul\":532:556   */\n      tag_442\n        /* \"#utility.yul\":550:555   */\n      dup3\n        /* \"#utility.yul\":532:556   */\n      tag_365\n      jump\t// in\n    tag_442:\n        /* \"#utility.yul\":521:556   */\n      swap1\n      pop\n        /* \"#utility.yul\":466:562   */\n      swap2\n      swap1\n      pop\n      jump\t// out\n        /* \"#utility.yul\":568:690   */\n    tag_367:\n        /* \"#utility.yul\":641:665   */\n      tag_444\n        /* \"#utility.yul\":659:664   */\n      dup2\n        /* \"#utility.yul\":641:665   */\n      tag_366\n      jump\t// in\n    tag_444:\n        /* \"#utility.yul\":634:639   */\n      dup2\n        /* \"#utility.yul\":631:666   */\n      eq\n        /* \"#utility.yul\":621:684   */\n      tag_445\n      jumpi\n        /* \"#utility.yul\":680:681   */\n      0x00\n        /* \"#utility.yul\":677:678   */\n      0x00\n        /* \"#utility.yul\":670:682   */\n      revert\n        /* \"#utility.yul\":621:684   */\n    tag_445:\n        /* \"#utility.yul\":568:690   */\n      pop\n      jump\t// out\n        /* \"#utility.yul\":696:835   */\n    tag_368:\n        /* \"#utility.yul\":742:747   */\n      0x00\n        /* \"#utility.yul\":780:786   */\n      dup2\n        /* \"#utility.yul\":767:787   */\n      calldataload\n        /* \"#utility.yul\":758:787   */\n      swap1\n      pop\n        /* \"#utility.yul\":796:829   */\n      tag_447\n        /* \"#utility.yul\":823:828   */\n      dup2\n        /* \"#utility.yul\":796:829   */\n      tag_367\n      jump\t// in\n    tag_447:\n        /* \"#utility.yul\":696:835   */\n      swap3\n      swap2\n      pop\n      pop\n      jump\t// out\n        /* \"#utility.yul\":841:1170   */\n    tag_23:\n        /* \"#utility.yul\":900:906   */\n      0x00\n        /* \"#utility.yul\":949:951   */\n      0x20\n        /* \"#utility.yul\":937:946   */\n      dup3\n        /* \"#utility.yul\":928:935   */\n      dup5\n        /* \"#utility.yul\":924:947   */\n      sub\n        /* \"#utility.yul\":920:952   */\n      slt\n        /* \"#utility.yul\":917:1036   */\n      iszero\n      tag_449\n      jumpi\n        /* \"#utility.yul\":955:1034   */\n      tag_450\n      tag_363\n      jump\t// in\n    tag_450:\n        /* \"#utility.yul\":917:1036   */\n    tag_449:\n        /* \"#utility.yul\":1075:1076   */\n      0x00\n        /* \"#utility.yul\":1100:1153   */\n      tag_451\n        /* \"#utility.yul\":1145:1152   */\n      dup5\n        /* \"#utility.yul\":1136:1142   */\n      dup3\n        /* \"#utility.yul\":1125:1134   */\n      dup6\n        /* \"#utility.yul\":1121:1143   */\n      add\n        /* \"#utility.yul\":1100:1153   */\n      tag_368\n      jump\t// in\n    tag_451:\n        /* \"#utility.yul\":1090:1153   */\n      swap2\n      pop\n        /* \"#utility.yul\":1046:1163   */\n      pop\n        /* \"#utility.yul\":841:1170   */\n      swap3\n      swap2\n      pop\n      pop\n      jump\t// out\n        /* \"#utility.yul\":1176:1253   */\n    tag_369:\n        /* \"#utility.yul\":1213:1220   */\n      0x00\n        /* \"#utility.yul\":1242:1247   */\n      dup2\n        /* \"#utility.yul\":1231:1247   */\n      swap1\n      pop\n        /* \"#utility.yul\":1176:1253   */\n      swap2\n      swap1\n      pop\n      jump\t// out\n        /* \"#utility.yul\":1259:1377   */\n    tag_370:\n        /* \"#utility.yul\":1346:1370   */\n      tag_454\n        /* \"#utility.yul\":1364:1369   */\n      dup2\n        /* \"#utility.yul\":1346:1370   */\n      tag_369\n      jump\t// in\n    tag_454:\n        /* \"#utility.yul\":1341:1344   */\n      dup3\n        /* \"#utility.yul\":1334:1371   */\n      mstore\n        /* \"#utility.yul\":1259:1377   */\n      pop\n      pop\n      jump\t// out\n        /* \"#utility.yul\":1383:1605   */\n    tag_26:\n        /* \"#utility.yul\":1476:1480   */\n      0x00\n        /* \"#utility.yul\":1514:1516   */\n      0x20\n        /* \"#utility.yul\":1503:1512   */\n      dup3\n        /* \"#utility.yul\":1499:1517   */\n      add\n        /* \"#utility.yul\":1491:1517   */\n      swap1\n      pop\n        /* \"#utility.yul\":1527:1598   */\n      tag_456\n        /* \"#utility.yul\":1595:1596   */\n      0x00\n        /* \"#utility.yul\":1584:1593   */\n      dup4\n        /* \"#utility.yul\":1580:1597   */\n      add\n        /* \"#utility.yul\":1571:1577   */\n      dup5\n        /* \"#utility.yul\":1527:1598   */\n      tag_370\n      jump\t// in\n    tag_456:\n        /* \"#utility.yul\":1383:1605   */\n      swap3\n      swap2\n      pop\n      pop\n      jump\t// out\n        /* \"#utility.yul\":1611:1733   */\n    tag_371:\n        /* \"#utility.yul\":1684:1708   */\n      tag_458\n        /* \"#utility.yul\":1702:1707   */\n      dup2\n        /* \"#utility.yul\":1684:1708   */\n      tag_369\n      jump\t// in\n    tag_458:\n        /* \"#utility.yul\":1677:1682   */\n      dup2\n        /* \"#utility.yul\":1674:1709   */\n      eq\n        /* \"#utility.yul\":1664:1727   */\n      tag_459\n      jumpi\n        /* \"#utility.yul\":1723:1724   */\n      0x00\n        /* \"#utility.yul\":1720:1721   */\n      0x00\n        /* \"#utility.yul\":1713:1725   */\n      revert\n        /* \"#utility.yul\":1664:1727   */\n    tag_459:\n        /* \"#utility.yul\":1611:1733   */\n      pop\n      jump\t// out\n        /* \"#utility.yul\":1739:1878   */\n    tag_372:\n        /* \"#utility.yul\":1785:1790   */\n      0x00\n        /* \"#utility.yul\":1823:1829   */\n      dup2\n        /* \"#utility.yul\":1810:1830   */\n      calldataload\n        /* \"#utility.yul\":1801:1830   */\n      swap1\n      pop\n        /* \"#utility.yul\":1839:1872   */\n      tag_461\n        /* \"#utility.yul\":1866:1871   */\n      dup2\n        /* \"#utility.yul\":1839:1872   */\n      tag_371\n      jump\t// in\n    tag_461:\n        /* \"#utility.yul\":1739:1878   */\n      swap3\n      swap2\n      pop\n      pop\n      jump\t// out\n        /* \"#utility.yul\":1884:1970   */\n    tag_373:\n        /* \"#utility.yul\":1919:1926   */\n      0x00\n        /* \"#utility.yul\":1959:1963   */\n      0xff\n        /* \"#utility.yul\":1952:1957   */\n      dup3\n        /* \"#utility.yul\":1948:1964   */\n      and\n        /* \"#utility.yul\":1937:1964   */\n      swap1\n      pop\n        /* \"#utility.yul\":1884:1970   */\n      swap2\n      swap1\n      pop\n      jump\t// out\n        /* \"#utility.yul\":1976:2094   */\n    tag_374:\n        /* \"#utility.yul\":2047:2069   */\n      tag_464\n        /* \"#utility.yul\":2063:2068   */\n      dup2\n        /* \"#utility.yul\":2047:2069   */\n      tag_373\n      jump\t// in\n    tag_464:\n        /* \"#utility.yul\":2040:2045   */\n      dup2\n        /* \"#utility.yul\":2037:2070   */\n      eq\n        /* \"#utility.yul\":2027:2088   */\n      tag_465\n      jumpi\n        /* \"#utility.yul\":2084:2085   */\n      0x00\n        /* \"#utility.yul\":2081:2082   */\n      0x00\n        /* \"#utility.yul\":2074:2086   */\n      revert\n        /* \"#utility.yul\":2027:2088   */\n    tag_465:\n        /* \"#utility.yul\":1976:2094   */\n      pop\n      jump\t// out\n        /* \"#utility.yul\":2100:2235   */\n    tag_375:\n        /* \"#utility.yul\":2144:2149   */\n      0x00\n        /* \"#utility.yul\":2182:2188   */\n      dup2\n        /* \"#utility.yul\":2169:2189   */\n      calldataload\n        /* \"#utility.yul\":2160:2189   */\n      swap1\n      pop\n        /* \"#utility.yul\":2198:2229   */\n      tag_467\n        /* \"#utility.yul\":2223:2228   */\n      dup2\n        /* \"#utility.yul\":2198:2229   */\n      tag_374\n      jump\t// in\n    tag_467:\n        /* \"#utility.yul\":2100:2235   */\n      swap3\n      swap2\n      pop\n      pop\n      jump\t// out\n        /* \"#utility.yul\":2241:2318   */\n    tag_376:\n        /* \"#utility.yul\":2278:2285   */\n      0x00\n        /* \"#utility.yul\":2307:2312   */\n      dup2\n        /* \"#utility.yul\":2296:2312   */\n      swap1\n      pop\n        /* \"#utility.yul\":2241:2318   */\n      swap2\n      swap1\n      pop\n      jump\t// out\n        /* \"#utility.yul\":2324:2446   */\n    tag_377:\n        /* \"#utility.yul\":2397:2421   */\n      tag_470\n        /* \"#utility.yul\":2415:2420   */\n      dup2\n        /* \"#utility.yul\":2397:2421   */\n      tag_376\n      jump\t// in\n    tag_470:\n        /* \"#utility.yul\":2390:2395   */\n      dup2\n        /* \"#utility.yul\":2387:2422   */\n      eq\n        /* \"#utility.yul\":2377:2440   */\n      tag_471\n      jumpi\n        /* \"#utility.yul\":2436:2437   */\n      0x00\n        /* \"#utility.yul\":2433:2434   */\n      0x00\n        /* \"#utility.yul\":2426:2438   */\n      revert\n        /* \"#utility.yul\":2377:2440   */\n    tag_471:\n        /* \"#utility.yul\":2324:2446   */\n      pop\n      jump\t// out\n        /* \"#utility.yul\":2452:2591   */\n    tag_378:\n        /* \"#utility.yul\":2498:2503   */\n      0x00\n        /* \"#utility.yul\":2536:2542   */\n      dup2\n        /* \"#utility.yul\":2523:2543   */\n      calldataload\n        /* \"#utility.yul\":2514:2543   */\n      swap1\n      pop\n        /* \"#utility.yul\":2552:2585   */\n      tag_473\n        /* \"#utility.yul\":2579:2584   */\n      dup2\n        /* \"#utility.yul\":2552:2585   */\n      tag_377\n      jump\t// in\n    tag_473:\n        /* \"#utility.yul\":2452:2591   */\n      swap3\n      swap2\n      pop\n      pop\n      jump\t// out\n        /* \"#utility.yul\":2597:3650   */\n    tag_30:\n        /* \"#utility.yul\":2699:2705   */\n      0x00\n        /* \"#utility.yul\":2707:2713   */\n      0x00\n        /* \"#utility.yul\":2715:2721   */\n      0x00\n        /* \"#utility.yul\":2723:2729   */\n      0x00\n        /* \"#utility.yul\":2731:2737   */\n      0x00\n        /* \"#utility.yul\":2739:2745   */\n      0x00\n        /* \"#utility.yul\":2788:2791   */\n      0xc0\n        /* \"#utility.yul\":2776:2785   */\n      dup8\n        /* \"#utility.yul\":2767:2774   */\n      dup10\n        /* \"#utility.yul\":2763:2786   */\n      sub\n        /* \"#utility.yul\":2759:2792   */\n      slt\n        /* \"#utility.yul\":2756:2876   */\n      iszero\n      tag_475\n      jumpi\n        /* \"#utility.yul\":2795:2874   */\n      tag_476\n      tag_363\n      jump\t// in\n    tag_476:\n        /* \"#utility.yul\":2756:2876   */\n    tag_475:\n        /* \"#utility.yul\":2915:2916   */\n      0x00\n        /* \"#utility.yul\":2940:2993   */\n      tag_477\n        /* \"#utility.yul\":2985:2992   */\n      dup10\n        /* \"#utility.yul\":2976:2982   */\n      dup3\n        /* \"#utility.yul\":2965:2974   */\n      dup11\n        /* \"#utility.yul\":2961:2983   */\n      add\n        /* \"#utility.yul\":2940:2993   */\n      tag_368\n      jump\t// in\n    tag_477:\n        /* \"#utility.yul\":2930:2993   */\n      swap7\n      pop\n        /* \"#utility.yul\":2886:3003   */\n      pop\n        /* \"#utility.yul\":3042:3044   */\n      0x20\n        /* \"#utility.yul\":3068:3121   */\n      tag_478\n        /* \"#utility.yul\":3113:3120   */\n      dup10\n        /* \"#utility.yul\":3104:3110   */\n      dup3\n        /* \"#utility.yul\":3093:3102   */\n      dup11\n        /* \"#utility.yul\":3089:3111   */\n      add\n        /* \"#utility.yul\":3068:3121   */\n      tag_372\n      jump\t// in\n    tag_478:\n        /* \"#utility.yul\":3058:3121   */\n      swap6\n      pop\n        /* \"#utility.yul\":3013:3131   */\n      pop\n        /* \"#utility.yul\":3170:3172   */\n      0x40\n        /* \"#utility.yul\":3196:3249   */\n      tag_479\n        /* \"#utility.yul\":3241:3248   */\n      dup10\n        /* \"#utility.yul\":3232:3238   */\n      dup3\n        /* \"#utility.yul\":3221:3230   */\n      dup11\n        /* \"#utility.yul\":3217:3239   */\n      add\n        /* \"#utility.yul\":3196:3249   */\n      tag_372\n      jump\t// in\n    tag_479:\n        /* \"#utility.yul\":3186:3249   */\n      swap5\n      pop\n        /* \"#utility.yul\":3141:3259   */\n      pop\n        /* \"#utility.yul\":3298:3300   */\n      0x60\n        /* \"#utility.yul\":3324:3375   */\n      tag_480\n        /* \"#utility.yul\":3367:3374   */\n      dup10\n        /* \"#utility.yul\":3358:3364   */\n      dup3\n        /* \"#utility.yul\":3347:3356   */\n      dup11\n        /* \"#utility.yul\":3343:3365   */\n      add\n        /* \"#utility.yul\":3324:3375   */\n      tag_375\n      jump\t// in\n    tag_480:\n        /* \"#utility.yul\":3314:3375   */\n      swap4\n      pop\n        /* \"#utility.yul\":3269:3385   */\n      pop\n        /* \"#utility.yul\":3424:3427   */\n      0x80\n        /* \"#utility.yul\":3451:3504   */\n      tag_481\n        /* \"#utility.yul\":3496:3503   */\n      dup10\n        /* \"#utility.yul\":3487:3493   */\n      dup3\n        /* \"#utility.yul\":3476:3485   */\n      dup11\n        /* \"#utility.yul\":3472:3494   */\n      add\n        /* \"#utility.yul\":3451:3504   */\n      tag_378\n      jump\t// in\n    tag_481:\n        /* \"#utility.yul\":3441:3504   */\n      swap3\n      pop\n        /* \"#utility.yul\":3395:3514   */\n      pop\n        /* \"#utility.yul\":3553:3556   */\n      0xa0\n        /* \"#utility.yul\":3580:3633   */\n      tag_482\n        /* \"#utility.yul\":3625:3632   */\n      dup10\n        /* \"#utility.yul\":3616:3622   */\n      dup3\n        /* \"#utility.yul\":3605:3614   */\n      dup11\n        /* \"#utility.yul\":3601:3623   */\n      add\n        /* \"#utility.yul\":3580:3633   */\n      tag_378\n      jump\t// in\n    tag_482:\n        /* \"#utility.yul\":3570:3633   */\n      swap2\n      pop\n        /* \"#utility.yul\":3524:3643   */\n      pop\n        /* \"#utility.yul\":2597:3650   */\n      swap3\n      swap6\n      pop\n      swap3\n      swap6\n      pop\n      swap3\n      swap6\n      jump\t// out\n        /* \"#utility.yul\":3656:4130   */\n    tag_35:\n        /* \"#utility.yul\":3724:3730   */\n      0x00\n        /* \"#utility.yul\":3732:3738   */\n      0x00\n        /* \"#utility.yul\":3781:3783   */\n      0x40\n        /* \"#utility.yul\":3769:3778   */\n      dup4\n        /* \"#utility.yul\":3760:3767   */\n      dup6\n        /* \"#utility.yul\":3756:3779   */\n      sub\n        /* \"#utility.yul\":3752:3784   */\n      slt\n        /* \"#utility.yul\":3749:3868   */\n      iszero\n      tag_484\n      jumpi\n        /* \"#utility.yul\":3787:3866   */\n      tag_485\n      tag_363\n      jump\t// in\n    tag_485:\n        /* \"#utility.yul\":3749:3868   */\n    tag_484:\n        /* \"#utility.yul\":3907:3908   */\n      0x00\n        /* \"#utility.yul\":3932:3985   */\n      tag_486\n        /* \"#utility.yul\":3977:3984   */\n      dup6\n        /* \"#utility.yul\":3968:3974   */\n      dup3\n        /* \"#utility.yul\":3957:3966   */\n      dup7\n        /* \"#utility.yul\":3953:3975   */\n      add\n        /* \"#utility.yul\":3932:3985   */\n      tag_368\n      jump\t// in\n    tag_486:\n        /* \"#utility.yul\":3922:3985   */\n      swap3\n      pop\n        /* \"#utility.yul\":3878:3995   */\n      pop\n        /* \"#utility.yul\":4034:4036   */\n      0x20\n        /* \"#utility.yul\":4060:4113   */\n      tag_487\n        /* \"#utility.yul\":4105:4112   */\n      dup6\n        /* \"#utility.yul\":4096:4102   */\n      dup3\n        /* \"#utility.yul\":4085:4094   */\n      dup7\n        /* \"#utility.yul\":4081:4103   */\n      add\n        /* \"#utility.yul\":4060:4113   */\n      tag_372\n      jump\t// in\n    tag_487:\n        /* \"#utility.yul\":4050:4113   */\n      swap2\n      pop\n        /* \"#utility.yul\":4005:4123   */\n      pop\n        /* \"#utility.yul\":3656:4130   */\n      swap3\n      pop\n      swap3\n      swap1\n      pop\n      jump\t// out\n        /* \"#utility.yul\":4136:4610   */\n    tag_40:\n        /* \"#utility.yul\":4204:4210   */\n      0x00\n        /* \"#utility.yul\":4212:4218   */\n      0x00\n        /* \"#utility.yul\":4261:4263   */\n      0x40\n        /* \"#utility.yul\":4249:4258   */\n      dup4\n        /* \"#utility.yul\":4240:4247   */\n      dup6\n        /* \"#utility.yul\":4236:4259   */\n      sub\n        /* \"#utility.yul\":4232:4264   */\n      slt\n        /* \"#utility.yul\":4229:4348   */\n      iszero\n      tag_489\n      jumpi\n        /* \"#utility.yul\":4267:4346   */\n      tag_490\n      tag_363\n      jump\t// in\n    tag_490:\n        /* \"#utility.yul\":4229:4348   */\n    tag_489:\n        /* \"#utility.yul\":4387:4388   */\n      0x00\n        /* \"#utility.yul\":4412:4465   */\n      tag_491\n        /* \"#utility.yul\":4457:4464   */\n      dup6\n        /* \"#utility.yul\":4448:4454   */\n      dup3\n        /* \"#utility.yul\":4437:4446   */\n      dup7\n        /* \"#utility.yul\":4433:4455   */\n      add\n        /* \"#utility.yul\":4412:4465   */\n      tag_368\n      jump\t// in\n    tag_491:\n        /* \"#utility.yul\":4402:4465   */\n      swap3\n      pop\n        /* \"#utility.yul\":4358:4475   */\n      pop\n        /* \"#utility.yul\":4514:4516   */\n      0x20\n        /* \"#utility.yul\":4540:4593   */\n      tag_492\n        /* \"#utility.yul\":4585:4592   */\n      dup6\n        /* \"#utility.yul\":4576:4582   */\n      dup3\n        /* \"#utility.yul\":4565:4574   */\n      dup7\n        /* \"#utility.yul\":4561:4583   */\n      add\n        /* \"#utility.yul\":4540:4593   */\n      tag_368\n      jump\t// in\n    tag_492:\n        /* \"#utility.yul\":4530:4593   */\n      swap2\n      pop\n        /* \"#utility.yul\":4485:4603   */\n      pop\n        /* \"#utility.yul\":4136:4610   */\n      swap3\n      pop\n      swap3\n      swap1\n      pop\n      jump\t// out\n        /* \"#utility.yul\":4616:4733   */\n    tag_379:\n        /* \"#utility.yul\":4725:4726   */\n      0x00\n        /* \"#utility.yul\":4722:4723   */\n      0x00\n        /* \"#utility.yul\":4715:4727   */\n      revert\n        /* \"#utility.yul\":4739:4856   */\n    tag_380:\n        /* \"#utility.yul\":4848:4849   */\n      0x00\n        /* \"#utility.yul\":4845:4846   */\n      0x00\n        /* \"#utility.yul\":4838:4850   */\n      revert\n        /* \"#utility.yul\":4862:4964   */\n    tag_381:\n        /* \"#utility.yul\":4903:4909   */\n      0x00\n        /* \"#utility.yul\":4954:4956   */\n      0x1f\n        /* \"#utility.yul\":4950:4957   */\n      not\n        /* \"#utility.yul\":4945:4947   */\n      0x1f\n        /* \"#utility.yul\":4938:4943   */\n      dup4\n        /* \"#utility.yul\":4934:4948   */\n      add\n        /* \"#utility.yul\":4930:4958   */\n      and\n        /* \"#utility.yul\":4920:4958   */\n      swap1\n      pop\n        /* \"#utility.yul\":4862:4964   */\n      swap2\n      swap1\n      pop\n      jump\t// out\n        /* \"#utility.yul\":4970:5150   */\n    tag_382:\n        /* \"#utility.yul\":5018:5095   */\n      0x4e487b7100000000000000000000000000000000000000000000000000000000\n        /* \"#utility.yul\":5015:5016   */\n      0x00\n        /* \"#utility.yul\":5008:5096   */\n      mstore\n        /* \"#utility.yul\":5115:5119   */\n      0x41\n        /* \"#utility.yul\":5112:5113   */\n      0x04\n        /* \"#utility.yul\":5105:5120   */\n      mstore\n        /* \"#utility.yul\":5139:5143   */\n      0x24\n        /* \"#utility.yul\":5136:5137   */\n      0x00\n        /* \"#utility.yul\":5129:5144   */\n      revert\n        /* \"#utility.yul\":5156:5437   */\n    tag_383:\n        /* \"#utility.yul\":5239:5266   */\n      tag_498\n        /* \"#utility.yul\":5261:5265   */\n      dup3\n        /* \"#utility.yul\":5239:5266   */\n      tag_381\n      jump\t// in\n    tag_498:\n        /* \"#utility.yul\":5231:5237   */\n      dup2\n        /* \"#utility.yul\":5227:5267   */\n      add\n        /* \"#utility.yul\":5369:5375   */\n      dup2\n        /* \"#utility.yul\":5357:5367   */\n      dup2\n        /* \"#utility.yul\":5354:5376   */\n      lt\n        /* \"#utility.yul\":5333:5351   */\n      0xffffffffffffffff\n        /* \"#utility.yul\":5321:5331   */\n      dup3\n        /* \"#utility.yul\":5318:5352   */\n      gt\n        /* \"#utility.yul\":5315:5377   */\n      or\n        /* \"#utility.yul\":5312:5400   */\n      iszero\n      tag_499\n      jumpi\n        /* \"#utility.yul\":5380:5398   */\n      tag_500\n      tag_382\n      jump\t// in\n    tag_500:\n        /* \"#utility.yul\":5312:5400   */\n    tag_499:\n        /* \"#utility.yul\":5420:5430   */\n      dup1\n        /* \"#utility.yul\":5416:5418   */\n      0x40\n        /* \"#utility.yul\":5409:5431   */\n      mstore\n        /* \"#utility.yul\":5199:5437   */\n      pop\n        /* \"#utility.yul\":5156:5437   */\n      pop\n      pop\n      jump\t// out\n        /* \"#utility.yul\":5443:5572   */\n    tag_384:\n        /* \"#utility.yul\":5477:5483   */\n      0x00\n        /* \"#utility.yul\":5504:5524   */\n      tag_502\n      tag_362\n      jump\t// in\n    tag_502:\n        /* \"#utility.yul\":5494:5524   */\n      swap1\n      pop\n        /* \"#utility.yul\":5533:5566   */\n      tag_503\n        /* \"#utility.yul\":5561:5565   */\n      dup3\n        /* \"#utility.yul\":5553:5559   */\n      dup3\n        /* \"#utility.yul\":5533:5566   */\n      tag_383\n      jump\t// in\n    tag_503:\n        /* \"#utility.yul\":5443:5572   */\n      swap2\n      swap1\n      pop\n      jump\t// out\n        /* \"#utility.yul\":5578:5885   */\n    tag_385:\n        /* \"#utility.yul\":5639:5643   */\n      0x00\n        /* \"#utility.yul\":5729:5747   */\n      0xffffffffffffffff\n        /* \"#utility.yul\":5721:5727   */\n      dup3\n        /* \"#utility.yul\":5718:5748   */\n      gt\n        /* \"#utility.yul\":5715:5771   */\n      iszero\n      tag_505\n      jumpi\n        /* \"#utility.yul\":5751:5769   */\n      tag_506\n      tag_382\n      jump\t// in\n    tag_506:\n        /* \"#utility.yul\":5715:5771   */\n    tag_505:\n        /* \"#utility.yul\":5789:5818   */\n      tag_507\n        /* \"#utility.yul\":5811:5817   */\n      dup3\n        /* \"#utility.yul\":5789:5818   */\n      tag_381\n      jump\t// in\n    tag_507:\n        /* \"#utility.yul\":5781:5818   */\n      swap1\n      pop\n        /* \"#utility.yul\":5873:5877   */\n      0x20\n        /* \"#utility.yul\":5867:5871   */\n      dup2\n        /* \"#utility.yul\":5863:5878   */\n      add\n        /* \"#utility.yul\":5855:5878   */\n      swap1\n      pop\n        /* \"#utility.yul\":5578:5885   */\n      swap2\n      swap1\n      pop\n      jump\t// out\n        /* \"#utility.yul\":5891:6039   */\n    tag_386:\n        /* \"#utility.yul\":5989:5995   */\n      dup3\n        /* \"#utility.yul\":5984:5987   */\n      dup2\n        /* \"#utility.yul\":5979:5982   */\n      dup4\n        /* \"#utility.yul\":5966:5996   */\n      calldatacopy\n        /* \"#utility.yul\":6030:6031   */\n      0x00\n        /* \"#utility.yul\":6021:6027   */\n      dup4\n        /* \"#utility.yul\":6016:6019   */\n      dup4\n        /* \"#utility.yul\":6012:6028   */\n      add\n        /* \"#utility.yul\":6005:6032   */\n      mstore\n        /* \"#utility.yul\":5891:6039   */\n      pop\n      pop\n      pop\n      jump\t// out\n        /* \"#utility.yul\":6045:6468   */\n    tag_387:\n        /* \"#utility.yul\":6122:6127   */\n      0x00\n        /* \"#utility.yul\":6147:6212   */\n      tag_510\n        /* \"#utility.yul\":6163:6211   */\n      tag_511\n        /* \"#utility.yul\":6204:6210   */\n      dup5\n        /* \"#utility.yul\":6163:6211   */\n      tag_385\n      jump\t// in\n    tag_511:\n        /* \"#utility.yul\":6147:6212   */\n      tag_384\n      jump\t// in\n    tag_510:\n        /* \"#utility.yul\":6138:6212   */\n      swap1\n      pop\n        /* \"#utility.yul\":6235:6241   */\n      dup3\n        /* \"#utility.yul\":6228:6233   */\n      dup2\n        /* \"#utility.yul\":6221:6242   */\n      mstore\n        /* \"#utility.yul\":6273:6277   */\n      0x20\n        /* \"#utility.yul\":6266:6271   */\n      dup2\n        /* \"#utility.yul\":6262:6278   */\n      add\n        /* \"#utility.yul\":6311:6314   */\n      dup5\n        /* \"#utility.yul\":6302:6308   */\n      dup5\n        /* \"#utility.yul\":6297:6300   */\n      dup5\n        /* \"#utility.yul\":6293:6309   */\n      add\n        /* \"#utility.yul\":6290:6315   */\n      gt\n        /* \"#utility.yul\":6287:6399   */\n      iszero\n      tag_512\n      jumpi\n        /* \"#utility.yul\":6318:6397   */\n      tag_513\n      tag_380\n      jump\t// in\n    tag_513:\n        /* \"#utility.yul\":6287:6399   */\n    tag_512:\n        /* \"#utility.yul\":6408:6462   */\n      tag_514\n        /* \"#utility.yul\":6455:6461   */\n      dup5\n        /* \"#utility.yul\":6450:6453   */\n      dup3\n        /* \"#utility.yul\":6445:6448   */\n      dup6\n        /* \"#utility.yul\":6408:6462   */\n      tag_386\n      jump\t// in\n    tag_514:\n        /* \"#utility.yul\":6128:6468   */\n      pop\n        /* \"#utility.yul\":6045:6468   */\n      swap4\n      swap3\n      pop\n      pop\n      pop\n      jump\t// out\n        /* \"#utility.yul\":6487:6825   */\n    tag_388:\n        /* \"#utility.yul\":6542:6547   */\n      0x00\n        /* \"#utility.yul\":6591:6594   */\n      dup3\n        /* \"#utility.yul\":6584:6588   */\n      0x1f\n        /* \"#utility.yul\":6576:6582   */\n      dup4\n        /* \"#utility.yul\":6572:6589   */\n      add\n        /* \"#utility.yul\":6568:6595   */\n      slt\n        /* \"#utility.yul\":6558:6680   */\n      tag_516\n      jumpi\n        /* \"#utility.yul\":6599:6678   */\n      tag_517\n      tag_379\n      jump\t// in\n    tag_517:\n        /* \"#utility.yul\":6558:6680   */\n    tag_516:\n        /* \"#utility.yul\":6716:6722   */\n      dup2\n        /* \"#utility.yul\":6703:6723   */\n      calldataload\n        /* \"#utility.yul\":6741:6819   */\n      tag_518\n        /* \"#utility.yul\":6815:6818   */\n      dup5\n        /* \"#utility.yul\":6807:6813   */\n      dup3\n        /* \"#utility.yul\":6800:6804   */\n      0x20\n        /* \"#utility.yul\":6792:6798   */\n      dup7\n        /* \"#utility.yul\":6788:6805   */\n      add\n        /* \"#utility.yul\":6741:6819   */\n      tag_387\n      jump\t// in\n    tag_518:\n        /* \"#utility.yul\":6732:6819   */\n      swap2\n      pop\n        /* \"#utility.yul\":6548:6825   */\n      pop\n        /* \"#utility.yul\":6487:6825   */\n      swap3\n      swap2\n      pop\n      pop\n      jump\t// out\n        /* \"#utility.yul\":6831:7483   */\n    tag_44:\n        /* \"#utility.yul\":6908:6914   */\n      0x00\n        /* \"#utility.yul\":6916:6922   */\n      0x00\n        /* \"#utility.yul\":6965:6967   */\n      0x40\n        /* \"#utility.yul\":6953:6962   */\n      dup4\n        /* \"#utility.yul\":6944:6951   */\n      dup6\n        /* \"#utility.yul\":6940:6963   */\n      sub\n        /* \"#utility.yul\":6936:6968   */\n      slt\n        /* \"#utility.yul\":6933:7052   */\n      iszero\n      tag_520\n      jumpi\n        /* \"#utility.yul\":6971:7050   */\n      tag_521\n      tag_363\n      jump\t// in\n    tag_521:\n        /* \"#utility.yul\":6933:7052   */\n    tag_520:\n        /* \"#utility.yul\":7091:7092   */\n      0x00\n        /* \"#utility.yul\":7116:7169   */\n      tag_522\n        /* \"#utility.yul\":7161:7168   */\n      dup6\n        /* \"#utility.yul\":7152:7158   */\n      dup3\n        /* \"#utility.yul\":7141:7150   */\n      dup7\n        /* \"#utility.yul\":7137:7159   */\n      add\n        /* \"#utility.yul\":7116:7169   */\n      tag_368\n      jump\t// in\n    tag_522:\n        /* \"#utility.yul\":7106:7169   */\n      swap3\n      pop\n        /* \"#utility.yul\":7062:7179   */\n      pop\n        /* \"#utility.yul\":7246:7248   */\n      0x20\n        /* \"#utility.yul\":7235:7244   */\n      dup4\n        /* \"#utility.yul\":7231:7249   */\n      add\n        /* \"#utility.yul\":7218:7250   */\n      calldataload\n        /* \"#utility.yul\":7277:7295   */\n      0xffffffffffffffff\n        /* \"#utility.yul\":7269:7275   */\n      dup2\n        /* \"#utility.yul\":7266:7296   */\n      gt\n        /* \"#utility.yul\":7263:7380   */\n      iszero\n      tag_523\n      jumpi\n        /* \"#utility.yul\":7299:7378   */\n      tag_524\n      tag_364\n      jump\t// in\n    tag_524:\n        /* \"#utility.yul\":7263:7380   */\n    tag_523:\n        /* \"#utility.yul\":7404:7466   */\n      tag_525\n        /* \"#utility.yul\":7458:7465   */\n      dup6\n        /* \"#utility.yul\":7449:7455   */\n      dup3\n        /* \"#utility.yul\":7438:7447   */\n      dup7\n        /* \"#utility.yul\":7434:7456   */\n      add\n        /* \"#utility.yul\":7404:7466   */\n      tag_388\n      jump\t// in\n    tag_525:\n        /* \"#utility.yul\":7394:7466   */\n      swap2\n      pop\n        /* \"#utility.yul\":7189:7476   */\n      pop\n        /* \"#utility.yul\":6831:7483   */\n      swap3\n      pop\n      swap3\n      swap1\n      pop\n      jump\t// out\n        /* \"#utility.yul\":7489:7607   */\n    tag_389:\n        /* \"#utility.yul\":7576:7600   */\n      tag_527\n        /* \"#utility.yul\":7594:7599   */\n      dup2\n        /* \"#utility.yul\":7576:7600   */\n      tag_376\n      jump\t// in\n    tag_527:\n        /* \"#utility.yul\":7571:7574   */\n      dup3\n        /* \"#utility.yul\":7564:7601   */\n      mstore\n        /* \"#utility.yul\":7489:7607   */\n      pop\n      pop\n      jump\t// out\n        /* \"#utility.yul\":7613:7835   */\n    tag_50:\n        /* \"#utility.yul\":7706:7710   */\n      0x00\n        /* \"#utility.yul\":7744:7746   */\n      0x20\n        /* \"#utility.yul\":7733:7742   */\n      dup3\n        /* \"#utility.yul\":7729:7747   */\n      add\n        /* \"#utility.yul\":7721:7747   */\n      swap1\n      pop\n        /* \"#utility.yul\":7757:7828   */\n      tag_529\n        /* \"#utility.yul\":7825:7826   */\n      0x00\n        /* \"#utility.yul\":7814:7823   */\n      dup4\n        /* \"#utility.yul\":7810:7827   */\n      add\n        /* \"#utility.yul\":7801:7807   */\n      dup5\n        /* \"#utility.yul\":7757:7828   */\n      tag_389\n      jump\t// in\n    tag_529:\n        /* \"#utility.yul\":7613:7835   */\n      swap3\n      swap2\n      pop\n      pop\n      jump\t// out\n        /* \"#utility.yul\":7841:7959   */\n    tag_390:\n        /* \"#utility.yul\":7928:7952   */\n      tag_531\n        /* \"#utility.yul\":7946:7951   */\n      dup2\n        /* \"#utility.yul\":7928:7952   */\n      tag_366\n      jump\t// in\n    tag_531:\n        /* \"#utility.yul\":7923:7926   */\n      dup3\n        /* \"#utility.yul\":7916:7953   */\n      mstore\n        /* \"#utility.yul\":7841:7959   */\n      pop\n      pop\n      jump\t// out\n        /* \"#utility.yul\":7965:8187   */\n    tag_62:\n        /* \"#utility.yul\":8058:8062   */\n      0x00\n        /* \"#utility.yul\":8096:8098   */\n      0x20\n        /* \"#utility.yul\":8085:8094   */\n      dup3\n        /* \"#utility.yul\":8081:8099   */\n      add\n        /* \"#utility.yul\":8073:8099   */\n      swap1\n      pop\n        /* \"#utility.yul\":8109:8180   */\n      tag_533\n        /* \"#utility.yul\":8177:8178   */\n      0x00\n        /* \"#utility.yul\":8166:8175   */\n      dup4\n        /* \"#utility.yul\":8162:8179   */\n      add\n        /* \"#utility.yul\":8153:8159   */\n      dup5\n        /* \"#utility.yul\":8109:8180   */\n      tag_390\n      jump\t// in\n    tag_533:\n        /* \"#utility.yul\":7965:8187   */\n      swap3\n      swap2\n      pop\n      pop\n      jump\t// out\n        /* \"#utility.yul\":8193:8292   */\n    tag_391:\n        /* \"#utility.yul\":8245:8251   */\n      0x00\n        /* \"#utility.yul\":8279:8284   */\n      dup2\n        /* \"#utility.yul\":8273:8285   */\n      mload\n        /* \"#utility.yul\":8263:8285   */\n      swap1\n      pop\n        /* \"#utility.yul\":8193:8292   */\n      swap2\n      swap1\n      pop\n      jump\t// out\n        /* \"#utility.yul\":8298:8467   */\n    tag_392:\n        /* \"#utility.yul\":8382:8393   */\n      0x00\n        /* \"#utility.yul\":8416:8422   */\n      dup3\n        /* \"#utility.yul\":8411:8414   */\n      dup3\n        /* \"#utility.yul\":8404:8423   */\n      mstore\n        /* \"#utility.yul\":8456:8460   */\n      0x20\n        /* \"#utility.yul\":8451:8454   */\n      dup3\n        /* \"#utility.yul\":8447:8461   */\n      add\n        /* \"#utility.yul\":8432:8461   */\n      swap1\n      pop\n        /* \"#utility.yul\":8298:8467   */\n      swap3\n      swap2\n      pop\n      pop\n      jump\t// out\n        /* \"#utility.yul\":8473:8612   */\n    tag_393:\n        /* \"#utility.yul\":8562:8568   */\n      dup3\n        /* \"#utility.yul\":8557:8560   */\n      dup2\n        /* \"#utility.yul\":8552:8555   */\n      dup4\n        /* \"#utility.yul\":8546:8569   */\n      mcopy\n        /* \"#utility.yul\":8603:8604   */\n      0x00\n        /* \"#utility.yul\":8594:8600   */\n      dup4\n        /* \"#utility.yul\":8589:8592   */\n      dup4\n        /* \"#utility.yul\":8585:8601   */\n      add\n        /* \"#utility.yul\":8578:8605   */\n      mstore\n        /* \"#utility.yul\":8473:8612   */\n      pop\n      pop\n      pop\n      jump\t// out\n        /* \"#utility.yul\":8618:8995   */\n    tag_394:\n        /* \"#utility.yul\":8706:8709   */\n      0x00\n        /* \"#utility.yul\":8734:8773   */\n      tag_538\n        /* \"#utility.yul\":8767:8772   */\n      dup3\n        /* \"#utility.yul\":8734:8773   */\n      tag_391\n      jump\t// in\n    tag_538:\n        /* \"#utility.yul\":8789:8860   */\n      tag_539\n        /* \"#utility.yul\":8853:8859   */\n      dup2\n        /* \"#utility.yul\":8848:8851   */\n      dup6\n        /* \"#utility.yul\":8789:8860   */\n      tag_392\n      jump\t// in\n    tag_539:\n        /* \"#utility.yul\":8782:8860   */\n      swap4\n      pop\n        /* \"#utility.yul\":8869:8934   */\n      tag_540\n        /* \"#utility.yul\":8927:8933   */\n      dup2\n        /* \"#utility.yul\":8922:8925   */\n      dup6\n        /* \"#utility.yul\":8915:8919   */\n      0x20\n        /* \"#utility.yul\":8908:8913   */\n      dup7\n        /* \"#utility.yul\":8904:8920   */\n      add\n        /* \"#utility.yul\":8869:8934   */\n      tag_393\n      jump\t// in\n    tag_540:\n        /* \"#utility.yul\":8959:8988   */\n      tag_541\n        /* \"#utility.yul\":8981:8987   */\n      dup2\n        /* \"#utility.yul\":8959:8988   */\n      tag_381\n      jump\t// in\n    tag_541:\n        /* \"#utility.yul\":8954:8957   */\n      dup5\n        /* \"#utility.yul\":8950:8989   */\n      add\n        /* \"#utility.yul\":8943:8989   */\n      swap2\n      pop\n        /* \"#utility.yul\":8710:8995   */\n      pop\n        /* \"#utility.yul\":8618:8995   */\n      swap3\n      swap2\n      pop\n      pop\n      jump\t// out\n        /* \"#utility.yul\":9001:9314   */\n    tag_79:\n        /* \"#utility.yul\":9114:9118   */\n      0x00\n        /* \"#utility.yul\":9152:9154   */\n      0x20\n        /* \"#utility.yul\":9141:9150   */\n      dup3\n        /* \"#utility.yul\":9137:9155   */\n      add\n        /* \"#utility.yul\":9129:9155   */\n      swap1\n      pop\n        /* \"#utility.yul\":9201:9210   */\n      dup2\n        /* \"#utility.yul\":9195:9199   */\n      dup2\n        /* \"#utility.yul\":9191:9211   */\n      sub\n        /* \"#utility.yul\":9187:9188   */\n      0x00\n        /* \"#utility.yul\":9176:9185   */\n      dup4\n        /* \"#utility.yul\":9172:9189   */\n      add\n        /* \"#utility.yul\":9165:9212   */\n      mstore\n        /* \"#utility.yul\":9229:9307   */\n      tag_543\n        /* \"#utility.yul\":9302:9306   */\n      dup2\n        /* \"#utility.yul\":9293:9299   */\n      dup5\n        /* \"#utility.yul\":9229:9307   */\n      tag_394\n      jump\t// in\n    tag_543:\n        /* \"#utility.yul\":9221:9307   */\n      swap1\n      pop\n        /* \"#utility.yul\":9001:9314   */\n      swap3\n      swap2\n      pop\n      pop\n      jump\t// out\n        /* \"#utility.yul\":9320:9410   */\n    tag_395:\n        /* \"#utility.yul\":9354:9361   */\n      0x00\n        /* \"#utility.yul\":9397:9402   */\n      dup2\n        /* \"#utility.yul\":9390:9403   */\n      iszero\n        /* \"#utility.yul\":9383:9404   */\n      iszero\n        /* \"#utility.yul\":9372:9404   */\n      swap1\n      pop\n        /* \"#utility.yul\":9320:9410   */\n      swap2\n      swap1\n      pop\n      jump\t// out\n        /* \"#utility.yul\":9416:9532   */\n    tag_396:\n        /* \"#utility.yul\":9486:9507   */\n      tag_546\n        /* \"#utility.yul\":9501:9506   */\n      dup2\n        /* \"#utility.yul\":9486:9507   */\n      tag_395\n      jump\t// in\n    tag_546:\n        /* \"#utility.yul\":9479:9484   */\n      dup2\n        /* \"#utility.yul\":9476:9508   */\n      eq\n        /* \"#utility.yul\":9466:9526   */\n      tag_547\n      jumpi\n        /* \"#utility.yul\":9522:9523   */\n      0x00\n        /* \"#utility.yul\":9519:9520   */\n      0x00\n        /* \"#utility.yul\":9512:9524   */\n      revert\n        /* \"#utility.yul\":9466:9526   */\n    tag_547:\n        /* \"#utility.yul\":9416:9532   */\n      pop\n      jump\t// out\n        /* \"#utility.yul\":9538:9671   */\n    tag_397:\n        /* \"#utility.yul\":9581:9586   */\n      0x00\n        /* \"#utility.yul\":9619:9625   */\n      dup2\n        /* \"#utility.yul\":9606:9626   */\n      calldataload\n        /* \"#utility.yul\":9597:9626   */\n      swap1\n      pop\n        /* \"#utility.yul\":9635:9665   */\n      tag_549\n        /* \"#utility.yul\":9659:9664   */\n      dup2\n        /* \"#utility.yul\":9635:9665   */\n      tag_396\n      jump\t// in\n    tag_549:\n        /* \"#utility.yul\":9538:9671   */\n      swap3\n      swap2\n      pop\n      pop\n      jump\t// out\n        /* \"#utility.yul\":9677:11016   */\n    tag_83:\n        /* \"#utility.yul\":9794:9800   */\n      0x00\n        /* \"#utility.yul\":9802:9808   */\n      0x00\n        /* \"#utility.yul\":9810:9816   */\n      0x00\n        /* \"#utility.yul\":9818:9824   */\n      0x00\n        /* \"#utility.yul\":9826:9832   */\n      0x00\n        /* \"#utility.yul\":9834:9840   */\n      0x00\n        /* \"#utility.yul\":9842:9848   */\n      0x00\n        /* \"#utility.yul\":9850:9856   */\n      0x00\n        /* \"#utility.yul\":9899:9902   */\n      0x0100\n        /* \"#utility.yul\":9887:9896   */\n      dup10\n        /* \"#utility.yul\":9878:9885   */\n      dup12\n        /* \"#utility.yul\":9874:9897   */\n      sub\n        /* \"#utility.yul\":9870:9903   */\n      slt\n        /* \"#utility.yul\":9867:9987   */\n      iszero\n      tag_551\n      jumpi\n        /* \"#utility.yul\":9906:9985   */\n      tag_552\n      tag_363\n      jump\t// in\n    tag_552:\n        /* \"#utility.yul\":9867:9987   */\n    tag_551:\n        /* \"#utility.yul\":10026:10027   */\n      0x00\n        /* \"#utility.yul\":10051:10104   */\n      tag_553\n        /* \"#utility.yul\":10096:10103   */\n      dup12\n        /* \"#utility.yul\":10087:10093   */\n      dup3\n        /* \"#utility.yul\":10076:10085   */\n      dup13\n        /* \"#utility.yul\":10072:10094   */\n      add\n        /* \"#utility.yul\":10051:10104   */\n      tag_368\n      jump\t// in\n    tag_553:\n        /* \"#utility.yul\":10041:10104   */\n      swap9\n      pop\n        /* \"#utility.yul\":9997:10114   */\n      pop\n        /* \"#utility.yul\":10153:10155   */\n      0x20\n        /* \"#utility.yul\":10179:10232   */\n      tag_554\n        /* \"#utility.yul\":10224:10231   */\n      dup12\n        /* \"#utility.yul\":10215:10221   */\n      dup3\n        /* \"#utility.yul\":10204:10213   */\n      dup13\n        /* \"#utility.yul\":10200:10222   */\n      add\n        /* \"#utility.yul\":10179:10232   */\n      tag_372\n      jump\t// in\n    tag_554:\n        /* \"#utility.yul\":10169:10232   */\n      swap8\n      pop\n        /* \"#utility.yul\":10124:10242   */\n      pop\n        /* \"#utility.yul\":10281:10283   */\n      0x40\n        /* \"#utility.yul\":10307:10360   */\n      tag_555\n        /* \"#utility.yul\":10352:10359   */\n      dup12\n        /* \"#utility.yul\":10343:10349   */\n      dup3\n        /* \"#utility.yul\":10332:10341   */\n      dup13\n        /* \"#utility.yul\":10328:10350   */\n      add\n        /* \"#utility.yul\":10307:10360   */\n      tag_372\n      jump\t// in\n    tag_555:\n        /* \"#utility.yul\":10297:10360   */\n      swap7\n      pop\n        /* \"#utility.yul\":10252:10370   */\n      pop\n        /* \"#utility.yul\":10409:10411   */\n      0x60\n        /* \"#utility.yul\":10435:10488   */\n      tag_556\n        /* \"#utility.yul\":10480:10487   */\n      dup12\n        /* \"#utility.yul\":10471:10477   */\n      dup3\n        /* \"#utility.yul\":10460:10469   */\n      dup13\n        /* \"#utility.yul\":10456:10478   */\n      add\n        /* \"#utility.yul\":10435:10488   */\n      tag_372\n      jump\t// in\n    tag_556:\n        /* \"#utility.yul\":10425:10488   */\n      swap6\n      pop\n        /* \"#utility.yul\":10380:10498   */\n      pop\n        /* \"#utility.yul\":10537:10540   */\n      0x80\n        /* \"#utility.yul\":10564:10614   */\n      tag_557\n        /* \"#utility.yul\":10606:10613   */\n      dup12\n        /* \"#utility.yul\":10597:10603   */\n      dup3\n        /* \"#utility.yul\":10586:10595   */\n      dup13\n        /* \"#utility.yul\":10582:10604   */\n      add\n        /* \"#utility.yul\":10564:10614   */\n      tag_397\n      jump\t// in\n    tag_557:\n        /* \"#utility.yul\":10554:10614   */\n      swap5\n      pop\n        /* \"#utility.yul\":10508:10624   */\n      pop\n        /* \"#utility.yul\":10663:10666   */\n      0xa0\n        /* \"#utility.yul\":10690:10741   */\n      tag_558\n        /* \"#utility.yul\":10733:10740   */\n      dup12\n        /* \"#utility.yul\":10724:10730   */\n      dup3\n        /* \"#utility.yul\":10713:10722   */\n      dup13\n        /* \"#utility.yul\":10709:10731   */\n      add\n        /* \"#utility.yul\":10690:10741   */\n      tag_375\n      jump\t// in\n    tag_558:\n        /* \"#utility.yul\":10680:10741   */\n      swap4\n      pop\n        /* \"#utility.yul\":10634:10751   */\n      pop\n        /* \"#utility.yul\":10790:10793   */\n      0xc0\n        /* \"#utility.yul\":10817:10870   */\n      tag_559\n        /* \"#utility.yul\":10862:10869   */\n      dup12\n        /* \"#utility.yul\":10853:10859   */\n      dup3\n        /* \"#utility.yul\":10842:10851   */\n      dup13\n        /* \"#utility.yul\":10838:10860   */\n      add\n        /* \"#utility.yul\":10817:10870   */\n      tag_378\n      jump\t// in\n    tag_559:\n        /* \"#utility.yul\":10807:10870   */\n      swap3\n      pop\n        /* \"#utility.yul\":10761:10880   */\n      pop\n        /* \"#utility.yul\":10919:10922   */\n      0xe0\n        /* \"#utility.yul\":10946:10999   */\n      tag_560\n        /* \"#utility.yul\":10991:10998   */\n      dup12\n        /* \"#utility.yul\":10982:10988   */\n      dup3\n        /* \"#utility.yul\":10971:10980   */\n      dup13\n        /* \"#utility.yul\":10967:10989   */\n      add\n        /* \"#utility.yul\":10946:10999   */\n      tag_378\n      jump\t// in\n    tag_560:\n        /* \"#utility.yul\":10936:10999   */\n      swap2\n      pop\n        /* \"#utility.yul\":10890:11009   */\n      pop\n        /* \"#utility.yul\":9677:11016   */\n      swap3\n      swap6\n      swap9\n      pop\n      swap3\n      swap6\n      swap9\n      swap1\n      swap4\n      swap7\n      pop\n      jump\t// out\n        /* \"#utility.yul\":11022:11354   */\n    tag_91:\n        /* \"#utility.yul\":11143:11147   */\n      0x00\n        /* \"#utility.yul\":11181:11183   */\n      0x40\n        /* \"#utility.yul\":11170:11179   */\n      dup3\n        /* \"#utility.yul\":11166:11184   */\n      add\n        /* \"#utility.yul\":11158:11184   */\n      swap1\n      pop\n        /* \"#utility.yul\":11194:11265   */\n      tag_562\n        /* \"#utility.yul\":11262:11263   */\n      0x00\n        /* \"#utility.yul\":11251:11260   */\n      dup4\n        /* \"#utility.yul\":11247:11264   */\n      add\n        /* \"#utility.yul\":11238:11244   */\n      dup6\n        /* \"#utility.yul\":11194:11265   */\n      tag_390\n      jump\t// in\n    tag_562:\n        /* \"#utility.yul\":11275:11347   */\n      tag_563\n        /* \"#utility.yul\":11343:11345   */\n      0x20\n        /* \"#utility.yul\":11332:11341   */\n      dup4\n        /* \"#utility.yul\":11328:11346   */\n      add\n        /* \"#utility.yul\":11319:11325   */\n      dup5\n        /* \"#utility.yul\":11275:11347   */\n      tag_390\n      jump\t// in\n    tag_563:\n        /* \"#utility.yul\":11022:11354   */\n      swap4\n      swap3\n      pop\n      pop\n      pop\n      jump\t// out\n        /* \"#utility.yul\":11360:11458   */\n    tag_398:\n        /* \"#utility.yul\":11411:11417   */\n      0x00\n        /* \"#utility.yul\":11445:11450   */\n      dup2\n        /* \"#utility.yul\":11439:11451   */\n      mload\n        /* \"#utility.yul\":11429:11451   */\n      swap1\n      pop\n        /* \"#utility.yul\":11360:11458   */\n      swap2\n      swap1\n      pop\n      jump\t// out\n        /* \"#utility.yul\":11464:11611   */\n    tag_399:\n        /* \"#utility.yul\":11565:11576   */\n      0x00\n        /* \"#utility.yul\":11602:11605   */\n      dup2\n        /* \"#utility.yul\":11587:11605   */\n      swap1\n      pop\n        /* \"#utility.yul\":11464:11611   */\n      swap3\n      swap2\n      pop\n      pop\n      jump\t// out\n        /* \"#utility.yul\":11617:12003   */\n    tag_400:\n        /* \"#utility.yul\":11721:11724   */\n      0x00\n        /* \"#utility.yul\":11749:11787   */\n      tag_567\n        /* \"#utility.yul\":11781:11786   */\n      dup3\n        /* \"#utility.yul\":11749:11787   */\n      tag_398\n      jump\t// in\n    tag_567:\n        /* \"#utility.yul\":11803:11891   */\n      tag_568\n        /* \"#utility.yul\":11884:11890   */\n      dup2\n        /* \"#utility.yul\":11879:11882   */\n      dup6\n        /* \"#utility.yul\":11803:11891   */\n      tag_399\n      jump\t// in\n    tag_568:\n        /* \"#utility.yul\":11796:11891   */\n      swap4\n      pop\n        /* \"#utility.yul\":11900:11965   */\n      tag_569\n        /* \"#utility.yul\":11958:11964   */\n      dup2\n        /* \"#utility.yul\":11953:11956   */\n      dup6\n        /* \"#utility.yul\":11946:11950   */\n      0x20\n        /* \"#utility.yul\":11939:11944   */\n      dup7\n        /* \"#utility.yul\":11935:11951   */\n      add\n        /* \"#utility.yul\":11900:11965   */\n      tag_393\n      jump\t// in\n    tag_569:\n        /* \"#utility.yul\":11990:11996   */\n      dup1\n        /* \"#utility.yul\":11985:11988   */\n      dup5\n        /* \"#utility.yul\":11981:11997   */\n      add\n        /* \"#utility.yul\":11974:11997   */\n      swap2\n      pop\n        /* \"#utility.yul\":11725:12003   */\n      pop\n        /* \"#utility.yul\":11617:12003   */\n      swap3\n      swap2\n      pop\n      pop\n      jump\t// out\n        /* \"#utility.yul\":12009:12280   */\n    tag_93:\n        /* \"#utility.yul\":12139:12142   */\n      0x00\n        /* \"#utility.yul\":12161:12254   */\n      tag_571\n        /* \"#utility.yul\":12250:12253   */\n      dup3\n        /* \"#utility.yul\":12241:12247   */\n      dup5\n        /* \"#utility.yul\":12161:12254   */\n      tag_400\n      jump\t// in\n    tag_571:\n        /* \"#utility.yul\":12154:12254   */\n      swap2\n      pop\n        /* \"#utility.yul\":12271:12274   */\n      dup2\n        /* \"#utility.yul\":12264:12274   */\n      swap1\n      pop\n        /* \"#utility.yul\":12009:12280   */\n      swap3\n      swap2\n      pop\n      pop\n      jump\t// out\n        /* \"#utility.yul\":12286:12458   */\n    tag_401:\n        /* \"#utility.yul\":12426:12450   */\n      0x416c6c6f77616e636520636865636b206661696c656400000000000000000000\n        /* \"#utility.yul\":12422:12423   */\n      0x00\n        /* \"#utility.yul\":12414:12420   */\n      dup3\n        /* \"#utility.yul\":12410:12424   */\n      add\n        /* \"#utility.yul\":12403:12451   */\n      mstore\n        /* \"#utility.yul\":12286:12458   */\n      pop\n      jump\t// out\n        /* \"#utility.yul\":12464:12830   */\n    tag_402:\n        /* \"#utility.yul\":12606:12609   */\n      0x00\n        /* \"#utility.yul\":12627:12694   */\n      tag_574\n        /* \"#utility.yul\":12691:12693   */\n      0x16\n        /* \"#utility.yul\":12686:12689   */\n      dup4\n        /* \"#utility.yul\":12627:12694   */\n      tag_392\n      jump\t// in\n    tag_574:\n        /* \"#utility.yul\":12620:12694   */\n      swap2\n      pop\n        /* \"#utility.yul\":12703:12796   */\n      tag_575\n        /* \"#utility.yul\":12792:12795   */\n      dup3\n        /* \"#utility.yul\":12703:12796   */\n      tag_401\n      jump\t// in\n    tag_575:\n        /* \"#utility.yul\":12821:12823   */\n      0x20\n        /* \"#utility.yul\":12816:12819   */\n      dup3\n        /* \"#utility.yul\":12812:12824   */\n      add\n        /* \"#utility.yul\":12805:12824   */\n      swap1\n      pop\n        /* \"#utility.yul\":12464:12830   */\n      swap2\n      swap1\n      pop\n      jump\t// out\n        /* \"#utility.yul\":12836:13255   */\n    tag_99:\n        /* \"#utility.yul\":13002:13006   */\n      0x00\n        /* \"#utility.yul\":13040:13042   */\n      0x20\n        /* \"#utility.yul\":13029:13038   */\n      dup3\n        /* \"#utility.yul\":13025:13043   */\n      add\n        /* \"#utility.yul\":13017:13043   */\n      swap1\n      pop\n        /* \"#utility.yul\":13089:13098   */\n      dup2\n        /* \"#utility.yul\":13083:13087   */\n      dup2\n        /* \"#utility.yul\":13079:13099   */\n      sub\n        /* \"#utility.yul\":13075:13076   */\n      0x00\n        /* \"#utility.yul\":13064:13073   */\n      dup4\n        /* \"#utility.yul\":13060:13077   */\n      add\n        /* \"#utility.yul\":13053:13100   */\n      mstore\n        /* \"#utility.yul\":13117:13248   */\n      tag_577\n        /* \"#utility.yul\":13243:13247   */\n      dup2\n        /* \"#utility.yul\":13117:13248   */\n      tag_402\n      jump\t// in\n    tag_577:\n        /* \"#utility.yul\":13109:13248   */\n      swap1\n      pop\n        /* \"#utility.yul\":12836:13255   */\n      swap2\n      swap1\n      pop\n      jump\t// out\n        /* \"#utility.yul\":13261:13404   */\n    tag_403:\n        /* \"#utility.yul\":13318:13323   */\n      0x00\n        /* \"#utility.yul\":13349:13355   */\n      dup2\n        /* \"#utility.yul\":13343:13356   */\n      mload\n        /* \"#utility.yul\":13334:13356   */\n      swap1\n      pop\n        /* \"#utility.yul\":13365:13398   */\n      tag_579\n        /* \"#utility.yul\":13392:13397   */\n      dup2\n        /* \"#utility.yul\":13365:13398   */\n      tag_371\n      jump\t// in\n    tag_579:\n        /* \"#utility.yul\":13261:13404   */\n      swap3\n      swap2\n      pop\n      pop\n      jump\t// out\n        /* \"#utility.yul\":13410:13761   */\n    tag_101:\n        /* \"#utility.yul\":13480:13486   */\n      0x00\n        /* \"#utility.yul\":13529:13531   */\n      0x20\n        /* \"#utility.yul\":13517:13526   */\n      dup3\n        /* \"#utility.yul\":13508:13515   */\n      dup5\n        /* \"#utility.yul\":13504:13527   */\n      sub\n        /* \"#utility.yul\":13500:13532   */\n      slt\n        /* \"#utility.yul\":13497:13616   */\n      iszero\n      tag_581\n      jumpi\n        /* \"#utility.yul\":13535:13614   */\n      tag_582\n      tag_363\n      jump\t// in\n    tag_582:\n        /* \"#utility.yul\":13497:13616   */\n    tag_581:\n        /* \"#utility.yul\":13655:13656   */\n      0x00\n        /* \"#utility.yul\":13680:13744   */\n      tag_583\n        /* \"#utility.yul\":13736:13743   */\n      dup5\n        /* \"#utility.yul\":13727:13733   */\n      dup3\n        /* \"#utility.yul\":13716:13725   */\n      dup6\n        /* \"#utility.yul\":13712:13734   */\n      add\n        /* \"#utility.yul\":13680:13744   */\n      tag_403\n      jump\t// in\n    tag_583:\n        /* \"#utility.yul\":13670:13744   */\n      swap2\n      pop\n        /* \"#utility.yul\":13626:13754   */\n      pop\n        /* \"#utility.yul\":13410:13761   */\n      swap3\n      swap2\n      pop\n      pop\n      jump\t// out\n        /* \"#utility.yul\":13767:13937   */\n    tag_404:\n        /* \"#utility.yul\":13907:13929   */\n      0x4f776e65722063616e6e6f74206265207a65726f000000000000000000000000\n        /* \"#utility.yul\":13903:13904   */\n      0x00\n        /* \"#utility.yul\":13895:13901   */\n      dup3\n        /* \"#utility.yul\":13891:13905   */\n      add\n        /* \"#utility.yul\":13884:13930   */\n      mstore\n        /* \"#utility.yul\":13767:13937   */\n      pop\n      jump\t// out\n        /* \"#utility.yul\":13943:14309   */\n    tag_405:\n        /* \"#utility.yul\":14085:14088   */\n      0x00\n        /* \"#utility.yul\":14106:14173   */\n      tag_586\n        /* \"#utility.yul\":14170:14172   */\n      0x14\n        /* \"#utility.yul\":14165:14168   */\n      dup4\n        /* \"#utility.yul\":14106:14173   */\n      tag_392\n      jump\t// in\n    tag_586:\n        /* \"#utility.yul\":14099:14173   */\n      swap2\n      pop\n        /* \"#utility.yul\":14182:14275   */\n      tag_587\n        /* \"#utility.yul\":14271:14274   */\n      dup3\n        /* \"#utility.yul\":14182:14275   */\n      tag_404\n      jump\t// in\n    tag_587:\n        /* \"#utility.yul\":14300:14302   */\n      0x20\n        /* \"#utility.yul\":14295:14298   */\n      dup3\n        /* \"#utility.yul\":14291:14303   */\n      add\n        /* \"#utility.yul\":14284:14303   */\n      swap1\n      pop\n        /* \"#utility.yul\":13943:14309   */\n      swap2\n      swap1\n      pop\n      jump\t// out\n        /* \"#utility.yul\":14315:14734   */\n    tag_105:\n        /* \"#utility.yul\":14481:14485   */\n      0x00\n        /* \"#utility.yul\":14519:14521   */\n      0x20\n        /* \"#utility.yul\":14508:14517   */\n      dup3\n        /* \"#utility.yul\":14504:14522   */\n      add\n        /* \"#utility.yul\":14496:14522   */\n      swap1\n      pop\n        /* \"#utility.yul\":14568:14577   */\n      dup2\n        /* \"#utility.yul\":14562:14566   */\n      dup2\n        /* \"#utility.yul\":14558:14578   */\n      sub\n        /* \"#utility.yul\":14554:14555   */\n      0x00\n        /* \"#utility.yul\":14543:14552   */\n      dup4\n        /* \"#utility.yul\":14539:14556   */\n      add\n        /* \"#utility.yul\":14532:14579   */\n      mstore\n        /* \"#utility.yul\":14596:14727   */\n      tag_589\n        /* \"#utility.yul\":14722:14726   */\n      dup2\n        /* \"#utility.yul\":14596:14727   */\n      tag_405\n      jump\t// in\n    tag_589:\n        /* \"#utility.yul\":14588:14727   */\n      swap1\n      pop\n        /* \"#utility.yul\":14315:14734   */\n      swap2\n      swap1\n      pop\n      jump\t// out\n        /* \"#utility.yul\":14740:14908   */\n    tag_406:\n        /* \"#utility.yul\":14880:14900   */\n      0x416d6f756e74206d757374206265203e20300000000000000000000000000000\n        /* \"#utility.yul\":14876:14877   */\n      0x00\n        /* \"#utility.yul\":14868:14874   */\n      dup3\n        /* \"#utility.yul\":14864:14878   */\n      add\n        /* \"#utility.yul\":14857:14901   */\n      mstore\n        /* \"#utility.yul\":14740:14908   */\n      pop\n      jump\t// out\n        /* \"#utility.yul\":14914:15280   */\n    tag_407:\n        /* \"#utility.yul\":15056:15059   */\n      0x00\n        /* \"#utility.yul\":15077:15144   */\n      tag_592\n        /* \"#utility.yul\":15141:15143   */\n      0x12\n        /* \"#utility.yul\":15136:15139   */\n      dup4\n        /* \"#utility.yul\":15077:15144   */\n      tag_392\n      jump\t// in\n    tag_592:\n        /* \"#utility.yul\":15070:15144   */\n      swap2\n      pop\n        /* \"#utility.yul\":15153:15246   */\n      tag_593\n        /* \"#utility.yul\":15242:15245   */\n      dup3\n        /* \"#utility.yul\":15153:15246   */\n      tag_406\n      jump\t// in\n    tag_593:\n        /* \"#utility.yul\":15271:15273   */\n      0x20\n        /* \"#utility.yul\":15266:15269   */\n      dup3\n        /* \"#utility.yul\":15262:15274   */\n      add\n        /* \"#utility.yul\":15255:15274   */\n      swap1\n      pop\n        /* \"#utility.yul\":14914:15280   */\n      swap2\n      swap1\n      pop\n      jump\t// out\n        /* \"#utility.yul\":15286:15705   */\n    tag_108:\n        /* \"#utility.yul\":15452:15456   */\n      0x00\n        /* \"#utility.yul\":15490:15492   */\n      0x20\n        /* \"#utility.yul\":15479:15488   */\n      dup3\n        /* \"#utility.yul\":15475:15493   */\n      add\n        /* \"#utility.yul\":15467:15493   */\n      swap1\n      pop\n        /* \"#utility.yul\":15539:15548   */\n      dup2\n        /* \"#utility.yul\":15533:15537   */\n      dup2\n        /* \"#utility.yul\":15529:15549   */\n      sub\n        /* \"#utility.yul\":15525:15526   */\n      0x00\n        /* \"#utility.yul\":15514:15523   */\n      dup4\n        /* \"#utility.yul\":15510:15527   */\n      add\n        /* \"#utility.yul\":15503:15550   */\n      mstore\n        /* \"#utility.yul\":15567:15698   */\n      tag_595\n        /* \"#utility.yul\":15693:15697   */\n      dup2\n        /* \"#utility.yul\":15567:15698   */\n      tag_407\n      jump\t// in\n    tag_595:\n        /* \"#utility.yul\":15559:15698   */\n      swap1\n      pop\n        /* \"#utility.yul\":15286:15705   */\n      swap2\n      swap1\n      pop\n      jump\t// out\n        /* \"#utility.yul\":15711:15823   */\n    tag_408:\n        /* \"#utility.yul\":15794:15816   */\n      tag_597\n        /* \"#utility.yul\":15810:15815   */\n      dup2\n        /* \"#utility.yul\":15794:15816   */\n      tag_373\n      jump\t// in\n    tag_597:\n        /* \"#utility.yul\":15789:15792   */\n      dup3\n        /* \"#utility.yul\":15782:15817   */\n      mstore\n        /* \"#utility.yul\":15711:15823   */\n      pop\n      pop\n      jump\t// out\n        /* \"#utility.yul\":15829:16707   */\n    tag_110:\n        /* \"#utility.yul\":16086:16090   */\n      0x00\n        /* \"#utility.yul\":16124:16127   */\n      0xe0\n        /* \"#utility.yul\":16113:16122   */\n      dup3\n        /* \"#utility.yul\":16109:16128   */\n      add\n        /* \"#utility.yul\":16101:16128   */\n      swap1\n      pop\n        /* \"#utility.yul\":16138:16209   */\n      tag_599\n        /* \"#utility.yul\":16206:16207   */\n      0x00\n        /* \"#utility.yul\":16195:16204   */\n      dup4\n        /* \"#utility.yul\":16191:16208   */\n      add\n        /* \"#utility.yul\":16182:16188   */\n      dup11\n        /* \"#utility.yul\":16138:16209   */\n      tag_390\n      jump\t// in\n    tag_599:\n        /* \"#utility.yul\":16219:16291   */\n      tag_600\n        /* \"#utility.yul\":16287:16289   */\n      0x20\n        /* \"#utility.yul\":16276:16285   */\n      dup4\n        /* \"#utility.yul\":16272:16290   */\n      add\n        /* \"#utility.yul\":16263:16269   */\n      dup10\n        /* \"#utility.yul\":16219:16291   */\n      tag_390\n      jump\t// in\n    tag_600:\n        /* \"#utility.yul\":16301:16373   */\n      tag_601\n        /* \"#utility.yul\":16369:16371   */\n      0x40\n        /* \"#utility.yul\":16358:16367   */\n      dup4\n        /* \"#utility.yul\":16354:16372   */\n      add\n        /* \"#utility.yul\":16345:16351   */\n      dup9\n        /* \"#utility.yul\":16301:16373   */\n      tag_370\n      jump\t// in\n    tag_601:\n        /* \"#utility.yul\":16383:16455   */\n      tag_602\n        /* \"#utility.yul\":16451:16453   */\n      0x60\n        /* \"#utility.yul\":16440:16449   */\n      dup4\n        /* \"#utility.yul\":16436:16454   */\n      add\n        /* \"#utility.yul\":16427:16433   */\n      dup8\n        /* \"#utility.yul\":16383:16455   */\n      tag_370\n      jump\t// in\n    tag_602:\n        /* \"#utility.yul\":16465:16534   */\n      tag_603\n        /* \"#utility.yul\":16529:16532   */\n      0x80\n        /* \"#utility.yul\":16518:16527   */\n      dup4\n        /* \"#utility.yul\":16514:16533   */\n      add\n        /* \"#utility.yul\":16505:16511   */\n      dup7\n        /* \"#utility.yul\":16465:16534   */\n      tag_408\n      jump\t// in\n    tag_603:\n        /* \"#utility.yul\":16544:16617   */\n      tag_604\n        /* \"#utility.yul\":16612:16615   */\n      0xa0\n        /* \"#utility.yul\":16601:16610   */\n      dup4\n        /* \"#utility.yul\":16597:16616   */\n      add\n        /* \"#utility.yul\":16588:16594   */\n      dup6\n        /* \"#utility.yul\":16544:16617   */\n      tag_389\n      jump\t// in\n    tag_604:\n        /* \"#utility.yul\":16627:16700   */\n      tag_605\n        /* \"#utility.yul\":16695:16698   */\n      0xc0\n        /* \"#utility.yul\":16684:16693   */\n      dup4\n        /* \"#utility.yul\":16680:16699   */\n      add\n        /* \"#utility.yul\":16671:16677   */\n      dup5\n        /* \"#utility.yul\":16627:16700   */\n      tag_389\n      jump\t// in\n    tag_605:\n        /* \"#utility.yul\":15829:16707   */\n      swap9\n      swap8\n      pop\n      pop\n      pop\n      pop\n      pop\n      pop\n      pop\n      pop\n      jump\t// out\n        /* \"#utility.yul\":16713:16876   */\n    tag_409:\n        /* \"#utility.yul\":16853:16868   */\n      0x5065726d6974206661696c656400000000000000000000000000000000000000\n        /* \"#utility.yul\":16849:16850   */\n      0x00\n        /* \"#utility.yul\":16841:16847   */\n      dup3\n        /* \"#utility.yul\":16837:16851   */\n      add\n        /* \"#utility.yul\":16830:16869   */\n      mstore\n        /* \"#utility.yul\":16713:16876   */\n      pop\n      jump\t// out\n        /* \"#utility.yul\":16882:17248   */\n    tag_410:\n        /* \"#utility.yul\":17024:17027   */\n      0x00\n        /* \"#utility.yul\":17045:17112   */\n      tag_608\n        /* \"#utility.yul\":17109:17111   */\n      0x0d\n        /* \"#utility.yul\":17104:17107   */\n      dup4\n        /* \"#utility.yul\":17045:17112   */\n      tag_392\n      jump\t// in\n    tag_608:\n        /* \"#utility.yul\":17038:17112   */\n      swap2\n      pop\n        /* \"#utility.yul\":17121:17214   */\n      tag_609\n        /* \"#utility.yul\":17210:17213   */\n      dup3\n        /* \"#utility.yul\":17121:17214   */\n      tag_409\n      jump\t// in\n    tag_609:\n        /* \"#utility.yul\":17239:17241   */\n      0x20\n        /* \"#utility.yul\":17234:17237   */\n      dup3\n        /* \"#utility.yul\":17230:17242   */\n      add\n        /* \"#utility.yul\":17223:17242   */\n      swap1\n      pop\n        /* \"#utility.yul\":16882:17248   */\n      swap2\n      swap1\n      pop\n      jump\t// out\n        /* \"#utility.yul\":17254:17673   */\n    tag_117:\n        /* \"#utility.yul\":17420:17424   */\n      0x00\n        /* \"#utility.yul\":17458:17460   */\n      0x20\n        /* \"#utility.yul\":17447:17456   */\n      dup3\n        /* \"#utility.yul\":17443:17461   */\n      add\n        /* \"#utility.yul\":17435:17461   */\n      swap1\n      pop\n        /* \"#utility.yul\":17507:17516   */\n      dup2\n        /* \"#utility.yul\":17501:17505   */\n      dup2\n        /* \"#utility.yul\":17497:17517   */\n      sub\n        /* \"#utility.yul\":17493:17494   */\n      0x00\n        /* \"#utility.yul\":17482:17491   */\n      dup4\n        /* \"#utility.yul\":17478:17495   */\n      add\n        /* \"#utility.yul\":17471:17518   */\n      mstore\n        /* \"#utility.yul\":17535:17666   */\n      tag_611\n        /* \"#utility.yul\":17661:17665   */\n      dup2\n        /* \"#utility.yul\":17535:17666   */\n      tag_410\n      jump\t// in\n    tag_611:\n        /* \"#utility.yul\":17527:17666   */\n      swap1\n      pop\n        /* \"#utility.yul\":17254:17673   */\n      swap2\n      swap1\n      pop\n      jump\t// out\n        /* \"#utility.yul\":17679:18121   */\n    tag_119:\n        /* \"#utility.yul\":17828:17832   */\n      0x00\n        /* \"#utility.yul\":17866:17868   */\n      0x60\n        /* \"#utility.yul\":17855:17864   */\n      dup3\n        /* \"#utility.yul\":17851:17869   */\n      add\n        /* \"#utility.yul\":17843:17869   */\n      swap1\n      pop\n        /* \"#utility.yul\":17879:17950   */\n      tag_613\n        /* \"#utility.yul\":17947:17948   */\n      0x00\n        /* \"#utility.yul\":17936:17945   */\n      dup4\n        /* \"#utility.yul\":17932:17949   */\n      add\n        /* \"#utility.yul\":17923:17929   */\n      dup7\n        /* \"#utility.yul\":17879:17950   */\n      tag_390\n      jump\t// in\n    tag_613:\n        /* \"#utility.yul\":17960:18032   */\n      tag_614\n        /* \"#utility.yul\":18028:18030   */\n      0x20\n        /* \"#utility.yul\":18017:18026   */\n      dup4\n        /* \"#utility.yul\":18013:18031   */\n      add\n        /* \"#utility.yul\":18004:18010   */\n      dup6\n        /* \"#utility.yul\":17960:18032   */\n      tag_390\n      jump\t// in\n    tag_614:\n        /* \"#utility.yul\":18042:18114   */\n      tag_615\n        /* \"#utility.yul\":18110:18112   */\n      0x40\n        /* \"#utility.yul\":18099:18108   */\n      dup4\n        /* \"#utility.yul\":18095:18113   */\n      add\n        /* \"#utility.yul\":18086:18092   */\n      dup5\n        /* \"#utility.yul\":18042:18114   */\n      tag_370\n      jump\t// in\n    tag_615:\n        /* \"#utility.yul\":17679:18121   */\n      swap5\n      swap4\n      pop\n      pop\n      pop\n      pop\n      jump\t// out\n        /* \"#utility.yul\":18127:18292   */\n    tag_411:\n        /* \"#utility.yul\":18267:18284   */\n      0x5472616e73666572206661696c65640000000000000000000000000000000000\n        /* \"#utility.yul\":18263:18264   */\n      0x00\n        /* \"#utility.yul\":18255:18261   */\n      dup3\n        /* \"#utility.yul\":18251:18265   */\n      add\n        /* \"#utility.yul\":18244:18285   */\n      mstore\n        /* \"#utility.yul\":18127:18292   */\n      pop\n      jump\t// out\n        /* \"#utility.yul\":18298:18664   */\n    tag_412:\n        /* \"#utility.yul\":18440:18443   */\n      0x00\n        /* \"#utility.yul\":18461:18528   */\n      tag_618\n        /* \"#utility.yul\":18525:18527   */\n      0x0f\n        /* \"#utility.yul\":18520:18523   */\n      dup4\n        /* \"#utility.yul\":18461:18528   */\n      tag_392\n      jump\t// in\n    tag_618:\n        /* \"#utility.yul\":18454:18528   */\n      swap2\n      pop\n        /* \"#utility.yul\":18537:18630   */\n      tag_619\n        /* \"#utility.yul\":18626:18629   */\n      dup3\n        /* \"#utility.yul\":18537:18630   */\n      tag_411\n      jump\t// in\n    tag_619:\n        /* \"#utility.yul\":18655:18657   */\n      0x20\n        /* \"#utility.yul\":18650:18653   */\n      dup3\n        /* \"#utility.yul\":18646:18658   */\n      add\n        /* \"#utility.yul\":18639:18658   */\n      swap1\n      pop\n        /* \"#utility.yul\":18298:18664   */\n      swap2\n      swap1\n      pop\n      jump\t// out\n        /* \"#utility.yul\":18670:19089   */\n    tag_126:\n        /* \"#utility.yul\":18836:18840   */\n      0x00\n        /* \"#utility.yul\":18874:18876   */\n      0x20\n        /* \"#utility.yul\":18863:18872   */\n      dup3\n        /* \"#utility.yul\":18859:18877   */\n      add\n        /* \"#utility.yul\":18851:18877   */\n      swap1\n      pop\n        /* \"#utility.yul\":18923:18932   */\n      dup2\n        /* \"#utility.yul\":18917:18921   */\n      dup2\n        /* \"#utility.yul\":18913:18933   */\n      sub\n        /* \"#utility.yul\":18909:18910   */\n      0x00\n        /* \"#utility.yul\":18898:18907   */\n      dup4\n        /* \"#utility.yul\":18894:18911   */\n      add\n        /* \"#utility.yul\":18887:18934   */\n      mstore\n        /* \"#utility.yul\":18951:19082   */\n      tag_621\n        /* \"#utility.yul\":19077:19081   */\n      dup2\n        /* \"#utility.yul\":18951:19082   */\n      tag_412\n      jump\t// in\n    tag_621:\n        /* \"#utility.yul\":18943:19082   */\n      swap1\n      pop\n        /* \"#utility.yul\":18670:19089   */\n      swap2\n      swap1\n      pop\n      jump\t// out\n        /* \"#utility.yul\":19095:19270   */\n    tag_413:\n        /* \"#utility.yul\":19235:19262   */\n      0x546f20616464726573732063616e6e6f74206265207a65726f00000000000000\n        /* \"#utility.yul\":19231:19232   */\n      0x00\n        /* \"#utility.yul\":19223:19229   */\n      dup3\n        /* \"#utility.yul\":19219:19233   */\n      add\n        /* \"#utility.yul\":19212:19263   */\n      mstore\n        /* \"#utility.yul\":19095:19270   */\n      pop\n      jump\t// out\n        /* \"#utility.yul\":19276:19642   */\n    tag_414:\n        /* \"#utility.yul\":19418:19421   */\n      0x00\n        /* \"#utility.yul\":19439:19506   */\n      tag_624\n        /* \"#utility.yul\":19503:19505   */\n      0x19\n        /* \"#utility.yul\":19498:19501   */\n      dup4\n        /* \"#utility.yul\":19439:19506   */\n      tag_392\n      jump\t// in\n    tag_624:\n        /* \"#utility.yul\":19432:19506   */\n      swap2\n      pop\n        /* \"#utility.yul\":19515:19608   */\n      tag_625\n        /* \"#utility.yul\":19604:19607   */\n      dup3\n        /* \"#utility.yul\":19515:19608   */\n      tag_413\n      jump\t// in\n    tag_625:\n        /* \"#utility.yul\":19633:19635   */\n      0x20\n        /* \"#utility.yul\":19628:19631   */\n      dup3\n        /* \"#utility.yul\":19624:19636   */\n      add\n        /* \"#utility.yul\":19617:19636   */\n      swap1\n      pop\n        /* \"#utility.yul\":19276:19642   */\n      swap2\n      swap1\n      pop\n      jump\t// out\n        /* \"#utility.yul\":19648:20067   */\n    tag_134:\n        /* \"#utility.yul\":19814:19818   */\n      0x00\n        /* \"#utility.yul\":19852:19854   */\n      0x20\n        /* \"#utility.yul\":19841:19850   */\n      dup3\n        /* \"#utility.yul\":19837:19855   */\n      add\n        /* \"#utility.yul\":19829:19855   */\n      swap1\n      pop\n        /* \"#utility.yul\":19901:19910   */\n      dup2\n        /* \"#utility.yul\":19895:19899   */\n      dup2\n        /* \"#utility.yul\":19891:19911   */\n      sub\n        /* \"#utility.yul\":19887:19888   */\n      0x00\n        /* \"#utility.yul\":19876:19885   */\n      dup4\n        /* \"#utility.yul\":19872:19889   */\n      add\n        /* \"#utility.yul\":19865:19912   */\n      mstore\n        /* \"#utility.yul\":19929:20060   */\n      tag_627\n        /* \"#utility.yul\":20055:20059   */\n      dup2\n        /* \"#utility.yul\":19929:20060   */\n      tag_414\n      jump\t// in\n    tag_627:\n        /* \"#utility.yul\":19921:20060   */\n      swap1\n      pop\n        /* \"#utility.yul\":19648:20067   */\n      swap2\n      swap1\n      pop\n      jump\t// out\n        /* \"#utility.yul\":20073:20255   */\n    tag_415:\n        /* \"#utility.yul\":20213:20247   */\n      0x416d6f756e74206d7573742062652067726561746572207468616e207a65726f\n        /* \"#utility.yul\":20209:20210   */\n      0x00\n        /* \"#utility.yul\":20201:20207   */\n      dup3\n        /* \"#utility.yul\":20197:20211   */\n      add\n        /* \"#utility.yul\":20190:20248   */\n      mstore\n        /* \"#utility.yul\":20073:20255   */\n      pop\n      jump\t// out\n        /* \"#utility.yul\":20261:20627   */\n    tag_416:\n        /* \"#utility.yul\":20403:20406   */\n      0x00\n        /* \"#utility.yul\":20424:20491   */\n      tag_630\n        /* \"#utility.yul\":20488:20490   */\n      0x20\n        /* \"#utility.yul\":20483:20486   */\n      dup4\n        /* \"#utility.yul\":20424:20491   */\n      tag_392\n      jump\t// in\n    tag_630:\n        /* \"#utility.yul\":20417:20491   */\n      swap2\n      pop\n        /* \"#utility.yul\":20500:20593   */\n      tag_631\n        /* \"#utility.yul\":20589:20592   */\n      dup3\n        /* \"#utility.yul\":20500:20593   */\n      tag_415\n      jump\t// in\n    tag_631:\n        /* \"#utility.yul\":20618:20620   */\n      0x20\n        /* \"#utility.yul\":20613:20616   */\n      dup3\n        /* \"#utility.yul\":20609:20621   */\n      add\n        /* \"#utility.yul\":20602:20621   */\n      swap1\n      pop\n        /* \"#utility.yul\":20261:20627   */\n      swap2\n      swap1\n      pop\n      jump\t// out\n        /* \"#utility.yul\":20633:21052   */\n    tag_137:\n        /* \"#utility.yul\":20799:20803   */\n      0x00\n        /* \"#utility.yul\":20837:20839   */\n      0x20\n        /* \"#utility.yul\":20826:20835   */\n      dup3\n        /* \"#utility.yul\":20822:20840   */\n      add\n        /* \"#utility.yul\":20814:20840   */\n      swap1\n      pop\n        /* \"#utility.yul\":20886:20895   */\n      dup2\n        /* \"#utility.yul\":20880:20884   */\n      dup2\n        /* \"#utility.yul\":20876:20896   */\n      sub\n        /* \"#utility.yul\":20872:20873   */\n      0x00\n        /* \"#utility.yul\":20861:20870   */\n      dup4\n        /* \"#utility.yul\":20857:20874   */\n      add\n        /* \"#utility.yul\":20850:20897   */\n      mstore\n        /* \"#utility.yul\":20914:21045   */\n      tag_633\n        /* \"#utility.yul\":21040:21044   */\n      dup2\n        /* \"#utility.yul\":20914:21045   */\n      tag_416\n      jump\t// in\n    tag_633:\n        /* \"#utility.yul\":20906:21045   */\n      swap1\n      pop\n        /* \"#utility.yul\":20633:21052   */\n      swap2\n      swap1\n      pop\n      jump\t// out\n        /* \"#utility.yul\":21058:21228   */\n    tag_417:\n        /* \"#utility.yul\":21198:21220   */\n      0x42616c616e636520636865636b206661696c6564000000000000000000000000\n        /* \"#utility.yul\":21194:21195   */\n      0x00\n        /* \"#utility.yul\":21186:21192   */\n      dup3\n        /* \"#utility.yul\":21182:21196   */\n      add\n        /* \"#utility.yul\":21175:21221   */\n      mstore\n        /* \"#utility.yul\":21058:21228   */\n      pop\n      jump\t// out\n        /* \"#utility.yul\":21234:21600   */\n    tag_418:\n        /* \"#utility.yul\":21376:21379   */\n      0x00\n        /* \"#utility.yul\":21397:21464   */\n      tag_636\n        /* \"#utility.yul\":21461:21463   */\n      0x14\n        /* \"#utility.yul\":21456:21459   */\n      dup4\n        /* \"#utility.yul\":21397:21464   */\n      tag_392\n      jump\t// in\n    tag_636:\n        /* \"#utility.yul\":21390:21464   */\n      swap2\n      pop\n        /* \"#utility.yul\":21473:21566   */\n      tag_637\n        /* \"#utility.yul\":21562:21565   */\n      dup3\n        /* \"#utility.yul\":21473:21566   */\n      tag_417\n      jump\t// in\n    tag_637:\n        /* \"#utility.yul\":21591:21593   */\n      0x20\n        /* \"#utility.yul\":21586:21589   */\n      dup3\n        /* \"#utility.yul\":21582:21594   */\n      add\n        /* \"#utility.yul\":21575:21594   */\n      swap1\n      pop\n        /* \"#utility.yul\":21234:21600   */\n      swap2\n      swap1\n      pop\n      jump\t// out\n        /* \"#utility.yul\":21606:22025   */\n    tag_145:\n        /* \"#utility.yul\":21772:21776   */\n      0x00\n        /* \"#utility.yul\":21810:21812   */\n      0x20\n        /* \"#utility.yul\":21799:21808   */\n      dup3\n        /* \"#utility.yul\":21795:21813   */\n      add\n        /* \"#utility.yul\":21787:21813   */\n      swap1\n      pop\n        /* \"#utility.yul\":21859:21868   */\n      dup2\n        /* \"#utility.yul\":21853:21857   */\n      dup2\n        /* \"#utility.yul\":21849:21869   */\n      sub\n        /* \"#utility.yul\":21845:21846   */\n      0x00\n        /* \"#utility.yul\":21834:21843   */\n      dup4\n        /* \"#utility.yul\":21830:21847   */\n      add\n        /* \"#utility.yul\":21823:21870   */\n      mstore\n        /* \"#utility.yul\":21887:22018   */\n      tag_639\n        /* \"#utility.yul\":22013:22017   */\n      dup2\n        /* \"#utility.yul\":21887:22018   */\n      tag_418\n      jump\t// in\n    tag_639:\n        /* \"#utility.yul\":21879:22018   */\n      swap1\n      pop\n        /* \"#utility.yul\":21606:22025   */\n      swap2\n      swap1\n      pop\n      jump\t// out\n        /* \"#utility.yul\":22031:22201   */\n    tag_419:\n        /* \"#utility.yul\":22171:22193   */\n      0x496e73756666696369656e742062616c616e6365000000000000000000000000\n        /* \"#utility.yul\":22167:22168   */\n      0x00\n        /* \"#utility.yul\":22159:22165   */\n      dup3\n        /* \"#utility.yul\":22155:22169   */\n      add\n        /* \"#utility.yul\":22148:22194   */\n      mstore\n        /* \"#utility.yul\":22031:22201   */\n      pop\n      jump\t// out\n        /* \"#utility.yul\":22207:22573   */\n    tag_420:\n        /* \"#utility.yul\":22349:22352   */\n      0x00\n        /* \"#utility.yul\":22370:22437   */\n      tag_642\n        /* \"#utility.yul\":22434:22436   */\n      0x14\n        /* \"#utility.yul\":22429:22432   */\n      dup4\n        /* \"#utility.yul\":22370:22437   */\n      tag_392\n      jump\t// in\n    tag_642:\n        /* \"#utility.yul\":22363:22437   */\n      swap2\n      pop\n        /* \"#utility.yul\":22446:22539   */\n      tag_643\n        /* \"#utility.yul\":22535:22538   */\n      dup3\n        /* \"#utility.yul\":22446:22539   */\n      tag_419\n      jump\t// in\n    tag_643:\n        /* \"#utility.yul\":22564:22566   */\n      0x20\n        /* \"#utility.yul\":22559:22562   */\n      dup3\n        /* \"#utility.yul\":22555:22567   */\n      add\n        /* \"#utility.yul\":22548:22567   */\n      swap1\n      pop\n        /* \"#utility.yul\":22207:22573   */\n      swap2\n      swap1\n      pop\n      jump\t// out\n        /* \"#utility.yul\":22579:22998   */\n    tag_149:\n        /* \"#utility.yul\":22745:22749   */\n      0x00\n        /* \"#utility.yul\":22783:22785   */\n      0x20\n        /* \"#utility.yul\":22772:22781   */\n      dup3\n        /* \"#utility.yul\":22768:22786   */\n      add\n        /* \"#utility.yul\":22760:22786   */\n      swap1\n      pop\n        /* \"#utility.yul\":22832:22841   */\n      dup2\n        /* \"#utility.yul\":22826:22830   */\n      dup2\n        /* \"#utility.yul\":22822:22842   */\n      sub\n        /* \"#utility.yul\":22818:22819   */\n      0x00\n        /* \"#utility.yul\":22807:22816   */\n      dup4\n        /* \"#utility.yul\":22803:22820   */\n      add\n        /* \"#utility.yul\":22796:22843   */\n      mstore\n        /* \"#utility.yul\":22860:22991   */\n      tag_645\n        /* \"#utility.yul\":22986:22990   */\n      dup2\n        /* \"#utility.yul\":22860:22991   */\n      tag_420\n      jump\t// in\n    tag_645:\n        /* \"#utility.yul\":22852:22991   */\n      swap1\n      pop\n        /* \"#utility.yul\":22579:22998   */\n      swap2\n      swap1\n      pop\n      jump\t// out\n        /* \"#utility.yul\":23004:23336   */\n    tag_151:\n        /* \"#utility.yul\":23125:23129   */\n      0x00\n        /* \"#utility.yul\":23163:23165   */\n      0x40\n        /* \"#utility.yul\":23152:23161   */\n      dup3\n        /* \"#utility.yul\":23148:23166   */\n      add\n        /* \"#utility.yul\":23140:23166   */\n      swap1\n      pop\n        /* \"#utility.yul\":23176:23247   */\n      tag_647\n        /* \"#utility.yul\":23244:23245   */\n      0x00\n        /* \"#utility.yul\":23233:23242   */\n      dup4\n        /* \"#utility.yul\":23229:23246   */\n      add\n        /* \"#utility.yul\":23220:23226   */\n      dup6\n        /* \"#utility.yul\":23176:23247   */\n      tag_390\n      jump\t// in\n    tag_647:\n        /* \"#utility.yul\":23257:23329   */\n      tag_648\n        /* \"#utility.yul\":23325:23327   */\n      0x20\n        /* \"#utility.yul\":23314:23323   */\n      dup4\n        /* \"#utility.yul\":23310:23328   */\n      add\n        /* \"#utility.yul\":23301:23307   */\n      dup5\n        /* \"#utility.yul\":23257:23329   */\n      tag_370\n      jump\t// in\n    tag_648:\n        /* \"#utility.yul\":23004:23336   */\n      swap4\n      swap3\n      pop\n      pop\n      pop\n      jump\t// out\n        /* \"#utility.yul\":23342:23562   */\n    tag_421:\n        /* \"#utility.yul\":23482:23516   */\n      0x5553445420746f6b656e20616464726573732063616e6e6f74206265207a6572\n        /* \"#utility.yul\":23478:23479   */\n      0x00\n        /* \"#utility.yul\":23470:23476   */\n      dup3\n        /* \"#utility.yul\":23466:23480   */\n      add\n        /* \"#utility.yul\":23459:23517   */\n      mstore\n        /* \"#utility.yul\":23551:23554   */\n      0x6f00000000000000000000000000000000000000000000000000000000000000\n        /* \"#utility.yul\":23546:23548   */\n      0x20\n        /* \"#utility.yul\":23538:23544   */\n      dup3\n        /* \"#utility.yul\":23534:23549   */\n      add\n        /* \"#utility.yul\":23527:23555   */\n      mstore\n        /* \"#utility.yul\":23342:23562   */\n      pop\n      jump\t// out\n        /* \"#utility.yul\":23568:23934   */\n    tag_422:\n        /* \"#utility.yul\":23710:23713   */\n      0x00\n        /* \"#utility.yul\":23731:23798   */\n      tag_651\n        /* \"#utility.yul\":23795:23797   */\n      0x21\n        /* \"#utility.yul\":23790:23793   */\n      dup4\n        /* \"#utility.yul\":23731:23798   */\n      tag_392\n      jump\t// in\n    tag_651:\n        /* \"#utility.yul\":23724:23798   */\n      swap2\n      pop\n        /* \"#utility.yul\":23807:23900   */\n      tag_652\n        /* \"#utility.yul\":23896:23899   */\n      dup3\n        /* \"#utility.yul\":23807:23900   */\n      tag_421\n      jump\t// in\n    tag_652:\n        /* \"#utility.yul\":23925:23927   */\n      0x40\n        /* \"#utility.yul\":23920:23923   */\n      dup3\n        /* \"#utility.yul\":23916:23928   */\n      add\n        /* \"#utility.yul\":23909:23928   */\n      swap1\n      pop\n        /* \"#utility.yul\":23568:23934   */\n      swap2\n      swap1\n      pop\n      jump\t// out\n        /* \"#utility.yul\":23940:24359   */\n    tag_171:\n        /* \"#utility.yul\":24106:24110   */\n      0x00\n        /* \"#utility.yul\":24144:24146   */\n      0x20\n        /* \"#utility.yul\":24133:24142   */\n      dup3\n        /* \"#utility.yul\":24129:24147   */\n      add\n        /* \"#utility.yul\":24121:24147   */\n      swap1\n      pop\n        /* \"#utility.yul\":24193:24202   */\n      dup2\n        /* \"#utility.yul\":24187:24191   */\n      dup2\n        /* \"#utility.yul\":24183:24203   */\n      sub\n        /* \"#utility.yul\":24179:24180   */\n      0x00\n        /* \"#utility.yul\":24168:24177   */\n      dup4\n        /* \"#utility.yul\":24164:24181   */\n      add\n        /* \"#utility.yul\":24157:24204   */\n      mstore\n        /* \"#utility.yul\":24221:24352   */\n      tag_654\n        /* \"#utility.yul\":24347:24351   */\n      dup2\n        /* \"#utility.yul\":24221:24352   */\n      tag_422\n      jump\t// in\n    tag_654:\n        /* \"#utility.yul\":24213:24352   */\n      swap1\n      pop\n        /* \"#utility.yul\":23940:24359   */\n      swap2\n      swap1\n      pop\n      jump\t// out\n        /* \"#utility.yul\":24365:24450   */\n    tag_423:\n        /* \"#utility.yul\":24410:24417   */\n      0x00\n        /* \"#utility.yul\":24439:24444   */\n      dup2\n        /* \"#utility.yul\":24428:24444   */\n      swap1\n      pop\n        /* \"#utility.yul\":24365:24450   */\n      swap2\n      swap1\n      pop\n      jump\t// out\n        /* \"#utility.yul\":24456:24557   */\n    tag_424:\n        /* \"#utility.yul\":24492:24499   */\n      0x00\n        /* \"#utility.yul\":24532:24550   */\n      0xffffffffffffffff\n        /* \"#utility.yul\":24525:24530   */\n      dup3\n        /* \"#utility.yul\":24521:24551   */\n      and\n        /* \"#utility.yul\":24510:24551   */\n      swap1\n      pop\n        /* \"#utility.yul\":24456:24557   */\n      swap2\n      swap1\n      pop\n      jump\t// out\n        /* \"#utility.yul\":24563:24623   */\n    tag_425:\n        /* \"#utility.yul\":24591:24594   */\n      0x00\n        /* \"#utility.yul\":24612:24617   */\n      dup2\n        /* \"#utility.yul\":24605:24617   */\n      swap1\n      pop\n        /* \"#utility.yul\":24563:24623   */\n      swap2\n      swap1\n      pop\n      jump\t// out\n        /* \"#utility.yul\":24629:24785   */\n    tag_426:\n        /* \"#utility.yul\":24686:24695   */\n      0x00\n        /* \"#utility.yul\":24719:24779   */\n      tag_659\n        /* \"#utility.yul\":24736:24778   */\n      tag_660\n        /* \"#utility.yul\":24745:24777   */\n      tag_661\n        /* \"#utility.yul\":24771:24776   */\n      dup5\n        /* \"#utility.yul\":24745:24777   */\n      tag_423\n      jump\t// in\n    tag_661:\n        /* \"#utility.yul\":24736:24778   */\n      tag_425\n      jump\t// in\n    tag_660:\n        /* \"#utility.yul\":24719:24779   */\n      tag_424\n      jump\t// in\n    tag_659:\n        /* \"#utility.yul\":24706:24779   */\n      swap1\n      pop\n        /* \"#utility.yul\":24629:24785   */\n      swap2\n      swap1\n      pop\n      jump\t// out\n        /* \"#utility.yul\":24791:24936   */\n    tag_427:\n        /* \"#utility.yul\":24885:24929   */\n      tag_663\n        /* \"#utility.yul\":24923:24928   */\n      dup2\n        /* \"#utility.yul\":24885:24929   */\n      tag_426\n      jump\t// in\n    tag_663:\n        /* \"#utility.yul\":24880:24883   */\n      dup3\n        /* \"#utility.yul\":24873:24930   */\n      mstore\n        /* \"#utility.yul\":24791:24936   */\n      pop\n      pop\n      jump\t// out\n        /* \"#utility.yul\":24942:25178   */\n    tag_180:\n        /* \"#utility.yul\":25042:25046   */\n      0x00\n        /* \"#utility.yul\":25080:25082   */\n      0x20\n        /* \"#utility.yul\":25069:25078   */\n      dup3\n        /* \"#utility.yul\":25065:25083   */\n      add\n        /* \"#utility.yul\":25057:25083   */\n      swap1\n      pop\n        /* \"#utility.yul\":25093:25171   */\n      tag_665\n        /* \"#utility.yul\":25168:25169   */\n      0x00\n        /* \"#utility.yul\":25157:25166   */\n      dup4\n        /* \"#utility.yul\":25153:25170   */\n      add\n        /* \"#utility.yul\":25144:25150   */\n      dup5\n        /* \"#utility.yul\":25093:25171   */\n      tag_427\n      jump\t// in\n    tag_665:\n        /* \"#utility.yul\":24942:25178   */\n      swap3\n      swap2\n      pop\n      pop\n      jump\t// out\n        /* \"#utility.yul\":25184:25361   */\n    tag_428:\n        /* \"#utility.yul\":25324:25353   */\n      0x46726f6d20616464726573732063616e6e6f74206265207a65726f0000000000\n        /* \"#utility.yul\":25320:25321   */\n      0x00\n        /* \"#utility.yul\":25312:25318   */\n      dup3\n        /* \"#utility.yul\":25308:25322   */\n      add\n        /* \"#utility.yul\":25301:25354   */\n      mstore\n        /* \"#utility.yul\":25184:25361   */\n      pop\n      jump\t// out\n        /* \"#utility.yul\":25367:25733   */\n    tag_429:\n        /* \"#utility.yul\":25509:25512   */\n      0x00\n        /* \"#utility.yul\":25530:25597   */\n      tag_668\n        /* \"#utility.yul\":25594:25596   */\n      0x1b\n        /* \"#utility.yul\":25589:25592   */\n      dup4\n        /* \"#utility.yul\":25530:25597   */\n      tag_392\n      jump\t// in\n    tag_668:\n        /* \"#utility.yul\":25523:25597   */\n      swap2\n      pop\n        /* \"#utility.yul\":25606:25699   */\n      tag_669\n        /* \"#utility.yul\":25695:25698   */\n      dup3\n        /* \"#utility.yul\":25606:25699   */\n      tag_428\n      jump\t// in\n    tag_669:\n        /* \"#utility.yul\":25724:25726   */\n      0x20\n        /* \"#utility.yul\":25719:25722   */\n      dup3\n        /* \"#utility.yul\":25715:25727   */\n      add\n        /* \"#utility.yul\":25708:25727   */\n      swap1\n      pop\n        /* \"#utility.yul\":25367:25733   */\n      swap2\n      swap1\n      pop\n      jump\t// out\n        /* \"#utility.yul\":25739:26158   */\n    tag_201:\n        /* \"#utility.yul\":25905:25909   */\n      0x00\n        /* \"#utility.yul\":25943:25945   */\n      0x20\n        /* \"#utility.yul\":25932:25941   */\n      dup3\n        /* \"#utility.yul\":25928:25946   */\n      add\n        /* \"#utility.yul\":25920:25946   */\n      swap1\n      pop\n        /* \"#utility.yul\":25992:26001   */\n      dup2\n        /* \"#utility.yul\":25986:25990   */\n      dup2\n        /* \"#utility.yul\":25982:26002   */\n      sub\n        /* \"#utility.yul\":25978:25979   */\n      0x00\n        /* \"#utility.yul\":25967:25976   */\n      dup4\n        /* \"#utility.yul\":25963:25980   */\n      add\n        /* \"#utility.yul\":25956:26003   */\n      mstore\n        /* \"#utility.yul\":26020:26151   */\n      tag_671\n        /* \"#utility.yul\":26146:26150   */\n      dup2\n        /* \"#utility.yul\":26020:26151   */\n      tag_429\n      jump\t// in\n    tag_671:\n        /* \"#utility.yul\":26012:26151   */\n      swap1\n      pop\n        /* \"#utility.yul\":25739:26158   */\n      swap2\n      swap1\n      pop\n      jump\t// out\n        /* \"#utility.yul\":26164:26336   */\n    tag_430:\n        /* \"#utility.yul\":26304:26328   */\n      0x496e73756666696369656e7420616c6c6f77616e636500000000000000000000\n        /* \"#utility.yul\":26300:26301   */\n      0x00\n        /* \"#utility.yul\":26292:26298   */\n      dup3\n        /* \"#utility.yul\":26288:26302   */\n      add\n        /* \"#utility.yul\":26281:26329   */\n      mstore\n        /* \"#utility.yul\":26164:26336   */\n      pop\n      jump\t// out\n        /* \"#utility.yul\":26342:26708   */\n    tag_431:\n        /* \"#utility.yul\":26484:26487   */\n      0x00\n        /* \"#utility.yul\":26505:26572   */\n      tag_674\n        /* \"#utility.yul\":26569:26571   */\n      0x16\n        /* \"#utility.yul\":26564:26567   */\n      dup4\n        /* \"#utility.yul\":26505:26572   */\n      tag_392\n      jump\t// in\n    tag_674:\n        /* \"#utility.yul\":26498:26572   */\n      swap2\n      pop\n        /* \"#utility.yul\":26581:26674   */\n      tag_675\n        /* \"#utility.yul\":26670:26673   */\n      dup3\n        /* \"#utility.yul\":26581:26674   */\n      tag_430\n      jump\t// in\n    tag_675:\n        /* \"#utility.yul\":26699:26701   */\n      0x20\n        /* \"#utility.yul\":26694:26697   */\n      dup3\n        /* \"#utility.yul\":26690:26702   */\n      add\n        /* \"#utility.yul\":26683:26702   */\n      swap1\n      pop\n        /* \"#utility.yul\":26342:26708   */\n      swap2\n      swap1\n      pop\n      jump\t// out\n        /* \"#utility.yul\":26714:27133   */\n    tag_214:\n        /* \"#utility.yul\":26880:26884   */\n      0x00\n        /* \"#utility.yul\":26918:26920   */\n      0x20\n        /* \"#utility.yul\":26907:26916   */\n      dup3\n        /* \"#utility.yul\":26903:26921   */\n      add\n        /* \"#utility.yul\":26895:26921   */\n      swap1\n      pop\n        /* \"#utility.yul\":26967:26976   */\n      dup2\n        /* \"#utility.yul\":26961:26965   */\n      dup2\n        /* \"#utility.yul\":26957:26977   */\n      sub\n        /* \"#utility.yul\":26953:26954   */\n      0x00\n        /* \"#utility.yul\":26942:26951   */\n      dup4\n        /* \"#utility.yul\":26938:26955   */\n      add\n        /* \"#utility.yul\":26931:26978   */\n      mstore\n        /* \"#utility.yul\":26995:27126   */\n      tag_677\n        /* \"#utility.yul\":27121:27125   */\n      dup2\n        /* \"#utility.yul\":26995:27126   */\n      tag_431\n      jump\t// in\n    tag_677:\n        /* \"#utility.yul\":26987:27126   */\n      swap1\n      pop\n        /* \"#utility.yul\":26714:27133   */\n      swap2\n      swap1\n      pop\n      jump\t// out\n        /* \"#utility.yul\":27139:27248   */\n    tag_432:\n        /* \"#utility.yul\":27220:27241   */\n      tag_679\n        /* \"#utility.yul\":27235:27240   */\n      dup2\n        /* \"#utility.yul\":27220:27241   */\n      tag_395\n      jump\t// in\n    tag_679:\n        /* \"#utility.yul\":27215:27218   */\n      dup3\n        /* \"#utility.yul\":27208:27242   */\n      mstore\n        /* \"#utility.yul\":27139:27248   */\n      pop\n      pop\n      jump\t// out\n        /* \"#utility.yul\":27254:28231   */\n    tag_242:\n        /* \"#utility.yul\":27533:27537   */\n      0x00\n        /* \"#utility.yul\":27571:27574   */\n      0x0100\n        /* \"#utility.yul\":27560:27569   */\n      dup3\n        /* \"#utility.yul\":27556:27575   */\n      add\n        /* \"#utility.yul\":27548:27575   */\n      swap1\n      pop\n        /* \"#utility.yul\":27585:27656   */\n      tag_681\n        /* \"#utility.yul\":27653:27654   */\n      0x00\n        /* \"#utility.yul\":27642:27651   */\n      dup4\n        /* \"#utility.yul\":27638:27655   */\n      add\n        /* \"#utility.yul\":27629:27635   */\n      dup12\n        /* \"#utility.yul\":27585:27656   */\n      tag_390\n      jump\t// in\n    tag_681:\n        /* \"#utility.yul\":27666:27738   */\n      tag_682\n        /* \"#utility.yul\":27734:27736   */\n      0x20\n        /* \"#utility.yul\":27723:27732   */\n      dup4\n        /* \"#utility.yul\":27719:27737   */\n      add\n        /* \"#utility.yul\":27710:27716   */\n      dup11\n        /* \"#utility.yul\":27666:27738   */\n      tag_390\n      jump\t// in\n    tag_682:\n        /* \"#utility.yul\":27748:27820   */\n      tag_683\n        /* \"#utility.yul\":27816:27818   */\n      0x40\n        /* \"#utility.yul\":27805:27814   */\n      dup4\n        /* \"#utility.yul\":27801:27819   */\n      add\n        /* \"#utility.yul\":27792:27798   */\n      dup10\n        /* \"#utility.yul\":27748:27820   */\n      tag_370\n      jump\t// in\n    tag_683:\n        /* \"#utility.yul\":27830:27902   */\n      tag_684\n        /* \"#utility.yul\":27898:27900   */\n      0x60\n        /* \"#utility.yul\":27887:27896   */\n      dup4\n        /* \"#utility.yul\":27883:27901   */\n      add\n        /* \"#utility.yul\":27874:27880   */\n      dup9\n        /* \"#utility.yul\":27830:27902   */\n      tag_370\n      jump\t// in\n    tag_684:\n        /* \"#utility.yul\":27912:27979   */\n      tag_685\n        /* \"#utility.yul\":27974:27977   */\n      0x80\n        /* \"#utility.yul\":27963:27972   */\n      dup4\n        /* \"#utility.yul\":27959:27978   */\n      add\n        /* \"#utility.yul\":27950:27956   */\n      dup8\n        /* \"#utility.yul\":27912:27979   */\n      tag_432\n      jump\t// in\n    tag_685:\n        /* \"#utility.yul\":27989:28058   */\n      tag_686\n        /* \"#utility.yul\":28053:28056   */\n      0xa0\n        /* \"#utility.yul\":28042:28051   */\n      dup4\n        /* \"#utility.yul\":28038:28057   */\n      add\n        /* \"#utility.yul\":28029:28035   */\n      dup7\n        /* \"#utility.yul\":27989:28058   */\n      tag_408\n      jump\t// in\n    tag_686:\n        /* \"#utility.yul\":28068:28141   */\n      tag_687\n        /* \"#utility.yul\":28136:28139   */\n      0xc0\n        /* \"#utility.yul\":28125:28134   */\n      dup4\n        /* \"#utility.yul\":28121:28140   */\n      add\n        /* \"#utility.yul\":28112:28118   */\n      dup6\n        /* \"#utility.yul\":28068:28141   */\n      tag_389\n      jump\t// in\n    tag_687:\n        /* \"#utility.yul\":28151:28224   */\n      tag_688\n        /* \"#utility.yul\":28219:28222   */\n      0xe0\n        /* \"#utility.yul\":28208:28217   */\n      dup4\n        /* \"#utility.yul\":28204:28223   */\n      add\n        /* \"#utility.yul\":28195:28201   */\n      dup5\n        /* \"#utility.yul\":28151:28224   */\n      tag_389\n      jump\t// in\n    tag_688:\n        /* \"#utility.yul\":27254:28231   */\n      swap10\n      swap9\n      pop\n      pop\n      pop\n      pop\n      pop\n      pop\n      pop\n      pop\n      pop\n      jump\t// out\n        /* \"#utility.yul\":28237:28404   */\n    tag_433:\n        /* \"#utility.yul\":28377:28396   */\n      0x444149207065726d6974206661696c6564000000000000000000000000000000\n        /* \"#utility.yul\":28373:28374   */\n      0x00\n        /* \"#utility.yul\":28365:28371   */\n      dup3\n        /* \"#utility.yul\":28361:28375   */\n      add\n        /* \"#utility.yul\":28354:28397   */\n      mstore\n        /* \"#utility.yul\":28237:28404   */\n      pop\n      jump\t// out\n        /* \"#utility.yul\":28410:28776   */\n    tag_434:\n        /* \"#utility.yul\":28552:28555   */\n      0x00\n        /* \"#utility.yul\":28573:28640   */\n      tag_691\n        /* \"#utility.yul\":28637:28639   */\n      0x11\n        /* \"#utility.yul\":28632:28635   */\n      dup4\n        /* \"#utility.yul\":28573:28640   */\n      tag_392\n      jump\t// in\n    tag_691:\n        /* \"#utility.yul\":28566:28640   */\n      swap2\n      pop\n        /* \"#utility.yul\":28649:28742   */\n      tag_692\n        /* \"#utility.yul\":28738:28741   */\n      dup3\n        /* \"#utility.yul\":28649:28742   */\n      tag_433\n      jump\t// in\n    tag_692:\n        /* \"#utility.yul\":28767:28769   */\n      0x20\n        /* \"#utility.yul\":28762:28765   */\n      dup3\n        /* \"#utility.yul\":28758:28770   */\n      add\n        /* \"#utility.yul\":28751:28770   */\n      swap1\n      pop\n        /* \"#utility.yul\":28410:28776   */\n      swap2\n      swap1\n      pop\n      jump\t// out\n        /* \"#utility.yul\":28782:29201   */\n    tag_249:\n        /* \"#utility.yul\":28948:28952   */\n      0x00\n        /* \"#utility.yul\":28986:28988   */\n      0x20\n        /* \"#utility.yul\":28975:28984   */\n      dup3\n        /* \"#utility.yul\":28971:28989   */\n      add\n        /* \"#utility.yul\":28963:28989   */\n      swap1\n      pop\n        /* \"#utility.yul\":29035:29044   */\n      dup2\n        /* \"#utility.yul\":29029:29033   */\n      dup2\n        /* \"#utility.yul\":29025:29045   */\n      sub\n        /* \"#utility.yul\":29021:29022   */\n      0x00\n        /* \"#utility.yul\":29010:29019   */\n      dup4\n        /* \"#utility.yul\":29006:29023   */\n      add\n        /* \"#utility.yul\":28999:29046   */\n      mstore\n        /* \"#utility.yul\":29063:29194   */\n      tag_694\n        /* \"#utility.yul\":29189:29193   */\n      dup2\n        /* \"#utility.yul\":29063:29194   */\n      tag_434\n      jump\t// in\n    tag_694:\n        /* \"#utility.yul\":29055:29194   */\n      swap1\n      pop\n        /* \"#utility.yul\":28782:29201   */\n      swap2\n      swap1\n      pop\n      jump\t// out\n        /* \"#utility.yul\":29207:29350   */\n    tag_435:\n        /* \"#utility.yul\":29264:29269   */\n      0x00\n        /* \"#utility.yul\":29295:29301   */\n      dup2\n        /* \"#utility.yul\":29289:29302   */\n      mload\n        /* \"#utility.yul\":29280:29302   */\n      swap1\n      pop\n        /* \"#utility.yul\":29311:29344   */\n      tag_696\n        /* \"#utility.yul\":29338:29343   */\n      dup2\n        /* \"#utility.yul\":29311:29344   */\n      tag_377\n      jump\t// in\n    tag_696:\n        /* \"#utility.yul\":29207:29350   */\n      swap3\n      swap2\n      pop\n      pop\n      jump\t// out\n        /* \"#utility.yul\":29356:29707   */\n    tag_295:\n        /* \"#utility.yul\":29426:29432   */\n      0x00\n        /* \"#utility.yul\":29475:29477   */\n      0x20\n        /* \"#utility.yul\":29463:29472   */\n      dup3\n        /* \"#utility.yul\":29454:29461   */\n      dup5\n        /* \"#utility.yul\":29450:29473   */\n      sub\n        /* \"#utility.yul\":29446:29478   */\n      slt\n        /* \"#utility.yul\":29443:29562   */\n      iszero\n      tag_698\n      jumpi\n        /* \"#utility.yul\":29481:29560   */\n      tag_699\n      tag_363\n      jump\t// in\n    tag_699:\n        /* \"#utility.yul\":29443:29562   */\n    tag_698:\n        /* \"#utility.yul\":29601:29602   */\n      0x00\n        /* \"#utility.yul\":29626:29690   */\n      tag_700\n        /* \"#utility.yul\":29682:29689   */\n      dup5\n        /* \"#utility.yul\":29673:29679   */\n      dup3\n        /* \"#utility.yul\":29662:29671   */\n      dup6\n        /* \"#utility.yul\":29658:29680   */\n      add\n        /* \"#utility.yul\":29626:29690   */\n      tag_435\n      jump\t// in\n    tag_700:\n        /* \"#utility.yul\":29616:29690   */\n      swap2\n      pop\n        /* \"#utility.yul\":29572:29700   */\n      pop\n        /* \"#utility.yul\":29356:29707   */\n      swap3\n      swap2\n      pop\n      pop\n      jump\t// out\n\n    auxdata: 0xa26469706673582212206e661afad1e2790d63ccb5079001c1376aa52a2f7daebd96b08db2df882ac54464736f6c634300081e0033\n}\n",
				"bytecode": {
					"linkReferences": {},
					"object": "60a06040523073ffffffffffffffffffffffffffffffffffffffff1660809073ffffffffffffffffffffffffffffffffffffffff16815250348015610042575f5ffd5b5061005161005660201b60201c565b6101d1565b5f61006561015460201b60201c565b9050805f0160089054906101000a900460ff16156100af576040517ff92ee8a900000000000000000000000000000000000000000000000000000000815260040160405180910390fd5b67ffffffffffffffff8016815f015f9054906101000a900467ffffffffffffffff1667ffffffffffffffff16146101515767ffffffffffffffff815f015f6101000a81548167ffffffffffffffff021916908367ffffffffffffffff1602179055507fc7f505b2f371ae2175ee4913f4499e1f2633a7b5936321eed1cdaeb6115181d267ffffffffffffffff60405161014891906101b8565b60405180910390a15b50565b5f5f61016461016d60201b60201c565b90508091505090565b5f7ff0c57e16840df040f15088dc2f81fe391c3923bec73e23a9662efc9c229c6a005f1b905090565b5f67ffffffffffffffff82169050919050565b6101b281610196565b82525050565b5f6020820190506101cb5f8301846101a9565b92915050565b6080516130e16101f75f395f8181611b0101528181611b560152611d1001526130e15ff3fe6080604052600436106100e7575f3560e01c80637ca32fcc11610089578063a98ad46c11610058578063a98ad46c146102a1578063ad3cb1cc146102cb578063c3881a04146102f5578063f2fde38b1461031d576100e7565b80637ca32fcc146101fb5780638af3c40e146102235780638da5cb5b1461024d5780639785fac814610277576100e7565b8063485cc955116100c5578063485cc955146101775780634f1ef2861461019f57806352d1902d146101bb578063715018a6146101e5576100e7565b80630c6ddc0d146100eb57806312a62cff146101275780631481794e1461014f575b5f5ffd5b3480156100f6575f5ffd5b50610111600480360381019061010c919061232d565b610345565b60405161011e9190612370565b60405180910390f35b348015610132575f5ffd5b5061014d6004803603810190610148919061241c565b6104bb565b005b34801561015a575f5ffd5b50610175600480360381019061017091906124a5565b61087d565b005b348015610182575f5ffd5b5061019d600480360381019061019891906124e3565b610cb1565b005b6101b960048036038101906101b4919061265d565b610f56565b005b3480156101c6575f5ffd5b506101cf610f75565b6040516101dc91906126c6565b60405180910390f35b3480156101f0575f5ffd5b506101f9610fa6565b005b348015610206575f5ffd5b50610221600480360381019061021c91906124a5565b610fb9565b005b34801561022e575f5ffd5b506102376113cb565b60405161024491906126ee565b60405180910390f35b348015610258575f5ffd5b506102616113f2565b60405161026e91906126ee565b60405180910390f35b348015610282575f5ffd5b5061028b611427565b6040516102989190612370565b60405180910390f35b3480156102ac575f5ffd5b506102b5611599565b6040516102c291906126ee565b60405180910390f35b3480156102d6575f5ffd5b506102df6115bd565b6040516102ec9190612767565b60405180910390f35b348015610300575f5ffd5b5061031b600480360381019061031691906127bc565b6115f6565b005b348015610328575f5ffd5b50610343600480360381019061033e919061232d565b6119c3565b005b5f5f5f5f5f9054906101000a900473ffffffffffffffffffffffffffffffffffffffff1673ffffffffffffffffffffffffffffffffffffffff16843060405160240161039292919061286d565b6040516020818303038152906040527fdd62ed3e000000000000000000000000000000000000000000000000000000007bffffffffffffffffffffffffffffffffffffffffffffffffffffffff19166020820180517bffffffffffffffffffffffffffffffffffffffffffffffffffffffff838183161783525050505060405161041c91906128d8565b5f60405180830381855afa9150503d805f8114610454576040519150601f19603f3d011682016040523d82523d5f602084013e610459565b606091505b50915091508161049e576040517f08c379a000000000000000000000000000000000000000000000000000000000815260040161049590612938565b60405180910390fd5b808060200190518101906104b2919061296a565b92505050919050565b5f73ffffffffffffffffffffffffffffffffffffffff168673ffffffffffffffffffffffffffffffffffffffff1603610529576040517f08c379a0000000000000000000000000000000000000000000000000000000008152600401610520906129df565b60405180910390fd5b5f851161056b576040517f08c379a000000000000000000000000000000000000000000000000000000000815260040161056290612a47565b60405180910390fd5b5f5f5f9054906101000a900473ffffffffffffffffffffffffffffffffffffffff1673ffffffffffffffffffffffffffffffffffffffff16873088888888886040516024016105c09796959493929190612a74565b6040516020818303038152906040527fd505accf000000000000000000000000000000000000000000000000000000007bffffffffffffffffffffffffffffffffffffffffffffffffffffffff19166020820180517bffffffffffffffffffffffffffffffffffffffffffffffffffffffff838183161783525050505060405161064a91906128d8565b5f604051808303815f865af19150503d805f8114610683576040519150601f19603f3d011682016040523d82523d5f602084013e610688565b606091505b50509050806106cc576040517f08c379a00000000000000000000000000000000000000000000000000000000081526004016106c390612b2b565b60405180910390fd5b5f5f5f9054906101000a900473ffffffffffffffffffffffffffffffffffffffff1673ffffffffffffffffffffffffffffffffffffffff1688308960405160240161071993929190612b49565b6040516020818303038152906040527f23b872dd000000000000000000000000000000000000000000000000000000007bffffffffffffffffffffffffffffffffffffffffffffffffffffffff19166020820180517bffffffffffffffffffffffffffffffffffffffffffffffffffffffff83818316178352505050506040516107a391906128d8565b5f604051808303815f865af19150503d805f81146107dc576040519150601f19603f3d011682016040523d82523d5f602084013e6107e1565b606091505b5050905080610825576040517f08c379a000000000000000000000000000000000000000000000000000000000815260040161081c90612bc8565b60405180910390fd5b8773ffffffffffffffffffffffffffffffffffffffff167f256d3f498207df9ab0f59ee9cc584fb4d2fe829f234f81a30a8b4c1c3949006d8860405161086b9190612370565b60405180910390a25050505050505050565b610885611a47565b5f73ffffffffffffffffffffffffffffffffffffffff168273ffffffffffffffffffffffffffffffffffffffff16036108f3576040517f08c379a00000000000000000000000000000000000000000000000000000000081526004016108ea90612c30565b60405180910390fd5b5f8111610935576040517f08c379a000000000000000000000000000000000000000000000000000000000815260040161092c90612c98565b60405180910390fd5b5f5f5f5f9054906101000a900473ffffffffffffffffffffffffffffffffffffffff1673ffffffffffffffffffffffffffffffffffffffff163060405160240161097f91906126ee565b6040516020818303038152906040527f70a08231000000000000000000000000000000000000000000000000000000007bffffffffffffffffffffffffffffffffffffffffffffffffffffffff19166020820180517bffffffffffffffffffffffffffffffffffffffffffffffffffffffff8381831617835250505050604051610a0991906128d8565b5f604051808303815f865af19150503d805f8114610a42576040519150601f19603f3d011682016040523d82523d5f602084013e610a47565b606091505b509150915081610a8c576040517f08c379a0000000000000000000000000000000000000000000000000000000008152600401610a8390612d00565b60405180910390fd5b5f81806020019051810190610aa1919061296a565b905083811015610ae6576040517f08c379a0000000000000000000000000000000000000000000000000000000008152600401610add90612d68565b60405180910390fd5b5f5f5f9054906101000a900473ffffffffffffffffffffffffffffffffffffffff1673ffffffffffffffffffffffffffffffffffffffff168686604051602401610b31929190612d86565b6040516020818303038152906040527fa9059cbb000000000000000000000000000000000000000000000000000000007bffffffffffffffffffffffffffffffffffffffffffffffffffffffff19166020820180517bffffffffffffffffffffffffffffffffffffffffffffffffffffffff8381831617835250505050604051610bbb91906128d8565b5f604051808303815f865af19150503d805f8114610bf4576040519150601f19603f3d011682016040523d82523d5f602084013e610bf9565b606091505b5050905080610c3d576040517f08c379a0000000000000000000000000000000000000000000000000000000008152600401610c3490612bc8565b60405180910390fd5b8573ffffffffffffffffffffffffffffffffffffffff16610c5c6113f2565b73ffffffffffffffffffffffffffffffffffffffff167f8bd6cbb6f5022fd9aa668e1aa80f16dd8cb4f1c4c3a26ae07e1f44d1fbdb6f8b87604051610ca19190612370565b60405180910390a3505050505050565b5f610cba611ace565b90505f815f0160089054906101000a900460ff161590505f825f015f9054906101000a900467ffffffffffffffff1690505f5f8267ffffffffffffffff16148015610d025750825b90505f60018367ffffffffffffffff16148015610d3557505f3073ffffffffffffffffffffffffffffffffffffffff163b145b905081158015610d43575080155b15610d7a576040517ff92ee8a900000000000000000000000000000000000000000000000000000000815260040160405180910390fd5b6001855f015f6101000a81548167ffffffffffffffff021916908367ffffffffffffffff1602179055508315610dc7576001855f0160086101000a81548160ff0219169083151502179055505b5f73ffffffffffffffffffffffffffffffffffffffff168773ffffffffffffffffffffffffffffffffffffffff1603610e35576040517f08c379a0000000000000000000000000000000000000000000000000000000008152600401610e2c90612e1d565b60405180910390fd5b5f73ffffffffffffffffffffffffffffffffffffffff168673ffffffffffffffffffffffffffffffffffffffff1603610ea3576040517f08c379a0000000000000000000000000000000000000000000000000000000008152600401610e9a906129df565b60405180910390fd5b610eac86611ae1565b610eb4611af5565b865f5f6101000a81548173ffffffffffffffffffffffffffffffffffffffff021916908373ffffffffffffffffffffffffffffffffffffffff1602179055508315610f4d575f855f0160086101000a81548160ff0219169083151502179055507fc7f505b2f371ae2175ee4913f4499e1f2633a7b5936321eed1cdaeb6115181d26001604051610f449190612e90565b60405180910390a15b50505050505050565b610f5e611aff565b610f6782611be5565b610f718282611bf0565b5050565b5f610f7e611d0e565b7f360894a13ba1a3210667c828492db98dca3e2076cc3735a920a3ca505d382bbc5f1b905090565b610fae611a47565b610fb75f611d95565b565b5f73ffffffffffffffffffffffffffffffffffffffff168273ffffffffffffffffffffffffffffffffffffffff1603611027576040517f08c379a000000000000000000000000000000000000000000000000000000000815260040161101e90612ef3565b60405180910390fd5b5f8111611069576040517f08c379a000000000000000000000000000000000000000000000000000000000815260040161106090612c98565b60405180910390fd5b5f5f5f5f9054906101000a900473ffffffffffffffffffffffffffffffffffffffff1673ffffffffffffffffffffffffffffffffffffffff1684306040516024016110b592919061286d565b6040516020818303038152906040527fdd62ed3e000000000000000000000000000000000000000000000000000000007bffffffffffffffffffffffffffffffffffffffffffffffffffffffff19166020820180517bffffffffffffffffffffffffffffffffffffffffffffffffffffffff838183161783525050505060405161113f91906128d8565b5f604051808303815f865af19150503d805f8114611178576040519150601f19603f3d011682016040523d82523d5f602084013e61117d565b606091505b5091509150816111c2576040517f08c379a00000000000000000000000000000000000000000000000000000000081526004016111b990612938565b60405180910390fd5b5f818060200190518101906111d7919061296a565b90508381101561121c576040517f08c379a000000000000000000000000000000000000000000000000000000000815260040161121390612f5b565b60405180910390fd5b5f5f5f9054906101000a900473ffffffffffffffffffffffffffffffffffffffff1673ffffffffffffffffffffffffffffffffffffffff1686308760405160240161126993929190612b49565b6040516020818303038152906040527f23b872dd000000000000000000000000000000000000000000000000000000007bffffffffffffffffffffffffffffffffffffffffffffffffffffffff19166020820180517bffffffffffffffffffffffffffffffffffffffffffffffffffffffff83818316178352505050506040516112f391906128d8565b5f604051808303815f865af19150503d805f811461132c576040519150601f19603f3d011682016040523d82523d5f602084013e611331565b606091505b5050905080611375576040517f08c379a000000000000000000000000000000000000000000000000000000000815260040161136c90612bc8565b60405180910390fd5b8573ffffffffffffffffffffffffffffffffffffffff167f256d3f498207df9ab0f59ee9cc584fb4d2fe829f234f81a30a8b4c1c3949006d866040516113bb9190612370565b60405180910390a2505050505050565b5f5f5f9054906101000a900473ffffffffffffffffffffffffffffffffffffffff16905090565b5f5f6113fc611e66565b9050805f015f9054906101000a900473ffffffffffffffffffffffffffffffffffffffff1691505090565b5f5f5f5f5f9054906101000a900473ffffffffffffffffffffffffffffffffffffffff1673ffffffffffffffffffffffffffffffffffffffff163060405160240161147291906126ee565b6040516020818303038152906040527f70a08231000000000000000000000000000000000000000000000000000000007bffffffffffffffffffffffffffffffffffffffffffffffffffffffff19166020820180517bffffffffffffffffffffffffffffffffffffffffffffffffffffffff83818316178352505050506040516114fc91906128d8565b5f60405180830381855afa9150503d805f8114611534576040519150601f19603f3d011682016040523d82523d5f602084013e611539565b606091505b50915091508161157e576040517f08c379a000000000000000000000000000000000000000000000000000000000815260040161157590612d00565b60405180910390fd5b80806020019051810190611592919061296a565b9250505090565b5f5f9054906101000a900473ffffffffffffffffffffffffffffffffffffffff1681565b6040518060400160405280600581526020017f352e302e3000000000000000000000000000000000000000000000000000000081525081565b5f73ffffffffffffffffffffffffffffffffffffffff168873ffffffffffffffffffffffffffffffffffffffff1603611664576040517f08c379a000000000000000000000000000000000000000000000000000000000815260040161165b906129df565b60405180910390fd5b5f87116116a6576040517f08c379a000000000000000000000000000000000000000000000000000000000815260040161169d90612a47565b60405180910390fd5b5f5f5f9054906101000a900473ffffffffffffffffffffffffffffffffffffffff1673ffffffffffffffffffffffffffffffffffffffff1689308989898989896040516024016116fd989796959493929190612f88565b6040516020818303038152906040527f8fcbaf0c000000000000000000000000000000000000000000000000000000007bffffffffffffffffffffffffffffffffffffffffffffffffffffffff19166020820180517bffffffffffffffffffffffffffffffffffffffffffffffffffffffff838183161783525050505060405161178791906128d8565b5f604051808303815f865af19150503d805f81146117c0576040519150601f19603f3d011682016040523d82523d5f602084013e6117c5565b606091505b5050905080611809576040517f08c379a00000000000000000000000000000000000000000000000000000000081526004016118009061304e565b60405180910390fd5b84156119b8575f5f5f9054906101000a900473ffffffffffffffffffffffffffffffffffffffff1673ffffffffffffffffffffffffffffffffffffffff168a308b60405160240161185c93929190612b49565b6040516020818303038152906040527f23b872dd000000000000000000000000000000000000000000000000000000007bffffffffffffffffffffffffffffffffffffffffffffffffffffffff19166020820180517bffffffffffffffffffffffffffffffffffffffffffffffffffffffff83818316178352505050506040516118e691906128d8565b5f604051808303815f865af19150503d805f811461191f576040519150601f19603f3d011682016040523d82523d5f602084013e611924565b606091505b5050905080611968576040517f08c379a000000000000000000000000000000000000000000000000000000000815260040161195f90612bc8565b60405180910390fd5b8973ffffffffffffffffffffffffffffffffffffffff167f256d3f498207df9ab0f59ee9cc584fb4d2fe829f234f81a30a8b4c1c3949006d8a6040516119ae9190612370565b60405180910390a2505b505050505050505050565b6119cb611a47565b5f73ffffffffffffffffffffffffffffffffffffffff168173ffffffffffffffffffffffffffffffffffffffff1603611a3b575f6040517f1e4fbdf7000000000000000000000000000000000000000000000000000000008152600401611a3291906126ee565b60405180910390fd5b611a4481611d95565b50565b611a4f611e8d565b73ffffffffffffffffffffffffffffffffffffffff16611a6d6113f2565b73ffffffffffffffffffffffffffffffffffffffff1614611acc57611a90611e8d565b6040517f118cdaa7000000000000000000000000000000000000000000000000000000008152600401611ac391906126ee565b60405180910390fd5b565b5f5f611ad8611e94565b90508091505090565b611ae9611ebd565b611af281611efd565b50565b611afd611ebd565b565b7f000000000000000000000000000000000000000000000000000000000000000073ffffffffffffffffffffffffffffffffffffffff163073ffffffffffffffffffffffffffffffffffffffff161480611bac57507f000000000000000000000000000000000000000000000000000000000000000073ffffffffffffffffffffffffffffffffffffffff16611b93611f81565b73ffffffffffffffffffffffffffffffffffffffff1614155b15611be3576040517fe07c8dba00000000000000000000000000000000000000000000000000000000815260040160405180910390fd5b565b611bed611a47565b50565b8173ffffffffffffffffffffffffffffffffffffffff166352d1902d6040518163ffffffff1660e01b8152600401602060405180830381865afa925050508015611c5857506040513d601f19601f82011682018060405250810190611c559190613080565b60015b611c9957816040517f4c9c8ce3000000000000000000000000000000000000000000000000000000008152600401611c9091906126ee565b60405180910390fd5b7f360894a13ba1a3210667c828492db98dca3e2076cc3735a920a3ca505d382bbc5f1b8114611cff57806040517faa1d49a4000000000000000000000000000000000000000000000000000000008152600401611cf691906126c6565b60405180910390fd5b611d098383611fd4565b505050565b7f000000000000000000000000000000000000000000000000000000000000000073ffffffffffffffffffffffffffffffffffffffff163073ffffffffffffffffffffffffffffffffffffffff1614611d93576040517fe07c8dba00000000000000000000000000000000000000000000000000000000815260040160405180910390fd5b565b5f611d9e611e66565b90505f815f015f9054906101000a900473ffffffffffffffffffffffffffffffffffffffff16905082825f015f6101000a81548173ffffffffffffffffffffffffffffffffffffffff021916908373ffffffffffffffffffffffffffffffffffffffff1602179055508273ffffffffffffffffffffffffffffffffffffffff168173ffffffffffffffffffffffffffffffffffffffff167f8be0079c531659141344cd1fd0a4f28419497f9722a3daafe3b4186f6b6457e060405160405180910390a3505050565b5f7f9016d09d72d40fdae2fd8ceac6b6234c7706214fd39c1cd1e609a0528c199300905090565b5f33905090565b5f7ff0c57e16840df040f15088dc2f81fe391c3923bec73e23a9662efc9c229c6a005f1b905090565b611ec5612046565b611efb576040517fd7e6bcf800000000000000000000000000000000000000000000000000000000815260040160405180910390fd5b565b611f05611ebd565b5f73ffffffffffffffffffffffffffffffffffffffff168173ffffffffffffffffffffffffffffffffffffffff1603611f75575f6040517f1e4fbdf7000000000000000000000000000000000000000000000000000000008152600401611f6c91906126ee565b60405180910390fd5b611f7e81611d95565b50565b5f611fad7f360894a13ba1a3210667c828492db98dca3e2076cc3735a920a3ca505d382bbc5f1b612064565b5f015f9054906101000a900473ffffffffffffffffffffffffffffffffffffffff16905090565b611fdd8261206d565b8173ffffffffffffffffffffffffffffffffffffffff167fbc7cd75a20ee27fd9adebab32041f755214dbc6bffa90cc0225b39da2e5c2d3b60405160405180910390a25f81511115612039576120338282612136565b50612042565b6120416121b6565b5b5050565b5f61204f611ace565b5f0160089054906101000a900460ff16905090565b5f819050919050565b5f8173ffffffffffffffffffffffffffffffffffffffff163b036120c857806040517f4c9c8ce30000000000000000000000000000000000000000000000000000000081526004016120bf91906126ee565b60405180910390fd5b806120f47f360894a13ba1a3210667c828492db98dca3e2076cc3735a920a3ca505d382bbc5f1b612064565b5f015f6101000a81548173ffffffffffffffffffffffffffffffffffffffff021916908373ffffffffffffffffffffffffffffffffffffffff16021790555050565b60605f5f8473ffffffffffffffffffffffffffffffffffffffff168460405161215f91906128d8565b5f60405180830381855af49150503d805f8114612197576040519150601f19603f3d011682016040523d82523d5f602084013e61219c565b606091505b50915091506121ac8583836121f2565b9250505092915050565b5f3411156121f0576040517fb398979f00000000000000000000000000000000000000000000000000000000815260040160405180910390fd5b565b606082612207576122028261227f565b612277565b5f825114801561222d57505f8473ffffffffffffffffffffffffffffffffffffffff163b145b1561226f57836040517f9996b31500000000000000000000000000000000000000000000000000000000815260040161226691906126ee565b60405180910390fd5b819050612278565b5b9392505050565b5f8151111561229057805160208201fd5b6040517fd6bda27500000000000000000000000000000000000000000000000000000000815260040160405180910390fd5b5f604051905090565b5f5ffd5b5f5ffd5b5f73ffffffffffffffffffffffffffffffffffffffff82169050919050565b5f6122fc826122d3565b9050919050565b61230c816122f2565b8114612316575f5ffd5b50565b5f8135905061232781612303565b92915050565b5f60208284031215612342576123416122cb565b5b5f61234f84828501612319565b91505092915050565b5f819050919050565b61236a81612358565b82525050565b5f6020820190506123835f830184612361565b92915050565b61239281612358565b811461239c575f5ffd5b50565b5f813590506123ad81612389565b92915050565b5f60ff82169050919050565b6123c8816123b3565b81146123d2575f5ffd5b50565b5f813590506123e3816123bf565b92915050565b5f819050919050565b6123fb816123e9565b8114612405575f5ffd5b50565b5f81359050612416816123f2565b92915050565b5f5f5f5f5f5f60c08789031215612436576124356122cb565b5b5f61244389828a01612319565b965050602061245489828a0161239f565b955050604061246589828a0161239f565b945050606061247689828a016123d5565b935050608061248789828a01612408565b92505060a061249889828a01612408565b9150509295509295509295565b5f5f604083850312156124bb576124ba6122cb565b5b5f6124c885828601612319565b92505060206124d98582860161239f565b9150509250929050565b5f5f604083850312156124f9576124f86122cb565b5b5f61250685828601612319565b925050602061251785828601612319565b9150509250929050565b5f5ffd5b5f5ffd5b5f601f19601f8301169050919050565b7f4e487b71000000000000000000000000000000000000000000000000000000005f52604160045260245ffd5b61256f82612529565b810181811067ffffffffffffffff8211171561258e5761258d612539565b5b80604052505050565b5f6125a06122c2565b90506125ac8282612566565b919050565b5f67ffffffffffffffff8211156125cb576125ca612539565b5b6125d482612529565b9050602081019050919050565b828183375f83830152505050565b5f6126016125fc846125b1565b612597565b90508281526020810184848401111561261d5761261c612525565b5b6126288482856125e1565b509392505050565b5f82601f83011261264457612643612521565b5b81356126548482602086016125ef565b91505092915050565b5f5f60408385031215612673576126726122cb565b5b5f61268085828601612319565b925050602083013567ffffffffffffffff8111156126a1576126a06122cf565b5b6126ad85828601612630565b9150509250929050565b6126c0816123e9565b82525050565b5f6020820190506126d95f8301846126b7565b92915050565b6126e8816122f2565b82525050565b5f6020820190506127015f8301846126df565b92915050565b5f81519050919050565b5f82825260208201905092915050565b8281835e5f83830152505050565b5f61273982612707565b6127438185612711565b9350612753818560208601612721565b61275c81612529565b840191505092915050565b5f6020820190508181035f83015261277f818461272f565b905092915050565b5f8115159050919050565b61279b81612787565b81146127a5575f5ffd5b50565b5f813590506127b681612792565b92915050565b5f5f5f5f5f5f5f5f610100898b0312156127d9576127d86122cb565b5b5f6127e68b828c01612319565b98505060206127f78b828c0161239f565b97505060406128088b828c0161239f565b96505060606128198b828c0161239f565b955050608061282a8b828c016127a8565b94505060a061283b8b828c016123d5565b93505060c061284c8b828c01612408565b92505060e061285d8b828c01612408565b9150509295985092959890939650565b5f6040820190506128805f8301856126df565b61288d60208301846126df565b9392505050565b5f81519050919050565b5f81905092915050565b5f6128b282612894565b6128bc818561289e565b93506128cc818560208601612721565b80840191505092915050565b5f6128e382846128a8565b915081905092915050565b7f416c6c6f77616e636520636865636b206661696c6564000000000000000000005f82015250565b5f612922601683612711565b915061292d826128ee565b602082019050919050565b5f6020820190508181035f83015261294f81612916565b9050919050565b5f8151905061296481612389565b92915050565b5f6020828403121561297f5761297e6122cb565b5b5f61298c84828501612956565b91505092915050565b7f4f776e65722063616e6e6f74206265207a65726f0000000000000000000000005f82015250565b5f6129c9601483612711565b91506129d482612995565b602082019050919050565b5f6020820190508181035f8301526129f6816129bd565b9050919050565b7f416d6f756e74206d757374206265203e203000000000000000000000000000005f82015250565b5f612a31601283612711565b9150612a3c826129fd565b602082019050919050565b5f6020820190508181035f830152612a5e81612a25565b9050919050565b612a6e816123b3565b82525050565b5f60e082019050612a875f83018a6126df565b612a9460208301896126df565b612aa16040830188612361565b612aae6060830187612361565b612abb6080830186612a65565b612ac860a08301856126b7565b612ad560c08301846126b7565b98975050505050505050565b7f5065726d6974206661696c6564000000000000000000000000000000000000005f82015250565b5f612b15600d83612711565b9150612b2082612ae1565b602082019050919050565b5f6020820190508181035f830152612b4281612b09565b9050919050565b5f606082019050612b5c5f8301866126df565b612b6960208301856126df565b612b766040830184612361565b949350505050565b7f5472616e73666572206661696c656400000000000000000000000000000000005f82015250565b5f612bb2600f83612711565b9150612bbd82612b7e565b602082019050919050565b5f6020820190508181035f830152612bdf81612ba6565b9050919050565b7f546f20616464726573732063616e6e6f74206265207a65726f000000000000005f82015250565b5f612c1a601983612711565b9150612c2582612be6565b602082019050919050565b5f6020820190508181035f830152612c4781612c0e565b9050919050565b7f416d6f756e74206d7573742062652067726561746572207468616e207a65726f5f82015250565b5f612c82602083612711565b9150612c8d82612c4e565b602082019050919050565b5f6020820190508181035f830152612caf81612c76565b9050919050565b7f42616c616e636520636865636b206661696c65640000000000000000000000005f82015250565b5f612cea601483612711565b9150612cf582612cb6565b602082019050919050565b5f6020820190508181035f830152612d1781612cde565b9050919050565b7f496e73756666696369656e742062616c616e63650000000000000000000000005f82015250565b5f612d52601483612711565b9150612d5d82612d1e565b602082019050919050565b5f6020820190508181035f830152612d7f81612d46565b9050919050565b5f604082019050612d995f8301856126df565b612da66020830184612361565b9392505050565b7f5553445420746f6b656e20616464726573732063616e6e6f74206265207a65725f8201527f6f00000000000000000000000000000000000000000000000000000000000000602082015250565b5f612e07602183612711565b9150612e1282612dad565b604082019050919050565b5f6020820190508181035f830152612e3481612dfb565b9050919050565b5f819050919050565b5f67ffffffffffffffff82169050919050565b5f819050919050565b5f612e7a612e75612e7084612e3b565b612e57565b612e44565b9050919050565b612e8a81612e60565b82525050565b5f602082019050612ea35f830184612e81565b92915050565b7f46726f6d20616464726573732063616e6e6f74206265207a65726f00000000005f82015250565b5f612edd601b83612711565b9150612ee882612ea9565b602082019050919050565b5f6020820190508181035f830152612f0a81612ed1565b9050919050565b7f496e73756666696369656e7420616c6c6f77616e6365000000000000000000005f82015250565b5f612f45601683612711565b9150612f5082612f11565b602082019050919050565b5f6020820190508181035f830152612f7281612f39565b9050919050565b612f8281612787565b82525050565b5f61010082019050612f9c5f83018b6126df565b612fa9602083018a6126df565b612fb66040830189612361565b612fc36060830188612361565b612fd06080830187612f79565b612fdd60a0830186612a65565b612fea60c08301856126b7565b612ff760e08301846126b7565b9998505050505050505050565b7f444149207065726d6974206661696c65640000000000000000000000000000005f82015250565b5f613038601183612711565b915061304382613004565b602082019050919050565b5f6020820190508181035f8301526130658161302c565b9050919050565b5f8151905061307a816123f2565b92915050565b5f60208284031215613095576130946122cb565b5b5f6130a28482850161306c565b9150509291505056fea26469706673582212206e661afad1e2790d63ccb5079001c1376aa52a2f7daebd96b08db2df882ac54464736f6c634300081e0033",
					"opcodes": "PUSH1 0xA0 PUSH1 0x40 MSTORE ADDRESS PUSH20 0xFFFFFFFFFFFFFFFFFFFFFFFFFFFFFFFFFFFFFFFF AND PUSH1 0x80 SWAP1 PUSH20 0xFFFFFFFFFFFFFFFFFFFFFFFFFFFFFFFFFFFFFFFF AND DUP2 MSTORE POP CALLVALUE DUP1 ISZERO PUSH2 0x42 JUMPI PUSH0 PUSH0 REVERT JUMPDEST POP PUSH2 0x51 PUSH2 0x56 PUSH1 0x20 SHL PUSH1 0x20 SHR JUMP JUMPDEST PUSH2 0x1D1 JUMP JUMPDEST PUSH0 PUSH2 0x65 PUSH2 0x154 PUSH1 0x20 SHL PUSH1 0x20 SHR JUMP JUMPDEST SWAP1 POP DUP1 PUSH0 ADD PUSH1 0x8 SWAP1 SLOAD SWAP1 PUSH2 0x100 EXP SWAP1 DIV PUSH1 0xFF AND ISZERO PUSH2 0xAF JUMPI PUSH1 0x40 MLOAD PUSH32 0xF92EE8A900000000000000000000000000000000000000000000000000000000 DUP2 MSTORE PUSH1 0x4 ADD PUSH1 0x40 MLOAD DUP1 SWAP2 SUB SWAP1 REVERT JUMPDEST PUSH8 0xFFFFFFFFFFFFFFFF DUP1 AND DUP2 PUSH0 ADD PUSH0 SWAP1 SLOAD SWAP1 PUSH2 0x100 EXP SWAP1 DIV PUSH8 0xFFFFFFFFFFFFFFFF AND PUSH8 0xFFFFFFFFFFFFFFFF AND EQ PUSH2 0x151 JUMPI PUSH8 0xFFFFFFFFFFFFFFFF DUP2 PUSH0 ADD PUSH0 PUSH2 0x100 EXP DUP2 SLOAD DUP2 PUSH8 0xFFFFFFFFFFFFFFFF MUL NOT AND SWAP1 DUP4 PUSH8 0xFFFFFFFFFFFFFFFF AND MUL OR SWAP1 SSTORE POP PUSH32 0xC7F505B2F371AE2175EE4913F4499E1F2633A7B5936321EED1CDAEB6115181D2 PUSH8 0xFFFFFFFFFFFFFFFF PUSH1 0x40 MLOAD PUSH2 0x148 SWAP2 SWAP1 PUSH2 0x1B8 JUMP JUMPDEST PUSH1 0x40 MLOAD DUP1 SWAP2 SUB SWAP1 LOG1 JUMPDEST POP JUMP JUMPDEST PUSH0 PUSH0 PUSH2 0x164 PUSH2 0x16D PUSH1 0x20 SHL PUSH1 0x20 SHR JUMP JUMPDEST SWAP1 POP DUP1 SWAP2 POP POP SWAP1 JUMP JUMPDEST PUSH0 PUSH32 0xF0C57E16840DF040F15088DC2F81FE391C3923BEC73E23A9662EFC9C229C6A00 PUSH0 SHL SWAP1 POP SWAP1 JUMP JUMPDEST PUSH0 PUSH8 0xFFFFFFFFFFFFFFFF DUP3 AND SWAP1 POP SWAP2 SWAP1 POP JUMP JUMPDEST PUSH2 0x1B2 DUP2 PUSH2 0x196 JUMP JUMPDEST DUP3 MSTORE POP POP JUMP JUMPDEST PUSH0 PUSH1 0x20 DUP3 ADD SWAP1 POP PUSH2 0x1CB PUSH0 DUP4 ADD DUP5 PUSH2 0x1A9 JUMP JUMPDEST SWAP3 SWAP2 POP POP JUMP JUMPDEST PUSH1 0x80 MLOAD PUSH2 0x30E1 PUSH2 0x1F7 PUSH0 CODECOPY PUSH0 DUP2 DUP2 PUSH2 0x1B01 ADD MSTORE DUP2 DUP2 PUSH2 0x1B56 ADD MSTORE PUSH2 0x1D10 ADD MSTORE PUSH2 0x30E1 PUSH0 RETURN INVALID PUSH1 0x80 PUSH1 0x40 MSTORE PUSH1 0x4 CALLDATASIZE LT PUSH2 0xE7 JUMPI PUSH0 CALLDATALOAD PUSH1 0xE0 SHR DUP1 PUSH4 0x7CA32FCC GT PUSH2 0x89 JUMPI DUP1 PUSH4 0xA98AD46C GT PUSH2 0x58 JUMPI DUP1 PUSH4 0xA98AD46C EQ PUSH2 0x2A1 JUMPI DUP1 PUSH4 0xAD3CB1CC EQ PUSH2 0x2CB JUMPI DUP1 PUSH4 0xC3881A04 EQ PUSH2 0x2F5 JUMPI DUP1 PUSH4 0xF2FDE38B EQ PUSH2 0x31D JUMPI PUSH2 0xE7 JUMP JUMPDEST DUP1 PUSH4 0x7CA32FCC EQ PUSH2 0x1FB JUMPI DUP1 PUSH4 0x8AF3C40E EQ PUSH2 0x223 JUMPI DUP1 PUSH4 0x8DA5CB5B EQ PUSH2 0x24D JUMPI DUP1 PUSH4 0x9785FAC8 EQ PUSH2 0x277 JUMPI PUSH2 0xE7 JUMP JUMPDEST DUP1 PUSH4 0x485CC955 GT PUSH2 0xC5 JUMPI DUP1 PUSH4 0x485CC955 EQ PUSH2 0x177 JUMPI DUP1 PUSH4 0x4F1EF286 EQ PUSH2 0x19F JUMPI DUP1 PUSH4 0x52D1902D EQ PUSH2 0x1BB JUMPI DUP1 PUSH4 0x715018A6 EQ PUSH2 0x1E5 JUMPI PUSH2 0xE7 JUMP JUMPDEST DUP1 PUSH4 0xC6DDC0D EQ PUSH2 0xEB JUMPI DUP1 PUSH4 0x12A62CFF EQ PUSH2 0x127 JUMPI DUP1 PUSH4 0x1481794E EQ PUSH2 0x14F JUMPI JUMPDEST PUSH0 PUSH0 REVERT JUMPDEST CALLVALUE DUP1 ISZERO PUSH2 0xF6 JUMPI PUSH0 PUSH0 REVERT JUMPDEST POP PUSH2 0x111 PUSH1 0x4 DUP1 CALLDATASIZE SUB DUP2 ADD SWAP1 PUSH2 0x10C SWAP2 SWAP1 PUSH2 0x232D JUMP JUMPDEST PUSH2 0x345 JUMP JUMPDEST PUSH1 0x40 MLOAD PUSH2 0x11E SWAP2 SWAP1 PUSH2 0x2370 JUMP JUMPDEST PUSH1 0x40 MLOAD DUP1 SWAP2 SUB SWAP1 RETURN JUMPDEST CALLVALUE DUP1 ISZERO PUSH2 0x132 JUMPI PUSH0 PUSH0 REVERT JUMPDEST POP PUSH2 0x14D PUSH1 0x4 DUP1 CALLDATASIZE SUB DUP2 ADD SWAP1 PUSH2 0x148 SWAP2 SWAP1 PUSH2 0x241C JUMP JUMPDEST PUSH2 0x4BB JUMP JUMPDEST STOP JUMPDEST CALLVALUE DUP1 ISZERO PUSH2 0x15A JUMPI PUSH0 PUSH0 REVERT JUMPDEST POP PUSH2 0x175 PUSH1 0x4 DUP1 CALLDATASIZE SUB DUP2 ADD SWAP1 PUSH2 0x170 SWAP2 SWAP1 PUSH2 0x24A5 JUMP JUMPDEST PUSH2 0x87D JUMP JUMPDEST STOP JUMPDEST CALLVALUE DUP1 ISZERO PUSH2 0x182 JUMPI PUSH0 PUSH0 REVERT JUMPDEST POP PUSH2 0x19D PUSH1 0x4 DUP1 CALLDATASIZE SUB DUP2 ADD SWAP1 PUSH2 0x198 SWAP2 SWAP1 PUSH2 0x24E3 JUMP JUMPDEST PUSH2 0xCB1 JUMP JUMPDEST STOP JUMPDEST PUSH2 0x1B9 PUSH1 0x4 DUP1 CALLDATASIZE SUB DUP2 ADD SWAP1 PUSH2 0x1B4 SWAP2 SWAP1 PUSH2 0x265D JUMP JUMPDEST PUSH2 0xF56 JUMP JUMPDEST STOP JUMPDEST CALLVALUE DUP1 ISZERO PUSH2 0x1C6 JUMPI PUSH0 PUSH0 REVERT JUMPDEST POP PUSH2 0x1CF PUSH2 0xF75 JUMP JUMPDEST PUSH1 0x40 MLOAD PUSH2 0x1DC SWAP2 SWAP1 PUSH2 0x26C6 JUMP JUMPDEST PUSH1 0x40 MLOAD DUP1 SWAP2 SUB SWAP1 RETURN JUMPDEST CALLVALUE DUP1 ISZERO PUSH2 0x1F0 JUMPI PUSH0 PUSH0 REVERT JUMPDEST POP PUSH2 0x1F9 PUSH2 0xFA6 JUMP JUMPDEST STOP JUMPDEST CALLVALUE DUP1 ISZERO PUSH2 0x206 JUMPI PUSH0 PUSH0 REVERT JUMPDEST POP PUSH2 0x221 PUSH1 0x4 DUP1 CALLDATASIZE SUB DUP2 ADD SWAP1 PUSH2 0x21C SWAP2 SWAP1 PUSH2 0x24A5 JUMP JUMPDEST PUSH2 0xFB9 JUMP JUMPDEST STOP JUMPDEST CALLVALUE DUP1 ISZERO PUSH2 0x22E JUMPI PUSH0 PUSH0 REVERT JUMPDEST POP PUSH2 0x237 PUSH2 0x13CB JUMP JUMPDEST PUSH1 0x40 MLOAD PUSH2 0x244 SWAP2 SWAP1 PUSH2 0x26EE JUMP JUMPDEST PUSH1 0x40 MLOAD DUP1 SWAP2 SUB SWAP1 RETURN JUMPDEST CALLVALUE DUP1 ISZERO PUSH2 0x258 JUMPI PUSH0 PUSH0 REVERT JUMPDEST POP PUSH2 0x261 PUSH2 0x13F2 JUMP JUMPDEST PUSH1 0x40 MLOAD PUSH2 0x26E SWAP2 SWAP1 PUSH2 0x26EE JUMP JUMPDEST PUSH1 0x40 MLOAD DUP1 SWAP2 SUB SWAP1 RETURN JUMPDEST CALLVALUE DUP1 ISZERO PUSH2 0x282 JUMPI PUSH0 PUSH0 REVERT JUMPDEST POP PUSH2 0x28B PUSH2 0x1427 JUMP JUMPDEST PUSH1 0x40 MLOAD PUSH2 0x298 SWAP2 SWAP1 PUSH2 0x2370 JUMP JUMPDEST PUSH1 0x40 MLOAD DUP1 SWAP2 SUB SWAP1 RETURN JUMPDEST CALLVALUE DUP1 ISZERO PUSH2 0x2AC JUMPI PUSH0 PUSH0 REVERT JUMPDEST POP PUSH2 0x2B5 PUSH2 0x1599 JUMP JUMPDEST PUSH1 0x40 MLOAD PUSH2 0x2C2 SWAP2 SWAP1 PUSH2 0x26EE JUMP JUMPDEST PUSH1 0x40 MLOAD DUP1 SWAP2 SUB SWAP1 RETURN JUMPDEST CALLVALUE DUP1 ISZERO PUSH2 0x2D6 JUMPI PUSH0 PUSH0 REVERT JUMPDEST POP PUSH2 0x2DF PUSH2 0x15BD JUMP JUMPDEST PUSH1 0x40 MLOAD PUSH2 0x2EC SWAP2 SWAP1 PUSH2 0x2767 JUMP JUMPDEST PUSH1 0x40 MLOAD DUP1 SWAP2 SUB SWAP1 RETURN JUMPDEST CALLVALUE DUP1 ISZERO PUSH2 0x300 JUMPI PUSH0 PUSH0 REVERT JUMPDEST POP PUSH2 0x31B PUSH1 0x4 DUP1 CALLDATASIZE SUB DUP2 ADD SWAP1 PUSH2 0x316 SWAP2 SWAP1 PUSH2 0x27BC JUMP JUMPDEST PUSH2 0x15F6 JUMP JUMPDEST STOP JUMPDEST CALLVALUE DUP1 ISZERO PUSH2 0x328 JUMPI PUSH0 PUSH0 REVERT JUMPDEST POP PUSH2 0x343 PUSH1 0x4 DUP1 CALLDATASIZE SUB DUP2 ADD SWAP1 PUSH2 0x33E SWAP2 SWAP1 PUSH2 0x232D JUMP JUMPDEST PUSH2 0x19C3 JUMP JUMPDEST STOP JUMPDEST PUSH0 PUSH0 PUSH0 PUSH0 PUSH0 SWAP1 SLOAD SWAP1 PUSH2 0x100 EXP SWAP1 DIV PUSH20 0xFFFFFFFFFFFFFFFFFFFFFFFFFFFFFFFFFFFFFFFF AND PUSH20 0xFFFFFFFFFFFFFFFFFFFFFFFFFFFFFFFFFFFFFFFF AND DUP5 ADDRESS PUSH1 0x40 MLOAD PUSH1 0x24 ADD PUSH2 0x392 SWAP3 SWAP2 SWAP1 PUSH2 0x286D JUMP JUMPDEST PUSH1 0x40 MLOAD PUSH1 0x20 DUP2 DUP4 SUB SUB DUP2 MSTORE SWAP1 PUSH1 0x40 MSTORE PUSH32 0xDD62ED3E00000000000000000000000000000000000000000000000000000000 PUSH28 0xFFFFFFFFFFFFFFFFFFFFFFFFFFFFFFFFFFFFFFFFFFFFFFFFFFFFFFFF NOT AND PUSH1 0x20 DUP3 ADD DUP1 MLOAD PUSH28 0xFFFFFFFFFFFFFFFFFFFFFFFFFFFFFFFFFFFFFFFFFFFFFFFFFFFFFFFF DUP4 DUP2 DUP4 AND OR DUP4 MSTORE POP POP POP POP PUSH1 0x40 MLOAD PUSH2 0x41C SWAP2 SWAP1 PUSH2 0x28D8 JUMP JUMPDEST PUSH0 PUSH1 0x40 MLOAD DUP1 DUP4 SUB DUP2 DUP6 GAS STATICCALL SWAP2 POP POP RETURNDATASIZE DUP1 PUSH0 DUP2 EQ PUSH2 0x454 JUMPI PUSH1 0x40 MLOAD SWAP2 POP PUSH1 0x1F NOT PUSH1 0x3F RETURNDATASIZE ADD AND DUP3 ADD PUSH1 0x40 MSTORE RETURNDATASIZE DUP3 MSTORE RETURNDATASIZE PUSH0 PUSH1 0x20 DUP5 ADD RETURNDATACOPY PUSH2 0x459 JUMP JUMPDEST PUSH1 0x60 SWAP2 POP JUMPDEST POP SWAP2 POP SWAP2 POP DUP2 PUSH2 0x49E JUMPI PUSH1 0x40 MLOAD PUSH32 0x8C379A000000000000000000000000000000000000000000000000000000000 DUP2 MSTORE PUSH1 0x4 ADD PUSH2 0x495 SWAP1 PUSH2 0x2938 JUMP JUMPDEST PUSH1 0x40 MLOAD DUP1 SWAP2 SUB SWAP1 REVERT JUMPDEST DUP1 DUP1 PUSH1 0x20 ADD SWAP1 MLOAD DUP2 ADD SWAP1 PUSH2 0x4B2 SWAP2 SWAP1 PUSH2 0x296A JUMP JUMPDEST SWAP3 POP POP POP SWAP2 SWAP1 POP JUMP JUMPDEST PUSH0 PUSH20 0xFFFFFFFFFFFFFFFFFFFFFFFFFFFFFFFFFFFFFFFF AND DUP7 PUSH20 0xFFFFFFFFFFFFFFFFFFFFFFFFFFFFFFFFFFFFFFFF AND SUB PUSH2 0x529 JUMPI PUSH1 0x40 MLOAD PUSH32 0x8C379A000000000000000000000000000000000000000000000000000000000 DUP2 MSTORE PUSH1 0x4 ADD PUSH2 0x520 SWAP1 PUSH2 0x29DF JUMP JUMPDEST PUSH1 0x40 MLOAD DUP1 SWAP2 SUB SWAP1 REVERT JUMPDEST PUSH0 DUP6 GT PUSH2 0x56B JUMPI PUSH1 0x40 MLOAD PUSH32 0x8C379A000000000000000000000000000000000000000000000000000000000 DUP2 MSTORE PUSH1 0x4 ADD PUSH2 0x562 SWAP1 PUSH2 0x2A47 JUMP JUMPDEST PUSH1 0x40 MLOAD DUP1 SWAP2 SUB SWAP1 REVERT JUMPDEST PUSH0 PUSH0 PUSH0 SWAP1 SLOAD SWAP1 PUSH2 0x100 EXP SWAP1 DIV PUSH20 0xFFFFFFFFFFFFFFFFFFFFFFFFFFFFFFFFFFFFFFFF AND PUSH20 0xFFFFFFFFFFFFFFFFFFFFFFFFFFFFFFFFFFFFFFFF AND DUP8 ADDRESS DUP9 DUP9 DUP9 DUP9 DUP9 PUSH1 0x40 MLOAD PUSH1 0x24 ADD PUSH2 0x5C0 SWAP8 SWAP7 SWAP6 SWAP5 SWAP4 SWAP3 SWAP2 SWAP1 PUSH2 0x2A74 JUMP JUMPDEST PUSH1 0x40 MLOAD PUSH1 0x20 DUP2 DUP4 SUB SUB DUP2 MSTORE SWAP1 PUSH1 0x40 MSTORE PUSH32 0xD505ACCF00000000000000000000000000000000000000000000000000000000 PUSH28 0xFFFFFFFFFFFFFFFFFFFFFFFFFFFFFFFFFFFFFFFFFFFFFFFFFFFFFFFF NOT AND PUSH1 0x20 DUP3 ADD DUP1 MLOAD PUSH28 0xFFFFFFFFFFFFFFFFFFFFFFFFFFFFFFFFFFFFFFFFFFFFFFFFFFFFFFFF DUP4 DUP2 DUP4 AND OR DUP4 MSTORE POP POP POP POP PUSH1 0x40 MLOAD PUSH2 0x64A SWAP2 SWAP1 PUSH2 0x28D8 JUMP JUMPDEST PUSH0 PUSH1 0x40 MLOAD DUP1 DUP4 SUB DUP2 PUSH0 DUP7 GAS CALL SWAP2 POP POP RETURNDATASIZE DUP1 PUSH0 DUP2 EQ PUSH2 0x683 JUMPI PUSH1 0x40 MLOAD SWAP2 POP PUSH1 0x1F NOT PUSH1 0x3F RETURNDATASIZE ADD AND DUP3 ADD PUSH1 0x40 MSTORE RETURNDATASIZE DUP3 MSTORE RETURNDATASIZE PUSH0 PUSH1 0x20 DUP5 ADD RETURNDATACOPY PUSH2 0x688 JUMP JUMPDEST PUSH1 0x60 SWAP2 POP JUMPDEST POP POP SWAP1 POP DUP1 PUSH2 0x6CC JUMPI PUSH1 0x40 MLOAD PUSH32 0x8C379A000000000000000000000000000000000000000000000000000000000 DUP2 MSTORE PUSH1 0x4 ADD PUSH2 0x6C3 SWAP1 PUSH2 0x2B2B JUMP JUMPDEST PUSH1 0x40 MLOAD DUP1 SWAP2 SUB SWAP1 REVERT JUMPDEST PUSH0 PUSH0 PUSH0 SWAP1 SLOAD SWAP1 PUSH2 0x100 EXP SWAP1 DIV PUSH20 0xFFFFFFFFFFFFFFFFFFFFFFFFFFFFFFFFFFFFFFFF AND PUSH20 0xFFFFFFFFFFFFFFFFFFFFFFFFFFFFFFFFFFFFFFFF AND DUP9 ADDRESS DUP10 PUSH1 0x40 MLOAD PUSH1 0x24 ADD PUSH2 0x719 SWAP4 SWAP3 SWAP2 SWAP1 PUSH2 0x2B49 JUMP JUMPDEST PUSH1 0x40 MLOAD PUSH1 0x20 DUP2 DUP4 SUB SUB DUP2 MSTORE SWAP1 PUSH1 0x40 MSTORE PUSH32 0x23B872DD00000000000000000000000000000000000000000000000000000000 PUSH28 0xFFFFFFFFFFFFFFFFFFFFFFFFFFFFFFFFFFFFFFFFFFFFFFFFFFFFFFFF NOT AND PUSH1 0x20 DUP3 ADD DUP1 MLOAD PUSH28 0xFFFFFFFFFFFFFFFFFFFFFFFFFFFFFFFFFFFFFFFFFFFFFFFFFFFFFFFF DUP4 DUP2 DUP4 AND OR DUP4 MSTORE POP POP POP POP PUSH1 0x40 MLOAD PUSH2 0x7A3 SWAP2 SWAP1 PUSH2 0x28D8 JUMP JUMPDEST PUSH0 PUSH1 0x40 MLOAD DUP1 DUP4 SUB DUP2 PUSH0 DUP7 GAS CALL SWAP2 POP POP RETURNDATASIZE DUP1 PUSH0 DUP2 EQ PUSH2 0x7DC JUMPI PUSH1 0x40 MLOAD SWAP2 POP PUSH1 0x1F NOT PUSH1 0x3F RETURNDATASIZE ADD AND DUP3 ADD PUSH1 0x40 MSTORE RETURNDATASIZE DUP3 MSTORE RETURNDATASIZE PUSH0 PUSH1 0x20 DUP5 ADD RETURNDATACOPY PUSH2 0x7E1 JUMP JUMPDEST PUSH1 0x60 SWAP2 POP JUMPDEST POP POP SWAP1 POP DUP1 PUSH2 0x825 JUMPI PUSH1 0x40 MLOAD PUSH32 0x8C379A000000000000000000000000000000000000000000000000000000000 DUP2 MSTORE PUSH1 0x4 ADD PUSH2 0x81C SWAP1 PUSH2 0x2BC8 JUMP JUMPDEST PUSH1 0x40 MLOAD DUP1 SWAP2 SUB SWAP1 REVERT JUMPDEST DUP8 PUSH20 0xFFFFFFFFFFFFFFFFFFFFFFFFFFFFFFFFFFFFFFFF AND PUSH32 0x256D3F498207DF9AB0F59EE9CC584FB4D2FE829F234F81A30A8B4C1C3949006D DUP9 PUSH1 0x40 MLOAD PUSH2 0x86B SWAP2 SWAP1 PUSH2 0x2370 JUMP JUMPDEST PUSH1 0x40 MLOAD DUP1 SWAP2 SUB SWAP1 LOG2 POP POP POP POP POP POP POP POP JUMP JUMPDEST PUSH2 0x885 PUSH2 0x1A47 JUMP JUMPDEST PUSH0 PUSH20 0xFFFFFFFFFFFFFFFFFFFFFFFFFFFFFFFFFFFFFFFF AND DUP3 PUSH20 0xFFFFFFFFFFFFFFFFFFFFFFFFFFFFFFFFFFFFFFFF AND SUB PUSH2 0x8F3 JUMPI PUSH1 0x40 MLOAD PUSH32 0x8C379A000000000000000000000000000000000000000000000000000000000 DUP2 MSTORE PUSH1 0x4 ADD PUSH2 0x8EA SWAP1 PUSH2 0x2C30 JUMP JUMPDEST PUSH1 0x40 MLOAD DUP1 SWAP2 SUB SWAP1 REVERT JUMPDEST PUSH0 DUP2 GT PUSH2 0x935 JUMPI PUSH1 0x40 MLOAD PUSH32 0x8C379A000000000000000000000000000000000000000000000000000000000 DUP2 MSTORE PUSH1 0x4 ADD PUSH2 0x92C SWAP1 PUSH2 0x2C98 JUMP JUMPDEST PUSH1 0x40 MLOAD DUP1 SWAP2 SUB SWAP1 REVERT JUMPDEST PUSH0 PUSH0 PUSH0 PUSH0 SWAP1 SLOAD SWAP1 PUSH2 0x100 EXP SWAP1 DIV PUSH20 0xFFFFFFFFFFFFFFFFFFFFFFFFFFFFFFFFFFFFFFFF AND PUSH20 0xFFFFFFFFFFFFFFFFFFFFFFFFFFFFFFFFFFFFFFFF AND ADDRESS PUSH1 0x40 MLOAD PUSH1 0x24 ADD PUSH2 0x97F SWAP2 SWAP1 PUSH2 0x26EE JUMP JUMPDEST PUSH1 0x40 MLOAD PUSH1 0x20 DUP2 DUP4 SUB SUB DUP2 MSTORE SWAP1 PUSH1 0x40 MSTORE PUSH32 0x70A0823100000000000000000000000000000000000000000000000000000000 PUSH28 0xFFFFFFFFFFFFFFFFFFFFFFFFFFFFFFFFFFFFFFFFFFFFFFFFFFFFFFFF NOT AND PUSH1 0x20 DUP3 ADD DUP1 MLOAD PUSH28 0xFFFFFFFFFFFFFFFFFFFFFFFFFFFFFFFFFFFFFFFFFFFFFFFFFFFFFFFF DUP4 DUP2 DUP4 AND OR DUP4 MSTORE POP POP POP POP PUSH1 0x40 MLOAD PUSH2 0xA09 SWAP2 SWAP1 PUSH2 0x28D8 JUMP JUMPDEST PUSH0 PUSH1 0x40 MLOAD DUP1 DUP4 SUB DUP2 PUSH0 DUP7 GAS CALL SWAP2 POP POP RETURNDATASIZE DUP1 PUSH0 DUP2 EQ PUSH2 0xA42 JUMPI PUSH1 0x40 MLOAD SWAP2 POP PUSH1 0x1F NOT PUSH1 0x3F RETURNDATASIZE ADD AND DUP3 ADD PUSH1 0x40 MSTORE RETURNDATASIZE DUP3 MSTORE RETURNDATASIZE PUSH0 PUSH1 0x20 DUP5 ADD RETURNDATACOPY PUSH2 0xA47 JUMP JUMPDEST PUSH1 0x60 SWAP2 POP JUMPDEST POP SWAP2 POP SWAP2 POP DUP2 PUSH2 0xA8C JUMPI PUSH1 0x40 MLOAD PUSH32 0x8C379A000000000000000000000000000000000000000000000000000000000 DUP2 MSTORE PUSH1 0x4 ADD PUSH2 0xA83 SWAP1 PUSH2 0x2D00 JUMP JUMPDEST PUSH1 0x40 MLOAD DUP1 SWAP2 SUB SWAP1 REVERT JUMPDEST PUSH0 DUP2 DUP1 PUSH1 0x20 ADD SWAP1 MLOAD DUP2 ADD SWAP1 PUSH2 0xAA1 SWAP2 SWAP1 PUSH2 0x296A JUMP JUMPDEST SWAP1 POP DUP4 DUP2 LT ISZERO PUSH2 0xAE6 JUMPI PUSH1 0x40 MLOAD PUSH32 0x8C379A000000000000000000000000000000000000000000000000000000000 DUP2 MSTORE PUSH1 0x4 ADD PUSH2 0xADD SWAP1 PUSH2 0x2D68 JUMP JUMPDEST PUSH1 0x40 MLOAD DUP1 SWAP2 SUB SWAP1 REVERT JUMPDEST PUSH0 PUSH0 PUSH0 SWAP1 SLOAD SWAP1 PUSH2 0x100 EXP SWAP1 DIV PUSH20 0xFFFFFFFFFFFFFFFFFFFFFFFFFFFFFFFFFFFFFFFF AND PUSH20 0xFFFFFFFFFFFFFFFFFFFFFFFFFFFFFFFFFFFFFFFF AND DUP7 DUP7 PUSH1 0x40 MLOAD PUSH1 0x24 ADD PUSH2 0xB31 SWAP3 SWAP2 SWAP1 PUSH2 0x2D86 JUMP JUMPDEST PUSH1 0x40 MLOAD PUSH1 0x20 DUP2 DUP4 SUB SUB DUP2 MSTORE SWAP1 PUSH1 0x40 MSTORE PUSH32 0xA9059CBB00000000000000000000000000000000000000000000000000000000 PUSH28 0xFFFFFFFFFFFFFFFFFFFFFFFFFFFFFFFFFFFFFFFFFFFFFFFFFFFFFFFF NOT AND PUSH1 0x20 DUP3 ADD DUP1 MLOAD PUSH28 0xFFFFFFFFFFFFFFFFFFFFFFFFFFFFFFFFFFFFFFFFFFFFFFFFFFFFFFFF DUP4 DUP2 DUP4 AND OR DUP4 MSTORE POP POP POP POP PUSH1 0x40 MLOAD PUSH2 0xBBB SWAP2 SWAP1 PUSH2 0x28D8 JUMP JUMPDEST PUSH0 PUSH1 0x40 MLOAD DUP1 DUP4 SUB DUP2 PUSH0 DUP7 GAS CALL SWAP2 POP POP RETURNDATASIZE DUP1 PUSH0 DUP2 EQ PUSH2 0xBF4 JUMPI PUSH1 0x40 MLOAD SWAP2 POP PUSH1 0x1F NOT PUSH1 0x3F RETURNDATASIZE ADD AND DUP3 ADD PUSH1 0x40 MSTORE RETURNDATASIZE DUP3 MSTORE RETURNDATASIZE PUSH0 PUSH1 0x20 DUP5 ADD RETURNDATACOPY PUSH2 0xBF9 JUMP JUMPDEST PUSH1 0x60 SWAP2 POP JUMPDEST POP POP SWAP1 POP DUP1 PUSH2 0xC3D JUMPI PUSH1 0x40 MLOAD PUSH32 0x8C379A000000000000000000000000000000000000000000000000000000000 DUP2 MSTORE PUSH1 0x4 ADD PUSH2 0xC34 SWAP1 PUSH2 0x2BC8 JUMP JUMPDEST PUSH1 0x40 MLOAD DUP1 SWAP2 SUB SWAP1 REVERT JUMPDEST DUP6 PUSH20 0xFFFFFFFFFFFFFFFFFFFFFFFFFFFFFFFFFFFFFFFF AND PUSH2 0xC5C PUSH2 0x13F2 JUMP JUMPDEST PUSH20 0xFFFFFFFFFFFFFFFFFFFFFFFFFFFFFFFFFFFFFFFF AND PUSH32 0x8BD6CBB6F5022FD9AA668E1AA80F16DD8CB4F1C4C3A26AE07E1F44D1FBDB6F8B DUP8 PUSH1 0x40 MLOAD PUSH2 0xCA1 SWAP2 SWAP1 PUSH2 0x2370 JUMP JUMPDEST PUSH1 0x40 MLOAD DUP1 SWAP2 SUB SWAP1 LOG3 POP POP POP POP POP POP JUMP JUMPDEST PUSH0 PUSH2 0xCBA PUSH2 0x1ACE JUMP JUMPDEST SWAP1 POP PUSH0 DUP2 PUSH0 ADD PUSH1 0x8 SWAP1 SLOAD SWAP1 PUSH2 0x100 EXP SWAP1 DIV PUSH1 0xFF AND ISZERO SWAP1 POP PUSH0 DUP3 PUSH0 ADD PUSH0 SWAP1 SLOAD SWAP1 PUSH2 0x100 EXP SWAP1 DIV PUSH8 0xFFFFFFFFFFFFFFFF AND SWAP1 POP PUSH0 PUSH0 DUP3 PUSH8 0xFFFFFFFFFFFFFFFF AND EQ DUP1 ISZERO PUSH2 0xD02 JUMPI POP DUP3 JUMPDEST SWAP1 POP PUSH0 PUSH1 0x1 DUP4 PUSH8 0xFFFFFFFFFFFFFFFF AND EQ DUP1 ISZERO PUSH2 0xD35 JUMPI POP PUSH0 ADDRESS PUSH20 0xFFFFFFFFFFFFFFFFFFFFFFFFFFFFFFFFFFFFFFFF AND EXTCODESIZE EQ JUMPDEST SWAP1 POP DUP2 ISZERO DUP1 ISZERO PUSH2 0xD43 JUMPI POP DUP1 ISZERO JUMPDEST ISZERO PUSH2 0xD7A JUMPI PUSH1 0x40 MLOAD PUSH32 0xF92EE8A900000000000000000000000000000000000000000000000000000000 DUP2 MSTORE PUSH1 0x4 ADD PUSH1 0x40 MLOAD DUP1 SWAP2 SUB SWAP1 REVERT JUMPDEST PUSH1 0x1 DUP6 PUSH0 ADD PUSH0 PUSH2 0x100 EXP DUP2 SLOAD DUP2 PUSH8 0xFFFFFFFFFFFFFFFF MUL NOT AND SWAP1 DUP4 PUSH8 0xFFFFFFFFFFFFFFFF AND MUL OR SWAP1 SSTORE POP DUP4 ISZERO PUSH2 0xDC7 JUMPI PUSH1 0x1 DUP6 PUSH0 ADD PUSH1 0x8 PUSH2 0x100 EXP DUP2 SLOAD DUP2 PUSH1 0xFF MUL NOT AND SWAP1 DUP4 ISZERO ISZERO MUL OR SWAP1 SSTORE POP JUMPDEST PUSH0 PUSH20 0xFFFFFFFFFFFFFFFFFFFFFFFFFFFFFFFFFFFFFFFF AND DUP8 PUSH20 0xFFFFFFFFFFFFFFFFFFFFFFFFFFFFFFFFFFFFFFFF AND SUB PUSH2 0xE35 JUMPI PUSH1 0x40 MLOAD PUSH32 0x8C379A000000000000000000000000000000000000000000000000000000000 DUP2 MSTORE PUSH1 0x4 ADD PUSH2 0xE2C SWAP1 PUSH2 0x2E1D JUMP JUMPDEST PUSH1 0x40 MLOAD DUP1 SWAP2 SUB SWAP1 REVERT JUMPDEST PUSH0 PUSH20 0xFFFFFFFFFFFFFFFFFFFFFFFFFFFFFFFFFFFFFFFF AND DUP7 PUSH20 0xFFFFFFFFFFFFFFFFFFFFFFFFFFFFFFFFFFFFFFFF AND SUB PUSH2 0xEA3 JUMPI PUSH1 0x40 MLOAD PUSH32 0x8C379A000000000000000000000000000000000000000000000000000000000 DUP2 MSTORE PUSH1 0x4 ADD PUSH2 0xE9A SWAP1 PUSH2 0x29DF JUMP JUMPDEST PUSH1 0x40 MLOAD DUP1 SWAP2 SUB SWAP1 REVERT JUMPDEST PUSH2 0xEAC DUP7 PUSH2 0x1AE1 JUMP JUMPDEST PUSH2 0xEB4 PUSH2 0x1AF5 JUMP JUMPDEST DUP7 PUSH0 PUSH0 PUSH2 0x100 EXP DUP2 SLOAD DUP2 PUSH20 0xFFFFFFFFFFFFFFFFFFFFFFFFFFFFFFFFFFFFFFFF MUL NOT AND SWAP1 DUP4 PUSH20 0xFFFFFFFFFFFFFFFFFFFFFFFFFFFFFFFFFFFFFFFF AND MUL OR SWAP1 SSTORE POP DUP4 ISZERO PUSH2 0xF4D JUMPI PUSH0 DUP6 PUSH0 ADD PUSH1 0x8 PUSH2 0x100 EXP DUP2 SLOAD DUP2 PUSH1 0xFF MUL NOT AND SWAP1 DUP4 ISZERO ISZERO MUL OR SWAP1 SSTORE POP PUSH32 0xC7F505B2F371AE2175EE4913F4499E1F2633A7B5936321EED1CDAEB6115181D2 PUSH1 0x1 PUSH1 0x40 MLOAD PUSH2 0xF44 SWAP2 SWAP1 PUSH2 0x2E90 JUMP JUMPDEST PUSH1 0x40 MLOAD DUP1 SWAP2 SUB SWAP1 LOG1 JUMPDEST POP POP POP POP POP POP POP JUMP JUMPDEST PUSH2 0xF5E PUSH2 0x1AFF JUMP JUMPDEST PUSH2 0xF67 DUP3 PUSH2 0x1BE5 JUMP JUMPDEST PUSH2 0xF71 DUP3 DUP3 PUSH2 0x1BF0 JUMP JUMPDEST POP POP JUMP JUMPDEST PUSH0 PUSH2 0xF7E PUSH2 0x1D0E JUMP JUMPDEST PUSH32 0x360894A13BA1A3210667C828492DB98DCA3E2076CC3735A920A3CA505D382BBC PUSH0 SHL SWAP1 POP SWAP1 JUMP JUMPDEST PUSH2 0xFAE PUSH2 0x1A47 JUMP JUMPDEST PUSH2 0xFB7 PUSH0 PUSH2 0x1D95 JUMP JUMPDEST JUMP JUMPDEST PUSH0 PUSH20 0xFFFFFFFFFFFFFFFFFFFFFFFFFFFFFFFFFFFFFFFF AND DUP3 PUSH20 0xFFFFFFFFFFFFFFFFFFFFFFFFFFFFFFFFFFFFFFFF AND SUB PUSH2 0x1027 JUMPI PUSH1 0x40 MLOAD PUSH32 0x8C379A000000000000000000000000000000000000000000000000000000000 DUP2 MSTORE PUSH1 0x4 ADD PUSH2 0x101E SWAP1 PUSH2 0x2EF3 JUMP JUMPDEST PUSH1 0x40 MLOAD DUP1 SWAP2 SUB SWAP1 REVERT JUMPDEST PUSH0 DUP2 GT PUSH2 0x1069 JUMPI PUSH1 0x40 MLOAD PUSH32 0x8C379A000000000000000000000000000000000000000000000000000000000 DUP2 MSTORE PUSH1 0x4 ADD PUSH2 0x1060 SWAP1 PUSH2 0x2C98 JUMP JUMPDEST PUSH1 0x40 MLOAD DUP1 SWAP2 SUB SWAP1 REVERT JUMPDEST PUSH0 PUSH0 PUSH0 PUSH0 SWAP1 SLOAD SWAP1 PUSH2 0x100 EXP SWAP1 DIV PUSH20 0xFFFFFFFFFFFFFFFFFFFFFFFFFFFFFFFFFFFFFFFF AND PUSH20 0xFFFFFFFFFFFFFFFFFFFFFFFFFFFFFFFFFFFFFFFF AND DUP5 ADDRESS PUSH1 0x40 MLOAD PUSH1 0x24 ADD PUSH2 0x10B5 SWAP3 SWAP2 SWAP1 PUSH2 0x286D JUMP JUMPDEST PUSH1 0x40 MLOAD PUSH1 0x20 DUP2 DUP4 SUB SUB DUP2 MSTORE SWAP1 PUSH1 0x40 MSTORE PUSH32 0xDD62ED3E00000000000000000000000000000000000000000000000000000000 PUSH28 0xFFFFFFFFFFFFFFFFFFFFFFFFFFFFFFFFFFFFFFFFFFFFFFFFFFFFFFFF NOT AND PUSH1 0x20 DUP3 ADD DUP1 MLOAD PUSH28 0xFFFFFFFFFFFFFFFFFFFFFFFFFFFFFFFFFFFFFFFFFFFFFFFFFFFFFFFF DUP4 DUP2 DUP4 AND OR DUP4 MSTORE POP POP POP POP PUSH1 0x40 MLOAD PUSH2 0x113F SWAP2 SWAP1 PUSH2 0x28D8 JUMP JUMPDEST PUSH0 PUSH1 0x40 MLOAD DUP1 DUP4 SUB DUP2 PUSH0 DUP7 GAS CALL SWAP2 POP POP RETURNDATASIZE DUP1 PUSH0 DUP2 EQ PUSH2 0x1178 JUMPI PUSH1 0x40 MLOAD SWAP2 POP PUSH1 0x1F NOT PUSH1 0x3F RETURNDATASIZE ADD AND DUP3 ADD PUSH1 0x40 MSTORE RETURNDATASIZE DUP3 MSTORE RETURNDATASIZE PUSH0 PUSH1 0x20 DUP5 ADD RETURNDATACOPY PUSH2 0x117D JUMP JUMPDEST PUSH1 0x60 SWAP2 POP JUMPDEST POP SWAP2 POP SWAP2 POP DUP2 PUSH2 0x11C2 JUMPI PUSH1 0x40 MLOAD PUSH32 0x8C379A000000000000000000000000000000000000000000000000000000000 DUP2 MSTORE PUSH1 0x4 ADD PUSH2 0x11B9 SWAP1 PUSH2 0x2938 JUMP JUMPDEST PUSH1 0x40 MLOAD DUP1 SWAP2 SUB SWAP1 REVERT JUMPDEST PUSH0 DUP2 DUP1 PUSH1 0x20 ADD SWAP1 MLOAD DUP2 ADD SWAP1 PUSH2 0x11D7 SWAP2 SWAP1 PUSH2 0x296A JUMP JUMPDEST SWAP1 POP DUP4 DUP2 LT ISZERO PUSH2 0x121C JUMPI PUSH1 0x40 MLOAD PUSH32 0x8C379A000000000000000000000000000000000000000000000000000000000 DUP2 MSTORE PUSH1 0x4 ADD PUSH2 0x1213 SWAP1 PUSH2 0x2F5B JUMP JUMPDEST PUSH1 0x40 MLOAD DUP1 SWAP2 SUB SWAP1 REVERT JUMPDEST PUSH0 PUSH0 PUSH0 SWAP1 SLOAD SWAP1 PUSH2 0x100 EXP SWAP1 DIV PUSH20 0xFFFFFFFFFFFFFFFFFFFFFFFFFFFFFFFFFFFFFFFF AND PUSH20 0xFFFFFFFFFFFFFFFFFFFFFFFFFFFFFFFFFFFFFFFF AND DUP7 ADDRESS DUP8 PUSH1 0x40 MLOAD PUSH1 0x24 ADD PUSH2 0x1269 SWAP4 SWAP3 SWAP2 SWAP1 PUSH2 0x2B49 JUMP JUMPDEST PUSH1 0x40 MLOAD PUSH1 0x20 DUP2 DUP4 SUB SUB DUP2 MSTORE SWAP1 PUSH1 0x40 MSTORE PUSH32 0x23B872DD00000000000000000000000000000000000000000000000000000000 PUSH28 0xFFFFFFFFFFFFFFFFFFFFFFFFFFFFFFFFFFFFFFFFFFFFFFFFFFFFFFFF NOT AND PUSH1 0x20 DUP3 ADD DUP1 MLOAD PUSH28 0xFFFFFFFFFFFFFFFFFFFFFFFFFFFFFFFFFFFFFFFFFFFFFFFFFFFFFFFF DUP4 DUP2 DUP4 AND OR DUP4 MSTORE POP POP POP POP PUSH1 0x40 MLOAD PUSH2 0x12F3 SWAP2 SWAP1 PUSH2 0x28D8 JUMP JUMPDEST PUSH0 PUSH1 0x40 MLOAD DUP1 DUP4 SUB DUP2 PUSH0 DUP7 GAS CALL SWAP2 POP POP RETURNDATASIZE DUP1 PUSH0 DUP2 EQ PUSH2 0x132C JUMPI PUSH1 0x40 MLOAD SWAP2 POP PUSH1 0x1F NOT PUSH1 0x3F RETURNDATASIZE ADD AND DUP3 ADD PUSH1 0x40 MSTORE RETURNDATASIZE DUP3 MSTORE RETURNDATASIZE PUSH0 PUSH1 0x20 DUP5 ADD RETURNDATACOPY PUSH2 0x1331 JUMP JUMPDEST PUSH1 0x60 SWAP2 POP JUMPDEST POP POP SWAP1 POP DUP1 PUSH2 0x1375 JUMPI PUSH1 0x40 MLOAD PUSH32 0x8C379A000000000000000000000000000000000000000000000000000000000 DUP2 MSTORE PUSH1 0x4 ADD PUSH2 0x136C SWAP1 PUSH2 0x2BC8 JUMP JUMPDEST PUSH1 0x40 MLOAD DUP1 SWAP2 SUB SWAP1 REVERT JUMPDEST DUP6 PUSH20 0xFFFFFFFFFFFFFFFFFFFFFFFFFFFFFFFFFFFFFFFF AND PUSH32 0x256D3F498207DF9AB0F59EE9CC584FB4D2FE829F234F81A30A8B4C1C3949006D DUP7 PUSH1 0x40 MLOAD PUSH2 0x13BB SWAP2 SWAP1 PUSH2 0x2370 JUMP JUMPDEST PUSH1 0x40 MLOAD DUP1 SWAP2 SUB SWAP1 LOG2 POP POP POP POP POP POP JUMP JUMPDEST PUSH0 PUSH0 PUSH0 SWAP1 SLOAD SWAP1 PUSH2 0x100 EXP SWAP1 DIV PUSH20 0xFFFFFFFFFFFFFFFFFFFFFFFFFFFFFFFFFFFFFFFF AND SWAP1 POP SWAP1 JUMP JUMPDEST PUSH0 PUSH0 PUSH2 0x13FC PUSH2 0x1E66 JUMP JUMPDEST SWAP1 POP DUP1 PUSH0 ADD PUSH0 SWAP1 SLOAD SWAP1 PUSH2 0x100 EXP SWAP1 DIV PUSH20 0xFFFFFFFFFFFFFFFFFFFFFFFFFFFFFFFFFFFFFFFF AND SWAP2 POP POP SWAP1 JUMP JUMPDEST PUSH0 PUSH0 PUSH0 PUSH0 PUSH0 SWAP1 SLOAD SWAP1 PUSH2 0x100 EXP SWAP1 DIV PUSH20 0xFFFFFFFFFFFFFFFFFFFFFFFFFFFFFFFFFFFFFFFF AND PUSH20 0xFFFFFFFFFFFFFFFFFFFFFFFFFFFFFFFFFFFFFFFF AND ADDRESS PUSH1 0x40 MLOAD PUSH1 0x24 ADD PUSH2 0x1472 SWAP2 SWAP1 PUSH2 0x26EE JUMP JUMPDEST PUSH1 0x40 MLOAD PUSH1 0x20 DUP2 DUP4 SUB SUB DUP2 MSTORE SWAP1 PUSH1 0x40 MSTORE PUSH32 0x70A0823100000000000000000000000000000000000000000000000000000000 PUSH28 0xFFFFFFFFFFFFFFFFFFFFFFFFFFFFFFFFFFFFFFFFFFFFFFFFFFFFFFFF NOT AND PUSH1 0x20 DUP3 ADD DUP1 MLOAD PUSH28 0xFFFFFFFFFFFFFFFFFFFFFFFFFFFFFFFFFFFFFFFFFFFFFFFFFFFFFFFF DUP4 DUP2 DUP4 AND OR DUP4 MSTORE POP POP POP POP PUSH1 0x40 MLOAD PUSH2 0x14FC SWAP2 SWAP1 PUSH2 0x28D8 JUMP JUMPDEST PUSH0 PUSH1 0x40 MLOAD DUP1 DUP4 SUB DUP2 DUP6 GAS STATICCALL SWAP2 POP POP RETURNDATASIZE DUP1 PUSH0 DUP2 EQ PUSH2 0x1534 JUMPI PUSH1 0x40 MLOAD SWAP2 POP PUSH1 0x1F NOT PUSH1 0x3F RETURNDATASIZE ADD AND DUP3 ADD PUSH1 0x40 MSTORE RETURNDATASIZE DUP3 MSTORE RETURNDATASIZE PUSH0 PUSH1 0x20 DUP5 ADD RETURNDATACOPY PUSH2 0x1539 JUMP JUMPDEST PUSH1 0x60 SWAP2 POP JUMPDEST POP SWAP2 POP SWAP2 POP DUP2 PUSH2 0x157E JUMPI PUSH1 0x40 MLOAD PUSH32 0x8C379A000000000000000000000000000000000000000000000000000000000 DUP2 MSTORE PUSH1 0x4 ADD PUSH2 0x1575 SWAP1 PUSH2 0x2D00 JUMP JUMPDEST PUSH1 0x40 MLOAD DUP1 SWAP2 SUB SWAP1 REVERT JUMPDEST DUP1 DUP1 PUSH1 0x20 ADD SWAP1 MLOAD DUP2 ADD SWAP1 PUSH2 0x1592 SWAP2 SWAP1 PUSH2 0x296A JUMP JUMPDEST SWAP3 POP POP POP SWAP1 JUMP JUMPDEST PUSH0 PUSH0 SWAP1 SLOAD SWAP1 PUSH2 0x100 EXP SWAP1 DIV PUSH20 0xFFFFFFFFFFFFFFFFFFFFFFFFFFFFFFFFFFFFFFFF AND DUP2 JUMP JUMPDEST PUSH1 0x40 MLOAD DUP1 PUSH1 0x40 ADD PUSH1 0x40 MSTORE DUP1 PUSH1 0x5 DUP2 MSTORE PUSH1 0x20 ADD PUSH32 0x352E302E30000000000000000000000000000000000000000000000000000000 DUP2 MSTORE POP DUP2 JUMP JUMPDEST PUSH0 PUSH20 0xFFFFFFFFFFFFFFFFFFFFFFFFFFFFFFFFFFFFFFFF AND DUP9 PUSH20 0xFFFFFFFFFFFFFFFFFFFFFFFFFFFFFFFFFFFFFFFF AND SUB PUSH2 0x1664 JUMPI PUSH1 0x40 MLOAD PUSH32 0x8C379A000000000000000000000000000000000000000000000000000000000 DUP2 MSTORE PUSH1 0x4 ADD PUSH2 0x165B SWAP1 PUSH2 0x29DF JUMP JUMPDEST PUSH1 0x40 MLOAD DUP1 SWAP2 SUB SWAP1 REVERT JUMPDEST PUSH0 DUP8 GT PUSH2 0x16A6 JUMPI PUSH1 0x40 MLOAD PUSH32 0x8C379A000000000000000000000000000000000000000000000000000000000 DUP2 MSTORE PUSH1 0x4 ADD PUSH2 0x169D SWAP1 PUSH2 0x2A47 JUMP JUMPDEST PUSH1 0x40 MLOAD DUP1 SWAP2 SUB SWAP1 REVERT JUMPDEST PUSH0 PUSH0 PUSH0 SWAP1 SLOAD SWAP1 PUSH2 0x100 EXP SWAP1 DIV PUSH20 0xFFFFFFFFFFFFFFFFFFFFFFFFFFFFFFFFFFFFFFFF AND PUSH20 0xFFFFFFFFFFFFFFFFFFFFFFFFFFFFFFFFFFFFFFFF AND DUP10 ADDRESS DUP10 DUP10 DUP10 DUP10 DUP10 DUP10 PUSH1 0x40 MLOAD PUSH1 0x24 ADD PUSH2 0x16FD SWAP9 SWAP8 SWAP7 SWAP6 SWAP5 SWAP4 SWAP3 SWAP2 SWAP1 PUSH2 0x2F88 JUMP JUMPDEST PUSH1 0x40 MLOAD PUSH1 0x20 DUP2 DUP4 SUB SUB DUP2 MSTORE SWAP1 PUSH1 0x40 MSTORE PUSH32 0x8FCBAF0C00000000000000000000000000000000000000000000000000000000 PUSH28 0xFFFFFFFFFFFFFFFFFFFFFFFFFFFFFFFFFFFFFFFFFFFFFFFFFFFFFFFF NOT AND PUSH1 0x20 DUP3 ADD DUP1 MLOAD PUSH28 0xFFFFFFFFFFFFFFFFFFFFFFFFFFFFFFFFFFFFFFFFFFFFFFFFFFFFFFFF DUP4 DUP2 DUP4 AND OR DUP4 MSTORE POP POP POP POP PUSH1 0x40 MLOAD PUSH2 0x1787 SWAP2 SWAP1 PUSH2 0x28D8 JUMP JUMPDEST PUSH0 PUSH1 0x40 MLOAD DUP1 DUP4 SUB DUP2 PUSH0 DUP7 GAS CALL SWAP2 POP POP RETURNDATASIZE DUP1 PUSH0 DUP2 EQ PUSH2 0x17C0 JUMPI PUSH1 0x40 MLOAD SWAP2 POP PUSH1 0x1F NOT PUSH1 0x3F RETURNDATASIZE ADD AND DUP3 ADD PUSH1 0x40 MSTORE RETURNDATASIZE DUP3 MSTORE RETURNDATASIZE PUSH0 PUSH1 0x20 DUP5 ADD RETURNDATACOPY PUSH2 0x17C5 JUMP JUMPDEST PUSH1 0x60 SWAP2 POP JUMPDEST POP POP SWAP1 POP DUP1 PUSH2 0x1809 JUMPI PUSH1 0x40 MLOAD PUSH32 0x8C379A000000000000000000000000000000000000000000000000000000000 DUP2 MSTORE PUSH1 0x4 ADD PUSH2 0x1800 SWAP1 PUSH2 0x304E JUMP JUMPDEST PUSH1 0x40 MLOAD DUP1 SWAP2 SUB SWAP1 REVERT JUMPDEST DUP5 ISZERO PUSH2 0x19B8 JUMPI PUSH0 PUSH0 PUSH0 SWAP1 SLOAD SWAP1 PUSH2 0x100 EXP SWAP1 DIV PUSH20 0xFFFFFFFFFFFFFFFFFFFFFFFFFFFFFFFFFFFFFFFF AND PUSH20 0xFFFFFFFFFFFFFFFFFFFFFFFFFFFFFFFFFFFFFFFF AND DUP11 ADDRESS DUP12 PUSH1 0x40 MLOAD PUSH1 0x24 ADD PUSH2 0x185C SWAP4 SWAP3 SWAP2 SWAP1 PUSH2 0x2B49 JUMP JUMPDEST PUSH1 0x40 MLOAD PUSH1 0x20 DUP2 DUP4 SUB SUB DUP2 MSTORE SWAP1 PUSH1 0x40 MSTORE PUSH32 0x23B872DD00000000000000000000000000000000000000000000000000000000 PUSH28 0xFFFFFFFFFFFFFFFFFFFFFFFFFFFFFFFFFFFFFFFFFFFFFFFFFFFFFFFF NOT AND PUSH1 0x20 DUP3 ADD DUP1 MLOAD PUSH28 0xFFFFFFFFFFFFFFFFFFFFFFFFFFFFFFFFFFFFFFFFFFFFFFFFFFFFFFFF DUP4 DUP2 DUP4 AND OR DUP4 MSTORE POP POP POP POP PUSH1 0x40 MLOAD PUSH2 0x18E6 SWAP2 SWAP1 PUSH2 0x28D8 JUMP JUMPDEST PUSH0 PUSH1 0x40 MLOAD DUP1 DUP4 SUB DUP2 PUSH0 DUP7 GAS CALL SWAP2 POP POP RETURNDATASIZE DUP1 PUSH0 DUP2 EQ PUSH2 0x191F JUMPI PUSH1 0x40 MLOAD SWAP2 POP PUSH1 0x1F NOT PUSH1 0x3F RETURNDATASIZE ADD AND DUP3 ADD PUSH1 0x40 MSTORE RETURNDATASIZE DUP3 MSTORE RETURNDATASIZE PUSH0 PUSH1 0x20 DUP5 ADD RETURNDATACOPY PUSH2 0x1924 JUMP JUMPDEST PUSH1 0x60 SWAP2 POP JUMPDEST POP POP SWAP1 POP DUP1 PUSH2 0x1968 JUMPI PUSH1 0x40 MLOAD PUSH32 0x8C379A000000000000000000000000000000000000000000000000000000000 DUP2 MSTORE PUSH1 0x4 ADD PUSH2 0x195F SWAP1 PUSH2 0x2BC8 JUMP JUMPDEST PUSH1 0x40 MLOAD DUP1 SWAP2 SUB SWAP1 REVERT JUMPDEST DUP10 PUSH20 0xFFFFFFFFFFFFFFFFFFFFFFFFFFFFFFFFFFFFFFFF AND PUSH32 0x256D3F498207DF9AB0F59EE9CC584FB4D2FE829F234F81A30A8B4C1C3949006D DUP11 PUSH1 0x40 MLOAD PUSH2 0x19AE SWAP2 SWAP1 PUSH2 0x2370 JUMP JUMPDEST PUSH1 0x40 MLOAD DUP1 SWAP2 SUB SWAP1 LOG2 POP JUMPDEST POP POP POP POP POP POP POP POP POP JUMP JUMPDEST PUSH2 0x19CB PUSH2 0x1A47 JUMP JUMPDEST PUSH0 PUSH20 0xFFFFFFFFFFFFFFFFFFFFFFFFFFFFFFFFFFFFFFFF AND DUP2 PUSH20 0xFFFFFFFFFFFFFFFFFFFFFFFFFFFFFFFFFFFFFFFF AND SUB PUSH2 0x1A3B JUMPI PUSH0 PUSH1 0x40 MLOAD PUSH32 0x1E4FBDF700000000000000000000000000000000000000000000000000000000 DUP2 MSTORE PUSH1 0x4 ADD PUSH2 0x1A32 SWAP2 SWAP1 PUSH2 0x26EE JUMP JUMPDEST PUSH1 0x40 MLOAD DUP1 SWAP2 SUB SWAP1 REVERT JUMPDEST PUSH2 0x1A44 DUP2 PUSH2 0x1D95 JUMP JUMPDEST POP JUMP JUMPDEST PUSH2 0x1A4F PUSH2 0x1E8D JUMP JUMPDEST PUSH20 0xFFFFFFFFFFFFFFFFFFFFFFFFFFFFFFFFFFFFFFFF AND PUSH2 0x1A6D PUSH2 0x13F2 JUMP JUMPDEST PUSH20 0xFFFFFFFFFFFFFFFFFFFFFFFFFFFFFFFFFFFFFFFF AND EQ PUSH2 0x1ACC JUMPI PUSH2 0x1A90 PUSH2 0x1E8D JUMP JUMPDEST PUSH1 0x40 MLOAD PUSH32 0x118CDAA700000000000000000000000000000000000000000000000000000000 DUP2 MSTORE PUSH1 0x4 ADD PUSH2 0x1AC3 SWAP2 SWAP1 PUSH2 0x26EE JUMP JUMPDEST PUSH1 0x40 MLOAD DUP1 SWAP2 SUB SWAP1 REVERT JUMPDEST JUMP JUMPDEST PUSH0 PUSH0 PUSH2 0x1AD8 PUSH2 0x1E94 JUMP JUMPDEST SWAP1 POP DUP1 SWAP2 POP POP SWAP1 JUMP JUMPDEST PUSH2 0x1AE9 PUSH2 0x1EBD JUMP JUMPDEST PUSH2 0x1AF2 DUP2 PUSH2 0x1EFD JUMP JUMPDEST POP JUMP JUMPDEST PUSH2 0x1AFD PUSH2 0x1EBD JUMP JUMPDEST JUMP JUMPDEST PUSH32 0x0 PUSH20 0xFFFFFFFFFFFFFFFFFFFFFFFFFFFFFFFFFFFFFFFF AND ADDRESS PUSH20 0xFFFFFFFFFFFFFFFFFFFFFFFFFFFFFFFFFFFFFFFF AND EQ DUP1 PUSH2 0x1BAC JUMPI POP PUSH32 0x0 PUSH20 0xFFFFFFFFFFFFFFFFFFFFFFFFFFFFFFFFFFFFFFFF AND PUSH2 0x1B93 PUSH2 0x1F81 JUMP JUMPDEST PUSH20 0xFFFFFFFFFFFFFFFFFFFFFFFFFFFFFFFFFFFFFFFF AND EQ ISZERO JUMPDEST ISZERO PUSH2 0x1BE3 JUMPI PUSH1 0x40 MLOAD PUSH32 0xE07C8DBA00000000000000000000000000000000000000000000000000000000 DUP2 MSTORE PUSH1 0x4 ADD PUSH1 0x40 MLOAD DUP1 SWAP2 SUB SWAP1 REVERT JUMPDEST JUMP JUMPDEST PUSH2 0x1BED PUSH2 0x1A47 JUMP JUMPDEST POP JUMP JUMPDEST DUP2 PUSH20 0xFFFFFFFFFFFFFFFFFFFFFFFFFFFFFFFFFFFFFFFF AND PUSH4 0x52D1902D PUSH1 0x40 MLOAD DUP2 PUSH4 0xFFFFFFFF AND PUSH1 0xE0 SHL DUP2 MSTORE PUSH1 0x4 ADD PUSH1 0x20 PUSH1 0x40 MLOAD DUP1 DUP4 SUB DUP2 DUP7 GAS STATICCALL SWAP3 POP POP POP DUP1 ISZERO PUSH2 0x1C58 JUMPI POP PUSH1 0x40 MLOAD RETURNDATASIZE PUSH1 0x1F NOT PUSH1 0x1F DUP3 ADD AND DUP3 ADD DUP1 PUSH1 0x40 MSTORE POP DUP2 ADD SWAP1 PUSH2 0x1C55 SWAP2 SWAP1 PUSH2 0x3080 JUMP JUMPDEST PUSH1 0x1 JUMPDEST PUSH2 0x1C99 JUMPI DUP2 PUSH1 0x40 MLOAD PUSH32 0x4C9C8CE300000000000000000000000000000000000000000000000000000000 DUP2 MSTORE PUSH1 0x4 ADD PUSH2 0x1C90 SWAP2 SWAP1 PUSH2 0x26EE JUMP JUMPDEST PUSH1 0x40 MLOAD DUP1 SWAP2 SUB SWAP1 REVERT JUMPDEST PUSH32 0x360894A13BA1A3210667C828492DB98DCA3E2076CC3735A920A3CA505D382BBC PUSH0 SHL DUP2 EQ PUSH2 0x1CFF JUMPI DUP1 PUSH1 0x40 MLOAD PUSH32 0xAA1D49A400000000000000000000000000000000000000000000000000000000 DUP2 MSTORE PUSH1 0x4 ADD PUSH2 0x1CF6 SWAP2 SWAP1 PUSH2 0x26C6 JUMP JUMPDEST PUSH1 0x40 MLOAD DUP1 SWAP2 SUB SWAP1 REVERT JUMPDEST PUSH2 0x1D09 DUP4 DUP4 PUSH2 0x1FD4 JUMP JUMPDEST POP POP POP JUMP JUMPDEST PUSH32 0x0 PUSH20 0xFFFFFFFFFFFFFFFFFFFFFFFFFFFFFFFFFFFFFFFF AND ADDRESS PUSH20 0xFFFFFFFFFFFFFFFFFFFFFFFFFFFFFFFFFFFFFFFF AND EQ PUSH2 0x1D93 JUMPI PUSH1 0x40 MLOAD PUSH32 0xE07C8DBA00000000000000000000000000000000000000000000000000000000 DUP2 MSTORE PUSH1 0x4 ADD PUSH1 0x40 MLOAD DUP1 SWAP2 SUB SWAP1 REVERT JUMPDEST JUMP JUMPDEST PUSH0 PUSH2 0x1D9E PUSH2 0x1E66 JUMP JUMPDEST SWAP1 POP PUSH0 DUP2 PUSH0 ADD PUSH0 SWAP1 SLOAD SWAP1 PUSH2 0x100 EXP SWAP1 DIV PUSH20 0xFFFFFFFFFFFFFFFFFFFFFFFFFFFFFFFFFFFFFFFF AND SWAP1 POP DUP3 DUP3 PUSH0 ADD PUSH0 PUSH2 0x100 EXP DUP2 SLOAD DUP2 PUSH20 0xFFFFFFFFFFFFFFFFFFFFFFFFFFFFFFFFFFFFFFFF MUL NOT AND SWAP1 DUP4 PUSH20 0xFFFFFFFFFFFFFFFFFFFFFFFFFFFFFFFFFFFFFFFF AND MUL OR SWAP1 SSTORE POP DUP3 PUSH20 0xFFFFFFFFFFFFFFFFFFFFFFFFFFFFFFFFFFFFFFFF AND DUP2 PUSH20 0xFFFFFFFFFFFFFFFFFFFFFFFFFFFFFFFFFFFFFFFF AND PUSH32 0x8BE0079C531659141344CD1FD0A4F28419497F9722A3DAAFE3B4186F6B6457E0 PUSH1 0x40 MLOAD PUSH1 0x40 MLOAD DUP1 SWAP2 SUB SWAP1 LOG3 POP POP POP JUMP JUMPDEST PUSH0 PUSH32 0x9016D09D72D40FDAE2FD8CEAC6B6234C7706214FD39C1CD1E609A0528C199300 SWAP1 POP SWAP1 JUMP JUMPDEST PUSH0 CALLER SWAP1 POP SWAP1 JUMP JUMPDEST PUSH0 PUSH32 0xF0C57E16840DF040F15088DC2F81FE391C3923BEC73E23A9662EFC9C229C6A00 PUSH0 SHL SWAP1 POP SWAP1 JUMP JUMPDEST PUSH2 0x1EC5 PUSH2 0x2046 JUMP JUMPDEST PUSH2 0x1EFB JUMPI PUSH1 0x40 MLOAD PUSH32 0xD7E6BCF800000000000000000000000000000000000000000000000000000000 DUP2 MSTORE PUSH1 0x4 ADD PUSH1 0x40 MLOAD DUP1 SWAP2 SUB SWAP1 REVERT JUMPDEST JUMP JUMPDEST PUSH2 0x1F05 PUSH2 0x1EBD JUMP JUMPDEST PUSH0 PUSH20 0xFFFFFFFFFFFFFFFFFFFFFFFFFFFFFFFFFFFFFFFF AND DUP2 PUSH20 0xFFFFFFFFFFFFFFFFFFFFFFFFFFFFFFFFFFFFFFFF AND SUB PUSH2 0x1F75 JUMPI PUSH0 PUSH1 0x40 MLOAD PUSH32 0x1E4FBDF700000000000000000000000000000000000000000000000000000000 DUP2 MSTORE PUSH1 0x4 ADD PUSH2 0x1F6C SWAP2 SWAP1 PUSH2 0x26EE JUMP JUMPDEST PUSH1 0x40 MLOAD DUP1 SWAP2 SUB SWAP1 REVERT JUMPDEST PUSH2 0x1F7E DUP2 PUSH2 0x1D95 JUMP JUMPDEST POP JUMP JUMPDEST PUSH0 PUSH2 0x1FAD PUSH32 0x360894A13BA1A3210667C828492DB98DCA3E2076CC3735A920A3CA505D382BBC PUSH0 SHL PUSH2 0x2064 JUMP JUMPDEST PUSH0 ADD PUSH0 SWAP1 SLOAD SWAP1 PUSH2 0x100 EXP SWAP1 DIV PUSH20 0xFFFFFFFFFFFFFFFFFFFFFFFFFFFFFFFFFFFFFFFF AND SWAP1 POP SWAP1 JUMP JUMPDEST PUSH2 0x1FDD DUP3 PUSH2 0x206D JUMP JUMPDEST DUP2 PUSH20 0xFFFFFFFFFFFFFFFFFFFFFFFFFFFFFFFFFFFFFFFF AND PUSH32 0xBC7CD75A20EE27FD9ADEBAB32041F755214DBC6BFFA90CC0225B39DA2E5C2D3B PUSH1 0x40 MLOAD PUSH1 0x40 MLOAD DUP1 SWAP2 SUB SWAP1 LOG2 PUSH0 DUP2 MLOAD GT ISZERO PUSH2 0x2039 JUMPI PUSH2 0x2033 DUP3 DUP3 PUSH2 0x2136 JUMP JUMPDEST POP PUSH2 0x2042 JUMP JUMPDEST PUSH2 0x2041 PUSH2 0x21B6 JUMP JUMPDEST JUMPDEST POP POP JUMP JUMPDEST PUSH0 PUSH2 0x204F PUSH2 0x1ACE JUMP JUMPDEST PUSH0 ADD PUSH1 0x8 SWAP1 SLOAD SWAP1 PUSH2 0x100 EXP SWAP1 DIV PUSH1 0xFF AND SWAP1 POP SWAP1 JUMP JUMPDEST PUSH0 DUP2 SWAP1 POP SWAP2 SWAP1 POP JUMP JUMPDEST PUSH0 DUP2 PUSH20 0xFFFFFFFFFFFFFFFFFFFFFFFFFFFFFFFFFFFFFFFF AND EXTCODESIZE SUB PUSH2 0x20C8 JUMPI DUP1 PUSH1 0x40 MLOAD PUSH32 0x4C9C8CE300000000000000000000000000000000000000000000000000000000 DUP2 MSTORE PUSH1 0x4 ADD PUSH2 0x20BF SWAP2 SWAP1 PUSH2 0x26EE JUMP JUMPDEST PUSH1 0x40 MLOAD DUP1 SWAP2 SUB SWAP1 REVERT JUMPDEST DUP1 PUSH2 0x20F4 PUSH32 0x360894A13BA1A3210667C828492DB98DCA3E2076CC3735A920A3CA505D382BBC PUSH0 SHL PUSH2 0x2064 JUMP JUMPDEST PUSH0 ADD PUSH0 PUSH2 0x100 EXP DUP2 SLOAD DUP2 PUSH20 0xFFFFFFFFFFFFFFFFFFFFFFFFFFFFFFFFFFFFFFFF MUL NOT AND SWAP1 DUP4 PUSH20 0xFFFFFFFFFFFFFFFFFFFFFFFFFFFFFFFFFFFFFFFF AND MUL OR SWAP1 SSTORE POP POP JUMP JUMPDEST PUSH1 0x60 PUSH0 PUSH0 DUP5 PUSH20 0xFFFFFFFFFFFFFFFFFFFFFFFFFFFFFFFFFFFFFFFF AND DUP5 PUSH1 0x40 MLOAD PUSH2 0x215F SWAP2 SWAP1 PUSH2 0x28D8 JUMP JUMPDEST PUSH0 PUSH1 0x40 MLOAD DUP1 DUP4 SUB DUP2 DUP6 GAS DELEGATECALL SWAP2 POP POP RETURNDATASIZE DUP1 PUSH0 DUP2 EQ PUSH2 0x2197 JUMPI PUSH1 0x40 MLOAD SWAP2 POP PUSH1 0x1F NOT PUSH1 0x3F RETURNDATASIZE ADD AND DUP3 ADD PUSH1 0x40 MSTORE RETURNDATASIZE DUP3 MSTORE RETURNDATASIZE PUSH0 PUSH1 0x20 DUP5 ADD RETURNDATACOPY PUSH2 0x219C JUMP JUMPDEST PUSH1 0x60 SWAP2 POP JUMPDEST POP SWAP2 POP SWAP2 POP PUSH2 0x21AC DUP6 DUP4 DUP4 PUSH2 0x21F2 JUMP JUMPDEST SWAP3 POP POP POP SWAP3 SWAP2 POP POP JUMP JUMPDEST PUSH0 CALLVALUE GT ISZERO PUSH2 0x21F0 JUMPI PUSH1 0x40 MLOAD PUSH32 0xB398979F00000000000000000000000000000000000000000000000000000000 DUP2 MSTORE PUSH1 0x4 ADD PUSH1 0x40 MLOAD DUP1 SWAP2 SUB SWAP1 REVERT JUMPDEST JUMP JUMPDEST PUSH1 0x60 DUP3 PUSH2 0x2207 JUMPI PUSH2 0x2202 DUP3 PUSH2 0x227F JUMP JUMPDEST PUSH2 0x2277 JUMP JUMPDEST PUSH0 DUP3 MLOAD EQ DUP1 ISZERO PUSH2 0x222D JUMPI POP PUSH0 DUP5 PUSH20 0xFFFFFFFFFFFFFFFFFFFFFFFFFFFFFFFFFFFFFFFF AND EXTCODESIZE EQ JUMPDEST ISZERO PUSH2 0x226F JUMPI DUP4 PUSH1 0x40 MLOAD PUSH32 0x9996B31500000000000000000000000000000000000000000000000000000000 DUP2 MSTORE PUSH1 0x4 ADD PUSH2 0x2266 SWAP2 SWAP1 PUSH2 0x26EE JUMP JUMPDEST PUSH1 0x40 MLOAD DUP1 SWAP2 SUB SWAP1 REVERT JUMPDEST DUP2 SWAP1 POP PUSH2 0x2278 JUMP JUMPDEST JUMPDEST SWAP4 SWAP3 POP POP POP JUMP JUMPDEST PUSH0 DUP2 MLOAD GT ISZERO PUSH2 0x2290 JUMPI DUP1 MLOAD PUSH1 0x20 DUP3 ADD REVERT JUMPDEST PUSH1 0x40 MLOAD PUSH32 0xD6BDA27500000000000000000000000000000000000000000000000000000000 DUP2 MSTORE PUSH1 0x4 ADD PUSH1 0x40 MLOAD DUP1 SWAP2 SUB SWAP1 REVERT JUMPDEST PUSH0 PUSH1 0x40 MLOAD SWAP1 POP SWAP1 JUMP JUMPDEST PUSH0 PUSH0 REVERT JUMPDEST PUSH0 PUSH0 REVERT JUMPDEST PUSH0 PUSH20 0xFFFFFFFFFFFFFFFFFFFFFFFFFFFFFFFFFFFFFFFF DUP3 AND SWAP1 POP SWAP2 SWAP1 POP JUMP JUMPDEST PUSH0 PUSH2 0x22FC DUP3 PUSH2 0x22D3 JUMP JUMPDEST SWAP1 POP SWAP2 SWAP1 POP JUMP JUMPDEST PUSH2 0x230C DUP2 PUSH2 0x22F2 JUMP JUMPDEST DUP2 EQ PUSH2 0x2316 JUMPI PUSH0 PUSH0 REVERT JUMPDEST POP JUMP JUMPDEST PUSH0 DUP2 CALLDATALOAD SWAP1 POP PUSH2 0x2327 DUP2 PUSH2 0x2303 JUMP JUMPDEST SWAP3 SWAP2 POP POP JUMP JUMPDEST PUSH0 PUSH1 0x20 DUP3 DUP5 SUB SLT ISZERO PUSH2 0x2342 JUMPI PUSH2 0x2341 PUSH2 0x22CB JUMP JUMPDEST JUMPDEST PUSH0 PUSH2 0x234F DUP5 DUP3 DUP6 ADD PUSH2 0x2319 JUMP JUMPDEST SWAP2 POP POP SWAP3 SWAP2 POP POP JUMP JUMPDEST PUSH0 DUP2 SWAP1 POP SWAP2 SWAP1 POP JUMP JUMPDEST PUSH2 0x236A DUP2 PUSH2 0x2358 JUMP JUMPDEST DUP3 MSTORE POP POP JUMP JUMPDEST PUSH0 PUSH1 0x20 DUP3 ADD SWAP1 POP PUSH2 0x2383 PUSH0 DUP4 ADD DUP5 PUSH2 0x2361 JUMP JUMPDEST SWAP3 SWAP2 POP POP JUMP JUMPDEST PUSH2 0x2392 DUP2 PUSH2 0x2358 JUMP JUMPDEST DUP2 EQ PUSH2 0x239C JUMPI PUSH0 PUSH0 REVERT JUMPDEST POP JUMP JUMPDEST PUSH0 DUP2 CALLDATALOAD SWAP1 POP PUSH2 0x23AD DUP2 PUSH2 0x2389 JUMP JUMPDEST SWAP3 SWAP2 POP POP JUMP JUMPDEST PUSH0 PUSH1 0xFF DUP3 AND SWAP1 POP SWAP2 SWAP1 POP JUMP JUMPDEST PUSH2 0x23C8 DUP2 PUSH2 0x23B3 JUMP JUMPDEST DUP2 EQ PUSH2 0x23D2 JUMPI PUSH0 PUSH0 REVERT JUMPDEST POP JUMP JUMPDEST PUSH0 DUP2 CALLDATALOAD SWAP1 POP PUSH2 0x23E3 DUP2 PUSH2 0x23BF JUMP JUMPDEST SWAP3 SWAP2 POP POP JUMP JUMPDEST PUSH0 DUP2 SWAP1 POP SWAP2 SWAP1 POP JUMP JUMPDEST PUSH2 0x23FB DUP2 PUSH2 0x23E9 JUMP JUMPDEST DUP2 EQ PUSH2 0x2405 JUMPI PUSH0 PUSH0 REVERT JUMPDEST POP JUMP JUMPDEST PUSH0 DUP2 CALLDATALOAD SWAP1 POP PUSH2 0x2416 DUP2 PUSH2 0x23F2 JUMP JUMPDEST SWAP3 SWAP2 POP POP JUMP JUMPDEST PUSH0 PUSH0 PUSH0 PUSH0 PUSH0 PUSH0 PUSH1 0xC0 DUP8 DUP10 SUB SLT ISZERO PUSH2 0x2436 JUMPI PUSH2 0x2435 PUSH2 0x22CB JUMP JUMPDEST JUMPDEST PUSH0 PUSH2 0x2443 DUP10 DUP3 DUP11 ADD PUSH2 0x2319 JUMP JUMPDEST SWAP7 POP POP PUSH1 0x20 PUSH2 0x2454 DUP10 DUP3 DUP11 ADD PUSH2 0x239F JUMP JUMPDEST SWAP6 POP POP PUSH1 0x40 PUSH2 0x2465 DUP10 DUP3 DUP11 ADD PUSH2 0x239F JUMP JUMPDEST SWAP5 POP POP PUSH1 0x60 PUSH2 0x2476 DUP10 DUP3 DUP11 ADD PUSH2 0x23D5 JUMP JUMPDEST SWAP4 POP POP PUSH1 0x80 PUSH2 0x2487 DUP10 DUP3 DUP11 ADD PUSH2 0x2408 JUMP JUMPDEST SWAP3 POP POP PUSH1 0xA0 PUSH2 0x2498 DUP10 DUP3 DUP11 ADD PUSH2 0x2408 JUMP JUMPDEST SWAP2 POP POP SWAP3 SWAP6 POP SWAP3 SWAP6 POP SWAP3 SWAP6 JUMP JUMPDEST PUSH0 PUSH0 PUSH1 0x40 DUP4 DUP6 SUB SLT ISZERO PUSH2 0x24BB JUMPI PUSH2 0x24BA PUSH2 0x22CB JUMP JUMPDEST JUMPDEST PUSH0 PUSH2 0x24C8 DUP6 DUP3 DUP7 ADD PUSH2 0x2319 JUMP JUMPDEST SWAP3 POP POP PUSH1 0x20 PUSH2 0x24D9 DUP6 DUP3 DUP7 ADD PUSH2 0x239F JUMP JUMPDEST SWAP2 POP POP SWAP3 POP SWAP3 SWAP1 POP JUMP JUMPDEST PUSH0 PUSH0 PUSH1 0x40 DUP4 DUP6 SUB SLT ISZERO PUSH2 0x24F9 JUMPI PUSH2 0x24F8 PUSH2 0x22CB JUMP JUMPDEST JUMPDEST PUSH0 PUSH2 0x2506 DUP6 DUP3 DUP7 ADD PUSH2 0x2319 JUMP JUMPDEST SWAP3 POP POP PUSH1 0x20 PUSH2 0x2517 DUP6 DUP3 DUP7 ADD PUSH2 0x2319 JUMP JUMPDEST SWAP2 POP POP SWAP3 POP SWAP3 SWAP1 POP JUMP JUMPDEST PUSH0 PUSH0 REVERT JUMPDEST PUSH0 PUSH0 REVERT JUMPDEST PUSH0 PUSH1 0x1F NOT PUSH1 0x1F DUP4 ADD AND SWAP1 POP SWAP2 SWAP1 POP JUMP JUMPDEST PUSH32 0x4E487B7100000000000000000000000000000000000000000000000000000000 PUSH0 MSTORE PUSH1 0x41 PUSH1 0x4 MSTORE PUSH1 0x24 PUSH0 REVERT JUMPDEST PUSH2 0x256F DUP3 PUSH2 0x2529 JUMP JUMPDEST DUP2 ADD DUP2 DUP2 LT PUSH8 0xFFFFFFFFFFFFFFFF DUP3 GT OR ISZERO PUSH2 0x258E JUMPI PUSH2 0x258D PUSH2 0x2539 JUMP JUMPDEST JUMPDEST DUP1 PUSH1 0x40 MSTORE POP POP POP JUMP JUMPDEST PUSH0 PUSH2 0x25A0 PUSH2 0x22C2 JUMP JUMPDEST SWAP1 POP PUSH2 0x25AC DUP3 DUP3 PUSH2 0x2566 JUMP JUMPDEST SWAP2 SWAP1 POP JUMP JUMPDEST PUSH0 PUSH8 0xFFFFFFFFFFFFFFFF DUP3 GT ISZERO PUSH2 0x25CB JUMPI PUSH2 0x25CA PUSH2 0x2539 JUMP JUMPDEST JUMPDEST PUSH2 0x25D4 DUP3 PUSH2 0x2529 JUMP JUMPDEST SWAP1 POP PUSH1 0x20 DUP2 ADD SWAP1 POP SWAP2 SWAP1 POP JUMP JUMPDEST DUP3 DUP2 DUP4 CALLDATACOPY PUSH0 DUP4 DUP4 ADD MSTORE POP POP POP JUMP JUMPDEST PUSH0 PUSH2 0x2601 PUSH2 0x25FC DUP5 PUSH2 0x25B1 JUMP JUMPDEST PUSH2 0x2597 JUMP JUMPDEST SWAP1 POP DUP3 DUP2 MSTORE PUSH1 0x20 DUP2 ADD DUP5 DUP5 DUP5 ADD GT ISZERO PUSH2 0x261D JUMPI PUSH2 0x261C PUSH2 0x2525 JUMP JUMPDEST JUMPDEST PUSH2 0x2628 DUP5 DUP3 DUP6 PUSH2 0x25E1 JUMP JUMPDEST POP SWAP4 SWAP3 POP POP POP JUMP JUMPDEST PUSH0 DUP3 PUSH1 0x1F DUP4 ADD SLT PUSH2 0x2644 JUMPI PUSH2 0x2643 PUSH2 0x2521 JUMP JUMPDEST JUMPDEST DUP2 CALLDATALOAD PUSH2 0x2654 DUP5 DUP3 PUSH1 0x20 DUP7 ADD PUSH2 0x25EF JUMP JUMPDEST SWAP2 POP POP SWAP3 SWAP2 POP POP JUMP JUMPDEST PUSH0 PUSH0 PUSH1 0x40 DUP4 DUP6 SUB SLT ISZERO PUSH2 0x2673 JUMPI PUSH2 0x2672 PUSH2 0x22CB JUMP JUMPDEST JUMPDEST PUSH0 PUSH2 0x2680 DUP6 DUP3 DUP7 ADD PUSH2 0x2319 JUMP JUMPDEST SWAP3 POP POP PUSH1 0x20 DUP4 ADD CALLDATALOAD PUSH8 0xFFFFFFFFFFFFFFFF DUP2 GT ISZERO PUSH2 0x26A1 JUMPI PUSH2 0x26A0 PUSH2 0x22CF JUMP JUMPDEST JUMPDEST PUSH2 0x26AD DUP6 DUP3 DUP7 ADD PUSH2 0x2630 JUMP JUMPDEST SWAP2 POP POP SWAP3 POP SWAP3 SWAP1 POP JUMP JUMPDEST PUSH2 0x26C0 DUP2 PUSH2 0x23E9 JUMP JUMPDEST DUP3 MSTORE POP POP JUMP JUMPDEST PUSH0 PUSH1 0x20 DUP3 ADD SWAP1 POP PUSH2 0x26D9 PUSH0 DUP4 ADD DUP5 PUSH2 0x26B7 JUMP JUMPDEST SWAP3 SWAP2 POP POP JUMP JUMPDEST PUSH2 0x26E8 DUP2 PUSH2 0x22F2 JUMP JUMPDEST DUP3 MSTORE POP POP JUMP JUMPDEST PUSH0 PUSH1 0x20 DUP3 ADD SWAP1 POP PUSH2 0x2701 PUSH0 DUP4 ADD DUP5 PUSH2 0x26DF JUMP JUMPDEST SWAP3 SWAP2 POP POP JUMP JUMPDEST PUSH0 DUP2 MLOAD SWAP1 POP SWAP2 SWAP1 POP JUMP JUMPDEST PUSH0 DUP3 DUP3 MSTORE PUSH1 0x20 DUP3 ADD SWAP1 POP SWAP3 SWAP2 POP POP JUMP JUMPDEST DUP3 DUP2 DUP4 MCOPY PUSH0 DUP4 DUP4 ADD MSTORE POP POP POP JUMP JUMPDEST PUSH0 PUSH2 0x2739 DUP3 PUSH2 0x2707 JUMP JUMPDEST PUSH2 0x2743 DUP2 DUP6 PUSH2 0x2711 JUMP JUMPDEST SWAP4 POP PUSH2 0x2753 DUP2 DUP6 PUSH1 0x20 DUP7 ADD PUSH2 0x2721 JUMP JUMPDEST PUSH2 0x275C DUP2 PUSH2 0x2529 JUMP JUMPDEST DUP5 ADD SWAP2 POP POP SWAP3 SWAP2 POP POP JUMP JUMPDEST PUSH0 PUSH1 0x20 DUP3 ADD SWAP1 POP DUP2 DUP2 SUB PUSH0 DUP4 ADD MSTORE PUSH2 0x277F DUP2 DUP5 PUSH2 0x272F JUMP JUMPDEST SWAP1 POP SWAP3 SWAP2 POP POP JUMP JUMPDEST PUSH0 DUP2 ISZERO ISZERO SWAP1 POP SWAP2 SWAP1 POP JUMP JUMPDEST PUSH2 0x279B DUP2 PUSH2 0x2787 JUMP JUMPDEST DUP2 EQ PUSH2 0x27A5 JUMPI PUSH0 PUSH0 REVERT JUMPDEST POP JUMP JUMPDEST PUSH0 DUP2 CALLDATALOAD SWAP1 POP PUSH2 0x27B6 DUP2 PUSH2 0x2792 JUMP JUMPDEST SWAP3 SWAP2 POP POP JUMP JUMPDEST PUSH0 PUSH0 PUSH0 PUSH0 PUSH0 PUSH0 PUSH0 PUSH0 PUSH2 0x100 DUP10 DUP12 SUB SLT ISZERO PUSH2 0x27D9 JUMPI PUSH2 0x27D8 PUSH2 0x22CB JUMP JUMPDEST JUMPDEST PUSH0 PUSH2 0x27E6 DUP12 DUP3 DUP13 ADD PUSH2 0x2319 JUMP JUMPDEST SWAP9 POP POP PUSH1 0x20 PUSH2 0x27F7 DUP12 DUP3 DUP13 ADD PUSH2 0x239F JUMP JUMPDEST SWAP8 POP POP PUSH1 0x40 PUSH2 0x2808 DUP12 DUP3 DUP13 ADD PUSH2 0x239F JUMP JUMPDEST SWAP7 POP POP PUSH1 0x60 PUSH2 0x2819 DUP12 DUP3 DUP13 ADD PUSH2 0x239F JUMP JUMPDEST SWAP6 POP POP PUSH1 0x80 PUSH2 0x282A DUP12 DUP3 DUP13 ADD PUSH2 0x27A8 JUMP JUMPDEST SWAP5 POP POP PUSH1 0xA0 PUSH2 0x283B DUP12 DUP3 DUP13 ADD PUSH2 0x23D5 JUMP JUMPDEST SWAP4 POP POP PUSH1 0xC0 PUSH2 0x284C DUP12 DUP3 DUP13 ADD PUSH2 0x2408 JUMP JUMPDEST SWAP3 POP POP PUSH1 0xE0 PUSH2 0x285D DUP12 DUP3 DUP13 ADD PUSH2 0x2408 JUMP JUMPDEST SWAP2 POP POP SWAP3 SWAP6 SWAP9 POP SWAP3 SWAP6 SWAP9 SWAP1 SWAP4 SWAP7 POP JUMP JUMPDEST PUSH0 PUSH1 0x40 DUP3 ADD SWAP1 POP PUSH2 0x2880 PUSH0 DUP4 ADD DUP6 PUSH2 0x26DF JUMP JUMPDEST PUSH2 0x288D PUSH1 0x20 DUP4 ADD DUP5 PUSH2 0x26DF JUMP JUMPDEST SWAP4 SWAP3 POP POP POP JUMP JUMPDEST PUSH0 DUP2 MLOAD SWAP1 POP SWAP2 SWAP1 POP JUMP JUMPDEST PUSH0 DUP2 SWAP1 POP SWAP3 SWAP2 POP POP JUMP JUMPDEST PUSH0 PUSH2 0x28B2 DUP3 PUSH2 0x2894 JUMP JUMPDEST PUSH2 0x28BC DUP2 DUP6 PUSH2 0x289E JUMP JUMPDEST SWAP4 POP PUSH2 0x28CC DUP2 DUP6 PUSH1 0x20 DUP7 ADD PUSH2 0x2721 JUMP JUMPDEST DUP1 DUP5 ADD SWAP2 POP POP SWAP3 SWAP2 POP POP JUMP JUMPDEST PUSH0 PUSH2 0x28E3 DUP3 DUP5 PUSH2 0x28A8 JUMP JUMPDEST SWAP2 POP DUP2 SWAP1 POP SWAP3 SWAP2 POP POP JUMP JUMPDEST PUSH32 0x416C6C6F77616E636520636865636B206661696C656400000000000000000000 PUSH0 DUP3 ADD MSTORE POP JUMP JUMPDEST PUSH0 PUSH2 0x2922 PUSH1 0x16 DUP4 PUSH2 0x2711 JUMP JUMPDEST SWAP2 POP PUSH2 0x292D DUP3 PUSH2 0x28EE JUMP JUMPDEST PUSH1 0x20 DUP3 ADD SWAP1 POP SWAP2 SWAP1 POP JUMP JUMPDEST PUSH0 PUSH1 0x20 DUP3 ADD SWAP1 POP DUP2 DUP2 SUB PUSH0 DUP4 ADD MSTORE PUSH2 0x294F DUP2 PUSH2 0x2916 JUMP JUMPDEST SWAP1 POP SWAP2 SWAP1 POP JUMP JUMPDEST PUSH0 DUP2 MLOAD SWAP1 POP PUSH2 0x2964 DUP2 PUSH2 0x2389 JUMP JUMPDEST SWAP3 SWAP2 POP POP JUMP JUMPDEST PUSH0 PUSH1 0x20 DUP3 DUP5 SUB SLT ISZERO PUSH2 0x297F JUMPI PUSH2 0x297E PUSH2 0x22CB JUMP JUMPDEST JUMPDEST PUSH0 PUSH2 0x298C DUP5 DUP3 DUP6 ADD PUSH2 0x2956 JUMP JUMPDEST SWAP2 POP POP SWAP3 SWAP2 POP POP JUMP JUMPDEST PUSH32 0x4F776E65722063616E6E6F74206265207A65726F000000000000000000000000 PUSH0 DUP3 ADD MSTORE POP JUMP JUMPDEST PUSH0 PUSH2 0x29C9 PUSH1 0x14 DUP4 PUSH2 0x2711 JUMP JUMPDEST SWAP2 POP PUSH2 0x29D4 DUP3 PUSH2 0x2995 JUMP JUMPDEST PUSH1 0x20 DUP3 ADD SWAP1 POP SWAP2 SWAP1 POP JUMP JUMPDEST PUSH0 PUSH1 0x20 DUP3 ADD SWAP1 POP DUP2 DUP2 SUB PUSH0 DUP4 ADD MSTORE PUSH2 0x29F6 DUP2 PUSH2 0x29BD JUMP JUMPDEST SWAP1 POP SWAP2 SWAP1 POP JUMP JUMPDEST PUSH32 0x416D6F756E74206D757374206265203E20300000000000000000000000000000 PUSH0 DUP3 ADD MSTORE POP JUMP JUMPDEST PUSH0 PUSH2 0x2A31 PUSH1 0x12 DUP4 PUSH2 0x2711 JUMP JUMPDEST SWAP2 POP PUSH2 0x2A3C DUP3 PUSH2 0x29FD JUMP JUMPDEST PUSH1 0x20 DUP3 ADD SWAP1 POP SWAP2 SWAP1 POP JUMP JUMPDEST PUSH0 PUSH1 0x20 DUP3 ADD SWAP1 POP DUP2 DUP2 SUB PUSH0 DUP4 ADD MSTORE PUSH2 0x2A5E DUP2 PUSH2 0x2A25 JUMP JUMPDEST SWAP1 POP SWAP2 SWAP1 POP JUMP JUMPDEST PUSH2 0x2A6E DUP2 PUSH2 0x23B3 JUMP JUMPDEST DUP3 MSTORE POP POP JUMP JUMPDEST PUSH0 PUSH1 0xE0 DUP3 ADD SWAP1 POP PUSH2 0x2A87 PUSH0 DUP4 ADD DUP11 PUSH2 0x26DF JUMP JUMPDEST PUSH2 0x2A94 PUSH1 0x20 DUP4 ADD DUP10 PUSH2 0x26DF JUMP JUMPDEST PUSH2 0x2AA1 PUSH1 0x40 DUP4 ADD DUP9 PUSH2 0x2361 JUMP JUMPDEST PUSH2 0x2AAE PUSH1 0x60 DUP4 ADD DUP8 PUSH2 0x2361 JUMP JUMPDEST PUSH2 0x2ABB PUSH1 0x80 DUP4 ADD DUP7 PUSH2 0x2A65 JUMP JUMPDEST PUSH2 0x2AC8 PUSH1 0xA0 DUP4 ADD DUP6 PUSH2 0x26B7 JUMP JUMPDEST PUSH2 0x2AD5 PUSH1 0xC0 DUP4 ADD DUP5 PUSH2 0x26B7 JUMP JUMPDEST SWAP9 SWAP8 POP POP POP POP POP POP POP POP JUMP JUMPDEST PUSH32 0x5065726D6974206661696C656400000000000000000000000000000000000000 PUSH0 DUP3 ADD MSTORE POP JUMP JUMPDEST PUSH0 PUSH2 0x2B15 PUSH1 0xD DUP4 PUSH2 0x2711 JUMP JUMPDEST SWAP2 POP PUSH2 0x2B20 DUP3 PUSH2 0x2AE1 JUMP JUMPDEST PUSH1 0x20 DUP3 ADD SWAP1 POP SWAP2 SWAP1 POP JUMP JUMPDEST PUSH0 PUSH1 0x20 DUP3 ADD SWAP1 POP DUP2 DUP2 SUB PUSH0 DUP4 ADD MSTORE PUSH2 0x2B42 DUP2 PUSH2 0x2B09 JUMP JUMPDEST SWAP1 POP SWAP2 SWAP1 POP JUMP JUMPDEST PUSH0 PUSH1 0x60 DUP3 ADD SWAP1 POP PUSH2 0x2B5C PUSH0 DUP4 ADD DUP7 PUSH2 0x26DF JUMP JUMPDEST PUSH2 0x2B69 PUSH1 0x20 DUP4 ADD DUP6 PUSH2 0x26DF JUMP JUMPDEST PUSH2 0x2B76 PUSH1 0x40 DUP4 ADD DUP5 PUSH2 0x2361 JUMP JUMPDEST SWAP5 SWAP4 POP POP POP POP JUMP JUMPDEST PUSH32 0x5472616E73666572206661696C65640000000000000000000000000000000000 PUSH0 DUP3 ADD MSTORE POP JUMP JUMPDEST PUSH0 PUSH2 0x2BB2 PUSH1 0xF DUP4 PUSH2 0x2711 JUMP JUMPDEST SWAP2 POP PUSH2 0x2BBD DUP3 PUSH2 0x2B7E JUMP JUMPDEST PUSH1 0x20 DUP3 ADD SWAP1 POP SWAP2 SWAP1 POP JUMP JUMPDEST PUSH0 PUSH1 0x20 DUP3 ADD SWAP1 POP DUP2 DUP2 SUB PUSH0 DUP4 ADD MSTORE PUSH2 0x2BDF DUP2 PUSH2 0x2BA6 JUMP JUMPDEST SWAP1 POP SWAP2 SWAP1 POP JUMP JUMPDEST PUSH32 0x546F20616464726573732063616E6E6F74206265207A65726F00000000000000 PUSH0 DUP3 ADD MSTORE POP JUMP JUMPDEST PUSH0 PUSH2 0x2C1A PUSH1 0x19 DUP4 PUSH2 0x2711 JUMP JUMPDEST SWAP2 POP PUSH2 0x2C25 DUP3 PUSH2 0x2BE6 JUMP JUMPDEST PUSH1 0x20 DUP3 ADD SWAP1 POP SWAP2 SWAP1 POP JUMP JUMPDEST PUSH0 PUSH1 0x20 DUP3 ADD SWAP1 POP DUP2 DUP2 SUB PUSH0 DUP4 ADD MSTORE PUSH2 0x2C47 DUP2 PUSH2 0x2C0E JUMP JUMPDEST SWAP1 POP SWAP2 SWAP1 POP JUMP JUMPDEST PUSH32 0x416D6F756E74206D7573742062652067726561746572207468616E207A65726F PUSH0 DUP3 ADD MSTORE POP JUMP JUMPDEST PUSH0 PUSH2 0x2C82 PUSH1 0x20 DUP4 PUSH2 0x2711 JUMP JUMPDEST SWAP2 POP PUSH2 0x2C8D DUP3 PUSH2 0x2C4E JUMP JUMPDEST PUSH1 0x20 DUP3 ADD SWAP1 POP SWAP2 SWAP1 POP JUMP JUMPDEST PUSH0 PUSH1 0x20 DUP3 ADD SWAP1 POP DUP2 DUP2 SUB PUSH0 DUP4 ADD MSTORE PUSH2 0x2CAF DUP2 PUSH2 0x2C76 JUMP JUMPDEST SWAP1 POP SWAP2 SWAP1 POP JUMP JUMPDEST PUSH32 0x42616C616E636520636865636B206661696C6564000000000000000000000000 PUSH0 DUP3 ADD MSTORE POP JUMP JUMPDEST PUSH0 PUSH2 0x2CEA PUSH1 0x14 DUP4 PUSH2 0x2711 JUMP JUMPDEST SWAP2 POP PUSH2 0x2CF5 DUP3 PUSH2 0x2CB6 JUMP JUMPDEST PUSH1 0x20 DUP3 ADD SWAP1 POP SWAP2 SWAP1 POP JUMP JUMPDEST PUSH0 PUSH1 0x20 DUP3 ADD SWAP1 POP DUP2 DUP2 SUB PUSH0 DUP4 ADD MSTORE PUSH2 0x2D17 DUP2 PUSH2 0x2CDE JUMP JUMPDEST SWAP1 POP SWAP2 SWAP1 POP JUMP JUMPDEST PUSH32 0x496E73756666696369656E742062616C616E6365000000000000000000000000 PUSH0 DUP3 ADD MSTORE POP JUMP JUMPDEST PUSH0 PUSH2 0x2D52 PUSH1 0x14 DUP4 PUSH2 0x2711 JUMP JUMPDEST SWAP2 POP PUSH2 0x2D5D DUP3 PUSH2 0x2D1E JUMP JUMPDEST PUSH1 0x20 DUP3 ADD SWAP1 POP SWAP2 SWAP1 POP JUMP JUMPDEST PUSH0 PUSH1 0x20 DUP3 ADD SWAP1 POP DUP2 DUP2 SUB PUSH0 DUP4 ADD MSTORE PUSH2 0x2D7F DUP2 PUSH2 0x2D46 JUMP JUMPDEST SWAP1 POP SWAP2 SWAP1 POP JUMP JUMPDEST PUSH0 PUSH1 0x40 DUP3 ADD SWAP1 POP PUSH2 0x2D99 PUSH0 DUP4 ADD DUP6 PUSH2 0x26DF JUMP JUMPDEST PUSH2 0x2DA6 PUSH1 0x20 DUP4 ADD DUP5 PUSH2 0x2361 JUMP JUMPDEST SWAP4 SWAP3 POP POP POP JUMP JUMPDEST PUSH32 0x5553445420746F6B656E20616464726573732063616E6E6F74206265207A6572 PUSH0 DUP3 ADD MSTORE PUSH32 0x6F00000000000000000000000000000000000000000000000000000000000000 PUSH1 0x20 DUP3 ADD MSTORE POP JUMP JUMPDEST PUSH0 PUSH2 0x2E07 PUSH1 0x21 DUP4 PUSH2 0x2711 JUMP JUMPDEST SWAP2 POP PUSH2 0x2E12 DUP3 PUSH2 0x2DAD JUMP JUMPDEST PUSH1 0x40 DUP3 ADD SWAP1 POP SWAP2 SWAP1 POP JUMP JUMPDEST PUSH0 PUSH1 0x20 DUP3 ADD SWAP1 POP DUP2 DUP2 SUB PUSH0 DUP4 ADD MSTORE PUSH2 0x2E34 DUP2 PUSH2 0x2DFB JUMP JUMPDEST SWAP1 POP SWAP2 SWAP1 POP JUMP JUMPDEST PUSH0 DUP2 SWAP1 POP SWAP2 SWAP1 POP JUMP JUMPDEST PUSH0 PUSH8 0xFFFFFFFFFFFFFFFF DUP3 AND SWAP1 POP SWAP2 SWAP1 POP JUMP JUMPDEST PUSH0 DUP2 SWAP1 POP SWAP2 SWAP1 POP JUMP JUMPDEST PUSH0 PUSH2 0x2E7A PUSH2 0x2E75 PUSH2 0x2E70 DUP5 PUSH2 0x2E3B JUMP JUMPDEST PUSH2 0x2E57 JUMP JUMPDEST PUSH2 0x2E44 JUMP JUMPDEST SWAP1 POP SWAP2 SWAP1 POP JUMP JUMPDEST PUSH2 0x2E8A DUP2 PUSH2 0x2E60 JUMP JUMPDEST DUP3 MSTORE POP POP JUMP JUMPDEST PUSH0 PUSH1 0x20 DUP3 ADD SWAP1 POP PUSH2 0x2EA3 PUSH0 DUP4 ADD DUP5 PUSH2 0x2E81 JUMP JUMPDEST SWAP3 SWAP2 POP POP JUMP JUMPDEST PUSH32 0x46726F6D20616464726573732063616E6E6F74206265207A65726F0000000000 PUSH0 DUP3 ADD MSTORE POP JUMP JUMPDEST PUSH0 PUSH2 0x2EDD PUSH1 0x1B DUP4 PUSH2 0x2711 JUMP JUMPDEST SWAP2 POP PUSH2 0x2EE8 DUP3 PUSH2 0x2EA9 JUMP JUMPDEST PUSH1 0x20 DUP3 ADD SWAP1 POP SWAP2 SWAP1 POP JUMP JUMPDEST PUSH0 PUSH1 0x20 DUP3 ADD SWAP1 POP DUP2 DUP2 SUB PUSH0 DUP4 ADD MSTORE PUSH2 0x2F0A DUP2 PUSH2 0x2ED1 JUMP JUMPDEST SWAP1 POP SWAP2 SWAP1 POP JUMP JUMPDEST PUSH32 0x496E73756666696369656E7420616C6C6F77616E636500000000000000000000 PUSH0 DUP3 ADD MSTORE POP JUMP JUMPDEST PUSH0 PUSH2 0x2F45 PUSH1 0x16 DUP4 PUSH2 0x2711 JUMP JUMPDEST SWAP2 POP PUSH2 0x2F50 DUP3 PUSH2 0x2F11 JUMP JUMPDEST PUSH1 0x20 DUP3 ADD SWAP1 POP SWAP2 SWAP1 POP JUMP JUMPDEST PUSH0 PUSH1 0x20 DUP3 ADD SWAP1 POP DUP2 DUP2 SUB PUSH0 DUP4 ADD MSTORE PUSH2 0x2F72 DUP2 PUSH2 0x2F39 JUMP JUMPDEST SWAP1 POP SWAP2 SWAP1 POP JUMP JUMPDEST PUSH2 0x2F82 DUP2 PUSH2 0x2787 JUMP JUMPDEST DUP3 MSTORE POP POP JUMP JUMPDEST PUSH0 PUSH2 0x100 DUP3 ADD SWAP1 POP PUSH2 0x2F9C PUSH0 DUP4 ADD DUP12 PUSH2 0x26DF JUMP JUMPDEST PUSH2 0x2FA9 PUSH1 0x20 DUP4 ADD DUP11 PUSH2 0x26DF JUMP JUMPDEST PUSH2 0x2FB6 PUSH1 0x40 DUP4 ADD DUP10 PUSH2 0x2361 JUMP JUMPDEST PUSH2 0x2FC3 PUSH1 0x60 DUP4 ADD DUP9 PUSH2 0x2361 JUMP JUMPDEST PUSH2 0x2FD0 PUSH1 0x80 DUP4 ADD DUP8 PUSH2 0x2F79 JUMP JUMPDEST PUSH2 0x2FDD PUSH1 0xA0 DUP4 ADD DUP7 PUSH2 0x2A65 JUMP JUMPDEST PUSH2 0x2FEA PUSH1 0xC0 DUP4 ADD DUP6 PUSH2 0x26B7 JUMP JUMPDEST PUSH2 0x2FF7 PUSH1 0xE0 DUP4 ADD DUP5 PUSH2 0x26B7 JUMP JUMPDEST SWAP10 SWAP9 POP POP POP POP POP POP POP POP POP JUMP JUMPDEST PUSH32 0x444149207065726D6974206661696C6564000000000000000000000000000000 PUSH0 DUP3 ADD MSTORE POP JUMP JUMPDEST PUSH0 PUSH2 0x3038 PUSH1 0x11 DUP4 PUSH2 0x2711 JUMP JUMPDEST SWAP2 POP PUSH2 0x3043 DUP3 PUSH2 0x3004 JUMP JUMPDEST PUSH1 0x20 DUP3 ADD SWAP1 POP SWAP2 SWAP1 POP JUMP JUMPDEST PUSH0 PUSH1 0x20 DUP3 ADD SWAP1 POP DUP2 DUP2 SUB PUSH0 DUP4 ADD MSTORE PUSH2 0x3065 DUP2 PUSH2 0x302C JUMP JUMPDEST SWAP1 POP SWAP2 SWAP1 POP JUMP JUMPDEST PUSH0 DUP2 MLOAD SWAP1 POP PUSH2 0x307A DUP2 PUSH2 0x23F2 JUMP JUMPDEST SWAP3 SWAP2 POP POP JUMP JUMPDEST PUSH0 PUSH1 0x20 DUP3 DUP5 SUB SLT ISZERO PUSH2 0x3095 JUMPI PUSH2 0x3094 PUSH2 0x22CB JUMP JUMPDEST JUMPDEST PUSH0 PUSH2 0x30A2 DUP5 DUP3 DUP6 ADD PUSH2 0x306C JUMP JUMPDEST SWAP2 POP POP SWAP3 SWAP2 POP POP JUMP INVALID LOG2 PUSH5 0x6970667358 0x22 SLT KECCAK256 PUSH15 0x661AFAD1E2790D63CCB5079001C137 PUSH11 0xA52A2F7DAEBD96B08DB2DF DUP9 0x2A 0xC5 PREVRANDAO PUSH5 0x736F6C6343 STOP ADDMOD 0x1E STOP CALLER "
				},
				"gasEstimates": {
					"creation": {
						"codeDepositCost": "2502600",
						"executionCost": "infinite",
						"totalCost": "infinite"
					},
					"external": {
						"UPGRADE_INTERFACE_VERSION()": "infinite",
						"depositUSDT(address,uint256)": "infinite",
						"depositWithDAIPermit(address,uint256,uint256,uint256,bool,uint8,bytes32,bytes32)": "infinite",
						"depositWithPermit(address,uint256,uint256,uint8,bytes32,bytes32)": "infinite",
						"getUSDTAddress()": "2559",
						"getUSDTBalance()": "infinite",
						"getUserAllowance(address)": "infinite",
						"initialize(address,address)": "infinite",
						"owner()": "2633",
						"proxiableUUID()": "infinite",
						"renounceOwnership()": "infinite",
						"transferOwnership(address)": "infinite",
						"upgradeToAndCall(address,bytes)": "infinite",
						"usdtToken()": "2529",
						"withdrawUSDT(address,uint256)": "infinite"
					},
					"internal": {
						"_authorizeUpgrade(address)": "infinite"
					}
				},
				"methodIdentifiers": {
					"UPGRADE_INTERFACE_VERSION()": "ad3cb1cc",
					"depositUSDT(address,uint256)": "7ca32fcc",
					"depositWithDAIPermit(address,uint256,uint256,uint256,bool,uint8,bytes32,bytes32)": "c3881a04",
					"depositWithPermit(address,uint256,uint256,uint8,bytes32,bytes32)": "12a62cff",
					"getUSDTAddress()": "8af3c40e",
					"getUSDTBalance()": "9785fac8",
					"getUserAllowance(address)": "0c6ddc0d",
					"initialize(address,address)": "485cc955",
					"owner()": "8da5cb5b",
					"proxiableUUID()": "52d1902d",
					"renounceOwnership()": "715018a6",
					"transferOwnership(address)": "f2fde38b",
					"upgradeToAndCall(address,bytes)": "4f1ef286",
					"usdtToken()": "a98ad46c",
					"withdrawUSDT(address,uint256)": "1481794e"
				}
			},
			"storageLayout": {
				"storage": [
					{
						"astId": 1445,
						"contract": "contracts/USDTProxyUpgradeable.sol:USDTProxyUpgradeable",
						"label": "usdtToken",
						"offset": 0,
						"slot": "0",
						"type": "t_address"
					}
				],
				"types": {
					"t_address": {
						"encoding": "inplace",
						"label": "address",
						"numberOfBytes": "20"
					}
				}
			},
			"userdoc": {
				"kind": "user",
				"methods": {},
				"notice": "可升级版本，功能与 USDTProxy_Simple 一致，新增 UUPS 升级能力。         使用低级调用兼容不同 USDT 实现（EIP-20 / 2612 / DAI-Permit）。",
				"version": 1
			}
		}
	}
}